{
  "contractName": "Deployer",
  "abi": [
    {
      "constant": false,
      "inputs": [],
      "name": "unpause",
      "outputs": [],
      "payable": false,
      "stateMutability": "nonpayable",
      "type": "function"
    },
    {
      "constant": true,
      "inputs": [
        {
          "name": "account",
          "type": "address"
        }
      ],
      "name": "isPauser",
      "outputs": [
        {
          "name": "",
          "type": "bool"
        }
      ],
      "payable": false,
      "stateMutability": "view",
      "type": "function"
    },
    {
      "constant": true,
      "inputs": [],
      "name": "version",
      "outputs": [
        {
          "name": "",
          "type": "uint8"
        }
      ],
      "payable": false,
      "stateMutability": "view",
      "type": "function"
    },
    {
      "constant": true,
      "inputs": [],
      "name": "paused",
      "outputs": [
        {
          "name": "",
          "type": "bool"
        }
      ],
      "payable": false,
      "stateMutability": "view",
      "type": "function"
    },
    {
      "constant": false,
      "inputs": [],
      "name": "renouncePauser",
      "outputs": [],
      "payable": false,
      "stateMutability": "nonpayable",
      "type": "function"
    },
    {
      "constant": false,
      "inputs": [
        {
          "name": "account",
          "type": "address"
        }
      ],
      "name": "addPauser",
      "outputs": [],
      "payable": false,
      "stateMutability": "nonpayable",
      "type": "function"
    },
    {
      "constant": false,
      "inputs": [],
      "name": "pause",
      "outputs": [],
      "payable": false,
      "stateMutability": "nonpayable",
      "type": "function"
    },
    {
      "inputs": [],
      "payable": false,
      "stateMutability": "nonpayable",
      "type": "constructor"
    },
    {
      "anonymous": false,
      "inputs": [
        {
          "indexed": false,
          "name": "contractType",
          "type": "string"
        },
        {
          "indexed": true,
          "name": "contractAddress",
          "type": "address"
        },
        {
          "indexed": true,
          "name": "creator",
          "type": "address"
        }
      ],
      "name": "ContractDeployed",
      "type": "event"
    },
    {
      "anonymous": false,
      "inputs": [
        {
          "indexed": false,
          "name": "account",
          "type": "address"
        }
      ],
      "name": "Paused",
      "type": "event"
    },
    {
      "anonymous": false,
      "inputs": [
        {
          "indexed": false,
          "name": "account",
          "type": "address"
        }
      ],
      "name": "Unpaused",
      "type": "event"
    },
    {
      "anonymous": false,
      "inputs": [
        {
          "indexed": true,
          "name": "account",
          "type": "address"
        }
      ],
      "name": "PauserAdded",
      "type": "event"
    },
    {
      "anonymous": false,
      "inputs": [
        {
          "indexed": true,
          "name": "account",
          "type": "address"
        }
      ],
      "name": "PauserRemoved",
      "type": "event"
    },
    {
      "constant": false,
      "inputs": [
        {
          "name": "_waitTime",
          "type": "uint256"
        }
      ],
      "name": "deployWill",
      "outputs": [],
      "payable": false,
      "stateMutability": "nonpayable",
      "type": "function"
    },
    {
      "constant": false,
      "inputs": [],
      "name": "deployWallet",
      "outputs": [],
      "payable": false,
      "stateMutability": "nonpayable",
      "type": "function"
    },
    {
      "constant": false,
      "inputs": [
        {
          "name": "_waitTime",
          "type": "uint256"
        }
      ],
      "name": "deployWillWallet",
      "outputs": [],
      "payable": false,
      "stateMutability": "nonpayable",
      "type": "function"
    }
  ],
  "bytecode": "0x608060405234801561001057600080fd5b5061002d61002261004d60201b60201c565b61005560201b60201c565b6000600160006101000a81548160ff021916908315150217905550610273565b600033905090565b61006d8160006100b360201b610f991790919060201c565b8073ffffffffffffffffffffffffffffffffffffffff167f6719d08c1888103bea251a4ed56406bd0c3e69723c8a1686e017e7bbe159b6f860405160405180910390a250565b6100c3828261019460201b60201c565b15610136576040517f08c379a000000000000000000000000000000000000000000000000000000000815260040180806020018281038252601f8152602001807f526f6c65733a206163636f756e7420616c72656164792068617320726f6c650081525060200191505060405180910390fd5b60018260000160008373ffffffffffffffffffffffffffffffffffffffff1673ffffffffffffffffffffffffffffffffffffffff16815260200190815260200160002060006101000a81548160ff0219169083151502179055505050565b60008073ffffffffffffffffffffffffffffffffffffffff168273ffffffffffffffffffffffffffffffffffffffff16141561021c576040517f08c379a000000000000000000000000000000000000000000000000000000000815260040180806020018281038252602281526020018062006e676022913960400191505060405180910390fd5b8260000160008373ffffffffffffffffffffffffffffffffffffffff1673ffffffffffffffffffffffffffffffffffffffff16815260200190815260200160002060009054906101000a900460ff16905092915050565b616be480620002836000396000f3fe608060405234801561001057600080fd5b506004361061009e5760003560e01c80635c975abb116100665780635c975abb1461016557806367d520bb146101875780636ef8d66d146101b557806382dc1ec4146101bf5780638456cb59146102035761009e565b80633d614def146100a35780633f4ba83a146100d157806346fbf68e146100db57806353535db91461013757806354fd4d5014610141575b600080fd5b6100cf600480360360208110156100b957600080fd5b810190808035906020019092919050505061020d565b005b6100d96103c0565b005b61011d600480360360208110156100f157600080fd5b81019080803573ffffffffffffffffffffffffffffffffffffffff16906020019092919050505061052f565b604051808215151515815260200191505060405180910390f35b61013f61054c565b005b61014961071b565b604051808260ff1660ff16815260200191505060405180910390f35b61016d610720565b604051808215151515815260200191505060405180910390f35b6101b36004803603602081101561019d57600080fd5b8101908080359060200190929190505050610737565b005b6101bd610906565b005b610201600480360360208110156101d557600080fd5b81019080803573ffffffffffffffffffffffffffffffffffffffff169060200190929190505050610918565b005b61020b61098a565b005b600160009054906101000a900460ff1615610290576040517f08c379a00000000000000000000000000000000000000000000000000000000081526004018080602001828103825260108152602001807f5061757361626c653a207061757365640000000000000000000000000000000081525060200191505060405180910390fd5b600061029d600283610af9565b9050600073ffffffffffffffffffffffffffffffffffffffff168173ffffffffffffffffffffffffffffffffffffffff161415610326576040517f08c379a000000000000000000000000000000000000000000000000000000000815260040180806020018281038252602381526020018062006b4a6023913960400191505060405180910390fd5b3373ffffffffffffffffffffffffffffffffffffffff168173ffffffffffffffffffffffffffffffffffffffff167f83a465d786f75fe59853d884cce44735e6f4ec345a502886194f09a87253d67d60405180806020018281038252600a8152602001807f77696c6c77616c6c65740000000000000000000000000000000000000000000081525060200191505060405180910390a35050565b6103d06103cb610c4b565b61052f565b610426576040517f08c379a000000000000000000000000000000000000000000000000000000000815260040180806020018281038252603081526020018062006b1a6030913960400191505060405180910390fd5b600160009054906101000a900460ff166104a8576040517f08c379a00000000000000000000000000000000000000000000000000000000081526004018080602001828103825260148152602001807f5061757361626c653a206e6f742070617573656400000000000000000000000081525060200191505060405180910390fd5b6000600160006101000a81548160ff0219169083151502179055507f5db9ee0a495bf2e6ff9c91a7834c1ba4fdd244a5e8aa4e537bd38aeae4b073aa6104ec610c4b565b604051808273ffffffffffffffffffffffffffffffffffffffff1673ffffffffffffffffffffffffffffffffffffffff16815260200191505060405180910390a1565b6000610545826000610c5390919063ffffffff16565b9050919050565b600160009054906101000a900460ff16156105cf576040517f08c379a00000000000000000000000000000000000000000000000000000000081526004018080602001828103825260108152602001807f5061757361626c653a207061757365640000000000000000000000000000000081525060200191505060405180910390fd5b60006105dd60016000610af9565b9050600073ffffffffffffffffffffffffffffffffffffffff168173ffffffffffffffffffffffffffffffffffffffff161415610682576040517f08c379a000000000000000000000000000000000000000000000000000000000815260040180806020018281038252601f8152602001807f57616c6c6574206e6f74207375636365737366756c6c206465706c6f7965640081525060200191505060405180910390fd5b3373ffffffffffffffffffffffffffffffffffffffff168173ffffffffffffffffffffffffffffffffffffffff167f83a465d786f75fe59853d884cce44735e6f4ec345a502886194f09a87253d67d6040518080602001828103825260068152602001807f77616c6c6574000000000000000000000000000000000000000000000000000081525060200191505060405180910390a350565b600181565b6000600160009054906101000a900460ff16905090565b600160009054906101000a900460ff16156107ba576040517f08c379a00000000000000000000000000000000000000000000000000000000081526004018080602001828103825260108152602001807f5061757361626c653a207061757365640000000000000000000000000000000081525060200191505060405180910390fd5b60006107c7600083610af9565b9050600073ffffffffffffffffffffffffffffffffffffffff168173ffffffffffffffffffffffffffffffffffffffff16141561086c576040517f08c379a000000000000000000000000000000000000000000000000000000000815260040180806020018281038252601d8152602001807f57696c6c206e6f74207375636365737366756c6c206465706c6f79656400000081525060200191505060405180910390fd5b3373ffffffffffffffffffffffffffffffffffffffff168173ffffffffffffffffffffffffffffffffffffffff167f83a465d786f75fe59853d884cce44735e6f4ec345a502886194f09a87253d67d6040518080602001828103825260048152602001807f77696c6c0000000000000000000000000000000000000000000000000000000081525060200191505060405180910390a35050565b610916610911610c4b565b610d32565b565b610928610923610c4b565b61052f565b61097e576040517f08c379a000000000000000000000000000000000000000000000000000000000815260040180806020018281038252603081526020018062006b1a6030913960400191505060405180910390fd5b61098781610d8c565b50565b61099a610995610c4b565b61052f565b6109f0576040517f08c379a000000000000000000000000000000000000000000000000000000000815260040180806020018281038252603081526020018062006b1a6030913960400191505060405180910390fd5b600160009054906101000a900460ff1615610a73576040517f08c379a00000000000000000000000000000000000000000000000000000000081526004018080602001828103825260108152602001807f5061757361626c653a207061757365640000000000000000000000000000000081525060200191505060405180910390fd5b60018060006101000a81548160ff0219169083151502179055507f62e78cea01bee320cd4e420270b5ea74000d11b0c9f74754ebdbfc544b05a258610ab6610c4b565b604051808273ffffffffffffffffffffffffffffffffffffffff1673ffffffffffffffffffffffffffffffffffffffff16815260200191505060405180910390a1565b6000806002811115610b0757fe5b836002811115610b1357fe5b1415610b545781604051610b2690611074565b80828152602001915050604051809103906000f080158015610b4c573d6000803e3d6000fd5b509050610bfd565b60016002811115610b6157fe5b836002811115610b6d57fe5b1415610ba357604051610b7f90611082565b604051809103906000f080158015610b9b573d6000803e3d6000fd5b509050610bfc565b600280811115610baf57fe5b836002811115610bbb57fe5b1415610bfb57600082604051610bd090611090565b80828152602001915050604051809103906000f080158015610bf6573d6000803e3d6000fd5b509050505b5b5b600073ffffffffffffffffffffffffffffffffffffffff168173ffffffffffffffffffffffffffffffffffffffff1614610c4557610c3b8133610de6565b610c4481610e81565b5b92915050565b600033905090565b60008073ffffffffffffffffffffffffffffffffffffffff168273ffffffffffffffffffffffffffffffffffffffff161415610cdb576040517f08c379a000000000000000000000000000000000000000000000000000000000815260040180806020018281038252602281526020018062006b8e6022913960400191505060405180910390fd5b8260000160008373ffffffffffffffffffffffffffffffffffffffff1673ffffffffffffffffffffffffffffffffffffffff16815260200190815260200160002060009054906101000a900460ff16905092915050565b610d46816000610edb90919063ffffffff16565b8073ffffffffffffffffffffffffffffffffffffffff167fcd265ebaf09df2871cc7bd4133404a235ba12eff2041bb89d9c714a2621c7c7e60405160405180910390a250565b610da0816000610f9990919063ffffffff16565b8073ffffffffffffffffffffffffffffffffffffffff167f6719d08c1888103bea251a4ed56406bd0c3e69723c8a1686e017e7bbe159b6f860405160405180910390a250565b8173ffffffffffffffffffffffffffffffffffffffff1663f2fde38b826040518263ffffffff1660e01b8152600401808273ffffffffffffffffffffffffffffffffffffffff1673ffffffffffffffffffffffffffffffffffffffff168152602001915050600060405180830381600087803b158015610e6557600080fd5b505af1158015610e79573d6000803e3d6000fd5b505050505050565b6000341115610ed85760008190508073ffffffffffffffffffffffffffffffffffffffff166108fc349081150290604051600060405180830381858888f19350505050158015610ed5573d6000803e3d6000fd5b50505b50565b610ee58282610c53565b610f3b576040517f08c379a000000000000000000000000000000000000000000000000000000000815260040180806020018281038252602181526020018062006b6d6021913960400191505060405180910390fd5b60008260000160008373ffffffffffffffffffffffffffffffffffffffff1673ffffffffffffffffffffffffffffffffffffffff16815260200190815260200160002060006101000a81548160ff0219169083151502179055505050565b610fa38282610c53565b15611016576040517f08c379a000000000000000000000000000000000000000000000000000000000815260040180806020018281038252601f8152602001807f526f6c65733a206163636f756e7420616c72656164792068617320726f6c650081525060200191505060405180910390fd5b60018260000160008373ffffffffffffffffffffffffffffffffffffffff1673ffffffffffffffffffffffffffffffffffffffff16815260200190815260200160002060006101000a81548160ff0219169083151502179055505050565b61265f806200109f83390190565b610a5380620036fe83390190565b6129c980620041518339019056fe608060405234801561001057600080fd5b5060405161265f38038061265f8339818101604052602081101561003357600080fd5b810190808051906020019092919050505061005261018760201b60201c565b6000806101000a81548173ffffffffffffffffffffffffffffffffffffffff021916908373ffffffffffffffffffffffffffffffffffffffff1602179055506000809054906101000a900473ffffffffffffffffffffffffffffffffffffffff1673ffffffffffffffffffffffffffffffffffffffff16600073ffffffffffffffffffffffffffffffffffffffff167f8be0079c531659141344cd1fd0a4f28419497f9722a3daafe3b4186f6b6457e060405160405180910390a360033390806001815401808255809150509060018203906000526020600020016000909192909190916101000a81548173ffffffffffffffffffffffffffffffffffffffff021916908373ffffffffffffffffffffffffffffffffffffffff1602179055505080600181905550426002819055505061018f565b600033905090565b6124c18061019e6000396000f3fe6080604052600436106101355760003560e01c8063aa13e8c2116100ab578063d01a69c91161006f578063d01a69c9146105e5578063d39e6bb114610610578063dabc57d91461069c578063e7caed9114610701578063f2fde38b14610723578063fcb9b5051461077457610135565b8063aa13e8c2146104e4578063b756feff1461050f578063b815b30014610526578063b914d90814610555578063c2ff5012146105ba57610135565b806367e74005116100fd57806367e74005146102e5578063715018a6146103b35780638da5cb5b146103ca5780638f32d59b146104215780638f71a265146104505780639d19b2261461047b57610135565b806310812a7d146101c2578063282f7cdd146101f157806353bda15b1461022057806354fd4d501461024b57806359633a1c1461027c575b61013d6107e7565b73ffffffffffffffffffffffffffffffffffffffff163373ffffffffffffffffffffffffffffffffffffffff1614801561018a575060001515600060149054906101000a900460ff161515145b1561019d57610197610810565b506101c0565b6000341480156101b157506101b0610906565b5b156101bf576101be610927565b5b5b005b3480156101ce57600080fd5b506101d7610c8c565b604051808215151515815260200191505060405180910390f35b3480156101fd57600080fd5b50610206610906565b604051808215151515815260200191505060405180910390f35b34801561022c57600080fd5b50610235610c9f565b6040518082815260200191505060405180910390f35b34801561025757600080fd5b50610260610ca4565b604051808260ff1660ff16815260200191505060405180910390f35b34801561028857600080fd5b506102cb6004803603602081101561029f57600080fd5b81019080803573ffffffffffffffffffffffffffffffffffffffff169060200190929190505050610ca9565b604051808215151515815260200191505060405180910390f35b3480156102f157600080fd5b50610399600480360361028081101561030957600080fd5b81019080806101400190600a806020026040519081016040528092919082600a60200280828437600081840152601f19601f8201169050808301925050505050509192919290806101400190600a806020026040519081016040528092919082600a60200280828437600081840152601f19601f820116905080830192505050505050919291929050505061114c565b604051808215151515815260200191505060405180910390f35b3480156103bf57600080fd5b506103c861125f565b005b3480156103d657600080fd5b506103df6107e7565b604051808273ffffffffffffffffffffffffffffffffffffffff1673ffffffffffffffffffffffffffffffffffffffff16815260200191505060405180910390f35b34801561042d57600080fd5b50610436611398565b604051808215151515815260200191505060405180910390f35b34801561045c57600080fd5b506104656113f6565b6040518082815260200191505060405180910390f35b34801561048757600080fd5b506104ca6004803603602081101561049e57600080fd5b81019080803573ffffffffffffffffffffffffffffffffffffffff1690602001909291905050506113fc565b604051808215151515815260200191505060405180910390f35b3480156104f057600080fd5b506104f9611447565b6040518082815260200191505060405180910390f35b34801561051b57600080fd5b50610524610927565b005b34801561053257600080fd5b5061053b61144d565b604051808215151515815260200191505060405180910390f35b34801561056157600080fd5b506105a46004803603602081101561057857600080fd5b81019080803573ffffffffffffffffffffffffffffffffffffffff169060200190929190505050611460565b6040518082815260200191505060405180910390f35b3480156105c657600080fd5b506105cf6114a9565b6040518082815260200191505060405180910390f35b3480156105f157600080fd5b506105fa61155a565b6040518082815260200191505060405180910390f35b34801561061c57600080fd5b50610682600480360361014081101561063457600080fd5b81019080806101400190600a806020026040519081016040528092919082600a60200280828437600081840152601f19601f8201169050808301925050505050509192919290505050611567565b604051808215151515815260200191505060405180910390f35b3480156106a857600080fd5b506106eb600480360360208110156106bf57600080fd5b81019080803573ffffffffffffffffffffffffffffffffffffffff169060200190929190505050611668565b6040518082815260200191505060405180910390f35b610709610810565b604051808215151515815260200191505060405180910390f35b34801561072f57600080fd5b506107726004803603602081101561074657600080fd5b81019080803573ffffffffffffffffffffffffffffffffffffffff169060200190929190505050611680565b005b34801561078057600080fd5b506107cd6004803603604081101561079757600080fd5b81019080803573ffffffffffffffffffffffffffffffffffffffff16906020019092919080359060200190929190505050611706565b604051808215151515815260200191505060405180910390f35b60008060009054906101000a900473ffffffffffffffffffffffffffffffffffffffff16905090565b600061081a611398565b61088c576040517f08c379a00000000000000000000000000000000000000000000000000000000081526004018080602001828103825260208152602001807f4f776e61626c653a2063616c6c6572206973206e6f7420746865206f776e657281525060200191505060405180910390fd5b60001515600060149054906101000a900460ff161515146108f8576040517f08c379a00000000000000000000000000000000000000000000000000000000081526004018080602001828103825260308152602001806124356030913960400191505060405180910390fd5b426002819055506001905090565b600060015461092060025442611a6190919063ffffffff16565b1015905090565b61092f610906565b610984576040517f08c379a00000000000000000000000000000000000000000000000000000000081526004018080602001828103825260238152602001806122c36023913960400191505060405180910390fd5b60001515600060159054906101000a900460ff161515146109f0576040517f08c379a000000000000000000000000000000000000000000000000000000000815260040180806020018281038252602e815260200180612407602e913960400191505060405180910390fd5b6001600060156101000a81548160ff021916908315150217905550600080905060003073ffffffffffffffffffffffffffffffffffffffff163190506000610a366114a9565b90506001600060146101000a81548160ff02191690831515021790555060016003805490501115610bd1576000600190505b600380549050811015610bcf57610ab760038281548110610a8557fe5b9060005260206000200160009054906101000a900473ffffffffffffffffffffffffffffffffffffffff168484611aab565b9350600060038281548110610ac857fe5b9060005260206000200160009054906101000a900473ffffffffffffffffffffffffffffffffffffffff1690508073ffffffffffffffffffffffffffffffffffffffff166108fc869081150290604051600060405180830381858888f19350505050158015610b3b573d6000803e3d6000fd5b5060038281548110610b4957fe5b9060005260206000200160009054906101000a900473ffffffffffffffffffffffffffffffffffffffff1673ffffffffffffffffffffffffffffffffffffffff167f3b523f60e6edf0c2a9c8f03655abbd5e5ea4a5164318e6dd820b253d44b01ac8866040518082815260200191505060405180910390a2508080600101915050610a68565b505b60006003600081548110610be157fe5b9060005260206000200160009054906101000a900473ffffffffffffffffffffffffffffffffffffffff1690508073ffffffffffffffffffffffffffffffffffffffff166108fc3073ffffffffffffffffffffffffffffffffffffffff16319081150290604051600060405180830381858888f19350505050158015610c6b573d6000803e3d6000fd5b5060008060156101000a81548160ff02191690831515021790555050505050565b600060149054906101000a900460ff1681565b600a81565b600181565b6000610cb3611398565b610d25576040517f08c379a00000000000000000000000000000000000000000000000000000000081526004018080602001828103825260208152602001807f4f776e61626c653a2063616c6c6572206973206e6f7420746865206f776e657281525060200191505060405180910390fd5b600073ffffffffffffffffffffffffffffffffffffffff168273ffffffffffffffffffffffffffffffffffffffff161415610dab576040517f08c379a000000000000000000000000000000000000000000000000000000000815260040180806020018281038252602781526020018061232d6027913960400191505060405180910390fd5b610db3610906565b15610e09576040517f08c379a00000000000000000000000000000000000000000000000000000000081526004018080602001828103825260338152602001806123a46033913960400191505060405180910390fd5b6000610e1483611460565b90508273ffffffffffffffffffffffffffffffffffffffff1660038281548110610e3a57fe5b9060005260206000200160009054906101000a900473ffffffffffffffffffffffffffffffffffffffff1673ffffffffffffffffffffffffffffffffffffffff1614610e8257fe5b6000811415610edc576040517f08c379a000000000000000000000000000000000000000000000000000000000815260040180806020018281038252602f815260200180612354602f913960400191505060405180910390fd5b610ee4610810565b50600460008473ffffffffffffffffffffffffffffffffffffffff1673ffffffffffffffffffffffffffffffffffffffff16815260200190815260200160002060009055600560008473ffffffffffffffffffffffffffffffffffffffff1673ffffffffffffffffffffffffffffffffffffffff168152602001908152602001600020600090556003610f866001600380549050611a6190919063ffffffff16565b81548110610f9057fe5b9060005260206000200160009054906101000a900473ffffffffffffffffffffffffffffffffffffffff1660038281548110610fc857fe5b9060005260206000200160006101000a81548173ffffffffffffffffffffffffffffffffffffffff021916908373ffffffffffffffffffffffffffffffffffffffff16021790555080600560006003848154811061102257fe5b9060005260206000200160009054906101000a900473ffffffffffffffffffffffffffffffffffffffff1673ffffffffffffffffffffffffffffffffffffffff1673ffffffffffffffffffffffffffffffffffffffff1681526020019081526020016000208190555060036110a66001600380549050611a6190919063ffffffff16565b815481106110b057fe5b9060005260206000200160006101000a81549073ffffffffffffffffffffffffffffffffffffffff021916905560038054809190600190036110f29190612271565b508273ffffffffffffffffffffffffffffffffffffffff167f73d60fa978f046c1ccf0f85c6247b34d322ad63d5184881ef2f10bf3c70dde2160006040518082815260200191505060405180910390a26001915050919050565b6000611156611398565b6111c8576040517f08c379a00000000000000000000000000000000000000000000000000000000081526004018080602001828103825260208152602001807f4f776e61626c653a2063616c6c6572206973206e6f7420746865206f776e657281525060200191505060405180910390fd5b60008090505b600a81101561125457600073ffffffffffffffffffffffffffffffffffffffff168482600a81106111fb57fe5b602002015173ffffffffffffffffffffffffffffffffffffffff1614611247576112458482600a811061122a57fe5b60200201518483600a811061123b57fe5b6020020151611706565b505b80806001019150506111ce565b506001905092915050565b611267611398565b6112d9576040517f08c379a00000000000000000000000000000000000000000000000000000000081526004018080602001828103825260208152602001807f4f776e61626c653a2063616c6c6572206973206e6f7420746865206f776e657281525060200191505060405180910390fd5b600073ffffffffffffffffffffffffffffffffffffffff166000809054906101000a900473ffffffffffffffffffffffffffffffffffffffff1673ffffffffffffffffffffffffffffffffffffffff167f8be0079c531659141344cd1fd0a4f28419497f9722a3daafe3b4186f6b6457e060405160405180910390a360008060006101000a81548173ffffffffffffffffffffffffffffffffffffffff021916908373ffffffffffffffffffffffffffffffffffffffff160217905550565b60008060009054906101000a900473ffffffffffffffffffffffffffffffffffffffff1673ffffffffffffffffffffffffffffffffffffffff166113da611b1a565b73ffffffffffffffffffffffffffffffffffffffff1614905090565b60025481565b600080600460008473ffffffffffffffffffffffffffffffffffffffff1673ffffffffffffffffffffffffffffffffffffffff16815260200190815260200160002054119050919050565b60015481565b600060159054906101000a900460ff1681565b6000600560008373ffffffffffffffffffffffffffffffffffffffff1673ffffffffffffffffffffffffffffffffffffffff168152602001908152602001600020549050919050565b600080600190505b6003805490508110156115565761154760046000600384815481106114d257fe5b9060005260206000200160009054906101000a900473ffffffffffffffffffffffffffffffffffffffff1673ffffffffffffffffffffffffffffffffffffffff1673ffffffffffffffffffffffffffffffffffffffff1681526020019081526020016000205483611b2290919063ffffffff16565b915080806001019150506114b1565b5090565b6000600380549050905090565b6000611571611398565b6115e3576040517f08c379a00000000000000000000000000000000000000000000000000000000081526004018080602001828103825260208152602001807f4f776e61626c653a2063616c6c6572206973206e6f7420746865206f776e657281525060200191505060405180910390fd5b60008090505b600a81101561165e57600073ffffffffffffffffffffffffffffffffffffffff168382600a811061161657fe5b602002015173ffffffffffffffffffffffffffffffffffffffff16146116515761164f8382600a811061164557fe5b6020020151610ca9565b505b80806001019150506115e9565b5060019050919050565b60046020528060005260406000206000915090505481565b611688611398565b6116fa576040517f08c379a00000000000000000000000000000000000000000000000000000000081526004018080602001828103825260208152602001807f4f776e61626c653a2063616c6c6572206973206e6f7420746865206f776e657281525060200191505060405180910390fd5b61170381611baa565b50565b6000611710611398565b611782576040517f08c379a00000000000000000000000000000000000000000000000000000000081526004018080602001828103825260208152602001807f4f776e61626c653a2063616c6c6572206973206e6f7420746865206f776e657281525060200191505060405180910390fd5b600073ffffffffffffffffffffffffffffffffffffffff168373ffffffffffffffffffffffffffffffffffffffff161415611825576040517f08c379a000000000000000000000000000000000000000000000000000000000815260040180806020018281038252601b8152602001807f5f62656e65666963696172792063616e6e6f74206265205a65726f000000000081525060200191505060405180910390fd5b600360008154811061183357fe5b9060005260206000200160009054906101000a900473ffffffffffffffffffffffffffffffffffffffff1673ffffffffffffffffffffffffffffffffffffffff168373ffffffffffffffffffffffffffffffffffffffff1614156118e2576040517f08c379a00000000000000000000000000000000000000000000000000000000081526004018080602001828103825260288152602001806124656028913960400191505060405180910390fd5b6000821161193b576040517f08c379a00000000000000000000000000000000000000000000000000000000081526004018080602001828103825260218152602001806122e66021913960400191505060405180910390fd5b611943610906565b15611999576040517f08c379a00000000000000000000000000000000000000000000000000000000081526004018080602001828103825260338152602001806123a46033913960400191505060405180910390fd5b60006119a484611460565b14156119bb576119b48383611cee565b9050611a5b565b6119c3610810565b5081600460008573ffffffffffffffffffffffffffffffffffffffff1673ffffffffffffffffffffffffffffffffffffffff168152602001908152602001600020819055508273ffffffffffffffffffffffffffffffffffffffff167f73d60fa978f046c1ccf0f85c6247b34d322ad63d5184881ef2f10bf3c70dde21836040518082815260200191505060405180910390a2600190505b92915050565b6000611aa383836040518060400160405280601e81526020017f536166654d6174683a207375627472616374696f6e206f766572666c6f77000081525061201b565b905092915050565b6000611b1182611b03600460008873ffffffffffffffffffffffffffffffffffffffff1673ffffffffffffffffffffffffffffffffffffffff16815260200190815260200160002054866120db90919063ffffffff16565b61216190919063ffffffff16565b90509392505050565b600033905090565b600080828401905083811015611ba0576040517f08c379a000000000000000000000000000000000000000000000000000000000815260040180806020018281038252601b8152602001807f536166654d6174683a206164646974696f6e206f766572666c6f77000000000081525060200191505060405180910390fd5b8091505092915050565b600073ffffffffffffffffffffffffffffffffffffffff168173ffffffffffffffffffffffffffffffffffffffff161415611c30576040517f08c379a00000000000000000000000000000000000000000000000000000000081526004018080602001828103825260268152602001806123076026913960400191505060405180910390fd5b8073ffffffffffffffffffffffffffffffffffffffff166000809054906101000a900473ffffffffffffffffffffffffffffffffffffffff1673ffffffffffffffffffffffffffffffffffffffff167f8be0079c531659141344cd1fd0a4f28419497f9722a3daafe3b4186f6b6457e060405160405180910390a3806000806101000a81548173ffffffffffffffffffffffffffffffffffffffff021916908373ffffffffffffffffffffffffffffffffffffffff16021790555050565b6000611cf8611398565b611d6a576040517f08c379a00000000000000000000000000000000000000000000000000000000081526004018080602001828103825260208152602001807f4f776e61626c653a2063616c6c6572206973206e6f7420746865206f776e657281525060200191505060405180910390fd5b600073ffffffffffffffffffffffffffffffffffffffff168373ffffffffffffffffffffffffffffffffffffffff161415611e0d576040517f08c379a000000000000000000000000000000000000000000000000000000000815260040180806020018281038252601b8152602001807f5f62656e65666963696172792063616e6e6f74206265205a65726f000000000081525060200191505060405180910390fd5b60008211611e66576040517f08c379a00000000000000000000000000000000000000000000000000000000081526004018080602001828103825260218152602001806122e66021913960400191505060405180910390fd5b60001515611e73846113fc565b151514611ecb576040517f08c379a00000000000000000000000000000000000000000000000000000000081526004018080602001828103825260308152602001806123d76030913960400191505060405180910390fd5b611ed3610810565b50600380549050600560008573ffffffffffffffffffffffffffffffffffffffff1673ffffffffffffffffffffffffffffffffffffffff1681526020019081526020016000208190555081600460008573ffffffffffffffffffffffffffffffffffffffff1673ffffffffffffffffffffffffffffffffffffffff1681526020019081526020016000208190555060038390806001815401808255809150509060018203906000526020600020016000909192909190916101000a81548173ffffffffffffffffffffffffffffffffffffffff021916908373ffffffffffffffffffffffffffffffffffffffff160217905550508273ffffffffffffffffffffffffffffffffffffffff167f73d60fa978f046c1ccf0f85c6247b34d322ad63d5184881ef2f10bf3c70dde21836040518082815260200191505060405180910390a292915050565b60008383111582906120c8576040517f08c379a00000000000000000000000000000000000000000000000000000000081526004018080602001828103825283818151815260200191508051906020019080838360005b8381101561208d578082015181840152602081019050612072565b50505050905090810190601f1680156120ba5780820380516001836020036101000a031916815260200191505b509250505060405180910390fd5b5060008385039050809150509392505050565b6000808314156120ee576000905061215b565b60008284029050828482816120ff57fe5b0414612156576040517f08c379a00000000000000000000000000000000000000000000000000000000081526004018080602001828103825260218152602001806123836021913960400191505060405180910390fd5b809150505b92915050565b60006121a383836040518060400160405280601a81526020017f536166654d6174683a206469766973696f6e206279207a65726f0000000000008152506121ab565b905092915050565b60008083118290612257576040517f08c379a00000000000000000000000000000000000000000000000000000000081526004018080602001828103825283818151815260200191508051906020019080838360005b8381101561221c578082015181840152602081019050612201565b50505050905090810190601f1680156122495780820380516001836020036101000a031916815260200191505b509250505060405180910390fd5b50600083858161226357fe5b049050809150509392505050565b81548183558181111561229857818360005260206000209182019101612297919061229d565b5b505050565b6122bf91905b808211156122bb5760008160009055506001016122a3565b5090565b9056fe57696c6c206973206e6f74207965742064756520666f7220646973706f736974696f6e446973706f736974696f6e206d75737420626520677265746572207468616e20304f776e61626c653a206e6577206f776e657220697320746865207a65726f206164647265737350726f7669646520612062656e6566696369617279206164647265737320746f2072656d6f7665596f752063616e206e6f742072656d6f7665207468652063726561746f7220617320612062656e6566696369617279536166654d6174683a206d756c7469706c69636174696f6e206f766572666c6f7743616e206e6f742075706461746520646973706f736974696f6e73207768656e20646973706f736974696f6e2069732044756543616e6e6f7420616464206578697374696e672062656e656669636961727920416e65772c2075736520757064617465416e20696e7374616e6365206f662064697362757273656d656e7420697320616c72656164792072756e6e696e6754696d65722063616e206e6f7420626520726573657420616674657220696e697469616c20646973706f736974696f6e43616e6e6f742075706461746520436f6e7472616374204f776e657220646973706f736974696f6ea265627a7a723058207d33620daa5cca5ff1d9bc41eb94931a9fce729c1ca6576ac5fc7d67b510a52264736f6c634300050a0032608060405234801561001057600080fd5b5061001f6100df60201b60201c565b6000806101000a81548173ffffffffffffffffffffffffffffffffffffffff021916908373ffffffffffffffffffffffffffffffffffffffff1602179055506000809054906101000a900473ffffffffffffffffffffffffffffffffffffffff1673ffffffffffffffffffffffffffffffffffffffff16600073ffffffffffffffffffffffffffffffffffffffff167f8be0079c531659141344cd1fd0a4f28419497f9722a3daafe3b4186f6b6457e060405160405180910390a36100e7565b600033905090565b61095d806100f66000396000f3fe6080604052600436106100705760003560e01c80638da5cb5b1161004e5780638da5cb5b146102235780638f32d59b1461027a578063e9bb84c2146102a9578063f2fde38b1461030f57610070565b806354fd4d501461007257806367c4719d146100a3578063715018a61461020c575b005b34801561007e57600080fd5b50610087610360565b604051808260ff1660ff16815260200191505060405180910390f35b610186600480360360608110156100b957600080fd5b81019080803573ffffffffffffffffffffffffffffffffffffffff169060200190929190803590602001909291908035906020019064010000000081111561010057600080fd5b82018360208201111561011257600080fd5b8035906020019184600183028401116401000000008311171561013457600080fd5b91908080601f016020809104026020016040519081016040528093929190818152602001838380828437600081840152601f19601f820116905080830192505050505050509192919290505050610365565b604051808315151515815260200180602001828103825283818151815260200191508051906020019080838360005b838110156101d05780820151818401526020810190506101b5565b50505050905090810190601f1680156101fd5780820380516001836020036101000a031916815260200191505b50935050505060405180910390f35b34801561021857600080fd5b506102216104a3565b005b34801561022f57600080fd5b506102386105dc565b604051808273ffffffffffffffffffffffffffffffffffffffff1673ffffffffffffffffffffffffffffffffffffffff16815260200191505060405180910390f35b34801561028657600080fd5b5061028f610605565b604051808215151515815260200191505060405180910390f35b6102f5600480360360408110156102bf57600080fd5b81019080803573ffffffffffffffffffffffffffffffffffffffff16906020019092919080359060200190929190505050610663565b604051808215151515815260200191505060405180910390f35b34801561031b57600080fd5b5061035e6004803603602081101561033257600080fd5b81019080803573ffffffffffffffffffffffffffffffffffffffff169060200190929190505050610730565b005b600181565b60006060610371610605565b6103e3576040517f08c379a00000000000000000000000000000000000000000000000000000000081526004018080602001828103825260208152602001807f4f776e61626c653a2063616c6c6572206973206e6f7420746865206f776e657281525060200191505060405180910390fd5b8473ffffffffffffffffffffffffffffffffffffffff1684846040518082805190602001908083835b6020831061042f578051825260208201915060208101905060208303925061040c565b6001836020036101000a03801982511681845116808217855250505050505090500191505060006040518083038185875af1925050503d8060008114610491576040519150601f19603f3d011682016040523d82523d6000602084013e610496565b606091505b5091509150935093915050565b6104ab610605565b61051d576040517f08c379a00000000000000000000000000000000000000000000000000000000081526004018080602001828103825260208152602001807f4f776e61626c653a2063616c6c6572206973206e6f7420746865206f776e657281525060200191505060405180910390fd5b600073ffffffffffffffffffffffffffffffffffffffff166000809054906101000a900473ffffffffffffffffffffffffffffffffffffffff1673ffffffffffffffffffffffffffffffffffffffff167f8be0079c531659141344cd1fd0a4f28419497f9722a3daafe3b4186f6b6457e060405160405180910390a360008060006101000a81548173ffffffffffffffffffffffffffffffffffffffff021916908373ffffffffffffffffffffffffffffffffffffffff160217905550565b60008060009054906101000a900473ffffffffffffffffffffffffffffffffffffffff16905090565b60008060009054906101000a900473ffffffffffffffffffffffffffffffffffffffff1673ffffffffffffffffffffffffffffffffffffffff166106476107b6565b73ffffffffffffffffffffffffffffffffffffffff1614905090565b600061066d610605565b6106df576040517f08c379a00000000000000000000000000000000000000000000000000000000081526004018080602001828103825260208152602001807f4f776e61626c653a2063616c6c6572206973206e6f7420746865206f776e657281525060200191505060405180910390fd5b8273ffffffffffffffffffffffffffffffffffffffff166108fc839081150290604051600060405180830381858888f19350505050158015610725573d6000803e3d6000fd5b506001905092915050565b610738610605565b6107aa576040517f08c379a00000000000000000000000000000000000000000000000000000000081526004018080602001828103825260208152602001807f4f776e61626c653a2063616c6c6572206973206e6f7420746865206f776e657281525060200191505060405180910390fd5b6107b3816107be565b50565b600033905090565b600073ffffffffffffffffffffffffffffffffffffffff168173ffffffffffffffffffffffffffffffffffffffff161415610844576040517f08c379a00000000000000000000000000000000000000000000000000000000081526004018080602001828103825260268152602001806109036026913960400191505060405180910390fd5b8073ffffffffffffffffffffffffffffffffffffffff166000809054906101000a900473ffffffffffffffffffffffffffffffffffffffff1673ffffffffffffffffffffffffffffffffffffffff167f8be0079c531659141344cd1fd0a4f28419497f9722a3daafe3b4186f6b6457e060405160405180910390a3806000806101000a81548173ffffffffffffffffffffffffffffffffffffffff021916908373ffffffffffffffffffffffffffffffffffffffff1602179055505056fe4f776e61626c653a206e6577206f776e657220697320746865207a65726f2061646472657373a265627a7a72305820fae8b5a83a8dd4b2eac5cead7a2d4a93d90b33fc38c770c943346ba552003b2864736f6c634300050a0032608060405234801561001057600080fd5b50604051620029c9380380620029c98339818101604052602081101561003557600080fd5b81019080805190602001909291905050508061005561018b60201b60201c565b6000806101000a81548173ffffffffffffffffffffffffffffffffffffffff021916908373ffffffffffffffffffffffffffffffffffffffff1602179055506000809054906101000a900473ffffffffffffffffffffffffffffffffffffffff1673ffffffffffffffffffffffffffffffffffffffff16600073ffffffffffffffffffffffffffffffffffffffff167f8be0079c531659141344cd1fd0a4f28419497f9722a3daafe3b4186f6b6457e060405160405180910390a360033390806001815401808255809150509060018203906000526020600020016000909192909190916101000a81548173ffffffffffffffffffffffffffffffffffffffff021916908373ffffffffffffffffffffffffffffffffffffffff1602179055505080600181905550426002819055505050610193565b600033905090565b61282680620001a36000396000f3fe60806040526004361061014b5760003560e01c8063aa13e8c2116100b6578063d39e6bb11161006f578063d39e6bb114610704578063dabc57d914610790578063e7caed91146107f5578063e9bb84c214610817578063f2fde38b1461087d578063fcb9b505146108ce5761014b565b8063aa13e8c2146105d8578063b756feff14610603578063b815b3001461061a578063b914d90814610649578063c2ff5012146106ae578063d01a69c9146106d95761014b565b806367e740051161010857806367e74005146103d9578063715018a6146104a75780638da5cb5b146104be5780638f32d59b146105155780638f71a265146105445780639d19b2261461056f5761014b565b806310812a7d1461014d578063282f7cdd1461017c57806353bda15b146101ab57806354fd4d50146101d657806359633a1c1461020757806367c4719d14610270575b005b34801561015957600080fd5b50610162610941565b604051808215151515815260200191505060405180910390f35b34801561018857600080fd5b50610191610954565b604051808215151515815260200191505060405180910390f35b3480156101b757600080fd5b506101c0610975565b6040518082815260200191505060405180910390f35b3480156101e257600080fd5b506101eb61097a565b604051808260ff1660ff16815260200191505060405180910390f35b34801561021357600080fd5b506102566004803603602081101561022a57600080fd5b81019080803573ffffffffffffffffffffffffffffffffffffffff16906020019092919050505061097f565b604051808215151515815260200191505060405180910390f35b6103536004803603606081101561028657600080fd5b81019080803573ffffffffffffffffffffffffffffffffffffffff16906020019092919080359060200190929190803590602001906401000000008111156102cd57600080fd5b8201836020820111156102df57600080fd5b8035906020019184600183028401116401000000008311171561030157600080fd5b91908080601f016020809104026020016040519081016040528093929190818152602001838380828437600081840152601f19601f820116905080830192505050505050509192919290505050610e22565b604051808315151515815260200180602001828103825283818151815260200191508051906020019080838360005b8381101561039d578082015181840152602081019050610382565b50505050905090810190601f1680156103ca5780820380516001836020036101000a031916815260200191505b50935050505060405180910390f35b3480156103e557600080fd5b5061048d60048036036102808110156103fd57600080fd5b81019080806101400190600a806020026040519081016040528092919082600a60200280828437600081840152601f19601f8201169050808301925050505050509192919290806101400190600a806020026040519081016040528092919082600a60200280828437600081840152601f19601f8201169050808301925050505050509192919290505050610f60565b604051808215151515815260200191505060405180910390f35b3480156104b357600080fd5b506104bc611073565b005b3480156104ca57600080fd5b506104d36111ac565b604051808273ffffffffffffffffffffffffffffffffffffffff1673ffffffffffffffffffffffffffffffffffffffff16815260200191505060405180910390f35b34801561052157600080fd5b5061052a6111d5565b604051808215151515815260200191505060405180910390f35b34801561055057600080fd5b50610559611233565b6040518082815260200191505060405180910390f35b34801561057b57600080fd5b506105be6004803603602081101561059257600080fd5b81019080803573ffffffffffffffffffffffffffffffffffffffff169060200190929190505050611239565b604051808215151515815260200191505060405180910390f35b3480156105e457600080fd5b506105ed611284565b6040518082815260200191505060405180910390f35b34801561060f57600080fd5b5061061861128a565b005b34801561062657600080fd5b5061062f6115ef565b604051808215151515815260200191505060405180910390f35b34801561065557600080fd5b506106986004803603602081101561066c57600080fd5b81019080803573ffffffffffffffffffffffffffffffffffffffff169060200190929190505050611602565b6040518082815260200191505060405180910390f35b3480156106ba57600080fd5b506106c361164b565b6040518082815260200191505060405180910390f35b3480156106e557600080fd5b506106ee6116fc565b6040518082815260200191505060405180910390f35b34801561071057600080fd5b50610776600480360361014081101561072857600080fd5b81019080806101400190600a806020026040519081016040528092919082600a60200280828437600081840152601f19601f8201169050808301925050505050509192919290505050611709565b604051808215151515815260200191505060405180910390f35b34801561079c57600080fd5b506107df600480360360208110156107b357600080fd5b81019080803573ffffffffffffffffffffffffffffffffffffffff16906020019092919050505061180a565b6040518082815260200191505060405180910390f35b6107fd611822565b604051808215151515815260200191505060405180910390f35b6108636004803603604081101561082d57600080fd5b81019080803573ffffffffffffffffffffffffffffffffffffffff16906020019092919080359060200190929190505050611918565b604051808215151515815260200191505060405180910390f35b34801561088957600080fd5b506108cc600480360360208110156108a057600080fd5b81019080803573ffffffffffffffffffffffffffffffffffffffff1690602001909291905050506119e5565b005b3480156108da57600080fd5b50610927600480360360408110156108f157600080fd5b81019080803573ffffffffffffffffffffffffffffffffffffffff16906020019092919080359060200190929190505050611a6b565b604051808215151515815260200191505060405180910390f35b600060149054906101000a900460ff1681565b600060015461096e60025442611dc690919063ffffffff16565b1015905090565b600a81565b600181565b60006109896111d5565b6109fb576040517f08c379a00000000000000000000000000000000000000000000000000000000081526004018080602001828103825260208152602001807f4f776e61626c653a2063616c6c6572206973206e6f7420746865206f776e657281525060200191505060405180910390fd5b600073ffffffffffffffffffffffffffffffffffffffff168273ffffffffffffffffffffffffffffffffffffffff161415610a81576040517f08c379a00000000000000000000000000000000000000000000000000000000081526004018080602001828103825260278152602001806126926027913960400191505060405180910390fd5b610a89610954565b15610adf576040517f08c379a00000000000000000000000000000000000000000000000000000000081526004018080602001828103825260338152602001806127096033913960400191505060405180910390fd5b6000610aea83611602565b90508273ffffffffffffffffffffffffffffffffffffffff1660038281548110610b1057fe5b9060005260206000200160009054906101000a900473ffffffffffffffffffffffffffffffffffffffff1673ffffffffffffffffffffffffffffffffffffffff1614610b5857fe5b6000811415610bb2576040517f08c379a000000000000000000000000000000000000000000000000000000000815260040180806020018281038252602f8152602001806126b9602f913960400191505060405180910390fd5b610bba611822565b50600460008473ffffffffffffffffffffffffffffffffffffffff1673ffffffffffffffffffffffffffffffffffffffff16815260200190815260200160002060009055600560008473ffffffffffffffffffffffffffffffffffffffff1673ffffffffffffffffffffffffffffffffffffffff168152602001908152602001600020600090556003610c5c6001600380549050611dc690919063ffffffff16565b81548110610c6657fe5b9060005260206000200160009054906101000a900473ffffffffffffffffffffffffffffffffffffffff1660038281548110610c9e57fe5b9060005260206000200160006101000a81548173ffffffffffffffffffffffffffffffffffffffff021916908373ffffffffffffffffffffffffffffffffffffffff160217905550806005600060038481548110610cf857fe5b9060005260206000200160009054906101000a900473ffffffffffffffffffffffffffffffffffffffff1673ffffffffffffffffffffffffffffffffffffffff1673ffffffffffffffffffffffffffffffffffffffff168152602001908152602001600020819055506003610d7c6001600380549050611dc690919063ffffffff16565b81548110610d8657fe5b9060005260206000200160006101000a81549073ffffffffffffffffffffffffffffffffffffffff02191690556003805480919060019003610dc891906125d6565b508273ffffffffffffffffffffffffffffffffffffffff167f73d60fa978f046c1ccf0f85c6247b34d322ad63d5184881ef2f10bf3c70dde2160006040518082815260200191505060405180910390a26001915050919050565b60006060610e2e6111d5565b610ea0576040517f08c379a00000000000000000000000000000000000000000000000000000000081526004018080602001828103825260208152602001807f4f776e61626c653a2063616c6c6572206973206e6f7420746865206f776e657281525060200191505060405180910390fd5b8473ffffffffffffffffffffffffffffffffffffffff1684846040518082805190602001908083835b60208310610eec5780518252602082019150602081019050602083039250610ec9565b6001836020036101000a03801982511681845116808217855250505050505090500191505060006040518083038185875af1925050503d8060008114610f4e576040519150601f19603f3d011682016040523d82523d6000602084013e610f53565b606091505b5091509150935093915050565b6000610f6a6111d5565b610fdc576040517f08c379a00000000000000000000000000000000000000000000000000000000081526004018080602001828103825260208152602001807f4f776e61626c653a2063616c6c6572206973206e6f7420746865206f776e657281525060200191505060405180910390fd5b60008090505b600a81101561106857600073ffffffffffffffffffffffffffffffffffffffff168482600a811061100f57fe5b602002015173ffffffffffffffffffffffffffffffffffffffff161461105b576110598482600a811061103e57fe5b60200201518483600a811061104f57fe5b6020020151611a6b565b505b8080600101915050610fe2565b506001905092915050565b61107b6111d5565b6110ed576040517f08c379a00000000000000000000000000000000000000000000000000000000081526004018080602001828103825260208152602001807f4f776e61626c653a2063616c6c6572206973206e6f7420746865206f776e657281525060200191505060405180910390fd5b600073ffffffffffffffffffffffffffffffffffffffff166000809054906101000a900473ffffffffffffffffffffffffffffffffffffffff1673ffffffffffffffffffffffffffffffffffffffff167f8be0079c531659141344cd1fd0a4f28419497f9722a3daafe3b4186f6b6457e060405160405180910390a360008060006101000a81548173ffffffffffffffffffffffffffffffffffffffff021916908373ffffffffffffffffffffffffffffffffffffffff160217905550565b60008060009054906101000a900473ffffffffffffffffffffffffffffffffffffffff16905090565b60008060009054906101000a900473ffffffffffffffffffffffffffffffffffffffff1673ffffffffffffffffffffffffffffffffffffffff16611217611e10565b73ffffffffffffffffffffffffffffffffffffffff1614905090565b60025481565b600080600460008473ffffffffffffffffffffffffffffffffffffffff1673ffffffffffffffffffffffffffffffffffffffff16815260200190815260200160002054119050919050565b60015481565b611292610954565b6112e7576040517f08c379a00000000000000000000000000000000000000000000000000000000081526004018080602001828103825260238152602001806126286023913960400191505060405180910390fd5b60001515600060159054906101000a900460ff16151514611353576040517f08c379a000000000000000000000000000000000000000000000000000000000815260040180806020018281038252602e81526020018061276c602e913960400191505060405180910390fd5b6001600060156101000a81548160ff021916908315150217905550600080905060003073ffffffffffffffffffffffffffffffffffffffff16319050600061139961164b565b90506001600060146101000a81548160ff02191690831515021790555060016003805490501115611534576000600190505b6003805490508110156115325761141a600382815481106113e857fe5b9060005260206000200160009054906101000a900473ffffffffffffffffffffffffffffffffffffffff168484611e18565b935060006003828154811061142b57fe5b9060005260206000200160009054906101000a900473ffffffffffffffffffffffffffffffffffffffff1690508073ffffffffffffffffffffffffffffffffffffffff166108fc869081150290604051600060405180830381858888f1935050505015801561149e573d6000803e3d6000fd5b50600382815481106114ac57fe5b9060005260206000200160009054906101000a900473ffffffffffffffffffffffffffffffffffffffff1673ffffffffffffffffffffffffffffffffffffffff167f3b523f60e6edf0c2a9c8f03655abbd5e5ea4a5164318e6dd820b253d44b01ac8866040518082815260200191505060405180910390a25080806001019150506113cb565b505b6000600360008154811061154457fe5b9060005260206000200160009054906101000a900473ffffffffffffffffffffffffffffffffffffffff1690508073ffffffffffffffffffffffffffffffffffffffff166108fc3073ffffffffffffffffffffffffffffffffffffffff16319081150290604051600060405180830381858888f193505050501580156115ce573d6000803e3d6000fd5b5060008060156101000a81548160ff02191690831515021790555050505050565b600060159054906101000a900460ff1681565b6000600560008373ffffffffffffffffffffffffffffffffffffffff1673ffffffffffffffffffffffffffffffffffffffff168152602001908152602001600020549050919050565b600080600190505b6003805490508110156116f8576116e9600460006003848154811061167457fe5b9060005260206000200160009054906101000a900473ffffffffffffffffffffffffffffffffffffffff1673ffffffffffffffffffffffffffffffffffffffff1673ffffffffffffffffffffffffffffffffffffffff1681526020019081526020016000205483611e8790919063ffffffff16565b91508080600101915050611653565b5090565b6000600380549050905090565b60006117136111d5565b611785576040517f08c379a00000000000000000000000000000000000000000000000000000000081526004018080602001828103825260208152602001807f4f776e61626c653a2063616c6c6572206973206e6f7420746865206f776e657281525060200191505060405180910390fd5b60008090505b600a81101561180057600073ffffffffffffffffffffffffffffffffffffffff168382600a81106117b857fe5b602002015173ffffffffffffffffffffffffffffffffffffffff16146117f3576117f18382600a81106117e757fe5b602002015161097f565b505b808060010191505061178b565b5060019050919050565b60046020528060005260406000206000915090505481565b600061182c6111d5565b61189e576040517f08c379a00000000000000000000000000000000000000000000000000000000081526004018080602001828103825260208152602001807f4f776e61626c653a2063616c6c6572206973206e6f7420746865206f776e657281525060200191505060405180910390fd5b60001515600060149054906101000a900460ff1615151461190a576040517f08c379a000000000000000000000000000000000000000000000000000000000815260040180806020018281038252603081526020018061279a6030913960400191505060405180910390fd5b426002819055506001905090565b60006119226111d5565b611994576040517f08c379a00000000000000000000000000000000000000000000000000000000081526004018080602001828103825260208152602001807f4f776e61626c653a2063616c6c6572206973206e6f7420746865206f776e657281525060200191505060405180910390fd5b8273ffffffffffffffffffffffffffffffffffffffff166108fc839081150290604051600060405180830381858888f193505050501580156119da573d6000803e3d6000fd5b506001905092915050565b6119ed6111d5565b611a5f576040517f08c379a00000000000000000000000000000000000000000000000000000000081526004018080602001828103825260208152602001807f4f776e61626c653a2063616c6c6572206973206e6f7420746865206f776e657281525060200191505060405180910390fd5b611a6881611f0f565b50565b6000611a756111d5565b611ae7576040517f08c379a00000000000000000000000000000000000000000000000000000000081526004018080602001828103825260208152602001807f4f776e61626c653a2063616c6c6572206973206e6f7420746865206f776e657281525060200191505060405180910390fd5b600073ffffffffffffffffffffffffffffffffffffffff168373ffffffffffffffffffffffffffffffffffffffff161415611b8a576040517f08c379a000000000000000000000000000000000000000000000000000000000815260040180806020018281038252601b8152602001807f5f62656e65666963696172792063616e6e6f74206265205a65726f000000000081525060200191505060405180910390fd5b6003600081548110611b9857fe5b9060005260206000200160009054906101000a900473ffffffffffffffffffffffffffffffffffffffff1673ffffffffffffffffffffffffffffffffffffffff168373ffffffffffffffffffffffffffffffffffffffff161415611c47576040517f08c379a00000000000000000000000000000000000000000000000000000000081526004018080602001828103825260288152602001806127ca6028913960400191505060405180910390fd5b60008211611ca0576040517f08c379a000000000000000000000000000000000000000000000000000000000815260040180806020018281038252602181526020018061264b6021913960400191505060405180910390fd5b611ca8610954565b15611cfe576040517f08c379a00000000000000000000000000000000000000000000000000000000081526004018080602001828103825260338152602001806127096033913960400191505060405180910390fd5b6000611d0984611602565b1415611d2057611d198383612053565b9050611dc0565b611d28611822565b5081600460008573ffffffffffffffffffffffffffffffffffffffff1673ffffffffffffffffffffffffffffffffffffffff168152602001908152602001600020819055508273ffffffffffffffffffffffffffffffffffffffff167f73d60fa978f046c1ccf0f85c6247b34d322ad63d5184881ef2f10bf3c70dde21836040518082815260200191505060405180910390a2600190505b92915050565b6000611e0883836040518060400160405280601e81526020017f536166654d6174683a207375627472616374696f6e206f766572666c6f770000815250612380565b905092915050565b600033905090565b6000611e7e82611e70600460008873ffffffffffffffffffffffffffffffffffffffff1673ffffffffffffffffffffffffffffffffffffffff168152602001908152602001600020548661244090919063ffffffff16565b6124c690919063ffffffff16565b90509392505050565b600080828401905083811015611f05576040517f08c379a000000000000000000000000000000000000000000000000000000000815260040180806020018281038252601b8152602001807f536166654d6174683a206164646974696f6e206f766572666c6f77000000000081525060200191505060405180910390fd5b8091505092915050565b600073ffffffffffffffffffffffffffffffffffffffff168173ffffffffffffffffffffffffffffffffffffffff161415611f95576040517f08c379a000000000000000000000000000000000000000000000000000000000815260040180806020018281038252602681526020018061266c6026913960400191505060405180910390fd5b8073ffffffffffffffffffffffffffffffffffffffff166000809054906101000a900473ffffffffffffffffffffffffffffffffffffffff1673ffffffffffffffffffffffffffffffffffffffff167f8be0079c531659141344cd1fd0a4f28419497f9722a3daafe3b4186f6b6457e060405160405180910390a3806000806101000a81548173ffffffffffffffffffffffffffffffffffffffff021916908373ffffffffffffffffffffffffffffffffffffffff16021790555050565b600061205d6111d5565b6120cf576040517f08c379a00000000000000000000000000000000000000000000000000000000081526004018080602001828103825260208152602001807f4f776e61626c653a2063616c6c6572206973206e6f7420746865206f776e657281525060200191505060405180910390fd5b600073ffffffffffffffffffffffffffffffffffffffff168373ffffffffffffffffffffffffffffffffffffffff161415612172576040517f08c379a000000000000000000000000000000000000000000000000000000000815260040180806020018281038252601b8152602001807f5f62656e65666963696172792063616e6e6f74206265205a65726f000000000081525060200191505060405180910390fd5b600082116121cb576040517f08c379a000000000000000000000000000000000000000000000000000000000815260040180806020018281038252602181526020018061264b6021913960400191505060405180910390fd5b600015156121d884611239565b151514612230576040517f08c379a000000000000000000000000000000000000000000000000000000000815260040180806020018281038252603081526020018061273c6030913960400191505060405180910390fd5b612238611822565b50600380549050600560008573ffffffffffffffffffffffffffffffffffffffff1673ffffffffffffffffffffffffffffffffffffffff1681526020019081526020016000208190555081600460008573ffffffffffffffffffffffffffffffffffffffff1673ffffffffffffffffffffffffffffffffffffffff1681526020019081526020016000208190555060038390806001815401808255809150509060018203906000526020600020016000909192909190916101000a81548173ffffffffffffffffffffffffffffffffffffffff021916908373ffffffffffffffffffffffffffffffffffffffff160217905550508273ffffffffffffffffffffffffffffffffffffffff167f73d60fa978f046c1ccf0f85c6247b34d322ad63d5184881ef2f10bf3c70dde21836040518082815260200191505060405180910390a292915050565b600083831115829061242d576040517f08c379a00000000000000000000000000000000000000000000000000000000081526004018080602001828103825283818151815260200191508051906020019080838360005b838110156123f25780820151818401526020810190506123d7565b50505050905090810190601f16801561241f5780820380516001836020036101000a031916815260200191505b509250505060405180910390fd5b5060008385039050809150509392505050565b60008083141561245357600090506124c0565b600082840290508284828161246457fe5b04146124bb576040517f08c379a00000000000000000000000000000000000000000000000000000000081526004018080602001828103825260218152602001806126e86021913960400191505060405180910390fd5b809150505b92915050565b600061250883836040518060400160405280601a81526020017f536166654d6174683a206469766973696f6e206279207a65726f000000000000815250612510565b905092915050565b600080831182906125bc576040517f08c379a00000000000000000000000000000000000000000000000000000000081526004018080602001828103825283818151815260200191508051906020019080838360005b83811015612581578082015181840152602081019050612566565b50505050905090810190601f1680156125ae5780820380516001836020036101000a031916815260200191505b509250505060405180910390fd5b5060008385816125c857fe5b049050809150509392505050565b8154818355818111156125fd578183600052602060002091820191016125fc9190612602565b5b505050565b61262491905b80821115612620576000816000905550600101612608565b5090565b9056fe57696c6c206973206e6f74207965742064756520666f7220646973706f736974696f6e446973706f736974696f6e206d75737420626520677265746572207468616e20304f776e61626c653a206e6577206f776e657220697320746865207a65726f206164647265737350726f7669646520612062656e6566696369617279206164647265737320746f2072656d6f7665596f752063616e206e6f742072656d6f7665207468652063726561746f7220617320612062656e6566696369617279536166654d6174683a206d756c7469706c69636174696f6e206f766572666c6f7743616e206e6f742075706461746520646973706f736974696f6e73207768656e20646973706f736974696f6e2069732044756543616e6e6f7420616464206578697374696e672062656e656669636961727920416e65772c2075736520757064617465416e20696e7374616e6365206f662064697362757273656d656e7420697320616c72656164792072756e6e696e6754696d65722063616e206e6f7420626520726573657420616674657220696e697469616c20646973706f736974696f6e43616e6e6f742075706461746520436f6e7472616374204f776e657220646973706f736974696f6ea265627a7a723058203082ca299564f6887e76c903cb4b9c4a37a6e2562af19ee448bfdc54f6319c0364736f6c634300050a0032506175736572526f6c653a2063616c6c657220646f6573206e6f742068617665207468652050617573657220726f6c6557696c6c77616c6c6574206e6f74207375636365737366756c6c206465706c6f796564526f6c65733a206163636f756e7420646f6573206e6f74206861766520726f6c65526f6c65733a206163636f756e7420697320746865207a65726f2061646472657373a265627a7a723058205c967d2639f82639e4935ce960aee04b495c9d9d4e81d775ded34acbe2f2b1ec64736f6c634300050a0032526f6c65733a206163636f756e7420697320746865207a65726f2061646472657373",
  "source": "pragma solidity ^0.5.10;\n\nimport \"@openzeppelin/contracts/lifecycle/Pausable.sol\";\nimport \"./WillWallet.sol\";\nimport \"./Version.sol\";\n\ncontract Deployer is Pausable, Version {\n\n  constructor ()\n    public\n  {}\n\n  enum ContractTypes { will, wallet, willwallet }\n  event ContractDeployed(string contractType, address indexed contractAddress, address indexed creator);\n\n  function _transferOwnership(address _contract, address _newOwner)\n  internal\n  {\n    Ownable(_contract).transferOwnership(_newOwner);\n  }\n\n  function _handleDeposit(address _newContract)\n  internal\n  {\n    if (msg.value > 0) {\n      address payable newContract = address(uint160(_newContract));\n      newContract.transfer(msg.value);\n    }\n  }\n\n  function _deployContract(ContractTypes _type, uint256 _waitTime)\n  internal\n  returns (address newContract)\n  {\n    if (_type == ContractTypes.will) {\n      newContract = address(new Will(_waitTime));\n    } else if (_type == ContractTypes.wallet) {\n      newContract = address(new Wallet());\n    } else if (_type == ContractTypes.willwallet) {\n      WillWallet willwallet = new WillWallet(_waitTime);\n      // newContract = address(willwallet);\n    }\n    if (newContract != address(0)) {\n      _transferOwnership(newContract, msg.sender);\n      _handleDeposit(newContract);\n    }\n  }\n\n  function deployWill(uint256 _waitTime)\n  public whenNotPaused\n  {\n    address newContract = _deployContract(ContractTypes.will, _waitTime);\n    require(newContract != address(0), 'Will not successfull deployed');\n    emit ContractDeployed('will', newContract, msg.sender);\n  }\n\n  function deployWallet()\n  public whenNotPaused\n  {\n    address newContract = _deployContract(ContractTypes.wallet, 0);\n    require(newContract != address(0), 'Wallet not successfull deployed');\n    emit ContractDeployed('wallet', newContract, msg.sender);\n  }\n\n  function deployWillWallet(uint256 _waitTime)\n  public whenNotPaused\n  {\n    address newContract = _deployContract(ContractTypes.willwallet, _waitTime);\n    require(newContract != address(0), 'Willwallet not successfull deployed');\n    emit ContractDeployed('willwallet', newContract, msg.sender);\n  }\n}\n",
  "sourcePath": "/media/brvhrt/Vault/Store/New-folder/cwl/contracts/Deployer.sol",
  "compiler": {
    "name": "solc",
    "version": "0.5.10+commit.5a6ea5b1.Emscripten.clang"
  },
  "schemaVersion": "3.0.19",
  "updatedAt": "2019-11-28T01:29:50.634Z",
  "devdoc": {
    "methods": {
      "pause()": {
        "details": "Called by a pauser to pause, triggers stopped state."
      },
      "paused()": {
        "details": "Returns true if the contract is paused, and false otherwise."
      },
      "unpause()": {
        "details": "Called by a pauser to unpause, returns to normal state."
      }
    }
  },
  "userdoc": {
    "methods": {}
  }
}