{
  "contractName": "Deployer",
  "abi": [
    {
      "constant": false,
      "inputs": [],
      "name": "unpause",
      "outputs": [],
      "payable": false,
      "stateMutability": "nonpayable",
      "type": "function"
    },
    {
      "constant": true,
      "inputs": [],
      "name": "paused",
      "outputs": [
        {
          "name": "",
          "type": "bool"
        }
      ],
      "payable": false,
      "stateMutability": "view",
      "type": "function"
    },
    {
      "constant": false,
      "inputs": [],
      "name": "renounceOwnership",
      "outputs": [],
      "payable": false,
      "stateMutability": "nonpayable",
      "type": "function"
    },
    {
      "constant": false,
      "inputs": [],
      "name": "pause",
      "outputs": [],
      "payable": false,
      "stateMutability": "nonpayable",
      "type": "function"
    },
    {
      "constant": true,
      "inputs": [],
      "name": "owner",
      "outputs": [
        {
          "name": "",
          "type": "address"
        }
      ],
      "payable": false,
      "stateMutability": "view",
      "type": "function"
    },
    {
      "constant": false,
      "inputs": [
        {
          "name": "_newOwner",
          "type": "address"
        }
      ],
      "name": "transferOwnership",
      "outputs": [],
      "payable": false,
      "stateMutability": "nonpayable",
      "type": "function"
    },
    {
      "inputs": [],
      "payable": false,
      "stateMutability": "nonpayable",
      "type": "constructor"
    },
    {
      "anonymous": false,
      "inputs": [
        {
          "indexed": false,
          "name": "contractType",
          "type": "string"
        },
        {
          "indexed": true,
          "name": "contractAddress",
          "type": "address"
        },
        {
          "indexed": true,
          "name": "creator",
          "type": "address"
        }
      ],
      "name": "ContractDeployed",
      "type": "event"
    },
    {
      "anonymous": false,
      "inputs": [],
      "name": "Pause",
      "type": "event"
    },
    {
      "anonymous": false,
      "inputs": [],
      "name": "Unpause",
      "type": "event"
    },
    {
      "anonymous": false,
      "inputs": [
        {
          "indexed": true,
          "name": "previousOwner",
          "type": "address"
        }
      ],
      "name": "OwnershipRenounced",
      "type": "event"
    },
    {
      "anonymous": false,
      "inputs": [
        {
          "indexed": true,
          "name": "previousOwner",
          "type": "address"
        },
        {
          "indexed": true,
          "name": "newOwner",
          "type": "address"
        }
      ],
      "name": "OwnershipTransferred",
      "type": "event"
    },
    {
      "constant": false,
      "inputs": [
        {
          "name": "_waitTime",
          "type": "uint256"
        }
      ],
      "name": "deployWill",
      "outputs": [],
      "payable": false,
      "stateMutability": "nonpayable",
      "type": "function"
    },
    {
      "constant": false,
      "inputs": [],
      "name": "deployWallet",
      "outputs": [],
      "payable": false,
      "stateMutability": "nonpayable",
      "type": "function"
    },
    {
      "constant": false,
      "inputs": [
        {
          "name": "_waitTime",
          "type": "uint256"
        }
      ],
      "name": "deployWillWallet",
      "outputs": [],
      "payable": false,
      "stateMutability": "nonpayable",
      "type": "function"
    }
  ],
  "bytecode": "0x608060405260008060146101000a81548160ff02191690831515021790555034801561002a57600080fd5b50336000806101000a81548173ffffffffffffffffffffffffffffffffffffffff021916908373ffffffffffffffffffffffffffffffffffffffff160217905550614df48061007a6000396000f300608060405260043610610099576000357c0100000000000000000000000000000000000000000000000000000000900463ffffffff1680633d614def1461009e5780633f4ba83a146100cb57806353535db9146100e25780635c975abb146100f957806367d520bb14610128578063715018a6146101555780638456cb591461016c5780638da5cb5b14610183578063f2fde38b146101da575b600080fd5b3480156100aa57600080fd5b506100c96004803603810190808035906020019092919050505061021d565b005b3480156100d757600080fd5b506100e0610396565b005b3480156100ee57600080fd5b506100f7610454565b005b34801561010557600080fd5b5061010e6105a7565b604051808215151515815260200191505060405180910390f35b34801561013457600080fd5b50610153600480360381019080803590602001909291905050506105ba565b005b34801561016157600080fd5b5061016a61070d565b005b34801561017857600080fd5b5061018161080f565b005b34801561018f57600080fd5b506101986108cf565b604051808273ffffffffffffffffffffffffffffffffffffffff1673ffffffffffffffffffffffffffffffffffffffff16815260200191505060405180910390f35b3480156101e657600080fd5b5061021b600480360381019080803573ffffffffffffffffffffffffffffffffffffffff1690602001909291905050506108f4565b005b60008060149054906101000a900460ff1615151561023a57600080fd5b61024560028361095b565b905060008173ffffffffffffffffffffffffffffffffffffffff16141515156102fc576040517f08c379a00000000000000000000000000000000000000000000000000000000081526004018080602001828103825260238152602001807f57696c6c77616c6c6574206e6f74207375636365737366756c6c206465706c6f81526020017f796564000000000000000000000000000000000000000000000000000000000081525060400191505060405180910390fd5b3373ffffffffffffffffffffffffffffffffffffffff168173ffffffffffffffffffffffffffffffffffffffff167f83a465d786f75fe59853d884cce44735e6f4ec345a502886194f09a87253d67d60405180806020018281038252600a8152602001807f77696c6c77616c6c65740000000000000000000000000000000000000000000081525060200191505060405180910390a35050565b6000809054906101000a900473ffffffffffffffffffffffffffffffffffffffff1673ffffffffffffffffffffffffffffffffffffffff163373ffffffffffffffffffffffffffffffffffffffff161415156103f157600080fd5b600060149054906101000a900460ff16151561040c57600080fd5b60008060146101000a81548160ff0219169083151502179055507f7805862f689e2f13df9f062ff482ad3ad112aca9e0847911ed832e158c525b3360405160405180910390a1565b60008060149054906101000a900460ff1615151561047157600080fd5b61047d6001600061095b565b905060008173ffffffffffffffffffffffffffffffffffffffff161415151561050e576040517f08c379a000000000000000000000000000000000000000000000000000000000815260040180806020018281038252601f8152602001807f57616c6c6574206e6f74207375636365737366756c6c206465706c6f7965640081525060200191505060405180910390fd5b3373ffffffffffffffffffffffffffffffffffffffff168173ffffffffffffffffffffffffffffffffffffffff167f83a465d786f75fe59853d884cce44735e6f4ec345a502886194f09a87253d67d6040518080602001828103825260068152602001807f77616c6c6574000000000000000000000000000000000000000000000000000081525060200191505060405180910390a350565b600060149054906101000a900460ff1681565b60008060149054906101000a900460ff161515156105d757600080fd5b6105e260008361095b565b905060008173ffffffffffffffffffffffffffffffffffffffff1614151515610673576040517f08c379a000000000000000000000000000000000000000000000000000000000815260040180806020018281038252601d8152602001807f57696c6c206e6f74207375636365737366756c6c206465706c6f79656400000081525060200191505060405180910390fd5b3373ffffffffffffffffffffffffffffffffffffffff168173ffffffffffffffffffffffffffffffffffffffff167f83a465d786f75fe59853d884cce44735e6f4ec345a502886194f09a87253d67d6040518080602001828103825260048152602001807f77696c6c0000000000000000000000000000000000000000000000000000000081525060200191505060405180910390a35050565b6000809054906101000a900473ffffffffffffffffffffffffffffffffffffffff1673ffffffffffffffffffffffffffffffffffffffff163373ffffffffffffffffffffffffffffffffffffffff1614151561076857600080fd5b6000809054906101000a900473ffffffffffffffffffffffffffffffffffffffff1673ffffffffffffffffffffffffffffffffffffffff167ff8df31144d9c2f0f6b59d69b8b98abd5459d07f2742c4df920b25aae33c6482060405160405180910390a260008060006101000a81548173ffffffffffffffffffffffffffffffffffffffff021916908373ffffffffffffffffffffffffffffffffffffffff160217905550565b6000809054906101000a900473ffffffffffffffffffffffffffffffffffffffff1673ffffffffffffffffffffffffffffffffffffffff163373ffffffffffffffffffffffffffffffffffffffff1614151561086a57600080fd5b600060149054906101000a900460ff1615151561088657600080fd5b6001600060146101000a81548160ff0219169083151502179055507f6985a02210a168e66602d3235cb6db0e70f92b3ba4d376a33c0f3d9434bff62560405160405180910390a1565b6000809054906101000a900473ffffffffffffffffffffffffffffffffffffffff1681565b6000809054906101000a900473ffffffffffffffffffffffffffffffffffffffff1673ffffffffffffffffffffffffffffffffffffffff163373ffffffffffffffffffffffffffffffffffffffff1614151561094f57600080fd5b61095881610a8a565b50565b600080600281111561096957fe5b83600281111561097557fe5b14156109b25781610984610c8f565b80828152602001915050604051809103906000f0801580156109aa573d6000803e3d6000fd5b509050610a50565b600160028111156109bf57fe5b8360028111156109cb57fe5b14156109fd576109d9610c9f565b604051809103906000f0801580156109f5573d6000803e3d6000fd5b509050610a4f565b600280811115610a0957fe5b836002811115610a1557fe5b1415610a4e5781610a24610caf565b80828152602001915050604051809103906000f080158015610a4a573d6000803e3d6000fd5b5090505b5b5b60008173ffffffffffffffffffffffffffffffffffffffff16141515610a8457610a7a8133610b84565b610a8381610c3b565b5b92915050565b600073ffffffffffffffffffffffffffffffffffffffff168173ffffffffffffffffffffffffffffffffffffffff1614151515610ac657600080fd5b8073ffffffffffffffffffffffffffffffffffffffff166000809054906101000a900473ffffffffffffffffffffffffffffffffffffffff1673ffffffffffffffffffffffffffffffffffffffff167f8be0079c531659141344cd1fd0a4f28419497f9722a3daafe3b4186f6b6457e060405160405180910390a3806000806101000a81548173ffffffffffffffffffffffffffffffffffffffff021916908373ffffffffffffffffffffffffffffffffffffffff16021790555050565b8173ffffffffffffffffffffffffffffffffffffffff1663f2fde38b826040518263ffffffff167c0100000000000000000000000000000000000000000000000000000000028152600401808273ffffffffffffffffffffffffffffffffffffffff1673ffffffffffffffffffffffffffffffffffffffff168152602001915050600060405180830381600087803b158015610c1f57600080fd5b505af1158015610c33573d6000803e3d6000fd5b505050505050565b6000341115610c8c578073ffffffffffffffffffffffffffffffffffffffff166108fc349081150290604051600060405180830381858888f19350505050158015610c8a573d6000803e3d6000fd5b505b50565b604051611c9380610cc083390190565b6040516106528061295383390190565b604051611e2480612fa5833901905600608060405234801561001057600080fd5b50604051602080611c9383398101806040528101908080519060200190929190505050336000806101000a81548173ffffffffffffffffffffffffffffffffffffffff021916908373ffffffffffffffffffffffffffffffffffffffff16021790555060033390806001815401808255809150509060018203906000526020600020016000909192909190916101000a81548173ffffffffffffffffffffffffffffffffffffffff021916908373ffffffffffffffffffffffffffffffffffffffff16021790555050806001819055504260028190555050611b9c806100f76000396000f3006080604052600436106100fc576000357c0100000000000000000000000000000000000000000000000000000000900463ffffffff16806310812a7d146101a3578063282f7cdd146101d257806359633a1c1461020157806367e7400514610244578063715018a6146102df57806375e71d6d146102f65780638da5cb5b14610351578063907af6c0146103a8578063b756feff146103d3578063b914d908146103ea578063c2ff501214610441578063d01a69c91461046c578063d39e6bb114610497578063dabc57d914610502578063e7caed9114610559578063efeb5e5814610588578063f2fde38b146105f5578063fcb9b50514610638575b600034148015610110575061010f61069d565b5b156101225761011d6106be565b6101a1565b6000809054906101000a900473ffffffffffffffffffffffffffffffffffffffff1673ffffffffffffffffffffffffffffffffffffffff163373ffffffffffffffffffffffffffffffffffffffff16148015610191575060001515600060149054906101000a900460ff161515145b156101a05761019e610a27565b505b5b005b3480156101af57600080fd5b506101b8610a92565b604051808215151515815260200191505060405180910390f35b3480156101de57600080fd5b506101e761069d565b604051808215151515815260200191505060405180910390f35b34801561020d57600080fd5b50610242600480360381019080803573ffffffffffffffffffffffffffffffffffffffff169060200190929190505050610aa5565b005b34801561025057600080fd5b506102c5600480360381019080806101400190600a806020026040519081016040528092919082600a6020028082843782019150505050509192919290806101400190600a806020026040519081016040528092919082600a6020028082843782019150505050509192919290505050610f00565b604051808215151515815260200191505060405180910390f35b3480156102eb57600080fd5b506102f4610fec565b005b34801561030257600080fd5b50610337600480360381019080803573ffffffffffffffffffffffffffffffffffffffff1690602001909291905050506110ee565b604051808215151515815260200191505060405180910390f35b34801561035d57600080fd5b5061036661110e565b604051808273ffffffffffffffffffffffffffffffffffffffff1673ffffffffffffffffffffffffffffffffffffffff16815260200191505060405180910390f35b3480156103b457600080fd5b506103bd611133565b6040518082815260200191505060405180910390f35b3480156103df57600080fd5b506103e86106be565b005b3480156103f657600080fd5b5061042b600480360381019080803573ffffffffffffffffffffffffffffffffffffffff16906020019092919050505061113f565b6040518082815260200191505060405180910390f35b34801561044d57600080fd5b50610456611188565b6040518082815260200191505060405180910390f35b34801561047857600080fd5b5061048161123a565b6040518082815260200191505060405180910390f35b3480156104a357600080fd5b506104e8600480360381019080806101400190600a806020026040519081016040528092919082600a6020028082843782019150505050509192919290505050611247565b604051808215151515815260200191505060405180910390f35b34801561050e57600080fd5b50610543600480360381019080803573ffffffffffffffffffffffffffffffffffffffff16906020019092919050505061131e565b6040518082815260200191505060405180910390f35b34801561056557600080fd5b5061056e610a27565b604051808215151515815260200191505060405180910390f35b34801561059457600080fd5b506105b360048036038101908080359060200190929190505050611336565b604051808273ffffffffffffffffffffffffffffffffffffffff1673ffffffffffffffffffffffffffffffffffffffff16815260200191505060405180910390f35b34801561060157600080fd5b50610636600480360381019080803573ffffffffffffffffffffffffffffffffffffffff169060200190929190505050611374565b005b34801561064457600080fd5b50610683600480360381019080803573ffffffffffffffffffffffffffffffffffffffff169060200190929190803590602001909291905050506113db565b604051808215151515815260200191505060405180910390f35b60006001546106b76002544261162990919063ffffffff16565b1015905090565b60008060008060006106ce61069d565b1515610768576040517f08c379a00000000000000000000000000000000000000000000000000000000081526004018080602001828103825260238152602001807f57696c6c206973206e6f74207965742064756520666f7220646973706f73697481526020017f696f6e000000000000000000000000000000000000000000000000000000000081525060400191505060405180910390fd5b3073ffffffffffffffffffffffffffffffffffffffff1631945061078a611188565b9350610794611133565b92506001600060146101000a81548160ff021916908315150217905550600191505b600380549050821015610988576108728361086486610856600460006003898154811015156107e157fe5b9060005260206000200160009054906101000a900473ffffffffffffffffffffffffffffffffffffffff1673ffffffffffffffffffffffffffffffffffffffff1673ffffffffffffffffffffffffffffffffffffffff168152602001908152602001600020548a61164290919063ffffffff16565b61167a90919063ffffffff16565b61167a90919063ffffffff16565b905060038281548110151561088357fe5b9060005260206000200160009054906101000a900473ffffffffffffffffffffffffffffffffffffffff1673ffffffffffffffffffffffffffffffffffffffff166108fc829081150290604051600060405180830381858888f193505050501580156108f3573d6000803e3d6000fd5b5060038281548110151561090357fe5b9060005260206000200160009054906101000a900473ffffffffffffffffffffffffffffffffffffffff1673ffffffffffffffffffffffffffffffffffffffff167f3b523f60e6edf0c2a9c8f03655abbd5e5ea4a5164318e6dd820b253d44b01ac8826040518082815260200191505060405180910390a281806001019250506107b6565b6003600081548110151561099857fe5b9060005260206000200160009054906101000a900473ffffffffffffffffffffffffffffffffffffffff1673ffffffffffffffffffffffffffffffffffffffff166108fc3073ffffffffffffffffffffffffffffffffffffffff16319081150290604051600060405180830381858888f19350505050158015610a1f573d6000803e3d6000fd5b505050505050565b60008060009054906101000a900473ffffffffffffffffffffffffffffffffffffffff1673ffffffffffffffffffffffffffffffffffffffff163373ffffffffffffffffffffffffffffffffffffffff16141515610a8457600080fd5b426002819055506001905090565b600060149054906101000a900460ff1681565b60008060009054906101000a900473ffffffffffffffffffffffffffffffffffffffff1673ffffffffffffffffffffffffffffffffffffffff163373ffffffffffffffffffffffffffffffffffffffff16141515610b0257600080fd5b60008273ffffffffffffffffffffffffffffffffffffffff1614151515610bb7576040517f08c379a00000000000000000000000000000000000000000000000000000000081526004018080602001828103825260278152602001807f50726f7669646520612062656e6566696369617279206164647265737320746f81526020017f2072656d6f76650000000000000000000000000000000000000000000000000081525060400191505060405180910390fd5b610bbf61069d565b151515610c5a576040517f08c379a00000000000000000000000000000000000000000000000000000000081526004018080602001828103825260338152602001807f43616e206e6f742075706461746520646973706f736974696f6e73207768656e81526020017f20646973706f736974696f6e206973204475650000000000000000000000000081525060400191505060405180910390fd5b610c638261113f565b90508173ffffffffffffffffffffffffffffffffffffffff16600382815481101515610c8b57fe5b9060005260206000200160009054906101000a900473ffffffffffffffffffffffffffffffffffffffff1673ffffffffffffffffffffffffffffffffffffffff16141515610cd557fe5b60008114151515610ce557600080fd5b600460008373ffffffffffffffffffffffffffffffffffffffff1673ffffffffffffffffffffffffffffffffffffffff168152602001908152602001600020600090556003600160038054905003815481101515610d3f57fe5b9060005260206000200160009054906101000a900473ffffffffffffffffffffffffffffffffffffffff16600382815481101515610d7957fe5b9060005260206000200160006101000a81548173ffffffffffffffffffffffffffffffffffffffff021916908373ffffffffffffffffffffffffffffffffffffffff1602179055506003600160038054905003815481101515610dd857fe5b9060005260206000200160006101000a81549073ffffffffffffffffffffffffffffffffffffffff02191690556003805480919060019003610e1a9190611b1f565b50600660008373ffffffffffffffffffffffffffffffffffffffff1673ffffffffffffffffffffffffffffffffffffffff16815260200190815260200160002060009055600560008373ffffffffffffffffffffffffffffffffffffffff1673ffffffffffffffffffffffffffffffffffffffff16815260200190815260200160002060006101000a81549060ff02191690558173ffffffffffffffffffffffffffffffffffffffff167f73d60fa978f046c1ccf0f85c6247b34d322ad63d5184881ef2f10bf3c70dde2160006040518082815260200191505060405180910390a25050565b60008060008060009054906101000a900473ffffffffffffffffffffffffffffffffffffffff1673ffffffffffffffffffffffffffffffffffffffff163373ffffffffffffffffffffffffffffffffffffffff16141515610f6057600080fd5b600a9150600090505b81811015610fe05760008582600a81101515610f8157fe5b602002015173ffffffffffffffffffffffffffffffffffffffff16141515610fd357610fd18582600a81101515610fb457fe5b60200201518583600a81101515610fc757fe5b60200201516113db565b505b8080600101915050610f69565b60019250505092915050565b6000809054906101000a900473ffffffffffffffffffffffffffffffffffffffff1673ffffffffffffffffffffffffffffffffffffffff163373ffffffffffffffffffffffffffffffffffffffff1614151561104757600080fd5b6000809054906101000a900473ffffffffffffffffffffffffffffffffffffffff1673ffffffffffffffffffffffffffffffffffffffff167ff8df31144d9c2f0f6b59d69b8b98abd5459d07f2742c4df920b25aae33c6482060405160405180910390a260008060006101000a81548173ffffffffffffffffffffffffffffffffffffffff021916908373ffffffffffffffffffffffffffffffffffffffff160217905550565b60056020528060005260406000206000915054906101000a900460ff1681565b6000809054906101000a900473ffffffffffffffffffffffffffffffffffffffff1681565b60006008600a0a905090565b6000600660008373ffffffffffffffffffffffffffffffffffffffff1673ffffffffffffffffffffffffffffffffffffffff168152602001908152602001600020549050919050565b600080600090505b60038054905081101561123657611228600460006003848154811015156111b357fe5b9060005260206000200160009054906101000a900473ffffffffffffffffffffffffffffffffffffffff1673ffffffffffffffffffffffffffffffffffffffff1673ffffffffffffffffffffffffffffffffffffffff168152602001908152602001600020548361169090919063ffffffff16565b508080600101915050611190565b5090565b6000600380549050905090565b60008060008060009054906101000a900473ffffffffffffffffffffffffffffffffffffffff1673ffffffffffffffffffffffffffffffffffffffff163373ffffffffffffffffffffffffffffffffffffffff161415156112a757600080fd5b600a9150600090505b818110156113135760008482600a811015156112c857fe5b602002015173ffffffffffffffffffffffffffffffffffffffff16141515611306576113058482600a811015156112fb57fe5b6020020151610aa5565b5b80806001019150506112b0565b600192505050919050565b60046020528060005260406000206000915090505481565b60038181548110151561134557fe5b906000526020600020016000915054906101000a900473ffffffffffffffffffffffffffffffffffffffff1681565b6000809054906101000a900473ffffffffffffffffffffffffffffffffffffffff1673ffffffffffffffffffffffffffffffffffffffff163373ffffffffffffffffffffffffffffffffffffffff161415156113cf57600080fd5b6113d8816116ac565b50565b60008060009054906101000a900473ffffffffffffffffffffffffffffffffffffffff1673ffffffffffffffffffffffffffffffffffffffff163373ffffffffffffffffffffffffffffffffffffffff1614151561143857600080fd5b60008373ffffffffffffffffffffffffffffffffffffffff16141515156114c7576040517f08c379a000000000000000000000000000000000000000000000000000000000815260040180806020018281038252601b8152602001807f5f62656e65666963696172792063616e6e6f74206265205a65726f000000000081525060200191505060405180910390fd5b6114cf61069d565b15151561156a576040517f08c379a00000000000000000000000000000000000000000000000000000000081526004018080602001828103825260338152602001807f43616e206e6f742075706461746520646973706f736974696f6e73207768656e81526020017f20646973706f736974696f6e206973204475650000000000000000000000000081525060400191505060405180910390fd5b60006115758461113f565b141561158c5761158583836117a6565b9050611623565b81600460008573ffffffffffffffffffffffffffffffffffffffff1673ffffffffffffffffffffffffffffffffffffffff168152602001908152602001600020819055508273ffffffffffffffffffffffffffffffffffffffff167f73d60fa978f046c1ccf0f85c6247b34d322ad63d5184881ef2f10bf3c70dde21836040518082815260200191505060405180910390a2600190505b92915050565b600082821115151561163757fe5b818303905092915050565b6000808314156116555760009050611674565b818302905081838281151561166657fe5b0414151561167057fe5b8090505b92915050565b6000818381151561168757fe5b04905092915050565b600081830190508281101515156116a357fe5b80905092915050565b600073ffffffffffffffffffffffffffffffffffffffff168173ffffffffffffffffffffffffffffffffffffffff16141515156116e857600080fd5b8073ffffffffffffffffffffffffffffffffffffffff166000809054906101000a900473ffffffffffffffffffffffffffffffffffffffff1673ffffffffffffffffffffffffffffffffffffffff167f8be0079c531659141344cd1fd0a4f28419497f9722a3daafe3b4186f6b6457e060405160405180910390a3806000806101000a81548173ffffffffffffffffffffffffffffffffffffffff021916908373ffffffffffffffffffffffffffffffffffffffff16021790555050565b60008060009054906101000a900473ffffffffffffffffffffffffffffffffffffffff1673ffffffffffffffffffffffffffffffffffffffff163373ffffffffffffffffffffffffffffffffffffffff1614151561180357600080fd5b60008373ffffffffffffffffffffffffffffffffffffffff1614151515611892576040517f08c379a000000000000000000000000000000000000000000000000000000000815260040180806020018281038252601b8152602001807f5f62656e65666963696172792063616e6e6f74206265205a65726f000000000081525060200191505060405180910390fd5b60001515600560008573ffffffffffffffffffffffffffffffffffffffff1673ffffffffffffffffffffffffffffffffffffffff16815260200190815260200160002060009054906101000a900460ff161515141515611980576040517f08c379a00000000000000000000000000000000000000000000000000000000081526004018080602001828103825260308152602001807f43616e6e6f7420616464206578697374696e672062656e65666963696172792081526020017f416e65772c20757365207570646174650000000000000000000000000000000081525060400191505060405180910390fd5b6001600560008573ffffffffffffffffffffffffffffffffffffffff1673ffffffffffffffffffffffffffffffffffffffff16815260200190815260200160002060006101000a81548160ff021916908315150217905550600380549050600660008573ffffffffffffffffffffffffffffffffffffffff1673ffffffffffffffffffffffffffffffffffffffff1681526020019081526020016000208190555081600460008573ffffffffffffffffffffffffffffffffffffffff1673ffffffffffffffffffffffffffffffffffffffff1681526020019081526020016000208190555060038390806001815401808255809150509060018203906000526020600020016000909192909190916101000a81548173ffffffffffffffffffffffffffffffffffffffff021916908373ffffffffffffffffffffffffffffffffffffffff160217905550508273ffffffffffffffffffffffffffffffffffffffff167f73d60fa978f046c1ccf0f85c6247b34d322ad63d5184881ef2f10bf3c70dde21836040518082815260200191505060405180910390a292915050565b815481835581811115611b4657818360005260206000209182019101611b459190611b4b565b5b505050565b611b6d91905b80821115611b69576000816000905550600101611b51565b5090565b905600a165627a7a7230582023d907ae8c75755da7e8ceab6bc8d32a3abf93269271b2d8e0df886037b8a2d70029608060405234801561001057600080fd5b50336000806101000a81548173ffffffffffffffffffffffffffffffffffffffff021916908373ffffffffffffffffffffffffffffffffffffffff1602179055506105f2806100606000396000f30060806040526004361061006d576000357c0100000000000000000000000000000000000000000000000000000000900463ffffffff168063715018a61461006f5780637d1a9aac146100865780638da5cb5b146100ec578063a9059cbb14610143578063f2fde38b146101a8575b005b34801561007b57600080fd5b506100846101eb565b005b6100d2600480360381019080803573ffffffffffffffffffffffffffffffffffffffff1690602001909291908035906020019092919080356000191690602001909291905050506102ed565b604051808215151515815260200191505060405180910390f35b3480156100f857600080fd5b50610101610392565b604051808273ffffffffffffffffffffffffffffffffffffffff1673ffffffffffffffffffffffffffffffffffffffff16815260200191505060405180910390f35b34801561014f57600080fd5b5061018e600480360381019080803573ffffffffffffffffffffffffffffffffffffffff169060200190929190803590602001909291905050506103b7565b604051808215151515815260200191505060405180910390f35b3480156101b457600080fd5b506101e9600480360381019080803573ffffffffffffffffffffffffffffffffffffffff169060200190929190505050610465565b005b6000809054906101000a900473ffffffffffffffffffffffffffffffffffffffff1673ffffffffffffffffffffffffffffffffffffffff163373ffffffffffffffffffffffffffffffffffffffff1614151561024657600080fd5b6000809054906101000a900473ffffffffffffffffffffffffffffffffffffffff1673ffffffffffffffffffffffffffffffffffffffff167ff8df31144d9c2f0f6b59d69b8b98abd5459d07f2742c4df920b25aae33c6482060405160405180910390a260008060006101000a81548173ffffffffffffffffffffffffffffffffffffffff021916908373ffffffffffffffffffffffffffffffffffffffff160217905550565b60008060009054906101000a900473ffffffffffffffffffffffffffffffffffffffff1673ffffffffffffffffffffffffffffffffffffffff163373ffffffffffffffffffffffffffffffffffffffff1614151561034a57600080fd5b8373ffffffffffffffffffffffffffffffffffffffff16838360405180826000191660001916815260200191505060006040518083038185875af19250505090509392505050565b6000809054906101000a900473ffffffffffffffffffffffffffffffffffffffff1681565b60008060009054906101000a900473ffffffffffffffffffffffffffffffffffffffff1673ffffffffffffffffffffffffffffffffffffffff163373ffffffffffffffffffffffffffffffffffffffff1614151561041457600080fd5b8273ffffffffffffffffffffffffffffffffffffffff166108fc839081150290604051600060405180830381858888f1935050505015801561045a573d6000803e3d6000fd5b506001905092915050565b6000809054906101000a900473ffffffffffffffffffffffffffffffffffffffff1673ffffffffffffffffffffffffffffffffffffffff163373ffffffffffffffffffffffffffffffffffffffff161415156104c057600080fd5b6104c9816104cc565b50565b600073ffffffffffffffffffffffffffffffffffffffff168173ffffffffffffffffffffffffffffffffffffffff161415151561050857600080fd5b8073ffffffffffffffffffffffffffffffffffffffff166000809054906101000a900473ffffffffffffffffffffffffffffffffffffffff1673ffffffffffffffffffffffffffffffffffffffff167f8be0079c531659141344cd1fd0a4f28419497f9722a3daafe3b4186f6b6457e060405160405180910390a3806000806101000a81548173ffffffffffffffffffffffffffffffffffffffff021916908373ffffffffffffffffffffffffffffffffffffffff160217905550505600a165627a7a723058206ba54267295f01ea524d7a85bfc9a7920e1cb31146295f70d3dff1f0efca13050029608060405234801561001057600080fd5b50604051602080611e248339810180604052810190808051906020019092919050505080336000806101000a81548173ffffffffffffffffffffffffffffffffffffffff021916908373ffffffffffffffffffffffffffffffffffffffff16021790555060033390806001815401808255809150509060018203906000526020600020016000909192909190916101000a81548173ffffffffffffffffffffffffffffffffffffffff021916908373ffffffffffffffffffffffffffffffffffffffff1602179055505080600181905550426002819055505050611d2b806100f96000396000f300608060405260043610610112576000357c0100000000000000000000000000000000000000000000000000000000900463ffffffff16806310812a7d14610114578063282f7cdd1461014357806359633a1c1461017257806367e74005146101b5578063715018a61461025057806375e71d6d146102675780637d1a9aac146102c25780638da5cb5b14610328578063907af6c01461037f578063a9059cbb146103aa578063b756feff1461040f578063b914d90814610426578063c2ff50121461047d578063d01a69c9146104a8578063d39e6bb1146104d3578063dabc57d91461053e578063e7caed9114610595578063efeb5e58146105c4578063f2fde38b14610631578063fcb9b50514610674575b005b34801561012057600080fd5b506101296106d9565b604051808215151515815260200191505060405180910390f35b34801561014f57600080fd5b506101586106ec565b604051808215151515815260200191505060405180910390f35b34801561017e57600080fd5b506101b3600480360381019080803573ffffffffffffffffffffffffffffffffffffffff16906020019092919050505061070d565b005b3480156101c157600080fd5b50610236600480360381019080806101400190600a806020026040519081016040528092919082600a6020028082843782019150505050509192919290806101400190600a806020026040519081016040528092919082600a6020028082843782019150505050509192919290505050610b68565b604051808215151515815260200191505060405180910390f35b34801561025c57600080fd5b50610265610c54565b005b34801561027357600080fd5b506102a8600480360381019080803573ffffffffffffffffffffffffffffffffffffffff169060200190929190505050610d56565b604051808215151515815260200191505060405180910390f35b61030e600480360381019080803573ffffffffffffffffffffffffffffffffffffffff169060200190929190803590602001909291908035600019169060200190929190505050610d76565b604051808215151515815260200191505060405180910390f35b34801561033457600080fd5b5061033d610e1b565b604051808273ffffffffffffffffffffffffffffffffffffffff1673ffffffffffffffffffffffffffffffffffffffff16815260200191505060405180910390f35b34801561038b57600080fd5b50610394610e40565b6040518082815260200191505060405180910390f35b3480156103b657600080fd5b506103f5600480360381019080803573ffffffffffffffffffffffffffffffffffffffff16906020019092919080359060200190929190505050610e4c565b604051808215151515815260200191505060405180910390f35b34801561041b57600080fd5b50610424610efa565b005b34801561043257600080fd5b50610467600480360381019080803573ffffffffffffffffffffffffffffffffffffffff169060200190929190505050611263565b6040518082815260200191505060405180910390f35b34801561048957600080fd5b506104926112ac565b6040518082815260200191505060405180910390f35b3480156104b457600080fd5b506104bd61135e565b6040518082815260200191505060405180910390f35b3480156104df57600080fd5b50610524600480360381019080806101400190600a806020026040519081016040528092919082600a602002808284378201915050505050919291929050505061136b565b604051808215151515815260200191505060405180910390f35b34801561054a57600080fd5b5061057f600480360381019080803573ffffffffffffffffffffffffffffffffffffffff169060200190929190505050611442565b6040518082815260200191505060405180910390f35b3480156105a157600080fd5b506105aa61145a565b604051808215151515815260200191505060405180910390f35b3480156105d057600080fd5b506105ef600480360381019080803590602001909291905050506114c5565b604051808273ffffffffffffffffffffffffffffffffffffffff1673ffffffffffffffffffffffffffffffffffffffff16815260200191505060405180910390f35b34801561063d57600080fd5b50610672600480360381019080803573ffffffffffffffffffffffffffffffffffffffff169060200190929190505050611503565b005b34801561068057600080fd5b506106bf600480360381019080803573ffffffffffffffffffffffffffffffffffffffff1690602001909291908035906020019092919050505061156a565b604051808215151515815260200191505060405180910390f35b600060149054906101000a900460ff1681565b6000600154610706600254426117b890919063ffffffff16565b1015905090565b60008060009054906101000a900473ffffffffffffffffffffffffffffffffffffffff1673ffffffffffffffffffffffffffffffffffffffff163373ffffffffffffffffffffffffffffffffffffffff1614151561076a57600080fd5b60008273ffffffffffffffffffffffffffffffffffffffff161415151561081f576040517f08c379a00000000000000000000000000000000000000000000000000000000081526004018080602001828103825260278152602001807f50726f7669646520612062656e6566696369617279206164647265737320746f81526020017f2072656d6f76650000000000000000000000000000000000000000000000000081525060400191505060405180910390fd5b6108276106ec565b1515156108c2576040517f08c379a00000000000000000000000000000000000000000000000000000000081526004018080602001828103825260338152602001807f43616e206e6f742075706461746520646973706f736974696f6e73207768656e81526020017f20646973706f736974696f6e206973204475650000000000000000000000000081525060400191505060405180910390fd5b6108cb82611263565b90508173ffffffffffffffffffffffffffffffffffffffff166003828154811015156108f357fe5b9060005260206000200160009054906101000a900473ffffffffffffffffffffffffffffffffffffffff1673ffffffffffffffffffffffffffffffffffffffff1614151561093d57fe5b6000811415151561094d57600080fd5b600460008373ffffffffffffffffffffffffffffffffffffffff1673ffffffffffffffffffffffffffffffffffffffff1681526020019081526020016000206000905560036001600380549050038154811015156109a757fe5b9060005260206000200160009054906101000a900473ffffffffffffffffffffffffffffffffffffffff166003828154811015156109e157fe5b9060005260206000200160006101000a81548173ffffffffffffffffffffffffffffffffffffffff021916908373ffffffffffffffffffffffffffffffffffffffff1602179055506003600160038054905003815481101515610a4057fe5b9060005260206000200160006101000a81549073ffffffffffffffffffffffffffffffffffffffff02191690556003805480919060019003610a829190611cae565b50600660008373ffffffffffffffffffffffffffffffffffffffff1673ffffffffffffffffffffffffffffffffffffffff16815260200190815260200160002060009055600560008373ffffffffffffffffffffffffffffffffffffffff1673ffffffffffffffffffffffffffffffffffffffff16815260200190815260200160002060006101000a81549060ff02191690558173ffffffffffffffffffffffffffffffffffffffff167f73d60fa978f046c1ccf0f85c6247b34d322ad63d5184881ef2f10bf3c70dde2160006040518082815260200191505060405180910390a25050565b60008060008060009054906101000a900473ffffffffffffffffffffffffffffffffffffffff1673ffffffffffffffffffffffffffffffffffffffff163373ffffffffffffffffffffffffffffffffffffffff16141515610bc857600080fd5b600a9150600090505b81811015610c485760008582600a81101515610be957fe5b602002015173ffffffffffffffffffffffffffffffffffffffff16141515610c3b57610c398582600a81101515610c1c57fe5b60200201518583600a81101515610c2f57fe5b602002015161156a565b505b8080600101915050610bd1565b60019250505092915050565b6000809054906101000a900473ffffffffffffffffffffffffffffffffffffffff1673ffffffffffffffffffffffffffffffffffffffff163373ffffffffffffffffffffffffffffffffffffffff16141515610caf57600080fd5b6000809054906101000a900473ffffffffffffffffffffffffffffffffffffffff1673ffffffffffffffffffffffffffffffffffffffff167ff8df31144d9c2f0f6b59d69b8b98abd5459d07f2742c4df920b25aae33c6482060405160405180910390a260008060006101000a81548173ffffffffffffffffffffffffffffffffffffffff021916908373ffffffffffffffffffffffffffffffffffffffff160217905550565b60056020528060005260406000206000915054906101000a900460ff1681565b60008060009054906101000a900473ffffffffffffffffffffffffffffffffffffffff1673ffffffffffffffffffffffffffffffffffffffff163373ffffffffffffffffffffffffffffffffffffffff16141515610dd357600080fd5b8373ffffffffffffffffffffffffffffffffffffffff16838360405180826000191660001916815260200191505060006040518083038185875af19250505090509392505050565b6000809054906101000a900473ffffffffffffffffffffffffffffffffffffffff1681565b60006008600a0a905090565b60008060009054906101000a900473ffffffffffffffffffffffffffffffffffffffff1673ffffffffffffffffffffffffffffffffffffffff163373ffffffffffffffffffffffffffffffffffffffff16141515610ea957600080fd5b8273ffffffffffffffffffffffffffffffffffffffff166108fc839081150290604051600060405180830381858888f19350505050158015610eef573d6000803e3d6000fd5b506001905092915050565b6000806000806000610f0a6106ec565b1515610fa4576040517f08c379a00000000000000000000000000000000000000000000000000000000081526004018080602001828103825260238152602001807f57696c6c206973206e6f74207965742064756520666f7220646973706f73697481526020017f696f6e000000000000000000000000000000000000000000000000000000000081525060400191505060405180910390fd5b3073ffffffffffffffffffffffffffffffffffffffff16319450610fc66112ac565b9350610fd0610e40565b92506001600060146101000a81548160ff021916908315150217905550600191505b6003805490508210156111c4576110ae836110a0866110926004600060038981548110151561101d57fe5b9060005260206000200160009054906101000a900473ffffffffffffffffffffffffffffffffffffffff1673ffffffffffffffffffffffffffffffffffffffff1673ffffffffffffffffffffffffffffffffffffffff168152602001908152602001600020548a6117d190919063ffffffff16565b61180990919063ffffffff16565b61180990919063ffffffff16565b90506003828154811015156110bf57fe5b9060005260206000200160009054906101000a900473ffffffffffffffffffffffffffffffffffffffff1673ffffffffffffffffffffffffffffffffffffffff166108fc829081150290604051600060405180830381858888f1935050505015801561112f573d6000803e3d6000fd5b5060038281548110151561113f57fe5b9060005260206000200160009054906101000a900473ffffffffffffffffffffffffffffffffffffffff1673ffffffffffffffffffffffffffffffffffffffff167f3b523f60e6edf0c2a9c8f03655abbd5e5ea4a5164318e6dd820b253d44b01ac8826040518082815260200191505060405180910390a28180600101925050610ff2565b600360008154811015156111d457fe5b9060005260206000200160009054906101000a900473ffffffffffffffffffffffffffffffffffffffff1673ffffffffffffffffffffffffffffffffffffffff166108fc3073ffffffffffffffffffffffffffffffffffffffff16319081150290604051600060405180830381858888f1935050505015801561125b573d6000803e3d6000fd5b505050505050565b6000600660008373ffffffffffffffffffffffffffffffffffffffff1673ffffffffffffffffffffffffffffffffffffffff168152602001908152602001600020549050919050565b600080600090505b60038054905081101561135a5761134c600460006003848154811015156112d757fe5b9060005260206000200160009054906101000a900473ffffffffffffffffffffffffffffffffffffffff1673ffffffffffffffffffffffffffffffffffffffff1673ffffffffffffffffffffffffffffffffffffffff168152602001908152602001600020548361181f90919063ffffffff16565b5080806001019150506112b4565b5090565b6000600380549050905090565b60008060008060009054906101000a900473ffffffffffffffffffffffffffffffffffffffff1673ffffffffffffffffffffffffffffffffffffffff163373ffffffffffffffffffffffffffffffffffffffff161415156113cb57600080fd5b600a9150600090505b818110156114375760008482600a811015156113ec57fe5b602002015173ffffffffffffffffffffffffffffffffffffffff1614151561142a576114298482600a8110151561141f57fe5b602002015161070d565b5b80806001019150506113d4565b600192505050919050565b60046020528060005260406000206000915090505481565b60008060009054906101000a900473ffffffffffffffffffffffffffffffffffffffff1673ffffffffffffffffffffffffffffffffffffffff163373ffffffffffffffffffffffffffffffffffffffff161415156114b757600080fd5b426002819055506001905090565b6003818154811015156114d457fe5b906000526020600020016000915054906101000a900473ffffffffffffffffffffffffffffffffffffffff1681565b6000809054906101000a900473ffffffffffffffffffffffffffffffffffffffff1673ffffffffffffffffffffffffffffffffffffffff163373ffffffffffffffffffffffffffffffffffffffff1614151561155e57600080fd5b6115678161183b565b50565b60008060009054906101000a900473ffffffffffffffffffffffffffffffffffffffff1673ffffffffffffffffffffffffffffffffffffffff163373ffffffffffffffffffffffffffffffffffffffff161415156115c757600080fd5b60008373ffffffffffffffffffffffffffffffffffffffff1614151515611656576040517f08c379a000000000000000000000000000000000000000000000000000000000815260040180806020018281038252601b8152602001807f5f62656e65666963696172792063616e6e6f74206265205a65726f000000000081525060200191505060405180910390fd5b61165e6106ec565b1515156116f9576040517f08c379a00000000000000000000000000000000000000000000000000000000081526004018080602001828103825260338152602001807f43616e206e6f742075706461746520646973706f736974696f6e73207768656e81526020017f20646973706f736974696f6e206973204475650000000000000000000000000081525060400191505060405180910390fd5b600061170484611263565b141561171b576117148383611935565b90506117b2565b81600460008573ffffffffffffffffffffffffffffffffffffffff1673ffffffffffffffffffffffffffffffffffffffff168152602001908152602001600020819055508273ffffffffffffffffffffffffffffffffffffffff167f73d60fa978f046c1ccf0f85c6247b34d322ad63d5184881ef2f10bf3c70dde21836040518082815260200191505060405180910390a2600190505b92915050565b60008282111515156117c657fe5b818303905092915050565b6000808314156117e45760009050611803565b81830290508183828115156117f557fe5b041415156117ff57fe5b8090505b92915050565b6000818381151561181657fe5b04905092915050565b6000818301905082811015151561183257fe5b80905092915050565b600073ffffffffffffffffffffffffffffffffffffffff168173ffffffffffffffffffffffffffffffffffffffff161415151561187757600080fd5b8073ffffffffffffffffffffffffffffffffffffffff166000809054906101000a900473ffffffffffffffffffffffffffffffffffffffff1673ffffffffffffffffffffffffffffffffffffffff167f8be0079c531659141344cd1fd0a4f28419497f9722a3daafe3b4186f6b6457e060405160405180910390a3806000806101000a81548173ffffffffffffffffffffffffffffffffffffffff021916908373ffffffffffffffffffffffffffffffffffffffff16021790555050565b60008060009054906101000a900473ffffffffffffffffffffffffffffffffffffffff1673ffffffffffffffffffffffffffffffffffffffff163373ffffffffffffffffffffffffffffffffffffffff1614151561199257600080fd5b60008373ffffffffffffffffffffffffffffffffffffffff1614151515611a21576040517f08c379a000000000000000000000000000000000000000000000000000000000815260040180806020018281038252601b8152602001807f5f62656e65666963696172792063616e6e6f74206265205a65726f000000000081525060200191505060405180910390fd5b60001515600560008573ffffffffffffffffffffffffffffffffffffffff1673ffffffffffffffffffffffffffffffffffffffff16815260200190815260200160002060009054906101000a900460ff161515141515611b0f576040517f08c379a00000000000000000000000000000000000000000000000000000000081526004018080602001828103825260308152602001807f43616e6e6f7420616464206578697374696e672062656e65666963696172792081526020017f416e65772c20757365207570646174650000000000000000000000000000000081525060400191505060405180910390fd5b6001600560008573ffffffffffffffffffffffffffffffffffffffff1673ffffffffffffffffffffffffffffffffffffffff16815260200190815260200160002060006101000a81548160ff021916908315150217905550600380549050600660008573ffffffffffffffffffffffffffffffffffffffff1673ffffffffffffffffffffffffffffffffffffffff1681526020019081526020016000208190555081600460008573ffffffffffffffffffffffffffffffffffffffff1673ffffffffffffffffffffffffffffffffffffffff1681526020019081526020016000208190555060038390806001815401808255809150509060018203906000526020600020016000909192909190916101000a81548173ffffffffffffffffffffffffffffffffffffffff021916908373ffffffffffffffffffffffffffffffffffffffff160217905550508273ffffffffffffffffffffffffffffffffffffffff167f73d60fa978f046c1ccf0f85c6247b34d322ad63d5184881ef2f10bf3c70dde21836040518082815260200191505060405180910390a292915050565b815481835581811115611cd557818360005260206000209182019101611cd49190611cda565b5b505050565b611cfc91905b80821115611cf8576000816000905550600101611ce0565b5090565b905600a165627a7a723058201430e54dd35d7b496bade5c33a61f96a60e79204d5109ae93f53e5b7687321550029a165627a7a7230582081f21111cbdd83b7ba71bed18edffc28494089ca6c2236aeeb5538242606863d0029",
  "source": "pragma solidity ^0.4.24;\n\nimport \"../installed_contracts/zeppelin-solidity/contracts/lifecycle/Pausable.sol\";\nimport \"./WillWallet.sol\";\n\ncontract Deployer is Pausable {\n  constructor ()\n  public {\n\n  }\n\n  enum ContractTypes { will, wallet, willwallet }\n  event ContractDeployed(string contractType, address indexed contractAddress, address indexed creator);\n\n  function _transferOwnership(address _contract, address _newOwner)\n  internal\n  {\n    Ownable(_contract).transferOwnership(_newOwner);\n  }\n\n  function _deployContract(ContractTypes _type, uint256 _waitTime)\n  internal\n  returns (address newContract)\n  {\n    if (_type == ContractTypes.will) {\n      newContract = new Will(_waitTime);\n    } else if (_type == ContractTypes.wallet) {\n      newContract = new Wallet();\n    } else if (_type == ContractTypes.willwallet) {\n      newContract = new WillWallet(_waitTime);\n    }\n    if (newContract != 0x0) {\n      _transferOwnership(newContract, msg.sender);\n      _handleDeposit(newContract);\n    }\n  }\n\n  function _handleDeposit(address _newContract)\n  internal\n  {\n    if (msg.value > 0) {\n      _newContract.transfer(msg.value);\n    }\n  }\n\n  function deployWill(uint256 _waitTime)\n  public whenNotPaused\n  {\n    address newContract = _deployContract(ContractTypes.will, _waitTime);\n    require(newContract != 0x0, 'Will not successfull deployed');\n    emit ContractDeployed('will', newContract, msg.sender);\n  }\n\n  function deployWallet()\n  public whenNotPaused\n  {\n    address newContract = _deployContract(ContractTypes.wallet, 0x0);\n    require(newContract != 0x0, 'Wallet not successfull deployed');\n    emit ContractDeployed('wallet', newContract, msg.sender);\n  }\n\n  function deployWillWallet(uint256 _waitTime)\n  public whenNotPaused\n  {\n    address newContract = _deployContract(ContractTypes.willwallet, _waitTime);\n    require(newContract != 0x0, 'Willwallet not successfull deployed');\n    emit ContractDeployed('willwallet', newContract, msg.sender);\n  }\n}\n",
  "sourcePath": "/media/brvhrt/EAGET/work-dont touch/cwl/contracts/Deployer.sol",
  "compiler": {
    "name": "solc",
    "version": "0.4.24+commit.e67f0147.Emscripten.clang"
  },
  "schemaVersion": "2.0.1",
  "updatedAt": "2018-12-28T21:02:39.541Z"
}