{
  "contractName": "Deployer",
  "abi": [
    {
      "inputs": [],
      "payable": false,
      "stateMutability": "nonpayable",
      "type": "constructor"
    },
    {
      "anonymous": false,
      "inputs": [
        {
          "indexed": false,
          "internalType": "string",
          "name": "contractType",
          "type": "string"
        },
        {
          "indexed": true,
          "internalType": "address",
          "name": "contractAddress",
          "type": "address"
        },
        {
          "indexed": true,
          "internalType": "address",
          "name": "creator",
          "type": "address"
        }
      ],
      "name": "ContractDeployed",
      "type": "event"
    },
    {
      "anonymous": false,
      "inputs": [
        {
          "indexed": false,
          "internalType": "address",
          "name": "account",
          "type": "address"
        }
      ],
      "name": "Paused",
      "type": "event"
    },
    {
      "anonymous": false,
      "inputs": [
        {
          "indexed": true,
          "internalType": "address",
          "name": "account",
          "type": "address"
        }
      ],
      "name": "PauserAdded",
      "type": "event"
    },
    {
      "anonymous": false,
      "inputs": [
        {
          "indexed": true,
          "internalType": "address",
          "name": "account",
          "type": "address"
        }
      ],
      "name": "PauserRemoved",
      "type": "event"
    },
    {
      "anonymous": false,
      "inputs": [
        {
          "indexed": false,
          "internalType": "address",
          "name": "account",
          "type": "address"
        }
      ],
      "name": "Unpaused",
      "type": "event"
    },
    {
      "constant": false,
      "inputs": [
        {
          "internalType": "address",
          "name": "account",
          "type": "address"
        }
      ],
      "name": "addPauser",
      "outputs": [],
      "payable": false,
      "stateMutability": "nonpayable",
      "type": "function"
    },
    {
      "constant": true,
      "inputs": [
        {
          "internalType": "address",
          "name": "account",
          "type": "address"
        }
      ],
      "name": "isPauser",
      "outputs": [
        {
          "internalType": "bool",
          "name": "",
          "type": "bool"
        }
      ],
      "payable": false,
      "stateMutability": "view",
      "type": "function"
    },
    {
      "constant": false,
      "inputs": [],
      "name": "pause",
      "outputs": [],
      "payable": false,
      "stateMutability": "nonpayable",
      "type": "function"
    },
    {
      "constant": true,
      "inputs": [],
      "name": "paused",
      "outputs": [
        {
          "internalType": "bool",
          "name": "",
          "type": "bool"
        }
      ],
      "payable": false,
      "stateMutability": "view",
      "type": "function"
    },
    {
      "constant": false,
      "inputs": [],
      "name": "renouncePauser",
      "outputs": [],
      "payable": false,
      "stateMutability": "nonpayable",
      "type": "function"
    },
    {
      "constant": false,
      "inputs": [],
      "name": "unpause",
      "outputs": [],
      "payable": false,
      "stateMutability": "nonpayable",
      "type": "function"
    },
    {
      "constant": true,
      "inputs": [],
      "name": "version",
      "outputs": [
        {
          "internalType": "uint8",
          "name": "",
          "type": "uint8"
        }
      ],
      "payable": false,
      "stateMutability": "view",
      "type": "function"
    },
    {
      "constant": false,
      "inputs": [
        {
          "internalType": "uint256",
          "name": "_waitTime",
          "type": "uint256"
        }
      ],
      "name": "deployWill",
      "outputs": [],
      "payable": false,
      "stateMutability": "nonpayable",
      "type": "function"
    },
    {
      "constant": false,
      "inputs": [],
      "name": "deployWallet",
      "outputs": [],
      "payable": false,
      "stateMutability": "nonpayable",
      "type": "function"
    },
    {
      "constant": false,
      "inputs": [
        {
          "internalType": "uint256",
          "name": "_waitTime",
          "type": "uint256"
        }
      ],
      "name": "deployWillWallet",
      "outputs": [],
      "payable": false,
      "stateMutability": "nonpayable",
      "type": "function"
    }
  ],
  "bytecode": "0x608060405234801561001057600080fd5b5061002d61002261004d60201b60201c565b61005560201b60201c565b6000600160006101000a81548160ff021916908315150217905550610272565b600033905090565b61006d8160006100b360201b610f331790919060201c565b8073ffffffffffffffffffffffffffffffffffffffff167f6719d08c1888103bea251a4ed56406bd0c3e69723c8a1686e017e7bbe159b6f860405160405180910390a250565b6100c3828261019460201b60201c565b15610136576040517f08c379a000000000000000000000000000000000000000000000000000000000815260040180806020018281038252601f8152602001807f526f6c65733a206163636f756e7420616c72656164792068617320726f6c650081525060200191505060405180910390fd5b60018260000160008373ffffffffffffffffffffffffffffffffffffffff1673ffffffffffffffffffffffffffffffffffffffff16815260200190815260200160002060006101000a81548160ff0219169083151502179055505050565b60008073ffffffffffffffffffffffffffffffffffffffff168273ffffffffffffffffffffffffffffffffffffffff16141561021b576040517f08c379a000000000000000000000000000000000000000000000000000000000815260040180806020018281038252602281526020018061135a6022913960400191505060405180910390fd5b8260000160008373ffffffffffffffffffffffffffffffffffffffff1673ffffffffffffffffffffffffffffffffffffffff16815260200190815260200160002060009054906101000a900460ff16905092915050565b6110d9806102816000396000f3fe608060405234801561001057600080fd5b506004361061009e5760003560e01c80635c975abb116100665780635c975abb1461016557806367d520bb146101875780636ef8d66d146101b557806382dc1ec4146101bf5780638456cb59146102035761009e565b80633d614def146100a35780633f4ba83a146100d157806346fbf68e146100db57806353535db91461013757806354fd4d5014610141575b600080fd5b6100cf600480360360208110156100b957600080fd5b810190808035906020019092919050505061020d565b005b6100d96103bf565b005b61011d600480360360208110156100f157600080fd5b81019080803573ffffffffffffffffffffffffffffffffffffffff16906020019092919050505061052d565b604051808215151515815260200191505060405180910390f35b61013f61054a565b005b610149610719565b604051808260ff1660ff16815260200191505060405180910390f35b61016d61071e565b604051808215151515815260200191505060405180910390f35b6101b36004803603602081101561019d57600080fd5b8101908080359060200190929190505050610735565b005b6101bd610904565b005b610201600480360360208110156101d557600080fd5b81019080803573ffffffffffffffffffffffffffffffffffffffff169060200190929190505050610916565b005b61020b610987565b005b600160009054906101000a900460ff1615610290576040517f08c379a00000000000000000000000000000000000000000000000000000000081526004018080602001828103825260108152602001807f5061757361626c653a207061757365640000000000000000000000000000000081525060200191505060405180910390fd5b600061029d600283610af5565b9050600073ffffffffffffffffffffffffffffffffffffffff168173ffffffffffffffffffffffffffffffffffffffff161415610325576040517f08c379a000000000000000000000000000000000000000000000000000000000815260040180806020018281038252602381526020018061103f6023913960400191505060405180910390fd5b3373ffffffffffffffffffffffffffffffffffffffff168173ffffffffffffffffffffffffffffffffffffffff167f83a465d786f75fe59853d884cce44735e6f4ec345a502886194f09a87253d67d60405180806020018281038252600a8152602001807f77696c6c77616c6c65740000000000000000000000000000000000000000000081525060200191505060405180910390a35050565b6103cf6103ca610be7565b61052d565b610424576040517f08c379a000000000000000000000000000000000000000000000000000000000815260040180806020018281038252603081526020018061100f6030913960400191505060405180910390fd5b600160009054906101000a900460ff166104a6576040517f08c379a00000000000000000000000000000000000000000000000000000000081526004018080602001828103825260148152602001807f5061757361626c653a206e6f742070617573656400000000000000000000000081525060200191505060405180910390fd5b6000600160006101000a81548160ff0219169083151502179055507f5db9ee0a495bf2e6ff9c91a7834c1ba4fdd244a5e8aa4e537bd38aeae4b073aa6104ea610be7565b604051808273ffffffffffffffffffffffffffffffffffffffff1673ffffffffffffffffffffffffffffffffffffffff16815260200191505060405180910390a1565b6000610543826000610bef90919063ffffffff16565b9050919050565b600160009054906101000a900460ff16156105cd576040517f08c379a00000000000000000000000000000000000000000000000000000000081526004018080602001828103825260108152602001807f5061757361626c653a207061757365640000000000000000000000000000000081525060200191505060405180910390fd5b60006105db60016000610af5565b9050600073ffffffffffffffffffffffffffffffffffffffff168173ffffffffffffffffffffffffffffffffffffffff161415610680576040517f08c379a000000000000000000000000000000000000000000000000000000000815260040180806020018281038252601f8152602001807f57616c6c6574206e6f74207375636365737366756c6c206465706c6f7965640081525060200191505060405180910390fd5b3373ffffffffffffffffffffffffffffffffffffffff168173ffffffffffffffffffffffffffffffffffffffff167f83a465d786f75fe59853d884cce44735e6f4ec345a502886194f09a87253d67d6040518080602001828103825260068152602001807f77616c6c6574000000000000000000000000000000000000000000000000000081525060200191505060405180910390a350565b600181565b6000600160009054906101000a900460ff16905090565b600160009054906101000a900460ff16156107b8576040517f08c379a00000000000000000000000000000000000000000000000000000000081526004018080602001828103825260108152602001807f5061757361626c653a207061757365640000000000000000000000000000000081525060200191505060405180910390fd5b60006107c5600083610af5565b9050600073ffffffffffffffffffffffffffffffffffffffff168173ffffffffffffffffffffffffffffffffffffffff16141561086a576040517f08c379a000000000000000000000000000000000000000000000000000000000815260040180806020018281038252601d8152602001807f57696c6c206e6f74207375636365737366756c6c206465706c6f79656400000081525060200191505060405180910390fd5b3373ffffffffffffffffffffffffffffffffffffffff168173ffffffffffffffffffffffffffffffffffffffff167f83a465d786f75fe59853d884cce44735e6f4ec345a502886194f09a87253d67d6040518080602001828103825260048152602001807f77696c6c0000000000000000000000000000000000000000000000000000000081525060200191505060405180910390a35050565b61091461090f610be7565b610ccd565b565b610926610921610be7565b61052d565b61097b576040517f08c379a000000000000000000000000000000000000000000000000000000000815260040180806020018281038252603081526020018061100f6030913960400191505060405180910390fd5b61098481610d27565b50565b610997610992610be7565b61052d565b6109ec576040517f08c379a000000000000000000000000000000000000000000000000000000000815260040180806020018281038252603081526020018061100f6030913960400191505060405180910390fd5b600160009054906101000a900460ff1615610a6f576040517f08c379a00000000000000000000000000000000000000000000000000000000081526004018080602001828103825260108152602001807f5061757361626c653a207061757365640000000000000000000000000000000081525060200191505060405180910390fd5b60018060006101000a81548160ff0219169083151502179055507f62e78cea01bee320cd4e420270b5ea74000d11b0c9f74754ebdbfc544b05a258610ab2610be7565b604051808273ffffffffffffffffffffffffffffffffffffffff1673ffffffffffffffffffffffffffffffffffffffff16815260200191505060405180910390a1565b600073__DeployerLibrary_______________________630e0ea49584846040518363ffffffff1660e01b815260040180836002811115610b3257fe5b60ff1681526020018281526020019250505060206040518083038186803b158015610b5c57600080fd5b505af4158015610b70573d6000803e3d6000fd5b505050506040513d6020811015610b8657600080fd5b81019080805190602001909291905050509050600073ffffffffffffffffffffffffffffffffffffffff168173ffffffffffffffffffffffffffffffffffffffff1614610be157610bd78133610d81565b610be081610e1c565b5b92915050565b600033905090565b60008073ffffffffffffffffffffffffffffffffffffffff168273ffffffffffffffffffffffffffffffffffffffff161415610c76576040517f08c379a00000000000000000000000000000000000000000000000000000000081526004018080602001828103825260228152602001806110836022913960400191505060405180910390fd5b8260000160008373ffffffffffffffffffffffffffffffffffffffff1673ffffffffffffffffffffffffffffffffffffffff16815260200190815260200160002060009054906101000a900460ff16905092915050565b610ce1816000610e7690919063ffffffff16565b8073ffffffffffffffffffffffffffffffffffffffff167fcd265ebaf09df2871cc7bd4133404a235ba12eff2041bb89d9c714a2621c7c7e60405160405180910390a250565b610d3b816000610f3390919063ffffffff16565b8073ffffffffffffffffffffffffffffffffffffffff167f6719d08c1888103bea251a4ed56406bd0c3e69723c8a1686e017e7bbe159b6f860405160405180910390a250565b8173ffffffffffffffffffffffffffffffffffffffff1663f2fde38b826040518263ffffffff1660e01b8152600401808273ffffffffffffffffffffffffffffffffffffffff1673ffffffffffffffffffffffffffffffffffffffff168152602001915050600060405180830381600087803b158015610e0057600080fd5b505af1158015610e14573d6000803e3d6000fd5b505050505050565b6000341115610e735760008190508073ffffffffffffffffffffffffffffffffffffffff166108fc349081150290604051600060405180830381858888f19350505050158015610e70573d6000803e3d6000fd5b50505b50565b610e808282610bef565b610ed5576040517f08c379a00000000000000000000000000000000000000000000000000000000081526004018080602001828103825260218152602001806110626021913960400191505060405180910390fd5b60008260000160008373ffffffffffffffffffffffffffffffffffffffff1673ffffffffffffffffffffffffffffffffffffffff16815260200190815260200160002060006101000a81548160ff0219169083151502179055505050565b610f3d8282610bef565b15610fb0576040517f08c379a000000000000000000000000000000000000000000000000000000000815260040180806020018281038252601f8152602001807f526f6c65733a206163636f756e7420616c72656164792068617320726f6c650081525060200191505060405180910390fd5b60018260000160008373ffffffffffffffffffffffffffffffffffffffff1673ffffffffffffffffffffffffffffffffffffffff16815260200190815260200160002060006101000a81548160ff021916908315150217905550505056fe506175736572526f6c653a2063616c6c657220646f6573206e6f742068617665207468652050617573657220726f6c6557696c6c77616c6c6574206e6f74207375636365737366756c6c206465706c6f796564526f6c65733a206163636f756e7420646f6573206e6f74206861766520726f6c65526f6c65733a206163636f756e7420697320746865207a65726f2061646472657373a265627a7a723158206c55c01fd72e0064e84ec8e3f148c88563d719b2b90acbf0b79d178cf84a4a5764736f6c634300050c0032526f6c65733a206163636f756e7420697320746865207a65726f2061646472657373",
  "source": "pragma solidity ^0.5.12;\n\nimport \"@openzeppelin/contracts/lifecycle/Pausable.sol\";\nimport \"./libraries/DeployerLibrary.sol\";\nimport \"./Version.sol\";\n\ncontract Deployer is Pausable, Version {\n\n  constructor ()\n    public\n  {}\n\n  event ContractDeployed(string contractType, address indexed contractAddress, address indexed creator);\n\n  function _transferOwnership(address _contract, address _newOwner)\n  internal\n  {\n    Ownable(_contract).transferOwnership(_newOwner);\n  }\n\n  function _handleDeposit(address _newContract)\n  internal\n  {\n    if (msg.value > 0) {\n      address payable newContract = address(uint160(_newContract));\n      newContract.transfer(msg.value);\n    }\n  }\n\n  function _deployContract(DeployerLibrary.ContractTypes _type, uint256 _waitTime)\n  internal\n  returns (address newContract)\n  {\n    newContract = DeployerLibrary.deployContract(_type, _waitTime);\n    if (newContract != address(0)) {\n      _transferOwnership(newContract, msg.sender);\n      _handleDeposit(newContract);\n    }\n  }\n\n  function deployWill(uint256 _waitTime)\n  public whenNotPaused\n  {\n    address newContract = _deployContract(DeployerLibrary.ContractTypes.will, _waitTime);\n    require(newContract != address(0), 'Will not successfull deployed');\n    emit ContractDeployed('will', newContract, msg.sender);\n  }\n\n  function deployWallet()\n  public whenNotPaused\n  {\n    address newContract = _deployContract(DeployerLibrary.ContractTypes.wallet, 0);\n    require(newContract != address(0), 'Wallet not successfull deployed');\n    emit ContractDeployed('wallet', newContract, msg.sender);\n  }\n\n  function deployWillWallet(uint256 _waitTime)\n  public whenNotPaused\n  {\n    address newContract = _deployContract(DeployerLibrary.ContractTypes.willwallet, _waitTime);\n    require(newContract != address(0), 'Willwallet not successfull deployed');\n    emit ContractDeployed('willwallet', newContract, msg.sender);\n  }\n}\n",
  "sourcePath": "/media/brvhrt/Vault/Store/New-folder/cwl/contracts/Deployer.sol",
  "compiler": {
    "name": "solc",
    "version": "0.5.12+commit.7709ece9.Emscripten.clang"
  },
  "schemaVersion": "3.0.19",
  "updatedAt": "2019-12-20T22:45:49.222Z",
  "networkType": "ethereum",
  "devdoc": {
    "methods": {
      "pause()": {
        "details": "Called by a pauser to pause, triggers stopped state."
      },
      "paused()": {
        "details": "Returns true if the contract is paused, and false otherwise."
      },
      "unpause()": {
        "details": "Called by a pauser to unpause, returns to normal state."
      }
    }
  },
  "userdoc": {
    "methods": {}
  }
}