{
  "contractName": "Deployer",
  "abi": [
    {
      "constant": false,
      "inputs": [],
      "name": "unpause",
      "outputs": [],
      "payable": false,
      "stateMutability": "nonpayable",
      "type": "function",
      "signature": "0x3f4ba83a"
    },
    {
      "constant": true,
      "inputs": [],
      "name": "version",
      "outputs": [
        {
          "name": "",
          "type": "uint256"
        }
      ],
      "payable": false,
      "stateMutability": "view",
      "type": "function",
      "signature": "0x54fd4d50"
    },
    {
      "constant": true,
      "inputs": [],
      "name": "paused",
      "outputs": [
        {
          "name": "",
          "type": "bool"
        }
      ],
      "payable": false,
      "stateMutability": "view",
      "type": "function",
      "signature": "0x5c975abb"
    },
    {
      "constant": false,
      "inputs": [],
      "name": "renounceOwnership",
      "outputs": [],
      "payable": false,
      "stateMutability": "nonpayable",
      "type": "function",
      "signature": "0x715018a6"
    },
    {
      "constant": false,
      "inputs": [],
      "name": "pause",
      "outputs": [],
      "payable": false,
      "stateMutability": "nonpayable",
      "type": "function",
      "signature": "0x8456cb59"
    },
    {
      "constant": true,
      "inputs": [],
      "name": "owner",
      "outputs": [
        {
          "name": "",
          "type": "address"
        }
      ],
      "payable": false,
      "stateMutability": "view",
      "type": "function",
      "signature": "0x8da5cb5b"
    },
    {
      "constant": false,
      "inputs": [
        {
          "name": "_newOwner",
          "type": "address"
        }
      ],
      "name": "transferOwnership",
      "outputs": [],
      "payable": false,
      "stateMutability": "nonpayable",
      "type": "function",
      "signature": "0xf2fde38b"
    },
    {
      "inputs": [],
      "payable": false,
      "stateMutability": "nonpayable",
      "type": "constructor",
      "signature": "constructor"
    },
    {
      "anonymous": false,
      "inputs": [
        {
          "indexed": false,
          "name": "contractType",
          "type": "string"
        },
        {
          "indexed": true,
          "name": "contractAddress",
          "type": "address"
        },
        {
          "indexed": true,
          "name": "creator",
          "type": "address"
        }
      ],
      "name": "ContractDeployed",
      "type": "event",
      "signature": "0x83a465d786f75fe59853d884cce44735e6f4ec345a502886194f09a87253d67d"
    },
    {
      "anonymous": false,
      "inputs": [],
      "name": "Pause",
      "type": "event",
      "signature": "0x6985a02210a168e66602d3235cb6db0e70f92b3ba4d376a33c0f3d9434bff625"
    },
    {
      "anonymous": false,
      "inputs": [],
      "name": "Unpause",
      "type": "event",
      "signature": "0x7805862f689e2f13df9f062ff482ad3ad112aca9e0847911ed832e158c525b33"
    },
    {
      "anonymous": false,
      "inputs": [
        {
          "indexed": true,
          "name": "previousOwner",
          "type": "address"
        }
      ],
      "name": "OwnershipRenounced",
      "type": "event",
      "signature": "0xf8df31144d9c2f0f6b59d69b8b98abd5459d07f2742c4df920b25aae33c64820"
    },
    {
      "anonymous": false,
      "inputs": [
        {
          "indexed": true,
          "name": "previousOwner",
          "type": "address"
        },
        {
          "indexed": true,
          "name": "newOwner",
          "type": "address"
        }
      ],
      "name": "OwnershipTransferred",
      "type": "event",
      "signature": "0x8be0079c531659141344cd1fd0a4f28419497f9722a3daafe3b4186f6b6457e0"
    },
    {
      "constant": false,
      "inputs": [
        {
          "name": "_waitTime",
          "type": "uint256"
        }
      ],
      "name": "deployWill",
      "outputs": [],
      "payable": false,
      "stateMutability": "nonpayable",
      "type": "function",
      "signature": "0x67d520bb"
    },
    {
      "constant": false,
      "inputs": [],
      "name": "deployWallet",
      "outputs": [],
      "payable": false,
      "stateMutability": "nonpayable",
      "type": "function",
      "signature": "0x53535db9"
    },
    {
      "constant": false,
      "inputs": [
        {
          "name": "_waitTime",
          "type": "uint256"
        }
      ],
      "name": "deployWillWallet",
      "outputs": [],
      "payable": false,
      "stateMutability": "nonpayable",
      "type": "function",
      "signature": "0x3d614def"
    }
  ],
  "bytecode": "0x608060405260008060146101000a81548160ff02191690831515021790555034801561002a57600080fd5b50336000806101000a81548173ffffffffffffffffffffffffffffffffffffffff021916908373ffffffffffffffffffffffffffffffffffffffff1602179055506156948061007a6000396000f3006080604052600436106100a4576000357c0100000000000000000000000000000000000000000000000000000000900463ffffffff1680633d614def146100a95780633f4ba83a146100d657806353535db9146100ed57806354fd4d50146101045780635c975abb1461012f57806367d520bb1461015e578063715018a61461018b5780638456cb59146101a25780638da5cb5b146101b9578063f2fde38b14610210575b600080fd5b3480156100b557600080fd5b506100d460048036038101908080359060200190929190505050610253565b005b3480156100e257600080fd5b506100eb6103cc565b005b3480156100f957600080fd5b5061010261048a565b005b34801561011057600080fd5b506101196105dd565b6040518082815260200191505060405180910390f35b34801561013b57600080fd5b506101446105e2565b604051808215151515815260200191505060405180910390f35b34801561016a57600080fd5b50610189600480360381019080803590602001909291905050506105f5565b005b34801561019757600080fd5b506101a0610748565b005b3480156101ae57600080fd5b506101b761084a565b005b3480156101c557600080fd5b506101ce61090a565b604051808273ffffffffffffffffffffffffffffffffffffffff1673ffffffffffffffffffffffffffffffffffffffff16815260200191505060405180910390f35b34801561021c57600080fd5b50610251600480360381019080803573ffffffffffffffffffffffffffffffffffffffff16906020019092919050505061092f565b005b60008060149054906101000a900460ff1615151561027057600080fd5b61027b600283610996565b905060008173ffffffffffffffffffffffffffffffffffffffff1614151515610332576040517f08c379a00000000000000000000000000000000000000000000000000000000081526004018080602001828103825260238152602001807f57696c6c77616c6c6574206e6f74207375636365737366756c6c206465706c6f81526020017f796564000000000000000000000000000000000000000000000000000000000081525060400191505060405180910390fd5b3373ffffffffffffffffffffffffffffffffffffffff168173ffffffffffffffffffffffffffffffffffffffff167f83a465d786f75fe59853d884cce44735e6f4ec345a502886194f09a87253d67d60405180806020018281038252600a8152602001807f77696c6c77616c6c65740000000000000000000000000000000000000000000081525060200191505060405180910390a35050565b6000809054906101000a900473ffffffffffffffffffffffffffffffffffffffff1673ffffffffffffffffffffffffffffffffffffffff163373ffffffffffffffffffffffffffffffffffffffff1614151561042757600080fd5b600060149054906101000a900460ff16151561044257600080fd5b60008060146101000a81548160ff0219169083151502179055507f7805862f689e2f13df9f062ff482ad3ad112aca9e0847911ed832e158c525b3360405160405180910390a1565b60008060149054906101000a900460ff161515156104a757600080fd5b6104b360016000610996565b905060008173ffffffffffffffffffffffffffffffffffffffff1614151515610544576040517f08c379a000000000000000000000000000000000000000000000000000000000815260040180806020018281038252601f8152602001807f57616c6c6574206e6f74207375636365737366756c6c206465706c6f7965640081525060200191505060405180910390fd5b3373ffffffffffffffffffffffffffffffffffffffff168173ffffffffffffffffffffffffffffffffffffffff167f83a465d786f75fe59853d884cce44735e6f4ec345a502886194f09a87253d67d6040518080602001828103825260068152602001807f77616c6c6574000000000000000000000000000000000000000000000000000081525060200191505060405180910390a350565b600081565b600060149054906101000a900460ff1681565b60008060149054906101000a900460ff1615151561061257600080fd5b61061d600083610996565b905060008173ffffffffffffffffffffffffffffffffffffffff16141515156106ae576040517f08c379a000000000000000000000000000000000000000000000000000000000815260040180806020018281038252601d8152602001807f57696c6c206e6f74207375636365737366756c6c206465706c6f79656400000081525060200191505060405180910390fd5b3373ffffffffffffffffffffffffffffffffffffffff168173ffffffffffffffffffffffffffffffffffffffff167f83a465d786f75fe59853d884cce44735e6f4ec345a502886194f09a87253d67d6040518080602001828103825260048152602001807f77696c6c0000000000000000000000000000000000000000000000000000000081525060200191505060405180910390a35050565b6000809054906101000a900473ffffffffffffffffffffffffffffffffffffffff1673ffffffffffffffffffffffffffffffffffffffff163373ffffffffffffffffffffffffffffffffffffffff161415156107a357600080fd5b6000809054906101000a900473ffffffffffffffffffffffffffffffffffffffff1673ffffffffffffffffffffffffffffffffffffffff167ff8df31144d9c2f0f6b59d69b8b98abd5459d07f2742c4df920b25aae33c6482060405160405180910390a260008060006101000a81548173ffffffffffffffffffffffffffffffffffffffff021916908373ffffffffffffffffffffffffffffffffffffffff160217905550565b6000809054906101000a900473ffffffffffffffffffffffffffffffffffffffff1673ffffffffffffffffffffffffffffffffffffffff163373ffffffffffffffffffffffffffffffffffffffff161415156108a557600080fd5b600060149054906101000a900460ff161515156108c157600080fd5b6001600060146101000a81548160ff0219169083151502179055507f6985a02210a168e66602d3235cb6db0e70f92b3ba4d376a33c0f3d9434bff62560405160405180910390a1565b6000809054906101000a900473ffffffffffffffffffffffffffffffffffffffff1681565b6000809054906101000a900473ffffffffffffffffffffffffffffffffffffffff1673ffffffffffffffffffffffffffffffffffffffff163373ffffffffffffffffffffffffffffffffffffffff1614151561098a57600080fd5b61099381610ac5565b50565b60008060028111156109a457fe5b8360028111156109b057fe5b14156109ed57816109bf610cca565b80828152602001915050604051809103906000f0801580156109e5573d6000803e3d6000fd5b509050610a8b565b600160028111156109fa57fe5b836002811115610a0657fe5b1415610a3857610a14610cda565b604051809103906000f080158015610a30573d6000803e3d6000fd5b509050610a8a565b600280811115610a4457fe5b836002811115610a5057fe5b1415610a895781610a5f610cea565b80828152602001915050604051809103906000f080158015610a85573d6000803e3d6000fd5b5090505b5b5b60008173ffffffffffffffffffffffffffffffffffffffff16141515610abf57610ab58133610bbf565b610abe81610c76565b5b92915050565b600073ffffffffffffffffffffffffffffffffffffffff168173ffffffffffffffffffffffffffffffffffffffff1614151515610b0157600080fd5b8073ffffffffffffffffffffffffffffffffffffffff166000809054906101000a900473ffffffffffffffffffffffffffffffffffffffff1673ffffffffffffffffffffffffffffffffffffffff167f8be0079c531659141344cd1fd0a4f28419497f9722a3daafe3b4186f6b6457e060405160405180910390a3806000806101000a81548173ffffffffffffffffffffffffffffffffffffffff021916908373ffffffffffffffffffffffffffffffffffffffff16021790555050565b8173ffffffffffffffffffffffffffffffffffffffff1663f2fde38b826040518263ffffffff167c0100000000000000000000000000000000000000000000000000000000028152600401808273ffffffffffffffffffffffffffffffffffffffff1673ffffffffffffffffffffffffffffffffffffffff168152602001915050600060405180830381600087803b158015610c5a57600080fd5b505af1158015610c6e573d6000803e3d6000fd5b505050505050565b6000341115610cc7578073ffffffffffffffffffffffffffffffffffffffff166108fc349081150290604051600060405180830381858888f19350505050158015610cc5573d6000803e3d6000fd5b505b50565b60405161202780610cfb83390190565b60405161070e80612d2283390190565b60405161223980613430833901905600608060405234801561001057600080fd5b5060405160208061202783398101806040528101908080519060200190929190505050336000806101000a81548173ffffffffffffffffffffffffffffffffffffffff021916908373ffffffffffffffffffffffffffffffffffffffff16021790555060033390806001815401808255809150509060018203906000526020600020016000909192909190916101000a81548173ffffffffffffffffffffffffffffffffffffffff021916908373ffffffffffffffffffffffffffffffffffffffff16021790555050806001819055504260028190555050611f30806100f76000396000f30060806040526004361061011d576000357c0100000000000000000000000000000000000000000000000000000000900463ffffffff16806310812a7d146101c4578063282f7cdd146101f357806353bda15b1461022257806354fd4d501461024d57806359633a1c1461027857806367e74005146102d3578063715018a61461036e5780638da5cb5b146103855780638f71a265146103dc5780639d19b22614610407578063aa13e8c214610462578063b756feff1461048d578063b815b300146104a4578063b914d908146104d3578063c2ff50121461052a578063d01a69c914610555578063d39e6bb114610580578063dabc57d9146105eb578063e7caed9114610642578063f2fde38b14610664578063fcb9b505146106a7575b6000809054906101000a900473ffffffffffffffffffffffffffffffffffffffff1673ffffffffffffffffffffffffffffffffffffffff163373ffffffffffffffffffffffffffffffffffffffff1614801561018c575060001515600060149054906101000a900460ff161515145b1561019f5761019961070c565b506101c2565b6000341480156101b357506101b2610828565b5b156101c1576101c0610849565b5b5b005b3480156101d057600080fd5b506101d9610c33565b604051808215151515815260200191505060405180910390f35b3480156101ff57600080fd5b50610208610828565b604051808215151515815260200191505060405180910390f35b34801561022e57600080fd5b50610237610c46565b6040518082815260200191505060405180910390f35b34801561025957600080fd5b50610262610c4b565b6040518082815260200191505060405180910390f35b34801561028457600080fd5b506102b9600480360381019080803573ffffffffffffffffffffffffffffffffffffffff169060200190929190505050610c50565b604051808215151515815260200191505060405180910390f35b3480156102df57600080fd5b50610354600480360381019080806101400190600a806020026040519081016040528092919082600a6020028082843782019150505050509192919290806101400190600a806020026040519081016040528092919082600a602002808284378201915050505050919291929050505061118f565b604051808215151515815260200191505060405180910390f35b34801561037a57600080fd5b50610383611275565b005b34801561039157600080fd5b5061039a611377565b604051808273ffffffffffffffffffffffffffffffffffffffff1673ffffffffffffffffffffffffffffffffffffffff16815260200191505060405180910390f35b3480156103e857600080fd5b506103f161139c565b6040518082815260200191505060405180910390f35b34801561041357600080fd5b50610448600480360381019080803573ffffffffffffffffffffffffffffffffffffffff1690602001909291905050506113a2565b604051808215151515815260200191505060405180910390f35b34801561046e57600080fd5b506104776113ed565b6040518082815260200191505060405180910390f35b34801561049957600080fd5b506104a2610849565b005b3480156104b057600080fd5b506104b96113f3565b604051808215151515815260200191505060405180910390f35b3480156104df57600080fd5b50610514600480360381019080803573ffffffffffffffffffffffffffffffffffffffff169060200190929190505050611406565b6040518082815260200191505060405180910390f35b34801561053657600080fd5b5061053f61144f565b6040518082815260200191505060405180910390f35b34801561056157600080fd5b5061056a611502565b6040518082815260200191505060405180910390f35b34801561058c57600080fd5b506105d1600480360381019080806101400190600a806020026040519081016040528092919082600a602002808284378201915050505050919291929050505061150f565b604051808215151515815260200191505060405180910390f35b3480156105f757600080fd5b5061062c600480360381019080803573ffffffffffffffffffffffffffffffffffffffff1690602001909291905050506115e1565b6040518082815260200191505060405180910390f35b61064a61070c565b604051808215151515815260200191505060405180910390f35b34801561067057600080fd5b506106a5600480360381019080803573ffffffffffffffffffffffffffffffffffffffff1690602001909291905050506115f9565b005b3480156106b357600080fd5b506106f2600480360381019080803573ffffffffffffffffffffffffffffffffffffffff16906020019092919080359060200190929190505050611660565b604051808215151515815260200191505060405180910390f35b60008060009054906101000a900473ffffffffffffffffffffffffffffffffffffffff1673ffffffffffffffffffffffffffffffffffffffff163373ffffffffffffffffffffffffffffffffffffffff1614151561076957600080fd5b60001515600060149054906101000a900460ff16151514151561081a576040517f08c379a00000000000000000000000000000000000000000000000000000000081526004018080602001828103825260308152602001807f54696d65722063616e206e6f7420626520726573657420616674657220696e6981526020017f7469616c20646973706f736974696f6e0000000000000000000000000000000081525060400191505060405180910390fd5b426002819055506001905090565b60006001546108426002544261194c90919063ffffffff16565b1015905090565b600080600080610857610828565b15156108f1576040517f08c379a00000000000000000000000000000000000000000000000000000000081526004018080602001828103825260238152602001807f57696c6c206973206e6f74207965742064756520666f7220646973706f73697481526020017f696f6e000000000000000000000000000000000000000000000000000000000081525060400191505060405180910390fd5b60001515600060159054906101000a900460ff1615151415156109a2576040517f08c379a000000000000000000000000000000000000000000000000000000000815260040180806020018281038252602e8152602001807f416e20696e7374616e6365206f662064697362757273656d656e74206973206181526020017f6c72656164792072756e6e696e6700000000000000000000000000000000000081525060400191505060405180910390fd5b6001600060156101000a81548160ff021916908315150217905550600093503073ffffffffffffffffffffffffffffffffffffffff163192506109e361144f565b91506001600060146101000a81548160ff02191690831515021790555060016003805490501115610b7b57600190505b600380549050811015610b7a57610a64600382815481101515610a3257fe5b9060005260206000200160009054906101000a900473ffffffffffffffffffffffffffffffffffffffff168484611965565b9350600381815481101515610a7557fe5b9060005260206000200160009054906101000a900473ffffffffffffffffffffffffffffffffffffffff1673ffffffffffffffffffffffffffffffffffffffff166108fc859081150290604051600060405180830381858888f19350505050158015610ae5573d6000803e3d6000fd5b50600381815481101515610af557fe5b9060005260206000200160009054906101000a900473ffffffffffffffffffffffffffffffffffffffff1673ffffffffffffffffffffffffffffffffffffffff167f3b523f60e6edf0c2a9c8f03655abbd5e5ea4a5164318e6dd820b253d44b01ac8856040518082815260200191505060405180910390a28080600101915050610a13565b5b60036000815481101515610b8b57fe5b9060005260206000200160009054906101000a900473ffffffffffffffffffffffffffffffffffffffff1673ffffffffffffffffffffffffffffffffffffffff166108fc3073ffffffffffffffffffffffffffffffffffffffff16319081150290604051600060405180830381858888f19350505050158015610c12573d6000803e3d6000fd5b5060008060156101000a81548160ff02191690831515021790555050505050565b600060149054906101000a900460ff1681565b600a81565b600081565b6000806000809054906101000a900473ffffffffffffffffffffffffffffffffffffffff1673ffffffffffffffffffffffffffffffffffffffff163373ffffffffffffffffffffffffffffffffffffffff16141515610cae57600080fd5b60008373ffffffffffffffffffffffffffffffffffffffff1614151515610d63576040517f08c379a00000000000000000000000000000000000000000000000000000000081526004018080602001828103825260278152602001807f50726f7669646520612062656e6566696369617279206164647265737320746f81526020017f2072656d6f76650000000000000000000000000000000000000000000000000081525060400191505060405180910390fd5b610d6b610828565b151515610e06576040517f08c379a00000000000000000000000000000000000000000000000000000000081526004018080602001828103825260338152602001807f43616e206e6f742075706461746520646973706f736974696f6e73207768656e81526020017f20646973706f736974696f6e206973204475650000000000000000000000000081525060400191505060405180910390fd5b610e0f83611406565b90508273ffffffffffffffffffffffffffffffffffffffff16600382815481101515610e3757fe5b9060005260206000200160009054906101000a900473ffffffffffffffffffffffffffffffffffffffff1673ffffffffffffffffffffffffffffffffffffffff16141515610e8157fe5b60008114151515610f20576040517f08c379a000000000000000000000000000000000000000000000000000000000815260040180806020018281038252602f8152602001807f596f752063616e206e6f742072656d6f7665207468652063726561746f72206181526020017f7320612062656e6566696369617279000000000000000000000000000000000081525060400191505060405180910390fd5b600460008473ffffffffffffffffffffffffffffffffffffffff1673ffffffffffffffffffffffffffffffffffffffff16815260200190815260200160002060009055600560008473ffffffffffffffffffffffffffffffffffffffff1673ffffffffffffffffffffffffffffffffffffffff168152602001908152602001600020600090556003610fc1600160038054905061194c90919063ffffffff16565b815481101515610fcd57fe5b9060005260206000200160009054906101000a900473ffffffffffffffffffffffffffffffffffffffff1660038281548110151561100757fe5b9060005260206000200160006101000a81548173ffffffffffffffffffffffffffffffffffffffff021916908373ffffffffffffffffffffffffffffffffffffffff160217905550806005600060038481548110151561106357fe5b9060005260206000200160009054906101000a900473ffffffffffffffffffffffffffffffffffffffff1673ffffffffffffffffffffffffffffffffffffffff1673ffffffffffffffffffffffffffffffffffffffff1681526020019081526020016000208190555060036110e7600160038054905061194c90919063ffffffff16565b8154811015156110f357fe5b9060005260206000200160006101000a81549073ffffffffffffffffffffffffffffffffffffffff021916905560038054809190600190036111359190611eb3565b508273ffffffffffffffffffffffffffffffffffffffff167f73d60fa978f046c1ccf0f85c6247b34d322ad63d5184881ef2f10bf3c70dde2160006040518082815260200191505060405180910390a26001915050919050565b6000806000809054906101000a900473ffffffffffffffffffffffffffffffffffffffff1673ffffffffffffffffffffffffffffffffffffffff163373ffffffffffffffffffffffffffffffffffffffff161415156111ed57600080fd5b600090505b600a81101561126a5760008482600a8110151561120b57fe5b602002015173ffffffffffffffffffffffffffffffffffffffff1614151561125d5761125b8482600a8110151561123e57fe5b60200201518483600a8110151561125157fe5b6020020151611660565b505b80806001019150506111f2565b600191505092915050565b6000809054906101000a900473ffffffffffffffffffffffffffffffffffffffff1673ffffffffffffffffffffffffffffffffffffffff163373ffffffffffffffffffffffffffffffffffffffff161415156112d057600080fd5b6000809054906101000a900473ffffffffffffffffffffffffffffffffffffffff1673ffffffffffffffffffffffffffffffffffffffff167ff8df31144d9c2f0f6b59d69b8b98abd5459d07f2742c4df920b25aae33c6482060405160405180910390a260008060006101000a81548173ffffffffffffffffffffffffffffffffffffffff021916908373ffffffffffffffffffffffffffffffffffffffff160217905550565b6000809054906101000a900473ffffffffffffffffffffffffffffffffffffffff1681565b60025481565b600080600460008473ffffffffffffffffffffffffffffffffffffffff1673ffffffffffffffffffffffffffffffffffffffff16815260200190815260200160002054119050919050565b60015481565b600060159054906101000a900460ff1681565b6000600560008373ffffffffffffffffffffffffffffffffffffffff1673ffffffffffffffffffffffffffffffffffffffff168152602001908152602001600020549050919050565b600080600190505b6003805490508110156114fe576114ef6004600060038481548110151561147a57fe5b9060005260206000200160009054906101000a900473ffffffffffffffffffffffffffffffffffffffff1673ffffffffffffffffffffffffffffffffffffffff1673ffffffffffffffffffffffffffffffffffffffff16815260200190815260200160002054836119d490919063ffffffff16565b91508080600101915050611457565b5090565b6000600380549050905090565b6000806000809054906101000a900473ffffffffffffffffffffffffffffffffffffffff1673ffffffffffffffffffffffffffffffffffffffff163373ffffffffffffffffffffffffffffffffffffffff1614151561156d57600080fd5b600090505b600a8110156115d75760008382600a8110151561158b57fe5b602002015173ffffffffffffffffffffffffffffffffffffffff161415156115ca576115c88382600a811015156115be57fe5b6020020151610c50565b505b8080600101915050611572565b6001915050919050565b60046020528060005260406000206000915090505481565b6000809054906101000a900473ffffffffffffffffffffffffffffffffffffffff1673ffffffffffffffffffffffffffffffffffffffff163373ffffffffffffffffffffffffffffffffffffffff1614151561165457600080fd5b61165d816119f0565b50565b60008060009054906101000a900473ffffffffffffffffffffffffffffffffffffffff1673ffffffffffffffffffffffffffffffffffffffff163373ffffffffffffffffffffffffffffffffffffffff161415156116bd57600080fd5b60008373ffffffffffffffffffffffffffffffffffffffff161415151561174c576040517f08c379a000000000000000000000000000000000000000000000000000000000815260040180806020018281038252601b8152602001807f5f62656e65666963696172792063616e6e6f74206265205a65726f000000000081525060200191505060405180910390fd5b6000821115156117ea576040517f08c379a00000000000000000000000000000000000000000000000000000000081526004018080602001828103825260218152602001807f446973706f736974696f6e206d75737420626520677265746572207468616e2081526020017f300000000000000000000000000000000000000000000000000000000000000081525060400191505060405180910390fd5b6117f2610828565b15151561188d576040517f08c379a00000000000000000000000000000000000000000000000000000000081526004018080602001828103825260338152602001807f43616e206e6f742075706461746520646973706f736974696f6e73207768656e81526020017f20646973706f736974696f6e206973204475650000000000000000000000000081525060400191505060405180910390fd5b600061189884611406565b14156118af576118a88383611aea565b9050611946565b81600460008573ffffffffffffffffffffffffffffffffffffffff1673ffffffffffffffffffffffffffffffffffffffff168152602001908152602001600020819055508273ffffffffffffffffffffffffffffffffffffffff167f73d60fa978f046c1ccf0f85c6247b34d322ad63d5184881ef2f10bf3c70dde21836040518082815260200191505060405180910390a2600190505b92915050565b600082821115151561195a57fe5b818303905092915050565b60006119cb826119bd600460008873ffffffffffffffffffffffffffffffffffffffff1673ffffffffffffffffffffffffffffffffffffffff1681526020019081526020016000205486611e6590919063ffffffff16565b611e9d90919063ffffffff16565b90509392505050565b600081830190508281101515156119e757fe5b80905092915050565b600073ffffffffffffffffffffffffffffffffffffffff168173ffffffffffffffffffffffffffffffffffffffff1614151515611a2c57600080fd5b8073ffffffffffffffffffffffffffffffffffffffff166000809054906101000a900473ffffffffffffffffffffffffffffffffffffffff1673ffffffffffffffffffffffffffffffffffffffff167f8be0079c531659141344cd1fd0a4f28419497f9722a3daafe3b4186f6b6457e060405160405180910390a3806000806101000a81548173ffffffffffffffffffffffffffffffffffffffff021916908373ffffffffffffffffffffffffffffffffffffffff16021790555050565b60008060009054906101000a900473ffffffffffffffffffffffffffffffffffffffff1673ffffffffffffffffffffffffffffffffffffffff163373ffffffffffffffffffffffffffffffffffffffff16141515611b4757600080fd5b60008373ffffffffffffffffffffffffffffffffffffffff1614151515611bd6576040517f08c379a000000000000000000000000000000000000000000000000000000000815260040180806020018281038252601b8152602001807f5f62656e65666963696172792063616e6e6f74206265205a65726f000000000081525060200191505060405180910390fd5b600082111515611c74576040517f08c379a00000000000000000000000000000000000000000000000000000000081526004018080602001828103825260218152602001807f446973706f736974696f6e206d75737420626520677265746572207468616e2081526020017f300000000000000000000000000000000000000000000000000000000000000081525060400191505060405180910390fd5b60001515611c81846113a2565b1515141515611d1e576040517f08c379a00000000000000000000000000000000000000000000000000000000081526004018080602001828103825260308152602001807f43616e6e6f7420616464206578697374696e672062656e65666963696172792081526020017f416e65772c20757365207570646174650000000000000000000000000000000081525060400191505060405180910390fd5b600380549050600560008573ffffffffffffffffffffffffffffffffffffffff1673ffffffffffffffffffffffffffffffffffffffff1681526020019081526020016000208190555081600460008573ffffffffffffffffffffffffffffffffffffffff1673ffffffffffffffffffffffffffffffffffffffff1681526020019081526020016000208190555060038390806001815401808255809150509060018203906000526020600020016000909192909190916101000a81548173ffffffffffffffffffffffffffffffffffffffff021916908373ffffffffffffffffffffffffffffffffffffffff160217905550508273ffffffffffffffffffffffffffffffffffffffff167f73d60fa978f046c1ccf0f85c6247b34d322ad63d5184881ef2f10bf3c70dde21836040518082815260200191505060405180910390a292915050565b600080831415611e785760009050611e97565b8183029050818382811515611e8957fe5b04141515611e9357fe5b8090505b92915050565b60008183811515611eaa57fe5b04905092915050565b815481835581811115611eda57818360005260206000209182019101611ed99190611edf565b5b505050565b611f0191905b80821115611efd576000816000905550600101611ee5565b5090565b905600a165627a7a72305820925c1bd6fccd2843f089f87f404231c08ba4b7355d3b2a5f21ee4ccbfe3c67330029608060405234801561001057600080fd5b50336000806101000a81548173ffffffffffffffffffffffffffffffffffffffff021916908373ffffffffffffffffffffffffffffffffffffffff1602179055506106ae806100606000396000f300608060405260043610610078576000357c0100000000000000000000000000000000000000000000000000000000900463ffffffff16806354fd4d501461007a57806367c4719d146100a5578063715018a6146101435780638da5cb5b1461015a578063a9059cbb146101b1578063f2fde38b14610216575b005b34801561008657600080fd5b5061008f610259565b6040518082815260200191505060405180910390f35b610129600480360381019080803573ffffffffffffffffffffffffffffffffffffffff16906020019092919080359060200190929190803590602001908201803590602001908080601f016020809104026020016040519081016040528093929190818152602001838380828437820191505050505050919291929050505061025e565b604051808215151515815260200191505060405180910390f35b34801561014f57600080fd5b5061015861034c565b005b34801561016657600080fd5b5061016f61044e565b604051808273ffffffffffffffffffffffffffffffffffffffff1673ffffffffffffffffffffffffffffffffffffffff16815260200191505060405180910390f35b3480156101bd57600080fd5b506101fc600480360381019080803573ffffffffffffffffffffffffffffffffffffffff16906020019092919080359060200190929190505050610473565b604051808215151515815260200191505060405180910390f35b34801561022257600080fd5b50610257600480360381019080803573ffffffffffffffffffffffffffffffffffffffff169060200190929190505050610521565b005b600081565b60008060009054906101000a900473ffffffffffffffffffffffffffffffffffffffff1673ffffffffffffffffffffffffffffffffffffffff163373ffffffffffffffffffffffffffffffffffffffff161415156102bb57600080fd5b8373ffffffffffffffffffffffffffffffffffffffff16838360405180828051906020019080838360005b838110156103015780820151818401526020810190506102e6565b50505050905090810190601f16801561032e5780820380516001836020036101000a031916815260200191505b5091505060006040518083038185875af19250505090509392505050565b6000809054906101000a900473ffffffffffffffffffffffffffffffffffffffff1673ffffffffffffffffffffffffffffffffffffffff163373ffffffffffffffffffffffffffffffffffffffff161415156103a757600080fd5b6000809054906101000a900473ffffffffffffffffffffffffffffffffffffffff1673ffffffffffffffffffffffffffffffffffffffff167ff8df31144d9c2f0f6b59d69b8b98abd5459d07f2742c4df920b25aae33c6482060405160405180910390a260008060006101000a81548173ffffffffffffffffffffffffffffffffffffffff021916908373ffffffffffffffffffffffffffffffffffffffff160217905550565b6000809054906101000a900473ffffffffffffffffffffffffffffffffffffffff1681565b60008060009054906101000a900473ffffffffffffffffffffffffffffffffffffffff1673ffffffffffffffffffffffffffffffffffffffff163373ffffffffffffffffffffffffffffffffffffffff161415156104d057600080fd5b8273ffffffffffffffffffffffffffffffffffffffff166108fc839081150290604051600060405180830381858888f19350505050158015610516573d6000803e3d6000fd5b506001905092915050565b6000809054906101000a900473ffffffffffffffffffffffffffffffffffffffff1673ffffffffffffffffffffffffffffffffffffffff163373ffffffffffffffffffffffffffffffffffffffff1614151561057c57600080fd5b61058581610588565b50565b600073ffffffffffffffffffffffffffffffffffffffff168173ffffffffffffffffffffffffffffffffffffffff16141515156105c457600080fd5b8073ffffffffffffffffffffffffffffffffffffffff166000809054906101000a900473ffffffffffffffffffffffffffffffffffffffff1673ffffffffffffffffffffffffffffffffffffffff167f8be0079c531659141344cd1fd0a4f28419497f9722a3daafe3b4186f6b6457e060405160405180910390a3806000806101000a81548173ffffffffffffffffffffffffffffffffffffffff021916908373ffffffffffffffffffffffffffffffffffffffff160217905550505600a165627a7a72305820f9fb3a6acf80fd38939b95121c6548d0474503a9fcfd7ab040f83e93c4b707eb0029608060405234801561001057600080fd5b506040516020806122398339810180604052810190808051906020019092919050505080336000806101000a81548173ffffffffffffffffffffffffffffffffffffffff021916908373ffffffffffffffffffffffffffffffffffffffff16021790555060033390806001815401808255809150509060018203906000526020600020016000909192909190916101000a81548173ffffffffffffffffffffffffffffffffffffffff021916908373ffffffffffffffffffffffffffffffffffffffff1602179055505080600181905550426002819055505050612140806100f96000396000f300608060405260043610610133576000357c0100000000000000000000000000000000000000000000000000000000900463ffffffff16806310812a7d14610135578063282f7cdd1461016457806353bda15b1461019357806354fd4d50146101be57806359633a1c146101e957806367c4719d1461024457806367e74005146102e2578063715018a61461037d5780638da5cb5b146103945780638f71a265146103eb5780639d19b22614610416578063a9059cbb14610471578063aa13e8c2146104d6578063b756feff14610501578063b815b30014610518578063b914d90814610547578063c2ff50121461059e578063d01a69c9146105c9578063d39e6bb1146105f4578063dabc57d91461065f578063e7caed91146106b6578063f2fde38b146106d8578063fcb9b5051461071b575b005b34801561014157600080fd5b5061014a610780565b604051808215151515815260200191505060405180910390f35b34801561017057600080fd5b50610179610793565b604051808215151515815260200191505060405180910390f35b34801561019f57600080fd5b506101a86107b4565b6040518082815260200191505060405180910390f35b3480156101ca57600080fd5b506101d36107b9565b6040518082815260200191505060405180910390f35b3480156101f557600080fd5b5061022a600480360381019080803573ffffffffffffffffffffffffffffffffffffffff1690602001909291905050506107be565b604051808215151515815260200191505060405180910390f35b6102c8600480360381019080803573ffffffffffffffffffffffffffffffffffffffff16906020019092919080359060200190929190803590602001908201803590602001908080601f0160208091040260200160405190810160405280939291908181526020018383808284378201915050505050509192919290505050610cfd565b604051808215151515815260200191505060405180910390f35b3480156102ee57600080fd5b50610363600480360381019080806101400190600a806020026040519081016040528092919082600a6020028082843782019150505050509192919290806101400190600a806020026040519081016040528092919082600a6020028082843782019150505050509192919290505050610deb565b604051808215151515815260200191505060405180910390f35b34801561038957600080fd5b50610392610ed1565b005b3480156103a057600080fd5b506103a9610fd3565b604051808273ffffffffffffffffffffffffffffffffffffffff1673ffffffffffffffffffffffffffffffffffffffff16815260200191505060405180910390f35b3480156103f757600080fd5b50610400610ff8565b6040518082815260200191505060405180910390f35b34801561042257600080fd5b50610457600480360381019080803573ffffffffffffffffffffffffffffffffffffffff169060200190929190505050610ffe565b604051808215151515815260200191505060405180910390f35b34801561047d57600080fd5b506104bc600480360381019080803573ffffffffffffffffffffffffffffffffffffffff16906020019092919080359060200190929190505050611049565b604051808215151515815260200191505060405180910390f35b3480156104e257600080fd5b506104eb6110f7565b6040518082815260200191505060405180910390f35b34801561050d57600080fd5b506105166110fd565b005b34801561052457600080fd5b5061052d6114e7565b604051808215151515815260200191505060405180910390f35b34801561055357600080fd5b50610588600480360381019080803573ffffffffffffffffffffffffffffffffffffffff1690602001909291905050506114fa565b6040518082815260200191505060405180910390f35b3480156105aa57600080fd5b506105b3611543565b6040518082815260200191505060405180910390f35b3480156105d557600080fd5b506105de6115f6565b6040518082815260200191505060405180910390f35b34801561060057600080fd5b50610645600480360381019080806101400190600a806020026040519081016040528092919082600a6020028082843782019150505050509192919290505050611603565b604051808215151515815260200191505060405180910390f35b34801561066b57600080fd5b506106a0600480360381019080803573ffffffffffffffffffffffffffffffffffffffff1690602001909291905050506116d5565b6040518082815260200191505060405180910390f35b6106be6116ed565b604051808215151515815260200191505060405180910390f35b3480156106e457600080fd5b50610719600480360381019080803573ffffffffffffffffffffffffffffffffffffffff169060200190929190505050611809565b005b34801561072757600080fd5b50610766600480360381019080803573ffffffffffffffffffffffffffffffffffffffff16906020019092919080359060200190929190505050611870565b604051808215151515815260200191505060405180910390f35b600060149054906101000a900460ff1681565b60006001546107ad60025442611b5c90919063ffffffff16565b1015905090565b600a81565b600081565b6000806000809054906101000a900473ffffffffffffffffffffffffffffffffffffffff1673ffffffffffffffffffffffffffffffffffffffff163373ffffffffffffffffffffffffffffffffffffffff1614151561081c57600080fd5b60008373ffffffffffffffffffffffffffffffffffffffff16141515156108d1576040517f08c379a00000000000000000000000000000000000000000000000000000000081526004018080602001828103825260278152602001807f50726f7669646520612062656e6566696369617279206164647265737320746f81526020017f2072656d6f76650000000000000000000000000000000000000000000000000081525060400191505060405180910390fd5b6108d9610793565b151515610974576040517f08c379a00000000000000000000000000000000000000000000000000000000081526004018080602001828103825260338152602001807f43616e206e6f742075706461746520646973706f736974696f6e73207768656e81526020017f20646973706f736974696f6e206973204475650000000000000000000000000081525060400191505060405180910390fd5b61097d836114fa565b90508273ffffffffffffffffffffffffffffffffffffffff166003828154811015156109a557fe5b9060005260206000200160009054906101000a900473ffffffffffffffffffffffffffffffffffffffff1673ffffffffffffffffffffffffffffffffffffffff161415156109ef57fe5b60008114151515610a8e576040517f08c379a000000000000000000000000000000000000000000000000000000000815260040180806020018281038252602f8152602001807f596f752063616e206e6f742072656d6f7665207468652063726561746f72206181526020017f7320612062656e6566696369617279000000000000000000000000000000000081525060400191505060405180910390fd5b600460008473ffffffffffffffffffffffffffffffffffffffff1673ffffffffffffffffffffffffffffffffffffffff16815260200190815260200160002060009055600560008473ffffffffffffffffffffffffffffffffffffffff1673ffffffffffffffffffffffffffffffffffffffff168152602001908152602001600020600090556003610b2f6001600380549050611b5c90919063ffffffff16565b815481101515610b3b57fe5b9060005260206000200160009054906101000a900473ffffffffffffffffffffffffffffffffffffffff16600382815481101515610b7557fe5b9060005260206000200160006101000a81548173ffffffffffffffffffffffffffffffffffffffff021916908373ffffffffffffffffffffffffffffffffffffffff1602179055508060056000600384815481101515610bd157fe5b9060005260206000200160009054906101000a900473ffffffffffffffffffffffffffffffffffffffff1673ffffffffffffffffffffffffffffffffffffffff1673ffffffffffffffffffffffffffffffffffffffff168152602001908152602001600020819055506003610c556001600380549050611b5c90919063ffffffff16565b815481101515610c6157fe5b9060005260206000200160006101000a81549073ffffffffffffffffffffffffffffffffffffffff02191690556003805480919060019003610ca391906120c3565b508273ffffffffffffffffffffffffffffffffffffffff167f73d60fa978f046c1ccf0f85c6247b34d322ad63d5184881ef2f10bf3c70dde2160006040518082815260200191505060405180910390a26001915050919050565b60008060009054906101000a900473ffffffffffffffffffffffffffffffffffffffff1673ffffffffffffffffffffffffffffffffffffffff163373ffffffffffffffffffffffffffffffffffffffff16141515610d5a57600080fd5b8373ffffffffffffffffffffffffffffffffffffffff16838360405180828051906020019080838360005b83811015610da0578082015181840152602081019050610d85565b50505050905090810190601f168015610dcd5780820380516001836020036101000a031916815260200191505b5091505060006040518083038185875af19250505090509392505050565b6000806000809054906101000a900473ffffffffffffffffffffffffffffffffffffffff1673ffffffffffffffffffffffffffffffffffffffff163373ffffffffffffffffffffffffffffffffffffffff16141515610e4957600080fd5b600090505b600a811015610ec65760008482600a81101515610e6757fe5b602002015173ffffffffffffffffffffffffffffffffffffffff16141515610eb957610eb78482600a81101515610e9a57fe5b60200201518483600a81101515610ead57fe5b6020020151611870565b505b8080600101915050610e4e565b600191505092915050565b6000809054906101000a900473ffffffffffffffffffffffffffffffffffffffff1673ffffffffffffffffffffffffffffffffffffffff163373ffffffffffffffffffffffffffffffffffffffff16141515610f2c57600080fd5b6000809054906101000a900473ffffffffffffffffffffffffffffffffffffffff1673ffffffffffffffffffffffffffffffffffffffff167ff8df31144d9c2f0f6b59d69b8b98abd5459d07f2742c4df920b25aae33c6482060405160405180910390a260008060006101000a81548173ffffffffffffffffffffffffffffffffffffffff021916908373ffffffffffffffffffffffffffffffffffffffff160217905550565b6000809054906101000a900473ffffffffffffffffffffffffffffffffffffffff1681565b60025481565b600080600460008473ffffffffffffffffffffffffffffffffffffffff1673ffffffffffffffffffffffffffffffffffffffff16815260200190815260200160002054119050919050565b60008060009054906101000a900473ffffffffffffffffffffffffffffffffffffffff1673ffffffffffffffffffffffffffffffffffffffff163373ffffffffffffffffffffffffffffffffffffffff161415156110a657600080fd5b8273ffffffffffffffffffffffffffffffffffffffff166108fc839081150290604051600060405180830381858888f193505050501580156110ec573d6000803e3d6000fd5b506001905092915050565b60015481565b60008060008061110b610793565b15156111a5576040517f08c379a00000000000000000000000000000000000000000000000000000000081526004018080602001828103825260238152602001807f57696c6c206973206e6f74207965742064756520666f7220646973706f73697481526020017f696f6e000000000000000000000000000000000000000000000000000000000081525060400191505060405180910390fd5b60001515600060159054906101000a900460ff161515141515611256576040517f08c379a000000000000000000000000000000000000000000000000000000000815260040180806020018281038252602e8152602001807f416e20696e7374616e6365206f662064697362757273656d656e74206973206181526020017f6c72656164792072756e6e696e6700000000000000000000000000000000000081525060400191505060405180910390fd5b6001600060156101000a81548160ff021916908315150217905550600093503073ffffffffffffffffffffffffffffffffffffffff16319250611297611543565b91506001600060146101000a81548160ff0219169083151502179055506001600380549050111561142f57600190505b60038054905081101561142e576113186003828154811015156112e657fe5b9060005260206000200160009054906101000a900473ffffffffffffffffffffffffffffffffffffffff168484611b75565b935060038181548110151561132957fe5b9060005260206000200160009054906101000a900473ffffffffffffffffffffffffffffffffffffffff1673ffffffffffffffffffffffffffffffffffffffff166108fc859081150290604051600060405180830381858888f19350505050158015611399573d6000803e3d6000fd5b506003818154811015156113a957fe5b9060005260206000200160009054906101000a900473ffffffffffffffffffffffffffffffffffffffff1673ffffffffffffffffffffffffffffffffffffffff167f3b523f60e6edf0c2a9c8f03655abbd5e5ea4a5164318e6dd820b253d44b01ac8856040518082815260200191505060405180910390a280806001019150506112c7565b5b6003600081548110151561143f57fe5b9060005260206000200160009054906101000a900473ffffffffffffffffffffffffffffffffffffffff1673ffffffffffffffffffffffffffffffffffffffff166108fc3073ffffffffffffffffffffffffffffffffffffffff16319081150290604051600060405180830381858888f193505050501580156114c6573d6000803e3d6000fd5b5060008060156101000a81548160ff02191690831515021790555050505050565b600060159054906101000a900460ff1681565b6000600560008373ffffffffffffffffffffffffffffffffffffffff1673ffffffffffffffffffffffffffffffffffffffff168152602001908152602001600020549050919050565b600080600190505b6003805490508110156115f2576115e36004600060038481548110151561156e57fe5b9060005260206000200160009054906101000a900473ffffffffffffffffffffffffffffffffffffffff1673ffffffffffffffffffffffffffffffffffffffff1673ffffffffffffffffffffffffffffffffffffffff1681526020019081526020016000205483611be490919063ffffffff16565b9150808060010191505061154b565b5090565b6000600380549050905090565b6000806000809054906101000a900473ffffffffffffffffffffffffffffffffffffffff1673ffffffffffffffffffffffffffffffffffffffff163373ffffffffffffffffffffffffffffffffffffffff1614151561166157600080fd5b600090505b600a8110156116cb5760008382600a8110151561167f57fe5b602002015173ffffffffffffffffffffffffffffffffffffffff161415156116be576116bc8382600a811015156116b257fe5b60200201516107be565b505b8080600101915050611666565b6001915050919050565b60046020528060005260406000206000915090505481565b60008060009054906101000a900473ffffffffffffffffffffffffffffffffffffffff1673ffffffffffffffffffffffffffffffffffffffff163373ffffffffffffffffffffffffffffffffffffffff1614151561174a57600080fd5b60001515600060149054906101000a900460ff1615151415156117fb576040517f08c379a00000000000000000000000000000000000000000000000000000000081526004018080602001828103825260308152602001807f54696d65722063616e206e6f7420626520726573657420616674657220696e6981526020017f7469616c20646973706f736974696f6e0000000000000000000000000000000081525060400191505060405180910390fd5b426002819055506001905090565b6000809054906101000a900473ffffffffffffffffffffffffffffffffffffffff1673ffffffffffffffffffffffffffffffffffffffff163373ffffffffffffffffffffffffffffffffffffffff1614151561186457600080fd5b61186d81611c00565b50565b60008060009054906101000a900473ffffffffffffffffffffffffffffffffffffffff1673ffffffffffffffffffffffffffffffffffffffff163373ffffffffffffffffffffffffffffffffffffffff161415156118cd57600080fd5b60008373ffffffffffffffffffffffffffffffffffffffff161415151561195c576040517f08c379a000000000000000000000000000000000000000000000000000000000815260040180806020018281038252601b8152602001807f5f62656e65666963696172792063616e6e6f74206265205a65726f000000000081525060200191505060405180910390fd5b6000821115156119fa576040517f08c379a00000000000000000000000000000000000000000000000000000000081526004018080602001828103825260218152602001807f446973706f736974696f6e206d75737420626520677265746572207468616e2081526020017f300000000000000000000000000000000000000000000000000000000000000081525060400191505060405180910390fd5b611a02610793565b151515611a9d576040517f08c379a00000000000000000000000000000000000000000000000000000000081526004018080602001828103825260338152602001807f43616e206e6f742075706461746520646973706f736974696f6e73207768656e81526020017f20646973706f736974696f6e206973204475650000000000000000000000000081525060400191505060405180910390fd5b6000611aa8846114fa565b1415611abf57611ab88383611cfa565b9050611b56565b81600460008573ffffffffffffffffffffffffffffffffffffffff1673ffffffffffffffffffffffffffffffffffffffff168152602001908152602001600020819055508273ffffffffffffffffffffffffffffffffffffffff167f73d60fa978f046c1ccf0f85c6247b34d322ad63d5184881ef2f10bf3c70dde21836040518082815260200191505060405180910390a2600190505b92915050565b6000828211151515611b6a57fe5b818303905092915050565b6000611bdb82611bcd600460008873ffffffffffffffffffffffffffffffffffffffff1673ffffffffffffffffffffffffffffffffffffffff168152602001908152602001600020548661207590919063ffffffff16565b6120ad90919063ffffffff16565b90509392505050565b60008183019050828110151515611bf757fe5b80905092915050565b600073ffffffffffffffffffffffffffffffffffffffff168173ffffffffffffffffffffffffffffffffffffffff1614151515611c3c57600080fd5b8073ffffffffffffffffffffffffffffffffffffffff166000809054906101000a900473ffffffffffffffffffffffffffffffffffffffff1673ffffffffffffffffffffffffffffffffffffffff167f8be0079c531659141344cd1fd0a4f28419497f9722a3daafe3b4186f6b6457e060405160405180910390a3806000806101000a81548173ffffffffffffffffffffffffffffffffffffffff021916908373ffffffffffffffffffffffffffffffffffffffff16021790555050565b60008060009054906101000a900473ffffffffffffffffffffffffffffffffffffffff1673ffffffffffffffffffffffffffffffffffffffff163373ffffffffffffffffffffffffffffffffffffffff16141515611d5757600080fd5b60008373ffffffffffffffffffffffffffffffffffffffff1614151515611de6576040517f08c379a000000000000000000000000000000000000000000000000000000000815260040180806020018281038252601b8152602001807f5f62656e65666963696172792063616e6e6f74206265205a65726f000000000081525060200191505060405180910390fd5b600082111515611e84576040517f08c379a00000000000000000000000000000000000000000000000000000000081526004018080602001828103825260218152602001807f446973706f736974696f6e206d75737420626520677265746572207468616e2081526020017f300000000000000000000000000000000000000000000000000000000000000081525060400191505060405180910390fd5b60001515611e9184610ffe565b1515141515611f2e576040517f08c379a00000000000000000000000000000000000000000000000000000000081526004018080602001828103825260308152602001807f43616e6e6f7420616464206578697374696e672062656e65666963696172792081526020017f416e65772c20757365207570646174650000000000000000000000000000000081525060400191505060405180910390fd5b600380549050600560008573ffffffffffffffffffffffffffffffffffffffff1673ffffffffffffffffffffffffffffffffffffffff1681526020019081526020016000208190555081600460008573ffffffffffffffffffffffffffffffffffffffff1673ffffffffffffffffffffffffffffffffffffffff1681526020019081526020016000208190555060038390806001815401808255809150509060018203906000526020600020016000909192909190916101000a81548173ffffffffffffffffffffffffffffffffffffffff021916908373ffffffffffffffffffffffffffffffffffffffff160217905550508273ffffffffffffffffffffffffffffffffffffffff167f73d60fa978f046c1ccf0f85c6247b34d322ad63d5184881ef2f10bf3c70dde21836040518082815260200191505060405180910390a292915050565b60008083141561208857600090506120a7565b818302905081838281151561209957fe5b041415156120a357fe5b8090505b92915050565b600081838115156120ba57fe5b04905092915050565b8154818355818111156120ea578183600052602060002091820191016120e991906120ef565b5b505050565b61211191905b8082111561210d5760008160009055506001016120f5565b5090565b905600a165627a7a72305820e38fad5aa74a2d9e44dc5dcfce329015737516246001defb2d37c02a5ce842d70029a165627a7a7230582091b88477d64bbc39abb2500fad5b4557fe6de5db53f9b614ebb40923578db4950029",
  "source": "pragma solidity ^0.4.24;\n\nimport \"../installed_contracts/zeppelin-solidity/contracts/lifecycle/Pausable.sol\";\nimport \"./WillWallet.sol\";\n\ncontract Deployer is Pausable {\n  uint256 constant public version = 0;\n\n  constructor ()\n  public {\n\n  }\n\n  enum ContractTypes { will, wallet, willwallet }\n  event ContractDeployed(string contractType, address indexed contractAddress, address indexed creator);\n\n  function _transferOwnership(address _contract, address _newOwner)\n  internal\n  {\n    Ownable(_contract).transferOwnership(_newOwner);\n  }\n\n  function _deployContract(ContractTypes _type, uint256 _waitTime)\n  internal\n  returns (address newContract)\n  {\n    if (_type == ContractTypes.will) {\n      newContract = new Will(_waitTime);\n    } else if (_type == ContractTypes.wallet) {\n      newContract = new Wallet();\n    } else if (_type == ContractTypes.willwallet) {\n      newContract = new WillWallet(_waitTime);\n    }\n    if (newContract != 0x0) {\n      _transferOwnership(newContract, msg.sender);\n      _handleDeposit(newContract);\n    }\n  }\n\n  function _handleDeposit(address _newContract)\n  internal\n  {\n    if (msg.value > 0) {\n      _newContract.transfer(msg.value);\n    }\n  }\n\n  function deployWill(uint256 _waitTime)\n  public whenNotPaused\n  {\n    address newContract = _deployContract(ContractTypes.will, _waitTime);\n    require(newContract != 0x0, 'Will not successfull deployed');\n    emit ContractDeployed('will', newContract, msg.sender);\n  }\n\n  function deployWallet()\n  public whenNotPaused\n  {\n    address newContract = _deployContract(ContractTypes.wallet, 0x0);\n    require(newContract != 0x0, 'Wallet not successfull deployed');\n    emit ContractDeployed('wallet', newContract, msg.sender);\n  }\n\n  function deployWillWallet(uint256 _waitTime)\n  public whenNotPaused\n  {\n    address newContract = _deployContract(ContractTypes.willwallet, _waitTime);\n    require(newContract != 0x0, 'Willwallet not successfull deployed');\n    emit ContractDeployed('willwallet', newContract, msg.sender);\n  }\n}\n",
  "sourcePath": "/media/brvhrt/EAGET/work-dont touch/cwl/contracts/Deployer.sol",
  "compiler": {
    "name": "solc",
    "version": "0.4.25+commit.59dbf8f1.Emscripten.clang"
  },
  "schemaVersion": "3.0.1",
  "updatedAt": "2019-01-23T10:36:50.087Z",
  "devdoc": {
    "methods": {
      "pause()": {
        "details": "called by the owner to pause, triggers stopped state"
      },
      "renounceOwnership()": {
        "details": "Allows the current owner to relinquish control of the contract."
      },
      "transferOwnership(address)": {
        "details": "Allows the current owner to transfer control of the contract to a newOwner.",
        "params": {
          "_newOwner": "The address to transfer ownership to."
        }
      },
      "unpause()": {
        "details": "called by the owner to unpause, returns to normal state"
      }
    }
  },
  "userdoc": {
    "methods": {
      "renounceOwnership()": {
        "notice": "Renouncing to ownership will leave the contract without an owner. It will not be possible to call the functions with the `onlyOwner` modifier anymore."
      }
    }
  }
}