{
  "contractName": "Wallet",
  "abi": [
    {
      "constant": true,
      "inputs": [],
      "name": "owner",
      "outputs": [
        {
          "name": "",
          "type": "address"
        }
      ],
      "payable": false,
      "stateMutability": "view",
      "type": "function"
    },
    {
      "inputs": [],
      "payable": false,
      "stateMutability": "nonpayable",
      "type": "constructor"
    },
    {
      "payable": true,
      "stateMutability": "payable",
      "type": "fallback"
    },
    {
      "anonymous": false,
      "inputs": [
        {
          "indexed": true,
          "name": "previousOwner",
          "type": "address"
        },
        {
          "indexed": true,
          "name": "newOwner",
          "type": "address"
        }
      ],
      "name": "OwnershipTransferred",
      "type": "event"
    },
    {
      "constant": false,
      "inputs": [
        {
          "name": "_destination",
          "type": "address"
        },
        {
          "name": "_value",
          "type": "uint256"
        }
      ],
      "name": "transfer",
      "outputs": [
        {
          "name": "",
          "type": "bool"
        }
      ],
      "payable": false,
      "stateMutability": "nonpayable",
      "type": "function"
    },
    {
      "constant": false,
      "inputs": [
        {
          "name": "_address",
          "type": "address"
        },
        {
          "name": "_value",
          "type": "uint256"
        },
        {
          "name": "_callData",
          "type": "bytes32"
        }
      ],
      "name": "callFunction",
      "outputs": [
        {
          "name": "",
          "type": "bool"
        }
      ],
      "payable": true,
      "stateMutability": "payable",
      "type": "function"
    }
  ],
  "bytecode": "0x608060405234801561001057600080fd5b5060008054600160a060020a033316600160a060020a031990911617905561022b8061003d6000396000f3006080604052600436106100565763ffffffff7c01000000000000000000000000000000000000000000000000000000006000350416637d1a9aac81146100585780638da5cb5b14610093578063a9059cbb146100d1575b005b61007f73ffffffffffffffffffffffffffffffffffffffff60043516602435604435610102565b604080519115158252519081900360200190f35b34801561009f57600080fd5b506100a861016d565b6040805173ffffffffffffffffffffffffffffffffffffffff9092168252519081900360200190f35b3480156100dd57600080fd5b5061007f73ffffffffffffffffffffffffffffffffffffffff60043516602435610189565b600080543373ffffffffffffffffffffffffffffffffffffffff90811691161461012b57600080fd5b60408051838152905173ffffffffffffffffffffffffffffffffffffffff86169185916020808301926000929190829003018185875af1979650505050505050565b60005473ffffffffffffffffffffffffffffffffffffffff1681565b600080543373ffffffffffffffffffffffffffffffffffffffff9081169116146101b257600080fd5b60405173ffffffffffffffffffffffffffffffffffffffff84169083156108fc029084906000818181858888f193505050501580156101f5573d6000803e3d6000fd5b50600193925050505600a165627a7a72305820e04533decd5380129fa8d9c4cb66f275a9daccbe3af03001c53882148479c4520029",
  "source": "pragma solidity ^0.4.23;\r\n\r\nimport './Ownable.sol';\r\n\r\n/**\r\n* Wallet instantiation, is albe to run almost any Interaction: eth, toke, transactions\r\n*/\r\ncontract Wallet is Ownable {\r\n\r\n  constructor ()\r\n    public\r\n  {\r\n  }\r\n\r\n  function transfer (address _destination, uint256 _value)\r\n    public onlyOwner\r\n  returns (bool) {\r\n    _destination.transfer(_value);\r\n    return true;\r\n  }\r\n\r\n  function callFunction (address _address, uint256 _value, bytes32 _callData) //Can be used to make wallet type calls, to interact with smart contracts\r\n    public payable onlyOwner\r\n  returns (bool) {\r\n    return _address.call.value(_value)(_callData);\r\n  }\r\n\r\n  function ()\r\n    public payable\r\n  {\r\n  }\r\n}\r\n",
  "sourcePath": "F:\\work-dont touch\\cwl\\contracts\\Wallet.sol",
  "compiler": {
    "name": "solc",
    "version": "0.4.23+commit.124ca40d.Emscripten.clang"
  },
  "schemaVersion": "2.0.0",
  "updatedAt": "2018-05-13T18:30:34.059Z"
}