{
  "contractName": "Will",
  "abi": [
    {
      "constant": true,
      "inputs": [],
      "name": "disbursed",
      "outputs": [
        {
          "name": "",
          "type": "bool"
        }
      ],
      "payable": false,
      "stateMutability": "view",
      "type": "function"
    },
    {
      "constant": false,
      "inputs": [],
      "name": "renounceOwnership",
      "outputs": [],
      "payable": false,
      "stateMutability": "nonpayable",
      "type": "function"
    },
    {
      "constant": true,
      "inputs": [
        {
          "name": "",
          "type": "address"
        }
      ],
      "name": "beneficiaryExists",
      "outputs": [
        {
          "name": "",
          "type": "bool"
        }
      ],
      "payable": false,
      "stateMutability": "view",
      "type": "function"
    },
    {
      "constant": true,
      "inputs": [],
      "name": "owner",
      "outputs": [
        {
          "name": "",
          "type": "address"
        }
      ],
      "payable": false,
      "stateMutability": "view",
      "type": "function"
    },
    {
      "constant": true,
      "inputs": [
        {
          "name": "",
          "type": "address"
        }
      ],
      "name": "disposition",
      "outputs": [
        {
          "name": "",
          "type": "uint256"
        }
      ],
      "payable": false,
      "stateMutability": "view",
      "type": "function"
    },
    {
      "constant": true,
      "inputs": [
        {
          "name": "",
          "type": "uint256"
        }
      ],
      "name": "beneficiaries",
      "outputs": [
        {
          "name": "",
          "type": "address"
        }
      ],
      "payable": false,
      "stateMutability": "view",
      "type": "function"
    },
    {
      "constant": false,
      "inputs": [
        {
          "name": "_newOwner",
          "type": "address"
        }
      ],
      "name": "transferOwnership",
      "outputs": [],
      "payable": false,
      "stateMutability": "nonpayable",
      "type": "function"
    },
    {
      "inputs": [
        {
          "name": "_waitTime",
          "type": "uint256"
        }
      ],
      "payable": false,
      "stateMutability": "nonpayable",
      "type": "constructor"
    },
    {
      "payable": true,
      "stateMutability": "payable",
      "type": "fallback"
    },
    {
      "anonymous": false,
      "inputs": [
        {
          "indexed": true,
          "name": "beneficiary",
          "type": "address"
        },
        {
          "indexed": false,
          "name": "disposition",
          "type": "uint256"
        }
      ],
      "name": "BeneficiaryUpdated",
      "type": "event"
    },
    {
      "anonymous": false,
      "inputs": [
        {
          "indexed": true,
          "name": "beneficiary",
          "type": "address"
        },
        {
          "indexed": false,
          "name": "total",
          "type": "uint256"
        }
      ],
      "name": "BeneficiarySettled",
      "type": "event"
    },
    {
      "anonymous": false,
      "inputs": [
        {
          "indexed": true,
          "name": "previousOwner",
          "type": "address"
        }
      ],
      "name": "OwnershipRenounced",
      "type": "event"
    },
    {
      "anonymous": false,
      "inputs": [
        {
          "indexed": true,
          "name": "previousOwner",
          "type": "address"
        },
        {
          "indexed": true,
          "name": "newOwner",
          "type": "address"
        }
      ],
      "name": "OwnershipTransferred",
      "type": "event"
    },
    {
      "constant": true,
      "inputs": [],
      "name": "unit",
      "outputs": [
        {
          "name": "",
          "type": "uint256"
        }
      ],
      "payable": false,
      "stateMutability": "pure",
      "type": "function"
    },
    {
      "constant": true,
      "inputs": [],
      "name": "totalBeneficiaries",
      "outputs": [
        {
          "name": "",
          "type": "uint256"
        }
      ],
      "payable": false,
      "stateMutability": "view",
      "type": "function"
    },
    {
      "constant": true,
      "inputs": [],
      "name": "dispositionSum",
      "outputs": [
        {
          "name": "_sum",
          "type": "uint256"
        }
      ],
      "payable": false,
      "stateMutability": "view",
      "type": "function"
    },
    {
      "constant": true,
      "inputs": [],
      "name": "isDispositionDue",
      "outputs": [
        {
          "name": "",
          "type": "bool"
        }
      ],
      "payable": false,
      "stateMutability": "view",
      "type": "function"
    },
    {
      "constant": true,
      "inputs": [
        {
          "name": "_beneficiary",
          "type": "address"
        }
      ],
      "name": "getBeneficiaryIndex",
      "outputs": [
        {
          "name": "",
          "type": "uint256"
        }
      ],
      "payable": false,
      "stateMutability": "view",
      "type": "function"
    },
    {
      "constant": false,
      "inputs": [
        {
          "name": "_beneficiary",
          "type": "address"
        },
        {
          "name": "_disposition",
          "type": "uint256"
        }
      ],
      "name": "updateBeneficiary",
      "outputs": [
        {
          "name": "",
          "type": "bool"
        }
      ],
      "payable": false,
      "stateMutability": "nonpayable",
      "type": "function"
    },
    {
      "constant": false,
      "inputs": [
        {
          "name": "_beneficiaries",
          "type": "address[10]"
        },
        {
          "name": "_dispositions",
          "type": "uint256[10]"
        }
      ],
      "name": "updateBeneficiaries",
      "outputs": [
        {
          "name": "",
          "type": "bool"
        }
      ],
      "payable": false,
      "stateMutability": "nonpayable",
      "type": "function"
    },
    {
      "constant": false,
      "inputs": [
        {
          "name": "_beneficiary",
          "type": "address"
        }
      ],
      "name": "removeBeneficiary",
      "outputs": [],
      "payable": false,
      "stateMutability": "nonpayable",
      "type": "function"
    },
    {
      "constant": false,
      "inputs": [
        {
          "name": "_beneficiaries",
          "type": "address[10]"
        }
      ],
      "name": "removeBeneficiaries",
      "outputs": [
        {
          "name": "",
          "type": "bool"
        }
      ],
      "payable": false,
      "stateMutability": "nonpayable",
      "type": "function"
    },
    {
      "constant": false,
      "inputs": [],
      "name": "postpone",
      "outputs": [
        {
          "name": "",
          "type": "bool"
        }
      ],
      "payable": false,
      "stateMutability": "nonpayable",
      "type": "function"
    },
    {
      "constant": false,
      "inputs": [],
      "name": "triggerDisposition",
      "outputs": [],
      "payable": false,
      "stateMutability": "nonpayable",
      "type": "function"
    }
  ],
  "bytecode": "0x608060405234801561001057600080fd5b50604051602080611c9383398101806040528101908080519060200190929190505050336000806101000a81548173ffffffffffffffffffffffffffffffffffffffff021916908373ffffffffffffffffffffffffffffffffffffffff16021790555060033390806001815401808255809150509060018203906000526020600020016000909192909190916101000a81548173ffffffffffffffffffffffffffffffffffffffff021916908373ffffffffffffffffffffffffffffffffffffffff16021790555050806001819055504260028190555050611b9c806100f76000396000f3006080604052600436106100fc576000357c0100000000000000000000000000000000000000000000000000000000900463ffffffff16806310812a7d146101a3578063282f7cdd146101d257806359633a1c1461020157806367e7400514610244578063715018a6146102df57806375e71d6d146102f65780638da5cb5b14610351578063907af6c0146103a8578063b756feff146103d3578063b914d908146103ea578063c2ff501214610441578063d01a69c91461046c578063d39e6bb114610497578063dabc57d914610502578063e7caed9114610559578063efeb5e5814610588578063f2fde38b146105f5578063fcb9b50514610638575b600034148015610110575061010f61069d565b5b156101225761011d6106be565b6101a1565b6000809054906101000a900473ffffffffffffffffffffffffffffffffffffffff1673ffffffffffffffffffffffffffffffffffffffff163373ffffffffffffffffffffffffffffffffffffffff16148015610191575060001515600060149054906101000a900460ff161515145b156101a05761019e610a27565b505b5b005b3480156101af57600080fd5b506101b8610a92565b604051808215151515815260200191505060405180910390f35b3480156101de57600080fd5b506101e761069d565b604051808215151515815260200191505060405180910390f35b34801561020d57600080fd5b50610242600480360381019080803573ffffffffffffffffffffffffffffffffffffffff169060200190929190505050610aa5565b005b34801561025057600080fd5b506102c5600480360381019080806101400190600a806020026040519081016040528092919082600a6020028082843782019150505050509192919290806101400190600a806020026040519081016040528092919082600a6020028082843782019150505050509192919290505050610f00565b604051808215151515815260200191505060405180910390f35b3480156102eb57600080fd5b506102f4610fec565b005b34801561030257600080fd5b50610337600480360381019080803573ffffffffffffffffffffffffffffffffffffffff1690602001909291905050506110ee565b604051808215151515815260200191505060405180910390f35b34801561035d57600080fd5b5061036661110e565b604051808273ffffffffffffffffffffffffffffffffffffffff1673ffffffffffffffffffffffffffffffffffffffff16815260200191505060405180910390f35b3480156103b457600080fd5b506103bd611133565b6040518082815260200191505060405180910390f35b3480156103df57600080fd5b506103e86106be565b005b3480156103f657600080fd5b5061042b600480360381019080803573ffffffffffffffffffffffffffffffffffffffff16906020019092919050505061113f565b6040518082815260200191505060405180910390f35b34801561044d57600080fd5b50610456611188565b6040518082815260200191505060405180910390f35b34801561047857600080fd5b5061048161123a565b6040518082815260200191505060405180910390f35b3480156104a357600080fd5b506104e8600480360381019080806101400190600a806020026040519081016040528092919082600a6020028082843782019150505050509192919290505050611247565b604051808215151515815260200191505060405180910390f35b34801561050e57600080fd5b50610543600480360381019080803573ffffffffffffffffffffffffffffffffffffffff16906020019092919050505061131e565b6040518082815260200191505060405180910390f35b34801561056557600080fd5b5061056e610a27565b604051808215151515815260200191505060405180910390f35b34801561059457600080fd5b506105b360048036038101908080359060200190929190505050611336565b604051808273ffffffffffffffffffffffffffffffffffffffff1673ffffffffffffffffffffffffffffffffffffffff16815260200191505060405180910390f35b34801561060157600080fd5b50610636600480360381019080803573ffffffffffffffffffffffffffffffffffffffff169060200190929190505050611374565b005b34801561064457600080fd5b50610683600480360381019080803573ffffffffffffffffffffffffffffffffffffffff169060200190929190803590602001909291905050506113db565b604051808215151515815260200191505060405180910390f35b60006001546106b76002544261162990919063ffffffff16565b1015905090565b60008060008060006106ce61069d565b1515610768576040517f08c379a00000000000000000000000000000000000000000000000000000000081526004018080602001828103825260238152602001807f57696c6c206973206e6f74207965742064756520666f7220646973706f73697481526020017f696f6e000000000000000000000000000000000000000000000000000000000081525060400191505060405180910390fd5b3073ffffffffffffffffffffffffffffffffffffffff1631945061078a611188565b9350610794611133565b92506001600060146101000a81548160ff021916908315150217905550600191505b600380549050821015610988576108728361086486610856600460006003898154811015156107e157fe5b9060005260206000200160009054906101000a900473ffffffffffffffffffffffffffffffffffffffff1673ffffffffffffffffffffffffffffffffffffffff1673ffffffffffffffffffffffffffffffffffffffff168152602001908152602001600020548a61164290919063ffffffff16565b61167a90919063ffffffff16565b61167a90919063ffffffff16565b905060038281548110151561088357fe5b9060005260206000200160009054906101000a900473ffffffffffffffffffffffffffffffffffffffff1673ffffffffffffffffffffffffffffffffffffffff166108fc829081150290604051600060405180830381858888f193505050501580156108f3573d6000803e3d6000fd5b5060038281548110151561090357fe5b9060005260206000200160009054906101000a900473ffffffffffffffffffffffffffffffffffffffff1673ffffffffffffffffffffffffffffffffffffffff167f3b523f60e6edf0c2a9c8f03655abbd5e5ea4a5164318e6dd820b253d44b01ac8826040518082815260200191505060405180910390a281806001019250506107b6565b6003600081548110151561099857fe5b9060005260206000200160009054906101000a900473ffffffffffffffffffffffffffffffffffffffff1673ffffffffffffffffffffffffffffffffffffffff166108fc3073ffffffffffffffffffffffffffffffffffffffff16319081150290604051600060405180830381858888f19350505050158015610a1f573d6000803e3d6000fd5b505050505050565b60008060009054906101000a900473ffffffffffffffffffffffffffffffffffffffff1673ffffffffffffffffffffffffffffffffffffffff163373ffffffffffffffffffffffffffffffffffffffff16141515610a8457600080fd5b426002819055506001905090565b600060149054906101000a900460ff1681565b60008060009054906101000a900473ffffffffffffffffffffffffffffffffffffffff1673ffffffffffffffffffffffffffffffffffffffff163373ffffffffffffffffffffffffffffffffffffffff16141515610b0257600080fd5b60008273ffffffffffffffffffffffffffffffffffffffff1614151515610bb7576040517f08c379a00000000000000000000000000000000000000000000000000000000081526004018080602001828103825260278152602001807f50726f7669646520612062656e6566696369617279206164647265737320746f81526020017f2072656d6f76650000000000000000000000000000000000000000000000000081525060400191505060405180910390fd5b610bbf61069d565b151515610c5a576040517f08c379a00000000000000000000000000000000000000000000000000000000081526004018080602001828103825260338152602001807f43616e206e6f742075706461746520646973706f736974696f6e73207768656e81526020017f20646973706f736974696f6e206973204475650000000000000000000000000081525060400191505060405180910390fd5b610c638261113f565b90508173ffffffffffffffffffffffffffffffffffffffff16600382815481101515610c8b57fe5b9060005260206000200160009054906101000a900473ffffffffffffffffffffffffffffffffffffffff1673ffffffffffffffffffffffffffffffffffffffff16141515610cd557fe5b60008114151515610ce557600080fd5b600460008373ffffffffffffffffffffffffffffffffffffffff1673ffffffffffffffffffffffffffffffffffffffff168152602001908152602001600020600090556003600160038054905003815481101515610d3f57fe5b9060005260206000200160009054906101000a900473ffffffffffffffffffffffffffffffffffffffff16600382815481101515610d7957fe5b9060005260206000200160006101000a81548173ffffffffffffffffffffffffffffffffffffffff021916908373ffffffffffffffffffffffffffffffffffffffff1602179055506003600160038054905003815481101515610dd857fe5b9060005260206000200160006101000a81549073ffffffffffffffffffffffffffffffffffffffff02191690556003805480919060019003610e1a9190611b1f565b50600660008373ffffffffffffffffffffffffffffffffffffffff1673ffffffffffffffffffffffffffffffffffffffff16815260200190815260200160002060009055600560008373ffffffffffffffffffffffffffffffffffffffff1673ffffffffffffffffffffffffffffffffffffffff16815260200190815260200160002060006101000a81549060ff02191690558173ffffffffffffffffffffffffffffffffffffffff167f73d60fa978f046c1ccf0f85c6247b34d322ad63d5184881ef2f10bf3c70dde2160006040518082815260200191505060405180910390a25050565b60008060008060009054906101000a900473ffffffffffffffffffffffffffffffffffffffff1673ffffffffffffffffffffffffffffffffffffffff163373ffffffffffffffffffffffffffffffffffffffff16141515610f6057600080fd5b600a9150600090505b81811015610fe05760008582600a81101515610f8157fe5b602002015173ffffffffffffffffffffffffffffffffffffffff16141515610fd357610fd18582600a81101515610fb457fe5b60200201518583600a81101515610fc757fe5b60200201516113db565b505b8080600101915050610f69565b60019250505092915050565b6000809054906101000a900473ffffffffffffffffffffffffffffffffffffffff1673ffffffffffffffffffffffffffffffffffffffff163373ffffffffffffffffffffffffffffffffffffffff1614151561104757600080fd5b6000809054906101000a900473ffffffffffffffffffffffffffffffffffffffff1673ffffffffffffffffffffffffffffffffffffffff167ff8df31144d9c2f0f6b59d69b8b98abd5459d07f2742c4df920b25aae33c6482060405160405180910390a260008060006101000a81548173ffffffffffffffffffffffffffffffffffffffff021916908373ffffffffffffffffffffffffffffffffffffffff160217905550565b60056020528060005260406000206000915054906101000a900460ff1681565b6000809054906101000a900473ffffffffffffffffffffffffffffffffffffffff1681565b60006008600a0a905090565b6000600660008373ffffffffffffffffffffffffffffffffffffffff1673ffffffffffffffffffffffffffffffffffffffff168152602001908152602001600020549050919050565b600080600090505b60038054905081101561123657611228600460006003848154811015156111b357fe5b9060005260206000200160009054906101000a900473ffffffffffffffffffffffffffffffffffffffff1673ffffffffffffffffffffffffffffffffffffffff1673ffffffffffffffffffffffffffffffffffffffff168152602001908152602001600020548361169090919063ffffffff16565b508080600101915050611190565b5090565b6000600380549050905090565b60008060008060009054906101000a900473ffffffffffffffffffffffffffffffffffffffff1673ffffffffffffffffffffffffffffffffffffffff163373ffffffffffffffffffffffffffffffffffffffff161415156112a757600080fd5b600a9150600090505b818110156113135760008482600a811015156112c857fe5b602002015173ffffffffffffffffffffffffffffffffffffffff16141515611306576113058482600a811015156112fb57fe5b6020020151610aa5565b5b80806001019150506112b0565b600192505050919050565b60046020528060005260406000206000915090505481565b60038181548110151561134557fe5b906000526020600020016000915054906101000a900473ffffffffffffffffffffffffffffffffffffffff1681565b6000809054906101000a900473ffffffffffffffffffffffffffffffffffffffff1673ffffffffffffffffffffffffffffffffffffffff163373ffffffffffffffffffffffffffffffffffffffff161415156113cf57600080fd5b6113d8816116ac565b50565b60008060009054906101000a900473ffffffffffffffffffffffffffffffffffffffff1673ffffffffffffffffffffffffffffffffffffffff163373ffffffffffffffffffffffffffffffffffffffff1614151561143857600080fd5b60008373ffffffffffffffffffffffffffffffffffffffff16141515156114c7576040517f08c379a000000000000000000000000000000000000000000000000000000000815260040180806020018281038252601b8152602001807f5f62656e65666963696172792063616e6e6f74206265205a65726f000000000081525060200191505060405180910390fd5b6114cf61069d565b15151561156a576040517f08c379a00000000000000000000000000000000000000000000000000000000081526004018080602001828103825260338152602001807f43616e206e6f742075706461746520646973706f736974696f6e73207768656e81526020017f20646973706f736974696f6e206973204475650000000000000000000000000081525060400191505060405180910390fd5b60006115758461113f565b141561158c5761158583836117a6565b9050611623565b81600460008573ffffffffffffffffffffffffffffffffffffffff1673ffffffffffffffffffffffffffffffffffffffff168152602001908152602001600020819055508273ffffffffffffffffffffffffffffffffffffffff167f73d60fa978f046c1ccf0f85c6247b34d322ad63d5184881ef2f10bf3c70dde21836040518082815260200191505060405180910390a2600190505b92915050565b600082821115151561163757fe5b818303905092915050565b6000808314156116555760009050611674565b818302905081838281151561166657fe5b0414151561167057fe5b8090505b92915050565b6000818381151561168757fe5b04905092915050565b600081830190508281101515156116a357fe5b80905092915050565b600073ffffffffffffffffffffffffffffffffffffffff168173ffffffffffffffffffffffffffffffffffffffff16141515156116e857600080fd5b8073ffffffffffffffffffffffffffffffffffffffff166000809054906101000a900473ffffffffffffffffffffffffffffffffffffffff1673ffffffffffffffffffffffffffffffffffffffff167f8be0079c531659141344cd1fd0a4f28419497f9722a3daafe3b4186f6b6457e060405160405180910390a3806000806101000a81548173ffffffffffffffffffffffffffffffffffffffff021916908373ffffffffffffffffffffffffffffffffffffffff16021790555050565b60008060009054906101000a900473ffffffffffffffffffffffffffffffffffffffff1673ffffffffffffffffffffffffffffffffffffffff163373ffffffffffffffffffffffffffffffffffffffff1614151561180357600080fd5b60008373ffffffffffffffffffffffffffffffffffffffff1614151515611892576040517f08c379a000000000000000000000000000000000000000000000000000000000815260040180806020018281038252601b8152602001807f5f62656e65666963696172792063616e6e6f74206265205a65726f000000000081525060200191505060405180910390fd5b60001515600560008573ffffffffffffffffffffffffffffffffffffffff1673ffffffffffffffffffffffffffffffffffffffff16815260200190815260200160002060009054906101000a900460ff161515141515611980576040517f08c379a00000000000000000000000000000000000000000000000000000000081526004018080602001828103825260308152602001807f43616e6e6f7420616464206578697374696e672062656e65666963696172792081526020017f416e65772c20757365207570646174650000000000000000000000000000000081525060400191505060405180910390fd5b6001600560008573ffffffffffffffffffffffffffffffffffffffff1673ffffffffffffffffffffffffffffffffffffffff16815260200190815260200160002060006101000a81548160ff021916908315150217905550600380549050600660008573ffffffffffffffffffffffffffffffffffffffff1673ffffffffffffffffffffffffffffffffffffffff1681526020019081526020016000208190555081600460008573ffffffffffffffffffffffffffffffffffffffff1673ffffffffffffffffffffffffffffffffffffffff1681526020019081526020016000208190555060038390806001815401808255809150509060018203906000526020600020016000909192909190916101000a81548173ffffffffffffffffffffffffffffffffffffffff021916908373ffffffffffffffffffffffffffffffffffffffff160217905550508273ffffffffffffffffffffffffffffffffffffffff167f73d60fa978f046c1ccf0f85c6247b34d322ad63d5184881ef2f10bf3c70dde21836040518082815260200191505060405180910390a292915050565b815481835581811115611b4657818360005260206000209182019101611b459190611b4b565b5b505050565b611b6d91905b80821115611b69576000816000905550600101611b51565b5090565b905600a165627a7a7230582023d907ae8c75755da7e8ceab6bc8d32a3abf93269271b2d8e0df886037b8a2d70029",
  "source": "pragma solidity ^0.4.24;\r\n\r\nimport \"../installed_contracts/zeppelin-solidity/contracts/math/SafeMath.sol\";\r\nimport \"../installed_contracts/zeppelin-solidity/contracts/ownership/Ownable.sol\";\r\n\r\n/**\r\n* Vault only instantiation, only focuses on eth value\r\n*/\r\ncontract Will is Ownable {\r\n  using SafeMath for uint;\r\n\r\n  uint256 constant decimals = 8; //Allow fractions for disposition\r\n\r\n  bool public disbursed; //Whether the contract has Disposed at least once\r\n  uint256 waitingTime; //How long to wait before initiating distribution\r\n  uint256 lastInteraction; //Last time contract was interacted with\r\n  address[] public beneficiaries; //Address for each beneficiary\r\n  mapping( address => uint256) public disposition; //List of ratio of contract balance to sent to each beneficiary\r\n  mapping(address => bool) public beneficiaryExists; //Boolean to indicate that address exists as beneficiary\r\n  mapping(address => uint256) beneficiaryIndex; //Mapping of beneficiary to index in beneficiaries list\r\n\r\n  event BeneficiaryUpdated( address indexed beneficiary, uint256 disposition); //Notify of update to beneficiaries / disposition\r\n  event BeneficiarySettled( address indexed beneficiary, uint256 total); //Notify of update to beneficiaries / disposition\r\n\r\n  constructor (uint256 _waitTime )\r\n    public\r\n  {\r\n    beneficiaries.push(msg.sender);\r\n    waitingTime = _waitTime;\r\n    lastInteraction = now;\r\n  }\r\n\r\n  function unit ()\r\n    public pure\r\n  returns (uint256) {\r\n    return 10**decimals;\r\n  }\r\n\r\n  function totalBeneficiaries ()\r\n    public view\r\n  returns (uint) {\r\n    return beneficiaries.length;\r\n  }\r\n\r\n  function dispositionSum ()\r\n    public view\r\n  returns (uint256 _sum) {\r\n    for (uint256 i=0; i<beneficiaries.length; i++){\r\n      _sum.add(disposition[ beneficiaries[i] ]);\r\n    }\r\n  }\r\n\r\n  function isDispositionDue ()\r\n    public view\r\n  returns (bool) {\r\n    return now.sub(lastInteraction) >= waitingTime;\r\n  }\r\n\r\n  function getBeneficiaryIndex (address _beneficiary)\r\n    public view\r\n  returns (uint256){\r\n    return beneficiaryIndex[_beneficiary];\r\n  }\r\n\r\n  function _addBeneficiary (address _beneficiary, uint256 _disposition)\r\n    internal onlyOwner\r\n  returns (bool)\r\n  {\r\n    require(_beneficiary != 0x0, '_beneficiary cannot be Zero');\r\n    require(beneficiaryExists[_beneficiary] == false, 'Cannot add existing beneficiary Anew, use update');\r\n    beneficiaryExists[_beneficiary] = true;\r\n    beneficiaryIndex[_beneficiary] = beneficiaries.length;\r\n    disposition[_beneficiary] = _disposition;\r\n    beneficiaries.push(_beneficiary);\r\n    emit BeneficiaryUpdated(_beneficiary, _disposition);\r\n  }\r\n\r\n  function updateBeneficiary (address _beneficiary, uint256 _disposition)\r\n    public onlyOwner\r\n  returns (bool)\r\n  {\r\n    require(_beneficiary != 0x0, '_beneficiary cannot be Zero');\r\n    require(!isDispositionDue(), 'Can not update dispositions when disposition is Due');\r\n    if (getBeneficiaryIndex(_beneficiary) == 0) {\r\n      return _addBeneficiary(_beneficiary,_disposition);\r\n    } else {\r\n      disposition[_beneficiary] = _disposition;\r\n      emit BeneficiaryUpdated(_beneficiary, _disposition);\r\n      return true;\r\n    }\r\n  }\r\n\r\n  // Update batch of up to Ten (10) beneficiaries, beneficiary must have corresponding index for disposition in _dispositions\r\n  function updateBeneficiaries (address[10] _beneficiaries, uint256[10] _dispositions)\r\n    public onlyOwner\r\n  returns (bool)\r\n  {\r\n    uint256 maxLength = 10;\r\n\r\n    for (uint256 i=0; i<maxLength; i++) {\r\n      if (_beneficiaries[i] != 0x0) {\r\n        updateBeneficiary(_beneficiaries[i], _dispositions[i]);\r\n      }\r\n    }\r\n    return true;\r\n  }\r\n\r\n  function removeBeneficiary (address _beneficiary)\r\n    public onlyOwner\r\n  {\r\n    require(_beneficiary != 0x0, 'Provide a beneficiary address to remove');\r\n    require(!isDispositionDue(), 'Can not update dispositions when disposition is Due');\r\n\r\n    uint256 idx = getBeneficiaryIndex(_beneficiary);\r\n\r\n    assert(beneficiaries[idx] == _beneficiary);\r\n    require(idx != 0);//Ensure  first beneficiary can never be removed\r\n\r\n    delete(disposition[_beneficiary]);\r\n    beneficiaries[idx] = beneficiaries[ beneficiaries.length-1 ];\r\n    delete(beneficiaries[beneficiaries.length-1]);\r\n    beneficiaries.length--;\r\n    delete(beneficiaryIndex[_beneficiary]);\r\n    delete(beneficiaryExists[_beneficiary]);\r\n    emit BeneficiaryUpdated(_beneficiary, 0);\r\n  }\r\n\r\n  //Remove up to Ten(10) beneficiaries\r\n  function removeBeneficiaries (address[10] _beneficiaries)\r\n      public onlyOwner\r\n  returns (bool) {\r\n    uint256 maxLength = 10;\r\n\r\n    for (uint256 i=0; i<maxLength; i++) {\r\n      if (_beneficiaries[i] != 0x0) {\r\n        removeBeneficiary(_beneficiaries[i]);\r\n      }\r\n    }\r\n    return true;\r\n  }\r\n\r\n  //Reset the Wait Time, and push Disposition forward by another waitTime cycle\r\n  function postpone ()\r\n    public onlyOwner\r\n  returns (bool) {\r\n    lastInteraction = now;\r\n    return true;\r\n  }\r\n\r\n  //Send balances to beneficiaries and send remainder to contract creator\r\n  function triggerDisposition ()\r\n    public\r\n  {\r\n    require(isDispositionDue(), 'Will is not yet due for disposition');\r\n    uint256 _balance = address(this).balance;\r\n    uint256 _dispositionSum = dispositionSum();\r\n    uint256 _unit = unit();\r\n    disbursed = true;\r\n    for (uint256 _b=1;_b<beneficiaries.length;_b++) {\r\n      uint256 amountDue = _balance.mul(disposition[beneficiaries[_b]] ).div(_dispositionSum).div(_unit);\r\n      beneficiaries[_b].transfer( amountDue );\r\n      emit BeneficiarySettled(beneficiaries[_b], amountDue);\r\n    }\r\n    beneficiaries[0].transfer(address(this).balance);\r\n  }\r\n\r\n  function ()\r\n    public payable\r\n  {\r\n    if (msg.value == 0 && isDispositionDue()) {\r\n      triggerDisposition();\r\n    } else if (msg.sender == owner && disbursed == false) {\r\n      postpone();\r\n    }\r\n  }\r\n}\r\n",
  "sourcePath": "/media/brvhrt/EAGET/work-dont touch/cwl/contracts/Will.sol",
  "compiler": {
    "name": "solc",
    "version": "0.4.24+commit.e67f0147.Emscripten.clang"
  },
  "schemaVersion": "2.0.1",
  "updatedAt": "2018-12-28T21:02:39.557Z"
}