{
  "contractName": "Will",
  "abi": [
    {
      "constant": true,
      "inputs": [],
      "name": "disbursed",
      "outputs": [
        {
          "name": "",
          "type": "bool"
        }
      ],
      "payable": false,
      "stateMutability": "view",
      "type": "function"
    },
    {
      "constant": true,
      "inputs": [],
      "name": "maxArrayLength",
      "outputs": [
        {
          "name": "",
          "type": "uint256"
        }
      ],
      "payable": false,
      "stateMutability": "view",
      "type": "function"
    },
    {
      "constant": true,
      "inputs": [],
      "name": "version",
      "outputs": [
        {
          "name": "",
          "type": "uint8"
        }
      ],
      "payable": false,
      "stateMutability": "view",
      "type": "function"
    },
    {
      "constant": false,
      "inputs": [],
      "name": "renounceOwnership",
      "outputs": [],
      "payable": false,
      "stateMutability": "nonpayable",
      "type": "function"
    },
    {
      "constant": true,
      "inputs": [],
      "name": "owner",
      "outputs": [
        {
          "name": "",
          "type": "address"
        }
      ],
      "payable": false,
      "stateMutability": "view",
      "type": "function"
    },
    {
      "constant": true,
      "inputs": [],
      "name": "isOwner",
      "outputs": [
        {
          "name": "",
          "type": "bool"
        }
      ],
      "payable": false,
      "stateMutability": "view",
      "type": "function"
    },
    {
      "constant": true,
      "inputs": [],
      "name": "lastInteraction",
      "outputs": [
        {
          "name": "",
          "type": "uint256"
        }
      ],
      "payable": false,
      "stateMutability": "view",
      "type": "function"
    },
    {
      "constant": true,
      "inputs": [],
      "name": "waitingTime",
      "outputs": [
        {
          "name": "",
          "type": "uint256"
        }
      ],
      "payable": false,
      "stateMutability": "view",
      "type": "function"
    },
    {
      "constant": true,
      "inputs": [],
      "name": "disbursing",
      "outputs": [
        {
          "name": "",
          "type": "bool"
        }
      ],
      "payable": false,
      "stateMutability": "view",
      "type": "function"
    },
    {
      "constant": true,
      "inputs": [
        {
          "name": "",
          "type": "address"
        }
      ],
      "name": "disposition",
      "outputs": [
        {
          "name": "",
          "type": "uint256"
        }
      ],
      "payable": false,
      "stateMutability": "view",
      "type": "function"
    },
    {
      "constant": false,
      "inputs": [
        {
          "name": "newOwner",
          "type": "address"
        }
      ],
      "name": "transferOwnership",
      "outputs": [],
      "payable": false,
      "stateMutability": "nonpayable",
      "type": "function"
    },
    {
      "inputs": [
        {
          "name": "_waitTime",
          "type": "uint256"
        }
      ],
      "payable": false,
      "stateMutability": "nonpayable",
      "type": "constructor"
    },
    {
      "payable": true,
      "stateMutability": "payable",
      "type": "fallback"
    },
    {
      "anonymous": false,
      "inputs": [
        {
          "indexed": true,
          "name": "beneficiary",
          "type": "address"
        },
        {
          "indexed": false,
          "name": "disposition",
          "type": "uint256"
        }
      ],
      "name": "BeneficiaryUpdated",
      "type": "event"
    },
    {
      "anonymous": false,
      "inputs": [
        {
          "indexed": true,
          "name": "beneficiary",
          "type": "address"
        },
        {
          "indexed": false,
          "name": "total",
          "type": "uint256"
        }
      ],
      "name": "BeneficiarySettled",
      "type": "event"
    },
    {
      "anonymous": false,
      "inputs": [
        {
          "indexed": true,
          "name": "previousOwner",
          "type": "address"
        },
        {
          "indexed": true,
          "name": "newOwner",
          "type": "address"
        }
      ],
      "name": "OwnershipTransferred",
      "type": "event"
    },
    {
      "constant": true,
      "inputs": [
        {
          "name": "_addr",
          "type": "address"
        }
      ],
      "name": "isBeneficiary",
      "outputs": [
        {
          "name": "",
          "type": "bool"
        }
      ],
      "payable": false,
      "stateMutability": "view",
      "type": "function"
    },
    {
      "constant": true,
      "inputs": [],
      "name": "totalBeneficiaries",
      "outputs": [
        {
          "name": "",
          "type": "uint256"
        }
      ],
      "payable": false,
      "stateMutability": "view",
      "type": "function"
    },
    {
      "constant": true,
      "inputs": [],
      "name": "dispositionSum",
      "outputs": [
        {
          "name": "_sum",
          "type": "uint256"
        }
      ],
      "payable": false,
      "stateMutability": "view",
      "type": "function"
    },
    {
      "constant": true,
      "inputs": [],
      "name": "isDispositionDue",
      "outputs": [
        {
          "name": "",
          "type": "bool"
        }
      ],
      "payable": false,
      "stateMutability": "view",
      "type": "function"
    },
    {
      "constant": true,
      "inputs": [
        {
          "name": "_beneficiary",
          "type": "address"
        }
      ],
      "name": "getBeneficiaryIndex",
      "outputs": [
        {
          "name": "",
          "type": "uint256"
        }
      ],
      "payable": false,
      "stateMutability": "view",
      "type": "function"
    },
    {
      "constant": false,
      "inputs": [
        {
          "name": "_beneficiary",
          "type": "address"
        },
        {
          "name": "_disposition",
          "type": "uint256"
        }
      ],
      "name": "updateBeneficiary",
      "outputs": [
        {
          "name": "",
          "type": "bool"
        }
      ],
      "payable": false,
      "stateMutability": "nonpayable",
      "type": "function"
    },
    {
      "constant": false,
      "inputs": [
        {
          "name": "_beneficiaries",
          "type": "address[10]"
        },
        {
          "name": "_dispositions",
          "type": "uint256[10]"
        }
      ],
      "name": "updateBeneficiaries",
      "outputs": [
        {
          "name": "",
          "type": "bool"
        }
      ],
      "payable": false,
      "stateMutability": "nonpayable",
      "type": "function"
    },
    {
      "constant": false,
      "inputs": [
        {
          "name": "_beneficiary",
          "type": "address"
        }
      ],
      "name": "removeBeneficiary",
      "outputs": [
        {
          "name": "",
          "type": "bool"
        }
      ],
      "payable": false,
      "stateMutability": "nonpayable",
      "type": "function"
    },
    {
      "constant": false,
      "inputs": [
        {
          "name": "_beneficiaries",
          "type": "address[10]"
        }
      ],
      "name": "removeBeneficiaries",
      "outputs": [
        {
          "name": "",
          "type": "bool"
        }
      ],
      "payable": false,
      "stateMutability": "nonpayable",
      "type": "function"
    },
    {
      "constant": false,
      "inputs": [],
      "name": "postpone",
      "outputs": [
        {
          "name": "",
          "type": "bool"
        }
      ],
      "payable": true,
      "stateMutability": "payable",
      "type": "function"
    },
    {
      "constant": false,
      "inputs": [],
      "name": "triggerDisposition",
      "outputs": [],
      "payable": false,
      "stateMutability": "nonpayable",
      "type": "function"
    }
  ],
  "bytecode": "0x608060405234801561001057600080fd5b5060405161265f38038061265f8339818101604052602081101561003357600080fd5b810190808051906020019092919050505061005261018760201b60201c565b6000806101000a81548173ffffffffffffffffffffffffffffffffffffffff021916908373ffffffffffffffffffffffffffffffffffffffff1602179055506000809054906101000a900473ffffffffffffffffffffffffffffffffffffffff1673ffffffffffffffffffffffffffffffffffffffff16600073ffffffffffffffffffffffffffffffffffffffff167f8be0079c531659141344cd1fd0a4f28419497f9722a3daafe3b4186f6b6457e060405160405180910390a360033390806001815401808255809150509060018203906000526020600020016000909192909190916101000a81548173ffffffffffffffffffffffffffffffffffffffff021916908373ffffffffffffffffffffffffffffffffffffffff1602179055505080600181905550426002819055505061018f565b600033905090565b6124c18061019e6000396000f3fe6080604052600436106101355760003560e01c8063aa13e8c2116100ab578063d01a69c91161006f578063d01a69c9146105e5578063d39e6bb114610610578063dabc57d91461069c578063e7caed9114610701578063f2fde38b14610723578063fcb9b5051461077457610135565b8063aa13e8c2146104e4578063b756feff1461050f578063b815b30014610526578063b914d90814610555578063c2ff5012146105ba57610135565b806367e74005116100fd57806367e74005146102e5578063715018a6146103b35780638da5cb5b146103ca5780638f32d59b146104215780638f71a265146104505780639d19b2261461047b57610135565b806310812a7d146101c2578063282f7cdd146101f157806353bda15b1461022057806354fd4d501461024b57806359633a1c1461027c575b61013d6107e7565b73ffffffffffffffffffffffffffffffffffffffff163373ffffffffffffffffffffffffffffffffffffffff1614801561018a575060001515600060149054906101000a900460ff161515145b1561019d57610197610810565b506101c0565b6000341480156101b157506101b0610906565b5b156101bf576101be610927565b5b5b005b3480156101ce57600080fd5b506101d7610c8c565b604051808215151515815260200191505060405180910390f35b3480156101fd57600080fd5b50610206610906565b604051808215151515815260200191505060405180910390f35b34801561022c57600080fd5b50610235610c9f565b6040518082815260200191505060405180910390f35b34801561025757600080fd5b50610260610ca4565b604051808260ff1660ff16815260200191505060405180910390f35b34801561028857600080fd5b506102cb6004803603602081101561029f57600080fd5b81019080803573ffffffffffffffffffffffffffffffffffffffff169060200190929190505050610ca9565b604051808215151515815260200191505060405180910390f35b3480156102f157600080fd5b50610399600480360361028081101561030957600080fd5b81019080806101400190600a806020026040519081016040528092919082600a60200280828437600081840152601f19601f8201169050808301925050505050509192919290806101400190600a806020026040519081016040528092919082600a60200280828437600081840152601f19601f820116905080830192505050505050919291929050505061114c565b604051808215151515815260200191505060405180910390f35b3480156103bf57600080fd5b506103c861125f565b005b3480156103d657600080fd5b506103df6107e7565b604051808273ffffffffffffffffffffffffffffffffffffffff1673ffffffffffffffffffffffffffffffffffffffff16815260200191505060405180910390f35b34801561042d57600080fd5b50610436611398565b604051808215151515815260200191505060405180910390f35b34801561045c57600080fd5b506104656113f6565b6040518082815260200191505060405180910390f35b34801561048757600080fd5b506104ca6004803603602081101561049e57600080fd5b81019080803573ffffffffffffffffffffffffffffffffffffffff1690602001909291905050506113fc565b604051808215151515815260200191505060405180910390f35b3480156104f057600080fd5b506104f9611447565b6040518082815260200191505060405180910390f35b34801561051b57600080fd5b50610524610927565b005b34801561053257600080fd5b5061053b61144d565b604051808215151515815260200191505060405180910390f35b34801561056157600080fd5b506105a46004803603602081101561057857600080fd5b81019080803573ffffffffffffffffffffffffffffffffffffffff169060200190929190505050611460565b6040518082815260200191505060405180910390f35b3480156105c657600080fd5b506105cf6114a9565b6040518082815260200191505060405180910390f35b3480156105f157600080fd5b506105fa61155a565b6040518082815260200191505060405180910390f35b34801561061c57600080fd5b50610682600480360361014081101561063457600080fd5b81019080806101400190600a806020026040519081016040528092919082600a60200280828437600081840152601f19601f8201169050808301925050505050509192919290505050611567565b604051808215151515815260200191505060405180910390f35b3480156106a857600080fd5b506106eb600480360360208110156106bf57600080fd5b81019080803573ffffffffffffffffffffffffffffffffffffffff169060200190929190505050611668565b6040518082815260200191505060405180910390f35b610709610810565b604051808215151515815260200191505060405180910390f35b34801561072f57600080fd5b506107726004803603602081101561074657600080fd5b81019080803573ffffffffffffffffffffffffffffffffffffffff169060200190929190505050611680565b005b34801561078057600080fd5b506107cd6004803603604081101561079757600080fd5b81019080803573ffffffffffffffffffffffffffffffffffffffff16906020019092919080359060200190929190505050611706565b604051808215151515815260200191505060405180910390f35b60008060009054906101000a900473ffffffffffffffffffffffffffffffffffffffff16905090565b600061081a611398565b61088c576040517f08c379a00000000000000000000000000000000000000000000000000000000081526004018080602001828103825260208152602001807f4f776e61626c653a2063616c6c6572206973206e6f7420746865206f776e657281525060200191505060405180910390fd5b60001515600060149054906101000a900460ff161515146108f8576040517f08c379a00000000000000000000000000000000000000000000000000000000081526004018080602001828103825260308152602001806124356030913960400191505060405180910390fd5b426002819055506001905090565b600060015461092060025442611a6190919063ffffffff16565b1015905090565b61092f610906565b610984576040517f08c379a00000000000000000000000000000000000000000000000000000000081526004018080602001828103825260238152602001806122c36023913960400191505060405180910390fd5b60001515600060159054906101000a900460ff161515146109f0576040517f08c379a000000000000000000000000000000000000000000000000000000000815260040180806020018281038252602e815260200180612407602e913960400191505060405180910390fd5b6001600060156101000a81548160ff021916908315150217905550600080905060003073ffffffffffffffffffffffffffffffffffffffff163190506000610a366114a9565b90506001600060146101000a81548160ff02191690831515021790555060016003805490501115610bd1576000600190505b600380549050811015610bcf57610ab760038281548110610a8557fe5b9060005260206000200160009054906101000a900473ffffffffffffffffffffffffffffffffffffffff168484611aab565b9350600060038281548110610ac857fe5b9060005260206000200160009054906101000a900473ffffffffffffffffffffffffffffffffffffffff1690508073ffffffffffffffffffffffffffffffffffffffff166108fc869081150290604051600060405180830381858888f19350505050158015610b3b573d6000803e3d6000fd5b5060038281548110610b4957fe5b9060005260206000200160009054906101000a900473ffffffffffffffffffffffffffffffffffffffff1673ffffffffffffffffffffffffffffffffffffffff167f3b523f60e6edf0c2a9c8f03655abbd5e5ea4a5164318e6dd820b253d44b01ac8866040518082815260200191505060405180910390a2508080600101915050610a68565b505b60006003600081548110610be157fe5b9060005260206000200160009054906101000a900473ffffffffffffffffffffffffffffffffffffffff1690508073ffffffffffffffffffffffffffffffffffffffff166108fc3073ffffffffffffffffffffffffffffffffffffffff16319081150290604051600060405180830381858888f19350505050158015610c6b573d6000803e3d6000fd5b5060008060156101000a81548160ff02191690831515021790555050505050565b600060149054906101000a900460ff1681565b600a81565b600181565b6000610cb3611398565b610d25576040517f08c379a00000000000000000000000000000000000000000000000000000000081526004018080602001828103825260208152602001807f4f776e61626c653a2063616c6c6572206973206e6f7420746865206f776e657281525060200191505060405180910390fd5b600073ffffffffffffffffffffffffffffffffffffffff168273ffffffffffffffffffffffffffffffffffffffff161415610dab576040517f08c379a000000000000000000000000000000000000000000000000000000000815260040180806020018281038252602781526020018061232d6027913960400191505060405180910390fd5b610db3610906565b15610e09576040517f08c379a00000000000000000000000000000000000000000000000000000000081526004018080602001828103825260338152602001806123a46033913960400191505060405180910390fd5b6000610e1483611460565b90508273ffffffffffffffffffffffffffffffffffffffff1660038281548110610e3a57fe5b9060005260206000200160009054906101000a900473ffffffffffffffffffffffffffffffffffffffff1673ffffffffffffffffffffffffffffffffffffffff1614610e8257fe5b6000811415610edc576040517f08c379a000000000000000000000000000000000000000000000000000000000815260040180806020018281038252602f815260200180612354602f913960400191505060405180910390fd5b610ee4610810565b50600460008473ffffffffffffffffffffffffffffffffffffffff1673ffffffffffffffffffffffffffffffffffffffff16815260200190815260200160002060009055600560008473ffffffffffffffffffffffffffffffffffffffff1673ffffffffffffffffffffffffffffffffffffffff168152602001908152602001600020600090556003610f866001600380549050611a6190919063ffffffff16565b81548110610f9057fe5b9060005260206000200160009054906101000a900473ffffffffffffffffffffffffffffffffffffffff1660038281548110610fc857fe5b9060005260206000200160006101000a81548173ffffffffffffffffffffffffffffffffffffffff021916908373ffffffffffffffffffffffffffffffffffffffff16021790555080600560006003848154811061102257fe5b9060005260206000200160009054906101000a900473ffffffffffffffffffffffffffffffffffffffff1673ffffffffffffffffffffffffffffffffffffffff1673ffffffffffffffffffffffffffffffffffffffff1681526020019081526020016000208190555060036110a66001600380549050611a6190919063ffffffff16565b815481106110b057fe5b9060005260206000200160006101000a81549073ffffffffffffffffffffffffffffffffffffffff021916905560038054809190600190036110f29190612271565b508273ffffffffffffffffffffffffffffffffffffffff167f73d60fa978f046c1ccf0f85c6247b34d322ad63d5184881ef2f10bf3c70dde2160006040518082815260200191505060405180910390a26001915050919050565b6000611156611398565b6111c8576040517f08c379a00000000000000000000000000000000000000000000000000000000081526004018080602001828103825260208152602001807f4f776e61626c653a2063616c6c6572206973206e6f7420746865206f776e657281525060200191505060405180910390fd5b60008090505b600a81101561125457600073ffffffffffffffffffffffffffffffffffffffff168482600a81106111fb57fe5b602002015173ffffffffffffffffffffffffffffffffffffffff1614611247576112458482600a811061122a57fe5b60200201518483600a811061123b57fe5b6020020151611706565b505b80806001019150506111ce565b506001905092915050565b611267611398565b6112d9576040517f08c379a00000000000000000000000000000000000000000000000000000000081526004018080602001828103825260208152602001807f4f776e61626c653a2063616c6c6572206973206e6f7420746865206f776e657281525060200191505060405180910390fd5b600073ffffffffffffffffffffffffffffffffffffffff166000809054906101000a900473ffffffffffffffffffffffffffffffffffffffff1673ffffffffffffffffffffffffffffffffffffffff167f8be0079c531659141344cd1fd0a4f28419497f9722a3daafe3b4186f6b6457e060405160405180910390a360008060006101000a81548173ffffffffffffffffffffffffffffffffffffffff021916908373ffffffffffffffffffffffffffffffffffffffff160217905550565b60008060009054906101000a900473ffffffffffffffffffffffffffffffffffffffff1673ffffffffffffffffffffffffffffffffffffffff166113da611b1a565b73ffffffffffffffffffffffffffffffffffffffff1614905090565b60025481565b600080600460008473ffffffffffffffffffffffffffffffffffffffff1673ffffffffffffffffffffffffffffffffffffffff16815260200190815260200160002054119050919050565b60015481565b600060159054906101000a900460ff1681565b6000600560008373ffffffffffffffffffffffffffffffffffffffff1673ffffffffffffffffffffffffffffffffffffffff168152602001908152602001600020549050919050565b600080600190505b6003805490508110156115565761154760046000600384815481106114d257fe5b9060005260206000200160009054906101000a900473ffffffffffffffffffffffffffffffffffffffff1673ffffffffffffffffffffffffffffffffffffffff1673ffffffffffffffffffffffffffffffffffffffff1681526020019081526020016000205483611b2290919063ffffffff16565b915080806001019150506114b1565b5090565b6000600380549050905090565b6000611571611398565b6115e3576040517f08c379a00000000000000000000000000000000000000000000000000000000081526004018080602001828103825260208152602001807f4f776e61626c653a2063616c6c6572206973206e6f7420746865206f776e657281525060200191505060405180910390fd5b60008090505b600a81101561165e57600073ffffffffffffffffffffffffffffffffffffffff168382600a811061161657fe5b602002015173ffffffffffffffffffffffffffffffffffffffff16146116515761164f8382600a811061164557fe5b6020020151610ca9565b505b80806001019150506115e9565b5060019050919050565b60046020528060005260406000206000915090505481565b611688611398565b6116fa576040517f08c379a00000000000000000000000000000000000000000000000000000000081526004018080602001828103825260208152602001807f4f776e61626c653a2063616c6c6572206973206e6f7420746865206f776e657281525060200191505060405180910390fd5b61170381611baa565b50565b6000611710611398565b611782576040517f08c379a00000000000000000000000000000000000000000000000000000000081526004018080602001828103825260208152602001807f4f776e61626c653a2063616c6c6572206973206e6f7420746865206f776e657281525060200191505060405180910390fd5b600073ffffffffffffffffffffffffffffffffffffffff168373ffffffffffffffffffffffffffffffffffffffff161415611825576040517f08c379a000000000000000000000000000000000000000000000000000000000815260040180806020018281038252601b8152602001807f5f62656e65666963696172792063616e6e6f74206265205a65726f000000000081525060200191505060405180910390fd5b600360008154811061183357fe5b9060005260206000200160009054906101000a900473ffffffffffffffffffffffffffffffffffffffff1673ffffffffffffffffffffffffffffffffffffffff168373ffffffffffffffffffffffffffffffffffffffff1614156118e2576040517f08c379a00000000000000000000000000000000000000000000000000000000081526004018080602001828103825260288152602001806124656028913960400191505060405180910390fd5b6000821161193b576040517f08c379a00000000000000000000000000000000000000000000000000000000081526004018080602001828103825260218152602001806122e66021913960400191505060405180910390fd5b611943610906565b15611999576040517f08c379a00000000000000000000000000000000000000000000000000000000081526004018080602001828103825260338152602001806123a46033913960400191505060405180910390fd5b60006119a484611460565b14156119bb576119b48383611cee565b9050611a5b565b6119c3610810565b5081600460008573ffffffffffffffffffffffffffffffffffffffff1673ffffffffffffffffffffffffffffffffffffffff168152602001908152602001600020819055508273ffffffffffffffffffffffffffffffffffffffff167f73d60fa978f046c1ccf0f85c6247b34d322ad63d5184881ef2f10bf3c70dde21836040518082815260200191505060405180910390a2600190505b92915050565b6000611aa383836040518060400160405280601e81526020017f536166654d6174683a207375627472616374696f6e206f766572666c6f77000081525061201b565b905092915050565b6000611b1182611b03600460008873ffffffffffffffffffffffffffffffffffffffff1673ffffffffffffffffffffffffffffffffffffffff16815260200190815260200160002054866120db90919063ffffffff16565b61216190919063ffffffff16565b90509392505050565b600033905090565b600080828401905083811015611ba0576040517f08c379a000000000000000000000000000000000000000000000000000000000815260040180806020018281038252601b8152602001807f536166654d6174683a206164646974696f6e206f766572666c6f77000000000081525060200191505060405180910390fd5b8091505092915050565b600073ffffffffffffffffffffffffffffffffffffffff168173ffffffffffffffffffffffffffffffffffffffff161415611c30576040517f08c379a00000000000000000000000000000000000000000000000000000000081526004018080602001828103825260268152602001806123076026913960400191505060405180910390fd5b8073ffffffffffffffffffffffffffffffffffffffff166000809054906101000a900473ffffffffffffffffffffffffffffffffffffffff1673ffffffffffffffffffffffffffffffffffffffff167f8be0079c531659141344cd1fd0a4f28419497f9722a3daafe3b4186f6b6457e060405160405180910390a3806000806101000a81548173ffffffffffffffffffffffffffffffffffffffff021916908373ffffffffffffffffffffffffffffffffffffffff16021790555050565b6000611cf8611398565b611d6a576040517f08c379a00000000000000000000000000000000000000000000000000000000081526004018080602001828103825260208152602001807f4f776e61626c653a2063616c6c6572206973206e6f7420746865206f776e657281525060200191505060405180910390fd5b600073ffffffffffffffffffffffffffffffffffffffff168373ffffffffffffffffffffffffffffffffffffffff161415611e0d576040517f08c379a000000000000000000000000000000000000000000000000000000000815260040180806020018281038252601b8152602001807f5f62656e65666963696172792063616e6e6f74206265205a65726f000000000081525060200191505060405180910390fd5b60008211611e66576040517f08c379a00000000000000000000000000000000000000000000000000000000081526004018080602001828103825260218152602001806122e66021913960400191505060405180910390fd5b60001515611e73846113fc565b151514611ecb576040517f08c379a00000000000000000000000000000000000000000000000000000000081526004018080602001828103825260308152602001806123d76030913960400191505060405180910390fd5b611ed3610810565b50600380549050600560008573ffffffffffffffffffffffffffffffffffffffff1673ffffffffffffffffffffffffffffffffffffffff1681526020019081526020016000208190555081600460008573ffffffffffffffffffffffffffffffffffffffff1673ffffffffffffffffffffffffffffffffffffffff1681526020019081526020016000208190555060038390806001815401808255809150509060018203906000526020600020016000909192909190916101000a81548173ffffffffffffffffffffffffffffffffffffffff021916908373ffffffffffffffffffffffffffffffffffffffff160217905550508273ffffffffffffffffffffffffffffffffffffffff167f73d60fa978f046c1ccf0f85c6247b34d322ad63d5184881ef2f10bf3c70dde21836040518082815260200191505060405180910390a292915050565b60008383111582906120c8576040517f08c379a00000000000000000000000000000000000000000000000000000000081526004018080602001828103825283818151815260200191508051906020019080838360005b8381101561208d578082015181840152602081019050612072565b50505050905090810190601f1680156120ba5780820380516001836020036101000a031916815260200191505b509250505060405180910390fd5b5060008385039050809150509392505050565b6000808314156120ee576000905061215b565b60008284029050828482816120ff57fe5b0414612156576040517f08c379a00000000000000000000000000000000000000000000000000000000081526004018080602001828103825260218152602001806123836021913960400191505060405180910390fd5b809150505b92915050565b60006121a383836040518060400160405280601a81526020017f536166654d6174683a206469766973696f6e206279207a65726f0000000000008152506121ab565b905092915050565b60008083118290612257576040517f08c379a00000000000000000000000000000000000000000000000000000000081526004018080602001828103825283818151815260200191508051906020019080838360005b8381101561221c578082015181840152602081019050612201565b50505050905090810190601f1680156122495780820380516001836020036101000a031916815260200191505b509250505060405180910390fd5b50600083858161226357fe5b049050809150509392505050565b81548183558181111561229857818360005260206000209182019101612297919061229d565b5b505050565b6122bf91905b808211156122bb5760008160009055506001016122a3565b5090565b9056fe57696c6c206973206e6f74207965742064756520666f7220646973706f736974696f6e446973706f736974696f6e206d75737420626520677265746572207468616e20304f776e61626c653a206e6577206f776e657220697320746865207a65726f206164647265737350726f7669646520612062656e6566696369617279206164647265737320746f2072656d6f7665596f752063616e206e6f742072656d6f7665207468652063726561746f7220617320612062656e6566696369617279536166654d6174683a206d756c7469706c69636174696f6e206f766572666c6f7743616e206e6f742075706461746520646973706f736974696f6e73207768656e20646973706f736974696f6e2069732044756543616e6e6f7420616464206578697374696e672062656e656669636961727920416e65772c2075736520757064617465416e20696e7374616e6365206f662064697362757273656d656e7420697320616c72656164792072756e6e696e6754696d65722063616e206e6f7420626520726573657420616674657220696e697469616c20646973706f736974696f6e43616e6e6f742075706461746520436f6e7472616374204f776e657220646973706f736974696f6ea265627a7a723058207d33620daa5cca5ff1d9bc41eb94931a9fce729c1ca6576ac5fc7d67b510a52264736f6c634300050a0032",
  "source": "pragma solidity ^0.5.10;\r\n\r\nimport \"@openzeppelin/contracts/math/SafeMath.sol\";\r\nimport \"@openzeppelin/contracts/ownership/Ownable.sol\";\r\nimport './Version.sol';\r\n\r\n/**\r\n* Vault only instantiation, only focuses on eth value\r\n*/\r\ncontract Will is Ownable, Version {\r\n  using SafeMath for uint;\r\n\r\n  uint256 constant ONE = 1; //Constant representation of 1\r\n  uint256 constant public maxArrayLength = 10; //Maximum length of array for functions that accept arrays\r\n\r\n  bool public disbursed; //Whether the contract has Disposed at least once\r\n  bool public disbursing; //Whether the contract is pressently running a disbursement\r\n  uint256 public waitingTime; //How long to wait before initiating distribution\r\n  uint256 public lastInteraction; //Last time contract was interacted with\r\n  address[] beneficiaries; //Address for each beneficiary\r\n  mapping( address => uint256) public disposition; //List of ratio of contract balance to sent to each beneficiary\r\n  mapping(address => uint256) beneficiaryIndex; //Mapping of beneficiary to index in beneficiaries list\r\n\r\n  event BeneficiaryUpdated( address indexed beneficiary, uint256 disposition); //Notify of update to beneficiaries / disposition\r\n  event BeneficiarySettled( address indexed beneficiary, uint256 total); //Notify of update to beneficiaries / disposition\r\n\r\n  constructor (uint256 _waitTime )\r\n    public\r\n  {\r\n    beneficiaries.push(msg.sender);\r\n    waitingTime = _waitTime;\r\n    lastInteraction = now;\r\n  }\r\n\r\n  function isBeneficiary (address _addr)\r\n    public view\r\n  returns (bool) {\r\n    return disposition[_addr] > 0;\r\n  }\r\n\r\n  function totalBeneficiaries ()\r\n    public view\r\n  returns (uint) {\r\n    return beneficiaries.length;\r\n  }\r\n\r\n  function dispositionSum ()\r\n    public view\r\n  returns (uint256 _sum) {\r\n    for (uint256 i=1; i<beneficiaries.length; i++) {\r\n      _sum = _sum.add(disposition[ beneficiaries[i] ]);\r\n    }\r\n  }\r\n\r\n  function isDispositionDue ()\r\n    public view\r\n  returns (bool) {\r\n    return now.sub(lastInteraction) >= waitingTime;\r\n  }\r\n\r\n  function getBeneficiaryIndex (address _beneficiary)\r\n    public view\r\n  returns (uint256){\r\n    return beneficiaryIndex[_beneficiary];\r\n  }\r\n\r\n  function _calcDispositionDue (address _beneficiary, uint256 _totalBalance, uint256 _dispositionSum)\r\n    internal view\r\n  returns (uint256){\r\n    return (_totalBalance.mul(disposition[_beneficiary] )).div(_dispositionSum);\r\n  }\r\n\r\n  function _addBeneficiary (address _beneficiary, uint256 _disposition)\r\n    internal onlyOwner\r\n  returns (bool)\r\n  {\r\n    require(_beneficiary != address(0), '_beneficiary cannot be Zero');\r\n    require(_disposition > 0, 'Disposition must be greter than 0');\r\n    require(isBeneficiary(_beneficiary) == false, 'Cannot add existing beneficiary Anew, use update');\r\n\r\n    //reset lastInteraction\r\n    postpone();\r\n\r\n    // add beneficiary\r\n    beneficiaryIndex[_beneficiary] = beneficiaries.length;\r\n    disposition[_beneficiary] = _disposition;\r\n    beneficiaries.push(_beneficiary);\r\n    emit BeneficiaryUpdated(_beneficiary, _disposition);\r\n  }\r\n\r\n  function updateBeneficiary (address _beneficiary, uint256 _disposition)\r\n    public onlyOwner\r\n  returns (bool)\r\n  {\r\n    require(_beneficiary != address(0), '_beneficiary cannot be Zero');\r\n    require(_beneficiary != beneficiaries[0], 'Cannot update Contract Owner disposition');\r\n    require(_disposition > 0, 'Disposition must be greter than 0');\r\n    require(!isDispositionDue(), 'Can not update dispositions when disposition is Due');\r\n    if (getBeneficiaryIndex(_beneficiary) == 0) {\r\n      return _addBeneficiary(_beneficiary,_disposition);\r\n    } else {\r\n      //reset lastInteraction\r\n      postpone();\r\n\r\n      //update disposition\r\n      disposition[_beneficiary] = _disposition;\r\n      emit BeneficiaryUpdated(_beneficiary, _disposition);\r\n      return true;\r\n    }\r\n  }\r\n\r\n  // Update batch of up to Ten (10) beneficiaries, beneficiary must have corresponding index for disposition in _dispositions\r\n  function updateBeneficiaries (address[10] memory _beneficiaries, uint256[10] memory _dispositions)\r\n    public onlyOwner\r\n  returns (bool)\r\n  {\r\n\r\n    for (uint256 i=0; i<maxArrayLength; i++) {\r\n      if (_beneficiaries[i] != address(0)) {\r\n        updateBeneficiary(_beneficiaries[i], _dispositions[i]);\r\n      }\r\n    }\r\n    return true;\r\n  }\r\n\r\n  function removeBeneficiary (address _beneficiary)\r\n    public onlyOwner\r\n  returns (bool)\r\n  {\r\n    require(_beneficiary != address(0), 'Provide a beneficiary address to remove');\r\n    require(!isDispositionDue(), 'Can not update dispositions when disposition is Due');\r\n\r\n    uint256 idx = getBeneficiaryIndex(_beneficiary);\r\n\r\n    assert(beneficiaries[idx] == _beneficiary);\r\n    require(idx != 0, 'You can not remove the creator as a beneficiary');//Ensure  first beneficiary can never be removed\r\n\r\n    //reset lastInteraction\r\n    postpone();\r\n\r\n    //Remove beneficiary\r\n    delete(disposition[_beneficiary]);\r\n    delete(beneficiaryIndex[_beneficiary]);\r\n\r\n    // Rearrange indexes\r\n    beneficiaries[idx] = beneficiaries[ beneficiaries.length.sub(ONE) ];\r\n    beneficiaryIndex[ beneficiaries[idx] ] = idx;\r\n    delete(beneficiaries[beneficiaries.length.sub(ONE)]);\r\n    beneficiaries.length--;\r\n\r\n    emit BeneficiaryUpdated(_beneficiary, 0);\r\n    return true;\r\n  }\r\n\r\n  //Remove up to Ten(10) beneficiaries\r\n  function removeBeneficiaries (address[10] memory _beneficiaries)\r\n      public onlyOwner\r\n  returns (bool) {\r\n\r\n    for (uint256 i=0; i<maxArrayLength; i++) {\r\n      if (_beneficiaries[i] != address(0)) {\r\n        removeBeneficiary(_beneficiaries[i]);\r\n      }\r\n    }\r\n    return true;\r\n  }\r\n\r\n  //Reset the Wait Time, by pushing Disposition forward by another waitTime cycle\r\n  function postpone ()\r\n    public payable onlyOwner\r\n  returns (bool) {\r\n    require(disbursed == false, 'Timer can not be reset after initial disposition');\r\n    lastInteraction = now;\r\n    return true;\r\n  }\r\n\r\n  //Send balances to beneficiaries and send remainder to contract creator\r\n  function triggerDisposition ()\r\n    public\r\n  {\r\n    require(isDispositionDue(), 'Will is not yet due for disposition');\r\n    require(disbursing == false, 'An instance of disbursement is already running');\r\n    disbursing = true;\r\n\r\n    uint256 amountDue = 0;\r\n    uint256 _balance = address(this).balance;\r\n    uint256 _dispositionSum = dispositionSum();\r\n    disbursed = true;\r\n    if (beneficiaries.length > 1) {\r\n      for (uint256 _b=1;_b<beneficiaries.length;_b++) {\r\n        amountDue = _calcDispositionDue(beneficiaries[_b], _balance, _dispositionSum);\r\n        address payable beneficiary = address(uint160(beneficiaries[_b]));\r\n        beneficiary.transfer( amountDue );\r\n        emit BeneficiarySettled(beneficiaries[_b], amountDue);\r\n      }\r\n    }\r\n    address payable createdBy = address(uint160(beneficiaries[0]));\r\n    createdBy.transfer(address(this).balance);\r\n    disbursing = false;\r\n  }\r\n\r\n  /**\r\n  * Scenarios:\r\n  * - Non-owner sends funds to contract: funds are received no function is triggerred\r\n  * - Owner sends funds to contract: funds are received and postpone is triggerred if not yet disbursed\r\n  * - Non-owner sends no value to contract: contract triggerDisposition if isDispositionDue\r\n  * - Owner sends no value to contract: postpone is triggerred if not yet disbursed\r\n  */\r\n  function ()\r\n    external payable\r\n  {\r\n    if (msg.sender == owner() && disbursed == false) {\r\n      postpone();\r\n    } else if (msg.value == 0 && isDispositionDue()) {\r\n      triggerDisposition();\r\n    }\r\n  }\r\n}\r\n",
  "sourcePath": "/media/brvhrt/Vault/Store/New-folder/cwl/contracts/Will.sol",
  "compiler": {
    "name": "solc",
    "version": "0.5.10+commit.5a6ea5b1.Emscripten.clang"
  },
  "schemaVersion": "3.0.19",
  "updatedAt": "2019-11-27T21:21:56.348Z",
  "devdoc": {
    "methods": {
      "isOwner()": {
        "details": "Returns true if the caller is the current owner."
      },
      "owner()": {
        "details": "Returns the address of the current owner."
      },
      "renounceOwnership()": {
        "details": "Leaves the contract without owner. It will not be possible to call `onlyOwner` functions anymore. Can only be called by the current owner.     * NOTE: Renouncing ownership will leave the contract without an owner, thereby removing any functionality that is only available to the owner."
      },
      "transferOwnership(address)": {
        "details": "Transfers ownership of the contract to a new account (`newOwner`). Can only be called by the current owner."
      }
    }
  },
  "userdoc": {
    "methods": {},
    "notice": "Vault only instantiation, only focuses on eth value\r"
  }
}