{
  "contractName": "Will",
  "abi": [
    {
      "constant": true,
      "inputs": [],
      "name": "owner",
      "outputs": [
        {
          "name": "",
          "type": "address"
        }
      ],
      "payable": false,
      "stateMutability": "view",
      "type": "function"
    },
    {
      "inputs": [
        {
          "name": "_waitTime",
          "type": "uint256"
        }
      ],
      "payable": false,
      "stateMutability": "nonpayable",
      "type": "constructor"
    },
    {
      "payable": true,
      "stateMutability": "payable",
      "type": "fallback"
    },
    {
      "anonymous": false,
      "inputs": [
        {
          "indexed": false,
          "name": "_beneficiary",
          "type": "address"
        },
        {
          "indexed": false,
          "name": "_disposition",
          "type": "uint256"
        },
        {
          "indexed": false,
          "name": "_timestamp",
          "type": "uint256"
        }
      ],
      "name": "BeneficiaryUpdated",
      "type": "event"
    },
    {
      "anonymous": false,
      "inputs": [
        {
          "indexed": true,
          "name": "previousOwner",
          "type": "address"
        },
        {
          "indexed": true,
          "name": "newOwner",
          "type": "address"
        }
      ],
      "name": "OwnershipTransferred",
      "type": "event"
    },
    {
      "constant": true,
      "inputs": [],
      "name": "unit",
      "outputs": [
        {
          "name": "",
          "type": "uint256"
        }
      ],
      "payable": false,
      "stateMutability": "pure",
      "type": "function"
    },
    {
      "constant": true,
      "inputs": [],
      "name": "totalDisposed",
      "outputs": [
        {
          "name": "_total",
          "type": "uint256"
        }
      ],
      "payable": false,
      "stateMutability": "view",
      "type": "function"
    },
    {
      "constant": true,
      "inputs": [],
      "name": "isDispositionDue",
      "outputs": [
        {
          "name": "",
          "type": "bool"
        }
      ],
      "payable": false,
      "stateMutability": "view",
      "type": "function"
    },
    {
      "constant": true,
      "inputs": [
        {
          "name": "_beneficiary",
          "type": "address"
        }
      ],
      "name": "getBeneficiaryIndex",
      "outputs": [
        {
          "name": "",
          "type": "uint256"
        }
      ],
      "payable": false,
      "stateMutability": "view",
      "type": "function"
    },
    {
      "constant": false,
      "inputs": [
        {
          "name": "_beneficiary",
          "type": "address"
        },
        {
          "name": "_disposition",
          "type": "uint256"
        }
      ],
      "name": "addBeneficiary",
      "outputs": [],
      "payable": false,
      "stateMutability": "nonpayable",
      "type": "function"
    },
    {
      "constant": false,
      "inputs": [
        {
          "name": "_beneficiary",
          "type": "address"
        },
        {
          "name": "_disposition",
          "type": "uint256"
        }
      ],
      "name": "updateBeneficiary",
      "outputs": [],
      "payable": false,
      "stateMutability": "nonpayable",
      "type": "function"
    },
    {
      "constant": false,
      "inputs": [
        {
          "name": "_beneficiary",
          "type": "address"
        }
      ],
      "name": "removeBeneficiary",
      "outputs": [],
      "payable": false,
      "stateMutability": "nonpayable",
      "type": "function"
    },
    {
      "constant": false,
      "inputs": [],
      "name": "triggerDisposition",
      "outputs": [],
      "payable": false,
      "stateMutability": "nonpayable",
      "type": "function"
    }
  ],
  "bytecode": "0x608060405234801561001057600080fd5b506040516020806108b9833981016040525160008054600160a060020a033316600160a060020a0319918216811783556003805460018181018355919094527fc2575a0e9e593c00f959f8c92f12db2869c3395a3b0502d05e2516446f71f85b9093018054909216179055554260025561082a8061008f6000396000f3006080604052600436106100985763ffffffff7c0100000000000000000000000000000000000000000000000000000000600035041663282f7cdd81146100a957806359633a1c146100d25780638da5cb5b146100f3578063907af6c01461012457806396074e701461014b578063b756feff1461016f578063b914d90814610184578063f48d1c5e146101a5578063fcb9b505146101ba575b3415156100a7576100a76101de565b005b3480156100b557600080fd5b506100be61031e565b604080519115158252519081900360200190f35b3480156100de57600080fd5b506100a7600160a060020a0360043516610340565b3480156100ff57600080fd5b506101086104dc565b60408051600160a060020a039092168252519081900360200190f35b34801561013057600080fd5b506101396104eb565b60408051918252519081900360200190f35b34801561015757600080fd5b506100a7600160a060020a03600435166024356104f3565b34801561017b57600080fd5b506100a76101de565b34801561019057600080fd5b50610139600160a060020a03600435166105df565b3480156101b157600080fd5b5061013961063c565b3480156101c657600080fd5b506100a7600160a060020a03600435166024356106b6565b6000806101e961031e565b15156101f457600080fd5b5050600160a060020a0330163160015b6003548110156102c457600380548290811061021c57fe5b600091825260209091200154600160a060020a03166108fc61029361023f6104eb565b6102876004600060038881548110151561025557fe5b6000918252602080832090910154600160a060020a03168352820192909252604001902054879063ffffffff61076216565b9063ffffffff61078d16565b6040518115909202916000818181858888f193505050501580156102bb573d6000803e3d6000fd5b50600101610204565b6003805460009081106102d357fe5b6000918252602082200154604051600160a060020a0391821692309092163180156108fc0292909190818181858888f19350505050158015610319573d6000803e3d6000fd5b505050565b6000600154610338600254426107a490919063ffffffff16565b101590505b90565b6000805433600160a060020a0390811691161461035c57600080fd5b600160a060020a038216151561037157600080fd5b61037a826105df565b905081600160a060020a031660038281548110151561039557fe5b600091825260209091200154600160a060020a0316146103b157fe5b8015156103bd57600080fd5b600160a060020a0382166000908152600460205260408120556003805460001981019081106103e857fe5b60009182526020909120015460038054600160a060020a03909216918390811061040e57fe5b6000918252602090912001805473ffffffffffffffffffffffffffffffffffffffff1916600160a060020a039290921691909117905560038054600019810190811061045657fe5b6000918252602090912001805473ffffffffffffffffffffffffffffffffffffffff19169055600380549061048f9060001983016107c5565b5060408051600160a060020a038416815260006020820152428183015290517f9d45e2aef20053093589f016fb8deae1cd7bb218eefd02eb5f38ccf22512c8dd9181900360600190a15050565b600054600160a060020a031681565b6305f5e10090565b60005433600160a060020a0390811691161461050e57600080fd5b600160a060020a038216151561052357600080fd5b61052c826105df565b1561053657600080fd5b600160a060020a03821660008181526004602090815260408083208590556003805460018101825593527fc2575a0e9e593c00f959f8c92f12db2869c3395a3b0502d05e2516446f71f85b909201805473ffffffffffffffffffffffffffffffffffffffff191684179055815192835282018390524282820152517f9d45e2aef20053093589f016fb8deae1cd7bb218eefd02eb5f38ccf22512c8dd9181900360600190a15050565b6000805b6003548110156106315782600160a060020a031660038281548110151561060657fe5b600091825260209091200154600160a060020a0316141561062957809150610636565b6001016105e3565b600091505b50919050565b6000805b6003548110156106b2576106a961069c6106586104eb565b6004600060038681548110151561066b57fe5b6000918252602080832090910154600160a060020a031683528201929092526040019020549063ffffffff61078d16565b839063ffffffff6107b616565b50600101610640565b5090565b60005433600160a060020a039081169116146106d157600080fd5b600160a060020a03821615156106e657600080fd5b6106ef826105df565b1515610704576106ff82826104f3565b61075e565b600160a060020a038216600081815260046020908152604091829020849055815192835282018390524282820152517f9d45e2aef20053093589f016fb8deae1cd7bb218eefd02eb5f38ccf22512c8dd9181900360600190a15b5050565b600082820283158061077e575082848281151561077b57fe5b04145b151561078657fe5b9392505050565b600080828481151561079b57fe5b04949350505050565b6000828211156107b057fe5b50900390565b60008282018381101561078657fe5b8154818355818111156103195760008381526020902061031991810190830161033d91905b808211156106b257600081556001016107ea5600a165627a7a72305820d4bd5c3a762664c763b917d498445a23174271a4a7febe1dd1b6787bf9c42f0c0029",
  "source": "pragma solidity ^0.4.23;\r\n\r\nimport './libraries/SafeMath.sol';\r\nimport './Ownable.sol';\r\n\r\n/**\r\n* Vault only instantiation, only focuses on eth value\r\n*/\r\ncontract Will is Ownable {\r\n  using SafeMath for uint;\r\n\r\n  uint256 constant decimals = 8; //Allow fractions for disposition\r\n  uint256 waitingTime; //How long to wait before initiating distribution\r\n  uint256 lastInteraction; //Last time contract was interacted with\r\n  address[] beneficiaries; //Address for each beneficiary\r\n  mapping( address => uint256) disposition; //Percentage of total balacne to be sent to each beneficiary\r\n\r\n  event BeneficiaryUpdated( address _beneficiary, uint256 _disposition, uint256 _timestamp); //Notify of update to beneficiaries / disposition\r\n\r\n  constructor (uint256 _waitTime )\r\n    public\r\n  {\r\n    beneficiaries.push(msg.sender);\r\n    waitingTime = _waitTime;\r\n    lastInteraction = now;\r\n  }\r\n\r\n  function unit ()\r\n    public pure\r\n  returns (uint) {\r\n    return 10**decimals;\r\n  }\r\n\r\n  function totalDisposed ()\r\n    public view\r\n  returns (uint256 _total) {//Total amount already disposed\r\n    for (uint256 i=0; i<beneficiaries.length; i++){\r\n      _total.add(disposition[ beneficiaries[i] ].div(unit()));\r\n    }\r\n    return _total;\r\n  }\r\n\r\n  function isDispositionDue ()\r\n    public view\r\n  returns (bool) {\r\n    return now.sub(lastInteraction) >= waitingTime;\r\n  }\r\n\r\n  function getBeneficiaryIndex (address _beneficiary)\r\n    public view\r\n  returns (uint256){\r\n    for (uint256 _b=0; _b<beneficiaries.length; _b++) {\r\n      if (beneficiaries[_b] == _beneficiary) {\r\n        return _b;\r\n      }\r\n    }\r\n    return 0;\r\n  }\r\n\r\n  function addBeneficiary (address _beneficiary, uint256 _disposition)\r\n    public onlyOwner\r\n  {\r\n    require(_beneficiary != 0x0);\r\n    require(getBeneficiaryIndex(_beneficiary) == 0);\r\n    disposition[_beneficiary] = _disposition;\r\n    beneficiaries.push(_beneficiary);\r\n    emit BeneficiaryUpdated(_beneficiary, _disposition, block.timestamp);\r\n  }\r\n\r\n  function updateBeneficiary (address _beneficiary, uint256 _disposition)\r\n    public onlyOwner\r\n  {\r\n    require(_beneficiary != 0x0);\r\n    if (getBeneficiaryIndex(_beneficiary) == 0) {\r\n      return addBeneficiary(_beneficiary,_disposition);\r\n    } else {\r\n      disposition[_beneficiary] = _disposition;\r\n      emit BeneficiaryUpdated(_beneficiary, _disposition, block.timestamp);\r\n    }\r\n  }\r\n\r\n  function removeBeneficiary (address _beneficiary)\r\n    public onlyOwner\r\n  {\r\n    require(_beneficiary != 0x0);\r\n    uint256 idx = getBeneficiaryIndex(_beneficiary);\r\n\r\n    assert(beneficiaries[idx] == _beneficiary);\r\n    require(idx != 0);//Ensure  first beneficiary can never be removed\r\n\r\n    delete(disposition[_beneficiary]);\r\n    beneficiaries[idx] = beneficiaries[ beneficiaries.length-1 ];\r\n    delete(beneficiaries[beneficiaries.length-1]);\r\n    beneficiaries.length--;\r\n    emit BeneficiaryUpdated(_beneficiary, 0, block.timestamp);\r\n  }\r\n\r\n  function triggerDisposition () //Send balances to beneficiaries and send remainder to contract creator\r\n    public\r\n  {\r\n    require(isDispositionDue());\r\n    uint256 _balance = address(this).balance;\r\n    for (uint256 _b=1;_b<beneficiaries.length;_b++) {\r\n      beneficiaries[_b].transfer( _balance.mul(disposition[beneficiaries[_b]]).div(unit()) );\r\n    }\r\n    beneficiaries[0].transfer(address(this).balance);\r\n  }\r\n\r\n  function ()\r\n    public payable\r\n  {\r\n    if (msg.value == 0) {\r\n      triggerDisposition();\r\n    }\r\n  }\r\n}\r\n",
  "sourcePath": "F:\\work-dont touch\\cwl\\contracts\\Will.sol",
  "compiler": {
    "name": "solc",
    "version": "0.4.23+commit.124ca40d.Emscripten.clang"
  },
  "schemaVersion": "2.0.0",
  "updatedAt": "2018-05-13T18:30:34.060Z"
}