{
  "contractName": "Will",
  "abi": [
    {
      "constant": true,
      "inputs": [],
      "name": "disbursed",
      "outputs": [
        {
          "name": "",
          "type": "bool"
        }
      ],
      "payable": false,
      "stateMutability": "view",
      "type": "function"
    },
    {
      "constant": true,
      "inputs": [],
      "name": "maxArrayLength",
      "outputs": [
        {
          "name": "",
          "type": "uint256"
        }
      ],
      "payable": false,
      "stateMutability": "view",
      "type": "function"
    },
    {
      "constant": true,
      "inputs": [],
      "name": "version",
      "outputs": [
        {
          "name": "",
          "type": "uint256"
        }
      ],
      "payable": false,
      "stateMutability": "view",
      "type": "function"
    },
    {
      "constant": false,
      "inputs": [],
      "name": "renounceOwnership",
      "outputs": [],
      "payable": false,
      "stateMutability": "nonpayable",
      "type": "function"
    },
    {
      "constant": true,
      "inputs": [],
      "name": "owner",
      "outputs": [
        {
          "name": "",
          "type": "address"
        }
      ],
      "payable": false,
      "stateMutability": "view",
      "type": "function"
    },
    {
      "constant": true,
      "inputs": [],
      "name": "lastInteraction",
      "outputs": [
        {
          "name": "",
          "type": "uint256"
        }
      ],
      "payable": false,
      "stateMutability": "view",
      "type": "function"
    },
    {
      "constant": true,
      "inputs": [],
      "name": "waitingTime",
      "outputs": [
        {
          "name": "",
          "type": "uint256"
        }
      ],
      "payable": false,
      "stateMutability": "view",
      "type": "function"
    },
    {
      "constant": true,
      "inputs": [],
      "name": "disbursing",
      "outputs": [
        {
          "name": "",
          "type": "bool"
        }
      ],
      "payable": false,
      "stateMutability": "view",
      "type": "function"
    },
    {
      "constant": true,
      "inputs": [
        {
          "name": "",
          "type": "address"
        }
      ],
      "name": "disposition",
      "outputs": [
        {
          "name": "",
          "type": "uint256"
        }
      ],
      "payable": false,
      "stateMutability": "view",
      "type": "function"
    },
    {
      "constant": false,
      "inputs": [
        {
          "name": "_newOwner",
          "type": "address"
        }
      ],
      "name": "transferOwnership",
      "outputs": [],
      "payable": false,
      "stateMutability": "nonpayable",
      "type": "function"
    },
    {
      "inputs": [
        {
          "name": "_waitTime",
          "type": "uint256"
        }
      ],
      "payable": false,
      "stateMutability": "nonpayable",
      "type": "constructor"
    },
    {
      "payable": true,
      "stateMutability": "payable",
      "type": "fallback"
    },
    {
      "anonymous": false,
      "inputs": [
        {
          "indexed": true,
          "name": "beneficiary",
          "type": "address"
        },
        {
          "indexed": false,
          "name": "disposition",
          "type": "uint256"
        }
      ],
      "name": "BeneficiaryUpdated",
      "type": "event"
    },
    {
      "anonymous": false,
      "inputs": [
        {
          "indexed": true,
          "name": "beneficiary",
          "type": "address"
        },
        {
          "indexed": false,
          "name": "total",
          "type": "uint256"
        }
      ],
      "name": "BeneficiarySettled",
      "type": "event"
    },
    {
      "anonymous": false,
      "inputs": [
        {
          "indexed": true,
          "name": "previousOwner",
          "type": "address"
        }
      ],
      "name": "OwnershipRenounced",
      "type": "event"
    },
    {
      "anonymous": false,
      "inputs": [
        {
          "indexed": true,
          "name": "previousOwner",
          "type": "address"
        },
        {
          "indexed": true,
          "name": "newOwner",
          "type": "address"
        }
      ],
      "name": "OwnershipTransferred",
      "type": "event"
    },
    {
      "constant": true,
      "inputs": [
        {
          "name": "_addr",
          "type": "address"
        }
      ],
      "name": "isBeneficiary",
      "outputs": [
        {
          "name": "",
          "type": "bool"
        }
      ],
      "payable": false,
      "stateMutability": "view",
      "type": "function"
    },
    {
      "constant": true,
      "inputs": [],
      "name": "totalBeneficiaries",
      "outputs": [
        {
          "name": "",
          "type": "uint256"
        }
      ],
      "payable": false,
      "stateMutability": "view",
      "type": "function"
    },
    {
      "constant": true,
      "inputs": [],
      "name": "dispositionSum",
      "outputs": [
        {
          "name": "_sum",
          "type": "uint256"
        }
      ],
      "payable": false,
      "stateMutability": "view",
      "type": "function"
    },
    {
      "constant": true,
      "inputs": [],
      "name": "isDispositionDue",
      "outputs": [
        {
          "name": "",
          "type": "bool"
        }
      ],
      "payable": false,
      "stateMutability": "view",
      "type": "function"
    },
    {
      "constant": true,
      "inputs": [
        {
          "name": "_beneficiary",
          "type": "address"
        }
      ],
      "name": "getBeneficiaryIndex",
      "outputs": [
        {
          "name": "",
          "type": "uint256"
        }
      ],
      "payable": false,
      "stateMutability": "view",
      "type": "function"
    },
    {
      "constant": false,
      "inputs": [
        {
          "name": "_beneficiary",
          "type": "address"
        },
        {
          "name": "_disposition",
          "type": "uint256"
        }
      ],
      "name": "updateBeneficiary",
      "outputs": [
        {
          "name": "",
          "type": "bool"
        }
      ],
      "payable": false,
      "stateMutability": "nonpayable",
      "type": "function"
    },
    {
      "constant": false,
      "inputs": [
        {
          "name": "_beneficiaries",
          "type": "address[10]"
        },
        {
          "name": "_dispositions",
          "type": "uint256[10]"
        }
      ],
      "name": "updateBeneficiaries",
      "outputs": [
        {
          "name": "",
          "type": "bool"
        }
      ],
      "payable": false,
      "stateMutability": "nonpayable",
      "type": "function"
    },
    {
      "constant": false,
      "inputs": [
        {
          "name": "_beneficiary",
          "type": "address"
        }
      ],
      "name": "removeBeneficiary",
      "outputs": [
        {
          "name": "",
          "type": "bool"
        }
      ],
      "payable": false,
      "stateMutability": "nonpayable",
      "type": "function"
    },
    {
      "constant": false,
      "inputs": [
        {
          "name": "_beneficiaries",
          "type": "address[10]"
        }
      ],
      "name": "removeBeneficiaries",
      "outputs": [
        {
          "name": "",
          "type": "bool"
        }
      ],
      "payable": false,
      "stateMutability": "nonpayable",
      "type": "function"
    },
    {
      "constant": false,
      "inputs": [],
      "name": "postpone",
      "outputs": [
        {
          "name": "",
          "type": "bool"
        }
      ],
      "payable": true,
      "stateMutability": "payable",
      "type": "function"
    },
    {
      "constant": false,
      "inputs": [],
      "name": "triggerDisposition",
      "outputs": [],
      "payable": false,
      "stateMutability": "nonpayable",
      "type": "function"
    }
  ],
  "bytecode": "0x608060405234801561001057600080fd5b5060405160208061202783398101806040528101908080519060200190929190505050336000806101000a81548173ffffffffffffffffffffffffffffffffffffffff021916908373ffffffffffffffffffffffffffffffffffffffff16021790555060033390806001815401808255809150509060018203906000526020600020016000909192909190916101000a81548173ffffffffffffffffffffffffffffffffffffffff021916908373ffffffffffffffffffffffffffffffffffffffff16021790555050806001819055504260028190555050611f30806100f76000396000f30060806040526004361061011d576000357c0100000000000000000000000000000000000000000000000000000000900463ffffffff16806310812a7d146101c4578063282f7cdd146101f357806353bda15b1461022257806354fd4d501461024d57806359633a1c1461027857806367e74005146102d3578063715018a61461036e5780638da5cb5b146103855780638f71a265146103dc5780639d19b22614610407578063aa13e8c214610462578063b756feff1461048d578063b815b300146104a4578063b914d908146104d3578063c2ff50121461052a578063d01a69c914610555578063d39e6bb114610580578063dabc57d9146105eb578063e7caed9114610642578063f2fde38b14610664578063fcb9b505146106a7575b6000809054906101000a900473ffffffffffffffffffffffffffffffffffffffff1673ffffffffffffffffffffffffffffffffffffffff163373ffffffffffffffffffffffffffffffffffffffff1614801561018c575060001515600060149054906101000a900460ff161515145b1561019f5761019961070c565b506101c2565b6000341480156101b357506101b2610828565b5b156101c1576101c0610849565b5b5b005b3480156101d057600080fd5b506101d9610c33565b604051808215151515815260200191505060405180910390f35b3480156101ff57600080fd5b50610208610828565b604051808215151515815260200191505060405180910390f35b34801561022e57600080fd5b50610237610c46565b6040518082815260200191505060405180910390f35b34801561025957600080fd5b50610262610c4b565b6040518082815260200191505060405180910390f35b34801561028457600080fd5b506102b9600480360381019080803573ffffffffffffffffffffffffffffffffffffffff169060200190929190505050610c50565b604051808215151515815260200191505060405180910390f35b3480156102df57600080fd5b50610354600480360381019080806101400190600a806020026040519081016040528092919082600a6020028082843782019150505050509192919290806101400190600a806020026040519081016040528092919082600a602002808284378201915050505050919291929050505061118f565b604051808215151515815260200191505060405180910390f35b34801561037a57600080fd5b50610383611275565b005b34801561039157600080fd5b5061039a611377565b604051808273ffffffffffffffffffffffffffffffffffffffff1673ffffffffffffffffffffffffffffffffffffffff16815260200191505060405180910390f35b3480156103e857600080fd5b506103f161139c565b6040518082815260200191505060405180910390f35b34801561041357600080fd5b50610448600480360381019080803573ffffffffffffffffffffffffffffffffffffffff1690602001909291905050506113a2565b604051808215151515815260200191505060405180910390f35b34801561046e57600080fd5b506104776113ed565b6040518082815260200191505060405180910390f35b34801561049957600080fd5b506104a2610849565b005b3480156104b057600080fd5b506104b96113f3565b604051808215151515815260200191505060405180910390f35b3480156104df57600080fd5b50610514600480360381019080803573ffffffffffffffffffffffffffffffffffffffff169060200190929190505050611406565b6040518082815260200191505060405180910390f35b34801561053657600080fd5b5061053f61144f565b6040518082815260200191505060405180910390f35b34801561056157600080fd5b5061056a611502565b6040518082815260200191505060405180910390f35b34801561058c57600080fd5b506105d1600480360381019080806101400190600a806020026040519081016040528092919082600a602002808284378201915050505050919291929050505061150f565b604051808215151515815260200191505060405180910390f35b3480156105f757600080fd5b5061062c600480360381019080803573ffffffffffffffffffffffffffffffffffffffff1690602001909291905050506115e1565b6040518082815260200191505060405180910390f35b61064a61070c565b604051808215151515815260200191505060405180910390f35b34801561067057600080fd5b506106a5600480360381019080803573ffffffffffffffffffffffffffffffffffffffff1690602001909291905050506115f9565b005b3480156106b357600080fd5b506106f2600480360381019080803573ffffffffffffffffffffffffffffffffffffffff16906020019092919080359060200190929190505050611660565b604051808215151515815260200191505060405180910390f35b60008060009054906101000a900473ffffffffffffffffffffffffffffffffffffffff1673ffffffffffffffffffffffffffffffffffffffff163373ffffffffffffffffffffffffffffffffffffffff1614151561076957600080fd5b60001515600060149054906101000a900460ff16151514151561081a576040517f08c379a00000000000000000000000000000000000000000000000000000000081526004018080602001828103825260308152602001807f54696d65722063616e206e6f7420626520726573657420616674657220696e6981526020017f7469616c20646973706f736974696f6e0000000000000000000000000000000081525060400191505060405180910390fd5b426002819055506001905090565b60006001546108426002544261194c90919063ffffffff16565b1015905090565b600080600080610857610828565b15156108f1576040517f08c379a00000000000000000000000000000000000000000000000000000000081526004018080602001828103825260238152602001807f57696c6c206973206e6f74207965742064756520666f7220646973706f73697481526020017f696f6e000000000000000000000000000000000000000000000000000000000081525060400191505060405180910390fd5b60001515600060159054906101000a900460ff1615151415156109a2576040517f08c379a000000000000000000000000000000000000000000000000000000000815260040180806020018281038252602e8152602001807f416e20696e7374616e6365206f662064697362757273656d656e74206973206181526020017f6c72656164792072756e6e696e6700000000000000000000000000000000000081525060400191505060405180910390fd5b6001600060156101000a81548160ff021916908315150217905550600093503073ffffffffffffffffffffffffffffffffffffffff163192506109e361144f565b91506001600060146101000a81548160ff02191690831515021790555060016003805490501115610b7b57600190505b600380549050811015610b7a57610a64600382815481101515610a3257fe5b9060005260206000200160009054906101000a900473ffffffffffffffffffffffffffffffffffffffff168484611965565b9350600381815481101515610a7557fe5b9060005260206000200160009054906101000a900473ffffffffffffffffffffffffffffffffffffffff1673ffffffffffffffffffffffffffffffffffffffff166108fc859081150290604051600060405180830381858888f19350505050158015610ae5573d6000803e3d6000fd5b50600381815481101515610af557fe5b9060005260206000200160009054906101000a900473ffffffffffffffffffffffffffffffffffffffff1673ffffffffffffffffffffffffffffffffffffffff167f3b523f60e6edf0c2a9c8f03655abbd5e5ea4a5164318e6dd820b253d44b01ac8856040518082815260200191505060405180910390a28080600101915050610a13565b5b60036000815481101515610b8b57fe5b9060005260206000200160009054906101000a900473ffffffffffffffffffffffffffffffffffffffff1673ffffffffffffffffffffffffffffffffffffffff166108fc3073ffffffffffffffffffffffffffffffffffffffff16319081150290604051600060405180830381858888f19350505050158015610c12573d6000803e3d6000fd5b5060008060156101000a81548160ff02191690831515021790555050505050565b600060149054906101000a900460ff1681565b600a81565b600081565b6000806000809054906101000a900473ffffffffffffffffffffffffffffffffffffffff1673ffffffffffffffffffffffffffffffffffffffff163373ffffffffffffffffffffffffffffffffffffffff16141515610cae57600080fd5b60008373ffffffffffffffffffffffffffffffffffffffff1614151515610d63576040517f08c379a00000000000000000000000000000000000000000000000000000000081526004018080602001828103825260278152602001807f50726f7669646520612062656e6566696369617279206164647265737320746f81526020017f2072656d6f76650000000000000000000000000000000000000000000000000081525060400191505060405180910390fd5b610d6b610828565b151515610e06576040517f08c379a00000000000000000000000000000000000000000000000000000000081526004018080602001828103825260338152602001807f43616e206e6f742075706461746520646973706f736974696f6e73207768656e81526020017f20646973706f736974696f6e206973204475650000000000000000000000000081525060400191505060405180910390fd5b610e0f83611406565b90508273ffffffffffffffffffffffffffffffffffffffff16600382815481101515610e3757fe5b9060005260206000200160009054906101000a900473ffffffffffffffffffffffffffffffffffffffff1673ffffffffffffffffffffffffffffffffffffffff16141515610e8157fe5b60008114151515610f20576040517f08c379a000000000000000000000000000000000000000000000000000000000815260040180806020018281038252602f8152602001807f596f752063616e206e6f742072656d6f7665207468652063726561746f72206181526020017f7320612062656e6566696369617279000000000000000000000000000000000081525060400191505060405180910390fd5b600460008473ffffffffffffffffffffffffffffffffffffffff1673ffffffffffffffffffffffffffffffffffffffff16815260200190815260200160002060009055600560008473ffffffffffffffffffffffffffffffffffffffff1673ffffffffffffffffffffffffffffffffffffffff168152602001908152602001600020600090556003610fc1600160038054905061194c90919063ffffffff16565b815481101515610fcd57fe5b9060005260206000200160009054906101000a900473ffffffffffffffffffffffffffffffffffffffff1660038281548110151561100757fe5b9060005260206000200160006101000a81548173ffffffffffffffffffffffffffffffffffffffff021916908373ffffffffffffffffffffffffffffffffffffffff160217905550806005600060038481548110151561106357fe5b9060005260206000200160009054906101000a900473ffffffffffffffffffffffffffffffffffffffff1673ffffffffffffffffffffffffffffffffffffffff1673ffffffffffffffffffffffffffffffffffffffff1681526020019081526020016000208190555060036110e7600160038054905061194c90919063ffffffff16565b8154811015156110f357fe5b9060005260206000200160006101000a81549073ffffffffffffffffffffffffffffffffffffffff021916905560038054809190600190036111359190611eb3565b508273ffffffffffffffffffffffffffffffffffffffff167f73d60fa978f046c1ccf0f85c6247b34d322ad63d5184881ef2f10bf3c70dde2160006040518082815260200191505060405180910390a26001915050919050565b6000806000809054906101000a900473ffffffffffffffffffffffffffffffffffffffff1673ffffffffffffffffffffffffffffffffffffffff163373ffffffffffffffffffffffffffffffffffffffff161415156111ed57600080fd5b600090505b600a81101561126a5760008482600a8110151561120b57fe5b602002015173ffffffffffffffffffffffffffffffffffffffff1614151561125d5761125b8482600a8110151561123e57fe5b60200201518483600a8110151561125157fe5b6020020151611660565b505b80806001019150506111f2565b600191505092915050565b6000809054906101000a900473ffffffffffffffffffffffffffffffffffffffff1673ffffffffffffffffffffffffffffffffffffffff163373ffffffffffffffffffffffffffffffffffffffff161415156112d057600080fd5b6000809054906101000a900473ffffffffffffffffffffffffffffffffffffffff1673ffffffffffffffffffffffffffffffffffffffff167ff8df31144d9c2f0f6b59d69b8b98abd5459d07f2742c4df920b25aae33c6482060405160405180910390a260008060006101000a81548173ffffffffffffffffffffffffffffffffffffffff021916908373ffffffffffffffffffffffffffffffffffffffff160217905550565b6000809054906101000a900473ffffffffffffffffffffffffffffffffffffffff1681565b60025481565b600080600460008473ffffffffffffffffffffffffffffffffffffffff1673ffffffffffffffffffffffffffffffffffffffff16815260200190815260200160002054119050919050565b60015481565b600060159054906101000a900460ff1681565b6000600560008373ffffffffffffffffffffffffffffffffffffffff1673ffffffffffffffffffffffffffffffffffffffff168152602001908152602001600020549050919050565b600080600190505b6003805490508110156114fe576114ef6004600060038481548110151561147a57fe5b9060005260206000200160009054906101000a900473ffffffffffffffffffffffffffffffffffffffff1673ffffffffffffffffffffffffffffffffffffffff1673ffffffffffffffffffffffffffffffffffffffff16815260200190815260200160002054836119d490919063ffffffff16565b91508080600101915050611457565b5090565b6000600380549050905090565b6000806000809054906101000a900473ffffffffffffffffffffffffffffffffffffffff1673ffffffffffffffffffffffffffffffffffffffff163373ffffffffffffffffffffffffffffffffffffffff1614151561156d57600080fd5b600090505b600a8110156115d75760008382600a8110151561158b57fe5b602002015173ffffffffffffffffffffffffffffffffffffffff161415156115ca576115c88382600a811015156115be57fe5b6020020151610c50565b505b8080600101915050611572565b6001915050919050565b60046020528060005260406000206000915090505481565b6000809054906101000a900473ffffffffffffffffffffffffffffffffffffffff1673ffffffffffffffffffffffffffffffffffffffff163373ffffffffffffffffffffffffffffffffffffffff1614151561165457600080fd5b61165d816119f0565b50565b60008060009054906101000a900473ffffffffffffffffffffffffffffffffffffffff1673ffffffffffffffffffffffffffffffffffffffff163373ffffffffffffffffffffffffffffffffffffffff161415156116bd57600080fd5b60008373ffffffffffffffffffffffffffffffffffffffff161415151561174c576040517f08c379a000000000000000000000000000000000000000000000000000000000815260040180806020018281038252601b8152602001807f5f62656e65666963696172792063616e6e6f74206265205a65726f000000000081525060200191505060405180910390fd5b6000821115156117ea576040517f08c379a00000000000000000000000000000000000000000000000000000000081526004018080602001828103825260218152602001807f446973706f736974696f6e206d75737420626520677265746572207468616e2081526020017f300000000000000000000000000000000000000000000000000000000000000081525060400191505060405180910390fd5b6117f2610828565b15151561188d576040517f08c379a00000000000000000000000000000000000000000000000000000000081526004018080602001828103825260338152602001807f43616e206e6f742075706461746520646973706f736974696f6e73207768656e81526020017f20646973706f736974696f6e206973204475650000000000000000000000000081525060400191505060405180910390fd5b600061189884611406565b14156118af576118a88383611aea565b9050611946565b81600460008573ffffffffffffffffffffffffffffffffffffffff1673ffffffffffffffffffffffffffffffffffffffff168152602001908152602001600020819055508273ffffffffffffffffffffffffffffffffffffffff167f73d60fa978f046c1ccf0f85c6247b34d322ad63d5184881ef2f10bf3c70dde21836040518082815260200191505060405180910390a2600190505b92915050565b600082821115151561195a57fe5b818303905092915050565b60006119cb826119bd600460008873ffffffffffffffffffffffffffffffffffffffff1673ffffffffffffffffffffffffffffffffffffffff1681526020019081526020016000205486611e6590919063ffffffff16565b611e9d90919063ffffffff16565b90509392505050565b600081830190508281101515156119e757fe5b80905092915050565b600073ffffffffffffffffffffffffffffffffffffffff168173ffffffffffffffffffffffffffffffffffffffff1614151515611a2c57600080fd5b8073ffffffffffffffffffffffffffffffffffffffff166000809054906101000a900473ffffffffffffffffffffffffffffffffffffffff1673ffffffffffffffffffffffffffffffffffffffff167f8be0079c531659141344cd1fd0a4f28419497f9722a3daafe3b4186f6b6457e060405160405180910390a3806000806101000a81548173ffffffffffffffffffffffffffffffffffffffff021916908373ffffffffffffffffffffffffffffffffffffffff16021790555050565b60008060009054906101000a900473ffffffffffffffffffffffffffffffffffffffff1673ffffffffffffffffffffffffffffffffffffffff163373ffffffffffffffffffffffffffffffffffffffff16141515611b4757600080fd5b60008373ffffffffffffffffffffffffffffffffffffffff1614151515611bd6576040517f08c379a000000000000000000000000000000000000000000000000000000000815260040180806020018281038252601b8152602001807f5f62656e65666963696172792063616e6e6f74206265205a65726f000000000081525060200191505060405180910390fd5b600082111515611c74576040517f08c379a00000000000000000000000000000000000000000000000000000000081526004018080602001828103825260218152602001807f446973706f736974696f6e206d75737420626520677265746572207468616e2081526020017f300000000000000000000000000000000000000000000000000000000000000081525060400191505060405180910390fd5b60001515611c81846113a2565b1515141515611d1e576040517f08c379a00000000000000000000000000000000000000000000000000000000081526004018080602001828103825260308152602001807f43616e6e6f7420616464206578697374696e672062656e65666963696172792081526020017f416e65772c20757365207570646174650000000000000000000000000000000081525060400191505060405180910390fd5b600380549050600560008573ffffffffffffffffffffffffffffffffffffffff1673ffffffffffffffffffffffffffffffffffffffff1681526020019081526020016000208190555081600460008573ffffffffffffffffffffffffffffffffffffffff1673ffffffffffffffffffffffffffffffffffffffff1681526020019081526020016000208190555060038390806001815401808255809150509060018203906000526020600020016000909192909190916101000a81548173ffffffffffffffffffffffffffffffffffffffff021916908373ffffffffffffffffffffffffffffffffffffffff160217905550508273ffffffffffffffffffffffffffffffffffffffff167f73d60fa978f046c1ccf0f85c6247b34d322ad63d5184881ef2f10bf3c70dde21836040518082815260200191505060405180910390a292915050565b600080831415611e785760009050611e97565b8183029050818382811515611e8957fe5b04141515611e9357fe5b8090505b92915050565b60008183811515611eaa57fe5b04905092915050565b815481835581811115611eda57818360005260206000209182019101611ed99190611edf565b5b505050565b611f0191905b80821115611efd576000816000905550600101611ee5565b5090565b905600a165627a7a72305820925c1bd6fccd2843f089f87f404231c08ba4b7355d3b2a5f21ee4ccbfe3c67330029",
  "source": "pragma solidity ^0.4.24;\r\n\r\nimport \"../installed_contracts/zeppelin-solidity/contracts/math/SafeMath.sol\";\r\nimport \"../installed_contracts/zeppelin-solidity/contracts/ownership/Ownable.sol\";\r\n\r\n/**\r\n* Vault only instantiation, only focuses on eth value\r\n*/\r\ncontract Will is Ownable {\r\n  using SafeMath for uint;\r\n  uint256 constant public version = 0;\r\n\r\n  uint256 constant ONE = 1; //Constant representation of 1\r\n  uint256 constant public maxArrayLength = 10; //Maximum length of array for functions that accept arrays\r\n\r\n  bool public disbursed; //Whether the contract has Disposed at least once\r\n  bool public disbursing; //Whether the contract is pressently running a disbursement\r\n  uint256 public waitingTime; //How long to wait before initiating distribution\r\n  uint256 public lastInteraction; //Last time contract was interacted with\r\n  address[] beneficiaries; //Address for each beneficiary\r\n  mapping( address => uint256) public disposition; //List of ratio of contract balance to sent to each beneficiary\r\n  mapping(address => uint256) beneficiaryIndex; //Mapping of beneficiary to index in beneficiaries list\r\n\r\n  event BeneficiaryUpdated( address indexed beneficiary, uint256 disposition); //Notify of update to beneficiaries / disposition\r\n  event BeneficiarySettled( address indexed beneficiary, uint256 total); //Notify of update to beneficiaries / disposition\r\n\r\n  constructor (uint256 _waitTime )\r\n    public\r\n  {\r\n    beneficiaries.push(msg.sender);\r\n    waitingTime = _waitTime;\r\n    lastInteraction = now;\r\n  }\r\n\r\n  function isBeneficiary (address _addr)\r\n    public view\r\n  returns (bool) {\r\n    return disposition[_addr] > 0;\r\n  }\r\n\r\n  function totalBeneficiaries ()\r\n    public view\r\n  returns (uint) {\r\n    return beneficiaries.length;\r\n  }\r\n\r\n  function dispositionSum ()\r\n    public view\r\n  returns (uint256 _sum) {\r\n    for (uint256 i=1; i<beneficiaries.length; i++) {\r\n      _sum = _sum.add(disposition[ beneficiaries[i] ]);\r\n    }\r\n  }\r\n\r\n  function isDispositionDue ()\r\n    public view\r\n  returns (bool) {\r\n    return now.sub(lastInteraction) >= waitingTime;\r\n  }\r\n\r\n  function getBeneficiaryIndex (address _beneficiary)\r\n    public view\r\n  returns (uint256){\r\n    return beneficiaryIndex[_beneficiary];\r\n  }\r\n\r\n  function _calcDispositionDue (address _beneficiary, uint256 _totalBalance, uint256 _dispositionSum)\r\n    internal view\r\n  returns (uint256){\r\n    return (_totalBalance.mul(disposition[_beneficiary] )).div(_dispositionSum);\r\n  }\r\n\r\n  function _addBeneficiary (address _beneficiary, uint256 _disposition)\r\n    internal onlyOwner\r\n  returns (bool)\r\n  {\r\n    require(_beneficiary != 0x0, '_beneficiary cannot be Zero');\r\n    require(_disposition > 0, 'Disposition must be greter than 0');\r\n    require(isBeneficiary(_beneficiary) == false, 'Cannot add existing beneficiary Anew, use update');\r\n    beneficiaryIndex[_beneficiary] = beneficiaries.length;\r\n    disposition[_beneficiary] = _disposition;\r\n    beneficiaries.push(_beneficiary);\r\n    emit BeneficiaryUpdated(_beneficiary, _disposition);\r\n  }\r\n\r\n  function updateBeneficiary (address _beneficiary, uint256 _disposition)\r\n    public onlyOwner\r\n  returns (bool)\r\n  {\r\n    require(_beneficiary != 0x0, '_beneficiary cannot be Zero');\r\n    require(_disposition > 0, 'Disposition must be greter than 0');\r\n    require(!isDispositionDue(), 'Can not update dispositions when disposition is Due');\r\n    if (getBeneficiaryIndex(_beneficiary) == 0) {\r\n      return _addBeneficiary(_beneficiary,_disposition);\r\n    } else {\r\n      disposition[_beneficiary] = _disposition;\r\n      emit BeneficiaryUpdated(_beneficiary, _disposition);\r\n      return true;\r\n    }\r\n  }\r\n\r\n  // Update batch of up to Ten (10) beneficiaries, beneficiary must have corresponding index for disposition in _dispositions\r\n  function updateBeneficiaries (address[10] _beneficiaries, uint256[10] _dispositions)\r\n    public onlyOwner\r\n  returns (bool)\r\n  {\r\n\r\n    for (uint256 i=0; i<maxArrayLength; i++) {\r\n      if (_beneficiaries[i] != 0x0) {\r\n        updateBeneficiary(_beneficiaries[i], _dispositions[i]);\r\n      }\r\n    }\r\n    return true;\r\n  }\r\n\r\n  function removeBeneficiary (address _beneficiary)\r\n    public onlyOwner\r\n  returns (bool)\r\n  {\r\n    require(_beneficiary != 0x0, 'Provide a beneficiary address to remove');\r\n    require(!isDispositionDue(), 'Can not update dispositions when disposition is Due');\r\n\r\n    uint256 idx = getBeneficiaryIndex(_beneficiary);\r\n\r\n    assert(beneficiaries[idx] == _beneficiary);\r\n    require(idx != 0, 'You can not remove the creator as a beneficiary');//Ensure  first beneficiary can never be removed\r\n\r\n    //Remove beneficiary\r\n    delete(disposition[_beneficiary]);\r\n    delete(beneficiaryIndex[_beneficiary]);\r\n\r\n    // Rearrange indexes\r\n    beneficiaries[idx] = beneficiaries[ beneficiaries.length.sub(ONE) ];\r\n    beneficiaryIndex[ beneficiaries[idx] ] = idx;\r\n    delete(beneficiaries[beneficiaries.length.sub(ONE)]);\r\n    beneficiaries.length--;\r\n\r\n    emit BeneficiaryUpdated(_beneficiary, 0);\r\n    return true;\r\n  }\r\n\r\n  //Remove up to Ten(10) beneficiaries\r\n  function removeBeneficiaries (address[10] _beneficiaries)\r\n      public onlyOwner\r\n  returns (bool) {\r\n\r\n    for (uint256 i=0; i<maxArrayLength; i++) {\r\n      if (_beneficiaries[i] != 0x0) {\r\n        removeBeneficiary(_beneficiaries[i]);\r\n      }\r\n    }\r\n    return true;\r\n  }\r\n\r\n  //Reset the Wait Time, by pushing Disposition forward by another waitTime cycle\r\n  function postpone ()\r\n    public payable onlyOwner\r\n  returns (bool) {\r\n    require(disbursed == false, 'Timer can not be reset after initial disposition');\r\n    lastInteraction = now;\r\n    return true;\r\n  }\r\n\r\n  //Send balances to beneficiaries and send remainder to contract creator\r\n  function triggerDisposition ()\r\n    public\r\n  {\r\n    require(isDispositionDue(), 'Will is not yet due for disposition');\r\n    require(disbursing == false, 'An instance of disbursement is already running');\r\n    disbursing = true;\r\n\r\n    uint256 amountDue = 0;\r\n    uint256 _balance = address(this).balance;\r\n    uint256 _dispositionSum = dispositionSum();\r\n    disbursed = true;\r\n    if (beneficiaries.length > 1) {\r\n      for (uint256 _b=1;_b<beneficiaries.length;_b++) {\r\n        amountDue = _calcDispositionDue(beneficiaries[_b], _balance, _dispositionSum);\r\n        beneficiaries[_b].transfer( amountDue );\r\n        emit BeneficiarySettled(beneficiaries[_b], amountDue);\r\n      }\r\n    }\r\n    beneficiaries[0].transfer(address(this).balance);\r\n    disbursing = false;\r\n  }\r\n\r\n  /**\r\n  * Scenarios:\r\n  * - Non-owner sends funds to contract: funds are received no function is triggerred\r\n  * - Owner sends funds to contract: funds are received and postpone is triggerred if not yet disbursed\r\n  * - Non-owner sends no value to contract: contract triggerDisposition if isDispositionDue\r\n  * - Owner sends no value to contract: postpone is triggerred if not yet disbursed\r\n  */\r\n  function ()\r\n    public payable\r\n  {\r\n    if (msg.sender == owner && disbursed == false) {\r\n      postpone();\r\n    } else if (msg.value == 0 && isDispositionDue()) {\r\n      triggerDisposition();\r\n    }\r\n  }\r\n}\r\n",
  "sourcePath": "/media/brvhrt/EAGET/work-dont touch/cwl/contracts/Will.sol",
  "compiler": {
    "name": "solc",
    "version": "0.4.25+commit.59dbf8f1.Emscripten.clang"
  },
  "schemaVersion": "3.0.1",
  "updatedAt": "2019-02-18T20:53:28.666Z",
  "devdoc": {
    "methods": {
      "renounceOwnership()": {
        "details": "Allows the current owner to relinquish control of the contract."
      },
      "transferOwnership(address)": {
        "details": "Allows the current owner to transfer control of the contract to a newOwner.",
        "params": {
          "_newOwner": "The address to transfer ownership to."
        }
      }
    }
  },
  "userdoc": {
    "methods": {
      "renounceOwnership()": {
        "notice": "Renouncing to ownership will leave the contract without an owner. It will not be possible to call the functions with the `onlyOwner` modifier anymore."
      }
    }
  }
}