{
  "contractName": "Will",
  "abi": [
    {
      "constant": true,
      "inputs": [],
      "name": "disbursed",
      "outputs": [
        {
          "name": "",
          "type": "bool"
        }
      ],
      "payable": false,
      "stateMutability": "view",
      "type": "function"
    },
    {
      "constant": true,
      "inputs": [],
      "name": "decimals",
      "outputs": [
        {
          "name": "",
          "type": "uint256"
        }
      ],
      "payable": false,
      "stateMutability": "view",
      "type": "function"
    },
    {
      "constant": true,
      "inputs": [],
      "name": "maxArrayLength",
      "outputs": [
        {
          "name": "",
          "type": "uint256"
        }
      ],
      "payable": false,
      "stateMutability": "view",
      "type": "function"
    },
    {
      "constant": false,
      "inputs": [],
      "name": "renounceOwnership",
      "outputs": [],
      "payable": false,
      "stateMutability": "nonpayable",
      "type": "function"
    },
    {
      "constant": true,
      "inputs": [
        {
          "name": "",
          "type": "address"
        }
      ],
      "name": "beneficiaryExists",
      "outputs": [
        {
          "name": "",
          "type": "bool"
        }
      ],
      "payable": false,
      "stateMutability": "view",
      "type": "function"
    },
    {
      "constant": true,
      "inputs": [],
      "name": "owner",
      "outputs": [
        {
          "name": "",
          "type": "address"
        }
      ],
      "payable": false,
      "stateMutability": "view",
      "type": "function"
    },
    {
      "constant": true,
      "inputs": [],
      "name": "lastInteraction",
      "outputs": [
        {
          "name": "",
          "type": "uint256"
        }
      ],
      "payable": false,
      "stateMutability": "view",
      "type": "function"
    },
    {
      "constant": true,
      "inputs": [],
      "name": "disbursing",
      "outputs": [
        {
          "name": "",
          "type": "bool"
        }
      ],
      "payable": false,
      "stateMutability": "view",
      "type": "function"
    },
    {
      "constant": true,
      "inputs": [
        {
          "name": "",
          "type": "address"
        }
      ],
      "name": "disposition",
      "outputs": [
        {
          "name": "",
          "type": "uint256"
        }
      ],
      "payable": false,
      "stateMutability": "view",
      "type": "function"
    },
    {
      "constant": true,
      "inputs": [
        {
          "name": "",
          "type": "uint256"
        }
      ],
      "name": "beneficiaries",
      "outputs": [
        {
          "name": "",
          "type": "address"
        }
      ],
      "payable": false,
      "stateMutability": "view",
      "type": "function"
    },
    {
      "constant": false,
      "inputs": [
        {
          "name": "_newOwner",
          "type": "address"
        }
      ],
      "name": "transferOwnership",
      "outputs": [],
      "payable": false,
      "stateMutability": "nonpayable",
      "type": "function"
    },
    {
      "inputs": [
        {
          "name": "_waitTime",
          "type": "uint256"
        }
      ],
      "payable": false,
      "stateMutability": "nonpayable",
      "type": "constructor"
    },
    {
      "payable": true,
      "stateMutability": "payable",
      "type": "fallback"
    },
    {
      "anonymous": false,
      "inputs": [
        {
          "indexed": true,
          "name": "beneficiary",
          "type": "address"
        },
        {
          "indexed": false,
          "name": "disposition",
          "type": "uint256"
        }
      ],
      "name": "BeneficiaryUpdated",
      "type": "event"
    },
    {
      "anonymous": false,
      "inputs": [
        {
          "indexed": true,
          "name": "beneficiary",
          "type": "address"
        },
        {
          "indexed": false,
          "name": "total",
          "type": "uint256"
        }
      ],
      "name": "BeneficiarySettled",
      "type": "event"
    },
    {
      "anonymous": false,
      "inputs": [
        {
          "indexed": true,
          "name": "previousOwner",
          "type": "address"
        }
      ],
      "name": "OwnershipRenounced",
      "type": "event"
    },
    {
      "anonymous": false,
      "inputs": [
        {
          "indexed": true,
          "name": "previousOwner",
          "type": "address"
        },
        {
          "indexed": true,
          "name": "newOwner",
          "type": "address"
        }
      ],
      "name": "OwnershipTransferred",
      "type": "event"
    },
    {
      "constant": true,
      "inputs": [],
      "name": "unit",
      "outputs": [
        {
          "name": "",
          "type": "uint256"
        }
      ],
      "payable": false,
      "stateMutability": "pure",
      "type": "function"
    },
    {
      "constant": true,
      "inputs": [],
      "name": "totalBeneficiaries",
      "outputs": [
        {
          "name": "",
          "type": "uint256"
        }
      ],
      "payable": false,
      "stateMutability": "view",
      "type": "function"
    },
    {
      "constant": true,
      "inputs": [],
      "name": "dispositionSum",
      "outputs": [
        {
          "name": "_sum",
          "type": "uint256"
        }
      ],
      "payable": false,
      "stateMutability": "view",
      "type": "function"
    },
    {
      "constant": true,
      "inputs": [],
      "name": "isDispositionDue",
      "outputs": [
        {
          "name": "",
          "type": "bool"
        }
      ],
      "payable": false,
      "stateMutability": "view",
      "type": "function"
    },
    {
      "constant": true,
      "inputs": [
        {
          "name": "_beneficiary",
          "type": "address"
        }
      ],
      "name": "getBeneficiaryIndex",
      "outputs": [
        {
          "name": "",
          "type": "uint256"
        }
      ],
      "payable": false,
      "stateMutability": "view",
      "type": "function"
    },
    {
      "constant": false,
      "inputs": [
        {
          "name": "_beneficiary",
          "type": "address"
        },
        {
          "name": "_disposition",
          "type": "uint256"
        }
      ],
      "name": "updateBeneficiary",
      "outputs": [
        {
          "name": "",
          "type": "bool"
        }
      ],
      "payable": false,
      "stateMutability": "nonpayable",
      "type": "function"
    },
    {
      "constant": false,
      "inputs": [
        {
          "name": "_beneficiaries",
          "type": "address[10]"
        },
        {
          "name": "_dispositions",
          "type": "uint256[10]"
        }
      ],
      "name": "updateBeneficiaries",
      "outputs": [
        {
          "name": "",
          "type": "bool"
        }
      ],
      "payable": false,
      "stateMutability": "nonpayable",
      "type": "function"
    },
    {
      "constant": false,
      "inputs": [
        {
          "name": "_beneficiary",
          "type": "address"
        }
      ],
      "name": "removeBeneficiary",
      "outputs": [
        {
          "name": "",
          "type": "bool"
        }
      ],
      "payable": false,
      "stateMutability": "nonpayable",
      "type": "function"
    },
    {
      "constant": false,
      "inputs": [
        {
          "name": "_beneficiaries",
          "type": "address[10]"
        }
      ],
      "name": "removeBeneficiaries",
      "outputs": [
        {
          "name": "",
          "type": "bool"
        }
      ],
      "payable": false,
      "stateMutability": "nonpayable",
      "type": "function"
    },
    {
      "constant": false,
      "inputs": [],
      "name": "postpone",
      "outputs": [
        {
          "name": "",
          "type": "bool"
        }
      ],
      "payable": true,
      "stateMutability": "payable",
      "type": "function"
    },
    {
      "constant": false,
      "inputs": [],
      "name": "triggerDisposition",
      "outputs": [],
      "payable": false,
      "stateMutability": "nonpayable",
      "type": "function"
    }
  ],
  "bytecode": "0x608060405234801561001057600080fd5b5060405160208061211e83398101806040528101908080519060200190929190505050336000806101000a81548173ffffffffffffffffffffffffffffffffffffffff021916908373ffffffffffffffffffffffffffffffffffffffff16021790555060033390806001815401808255809150509060018203906000526020600020016000909192909190916101000a81548173ffffffffffffffffffffffffffffffffffffffff021916908373ffffffffffffffffffffffffffffffffffffffff16021790555050806001819055504260028190555050612027806100f76000396000f300608060405260043610610128576000357c0100000000000000000000000000000000000000000000000000000000900463ffffffff16806310812a7d146101cf578063282f7cdd146101fe578063313ce5671461022d57806353bda15b1461025857806359633a1c1461028357806367e74005146102de578063715018a61461037957806375e71d6d146103905780638da5cb5b146103eb5780638f71a26514610442578063907af6c01461046d578063b756feff14610498578063b815b300146104af578063b914d908146104de578063c2ff501214610535578063d01a69c914610560578063d39e6bb11461058b578063dabc57d9146105f6578063e7caed911461064d578063efeb5e581461066f578063f2fde38b146106dc578063fcb9b5051461071f575b6000809054906101000a900473ffffffffffffffffffffffffffffffffffffffff1673ffffffffffffffffffffffffffffffffffffffff163373ffffffffffffffffffffffffffffffffffffffff16148015610197575060001515600060149054906101000a900460ff161515145b156101aa576101a4610784565b506101cd565b6000341480156101be57506101bd6108a0565b5b156101cc576101cb6108c1565b5b5b005b3480156101db57600080fd5b506101e4610cab565b604051808215151515815260200191505060405180910390f35b34801561020a57600080fd5b506102136108a0565b604051808215151515815260200191505060405180910390f35b34801561023957600080fd5b50610242610cbe565b6040518082815260200191505060405180910390f35b34801561026457600080fd5b5061026d610cc3565b6040518082815260200191505060405180910390f35b34801561028f57600080fd5b506102c4600480360381019080803573ffffffffffffffffffffffffffffffffffffffff169060200190929190505050610cc8565b604051808215151515815260200191505060405180910390f35b3480156102ea57600080fd5b5061035f600480360381019080806101400190600a806020026040519081016040528092919082600a6020028082843782019150505050509192919290806101400190600a806020026040519081016040528092919082600a6020028082843782019150505050509192919290505050611256565b604051808215151515815260200191505060405180910390f35b34801561038557600080fd5b5061038e61133c565b005b34801561039c57600080fd5b506103d1600480360381019080803573ffffffffffffffffffffffffffffffffffffffff16906020019092919050505061143e565b604051808215151515815260200191505060405180910390f35b3480156103f757600080fd5b5061040061145e565b604051808273ffffffffffffffffffffffffffffffffffffffff1673ffffffffffffffffffffffffffffffffffffffff16815260200191505060405180910390f35b34801561044e57600080fd5b50610457611483565b6040518082815260200191505060405180910390f35b34801561047957600080fd5b50610482611489565b6040518082815260200191505060405180910390f35b3480156104a457600080fd5b506104ad6108c1565b005b3480156104bb57600080fd5b506104c4611495565b604051808215151515815260200191505060405180910390f35b3480156104ea57600080fd5b5061051f600480360381019080803573ffffffffffffffffffffffffffffffffffffffff1690602001909291905050506114a8565b6040518082815260200191505060405180910390f35b34801561054157600080fd5b5061054a6114f1565b6040518082815260200191505060405180910390f35b34801561056c57600080fd5b506105756115a4565b6040518082815260200191505060405180910390f35b34801561059757600080fd5b506105dc600480360381019080806101400190600a806020026040519081016040528092919082600a60200280828437820191505050505091929192905050506115b1565b604051808215151515815260200191505060405180910390f35b34801561060257600080fd5b50610637600480360381019080803573ffffffffffffffffffffffffffffffffffffffff169060200190929190505050611683565b6040518082815260200191505060405180910390f35b610655610784565b604051808215151515815260200191505060405180910390f35b34801561067b57600080fd5b5061069a6004803603810190808035906020019092919050505061169b565b604051808273ffffffffffffffffffffffffffffffffffffffff1673ffffffffffffffffffffffffffffffffffffffff16815260200191505060405180910390f35b3480156106e857600080fd5b5061071d600480360381019080803573ffffffffffffffffffffffffffffffffffffffff1690602001909291905050506116d9565b005b34801561072b57600080fd5b5061076a600480360381019080803573ffffffffffffffffffffffffffffffffffffffff16906020019092919080359060200190929190505050611740565b604051808215151515815260200191505060405180910390f35b60008060009054906101000a900473ffffffffffffffffffffffffffffffffffffffff1673ffffffffffffffffffffffffffffffffffffffff163373ffffffffffffffffffffffffffffffffffffffff161415156107e157600080fd5b60001515600060149054906101000a900460ff161515141515610892576040517f08c379a00000000000000000000000000000000000000000000000000000000081526004018080602001828103825260308152602001807f54696d65722063616e206e6f7420626520726573657420616674657220696e6981526020017f7469616c20646973706f736974696f6e0000000000000000000000000000000081525060400191505060405180910390fd5b426002819055506001905090565b60006001546108ba60025442611a2c90919063ffffffff16565b1015905090565b6000806000806108cf6108a0565b1515610969576040517f08c379a00000000000000000000000000000000000000000000000000000000081526004018080602001828103825260238152602001807f57696c6c206973206e6f74207965742064756520666f7220646973706f73697481526020017f696f6e000000000000000000000000000000000000000000000000000000000081525060400191505060405180910390fd5b60001515600060159054906101000a900460ff161515141515610a1a576040517f08c379a000000000000000000000000000000000000000000000000000000000815260040180806020018281038252602e8152602001807f416e20696e7374616e6365206f662064697362757273656d656e74206973206181526020017f6c72656164792072756e6e696e6700000000000000000000000000000000000081525060400191505060405180910390fd5b6001600060156101000a81548160ff021916908315150217905550600093503073ffffffffffffffffffffffffffffffffffffffff16319250610a5b6114f1565b91506001600060146101000a81548160ff02191690831515021790555060016003805490501115610bf357600190505b600380549050811015610bf257610adc600382815481101515610aaa57fe5b9060005260206000200160009054906101000a900473ffffffffffffffffffffffffffffffffffffffff168484611a45565b9350600381815481101515610aed57fe5b9060005260206000200160009054906101000a900473ffffffffffffffffffffffffffffffffffffffff1673ffffffffffffffffffffffffffffffffffffffff166108fc859081150290604051600060405180830381858888f19350505050158015610b5d573d6000803e3d6000fd5b50600381815481101515610b6d57fe5b9060005260206000200160009054906101000a900473ffffffffffffffffffffffffffffffffffffffff1673ffffffffffffffffffffffffffffffffffffffff167f3b523f60e6edf0c2a9c8f03655abbd5e5ea4a5164318e6dd820b253d44b01ac8856040518082815260200191505060405180910390a28080600101915050610a8b565b5b60036000815481101515610c0357fe5b9060005260206000200160009054906101000a900473ffffffffffffffffffffffffffffffffffffffff1673ffffffffffffffffffffffffffffffffffffffff166108fc3073ffffffffffffffffffffffffffffffffffffffff16319081150290604051600060405180830381858888f19350505050158015610c8a573d6000803e3d6000fd5b5060008060156101000a81548160ff02191690831515021790555050505050565b600060149054906101000a900460ff1681565b600881565b600a81565b6000806000809054906101000a900473ffffffffffffffffffffffffffffffffffffffff1673ffffffffffffffffffffffffffffffffffffffff163373ffffffffffffffffffffffffffffffffffffffff16141515610d2657600080fd5b60008373ffffffffffffffffffffffffffffffffffffffff1614151515610ddb576040517f08c379a00000000000000000000000000000000000000000000000000000000081526004018080602001828103825260278152602001807f50726f7669646520612062656e6566696369617279206164647265737320746f81526020017f2072656d6f76650000000000000000000000000000000000000000000000000081525060400191505060405180910390fd5b610de36108a0565b151515610e7e576040517f08c379a00000000000000000000000000000000000000000000000000000000081526004018080602001828103825260338152602001807f43616e206e6f742075706461746520646973706f736974696f6e73207768656e81526020017f20646973706f736974696f6e206973204475650000000000000000000000000081525060400191505060405180910390fd5b610e87836114a8565b90508273ffffffffffffffffffffffffffffffffffffffff16600382815481101515610eaf57fe5b9060005260206000200160009054906101000a900473ffffffffffffffffffffffffffffffffffffffff1673ffffffffffffffffffffffffffffffffffffffff16141515610ef957fe5b60008114151515610f98576040517f08c379a000000000000000000000000000000000000000000000000000000000815260040180806020018281038252602f8152602001807f596f752063616e206e6f742072656d6f7665207468652063726561746f72206181526020017f7320612062656e6566696369617279000000000000000000000000000000000081525060400191505060405180910390fd5b600460008473ffffffffffffffffffffffffffffffffffffffff1673ffffffffffffffffffffffffffffffffffffffff16815260200190815260200160002060009055600660008473ffffffffffffffffffffffffffffffffffffffff1673ffffffffffffffffffffffffffffffffffffffff16815260200190815260200160002060009055600560008473ffffffffffffffffffffffffffffffffffffffff1673ffffffffffffffffffffffffffffffffffffffff16815260200190815260200160002060006101000a81549060ff021916905560036110886001600380549050611a2c90919063ffffffff16565b81548110151561109457fe5b9060005260206000200160009054906101000a900473ffffffffffffffffffffffffffffffffffffffff166003828154811015156110ce57fe5b9060005260206000200160006101000a81548173ffffffffffffffffffffffffffffffffffffffff021916908373ffffffffffffffffffffffffffffffffffffffff160217905550806006600060038481548110151561112a57fe5b9060005260206000200160009054906101000a900473ffffffffffffffffffffffffffffffffffffffff1673ffffffffffffffffffffffffffffffffffffffff1673ffffffffffffffffffffffffffffffffffffffff1681526020019081526020016000208190555060036111ae6001600380549050611a2c90919063ffffffff16565b8154811015156111ba57fe5b9060005260206000200160006101000a81549073ffffffffffffffffffffffffffffffffffffffff021916905560038054809190600190036111fc9190611faa565b508273ffffffffffffffffffffffffffffffffffffffff167f73d60fa978f046c1ccf0f85c6247b34d322ad63d5184881ef2f10bf3c70dde2160006040518082815260200191505060405180910390a26001915050919050565b6000806000809054906101000a900473ffffffffffffffffffffffffffffffffffffffff1673ffffffffffffffffffffffffffffffffffffffff163373ffffffffffffffffffffffffffffffffffffffff161415156112b457600080fd5b600090505b600a8110156113315760008482600a811015156112d257fe5b602002015173ffffffffffffffffffffffffffffffffffffffff16141515611324576113228482600a8110151561130557fe5b60200201518483600a8110151561131857fe5b6020020151611740565b505b80806001019150506112b9565b600191505092915050565b6000809054906101000a900473ffffffffffffffffffffffffffffffffffffffff1673ffffffffffffffffffffffffffffffffffffffff163373ffffffffffffffffffffffffffffffffffffffff1614151561139757600080fd5b6000809054906101000a900473ffffffffffffffffffffffffffffffffffffffff1673ffffffffffffffffffffffffffffffffffffffff167ff8df31144d9c2f0f6b59d69b8b98abd5459d07f2742c4df920b25aae33c6482060405160405180910390a260008060006101000a81548173ffffffffffffffffffffffffffffffffffffffff021916908373ffffffffffffffffffffffffffffffffffffffff160217905550565b60056020528060005260406000206000915054906101000a900460ff1681565b6000809054906101000a900473ffffffffffffffffffffffffffffffffffffffff1681565b60025481565b60006008600a0a905090565b600060159054906101000a900460ff1681565b6000600660008373ffffffffffffffffffffffffffffffffffffffff1673ffffffffffffffffffffffffffffffffffffffff168152602001908152602001600020549050919050565b600080600190505b6003805490508110156115a0576115916004600060038481548110151561151c57fe5b9060005260206000200160009054906101000a900473ffffffffffffffffffffffffffffffffffffffff1673ffffffffffffffffffffffffffffffffffffffff1673ffffffffffffffffffffffffffffffffffffffff1681526020019081526020016000205483611acd90919063ffffffff16565b915080806001019150506114f9565b5090565b6000600380549050905090565b6000806000809054906101000a900473ffffffffffffffffffffffffffffffffffffffff1673ffffffffffffffffffffffffffffffffffffffff163373ffffffffffffffffffffffffffffffffffffffff1614151561160f57600080fd5b600090505b600a8110156116795760008382600a8110151561162d57fe5b602002015173ffffffffffffffffffffffffffffffffffffffff1614151561166c5761166a8382600a8110151561166057fe5b6020020151610cc8565b505b8080600101915050611614565b6001915050919050565b60046020528060005260406000206000915090505481565b6003818154811015156116aa57fe5b906000526020600020016000915054906101000a900473ffffffffffffffffffffffffffffffffffffffff1681565b6000809054906101000a900473ffffffffffffffffffffffffffffffffffffffff1673ffffffffffffffffffffffffffffffffffffffff163373ffffffffffffffffffffffffffffffffffffffff1614151561173457600080fd5b61173d81611ae9565b50565b60008060009054906101000a900473ffffffffffffffffffffffffffffffffffffffff1673ffffffffffffffffffffffffffffffffffffffff163373ffffffffffffffffffffffffffffffffffffffff1614151561179d57600080fd5b60008373ffffffffffffffffffffffffffffffffffffffff161415151561182c576040517f08c379a000000000000000000000000000000000000000000000000000000000815260040180806020018281038252601b8152602001807f5f62656e65666963696172792063616e6e6f74206265205a65726f000000000081525060200191505060405180910390fd5b6000821115156118ca576040517f08c379a00000000000000000000000000000000000000000000000000000000081526004018080602001828103825260218152602001807f446973706f736974696f6e206d75737420626520677265746572207468616e2081526020017f300000000000000000000000000000000000000000000000000000000000000081525060400191505060405180910390fd5b6118d26108a0565b15151561196d576040517f08c379a00000000000000000000000000000000000000000000000000000000081526004018080602001828103825260338152602001807f43616e206e6f742075706461746520646973706f736974696f6e73207768656e81526020017f20646973706f736974696f6e206973204475650000000000000000000000000081525060400191505060405180910390fd5b6000611978846114a8565b141561198f576119888383611be3565b9050611a26565b81600460008573ffffffffffffffffffffffffffffffffffffffff1673ffffffffffffffffffffffffffffffffffffffff168152602001908152602001600020819055508273ffffffffffffffffffffffffffffffffffffffff167f73d60fa978f046c1ccf0f85c6247b34d322ad63d5184881ef2f10bf3c70dde21836040518082815260200191505060405180910390a2600190505b92915050565b6000828211151515611a3a57fe5b818303905092915050565b6000611ac4611a52611489565b611ab684611aa8600460008a73ffffffffffffffffffffffffffffffffffffffff1673ffffffffffffffffffffffffffffffffffffffff1681526020019081526020016000205488611f5c90919063ffffffff16565b611f9490919063ffffffff16565b611f9490919063ffffffff16565b90509392505050565b60008183019050828110151515611ae057fe5b80905092915050565b600073ffffffffffffffffffffffffffffffffffffffff168173ffffffffffffffffffffffffffffffffffffffff1614151515611b2557600080fd5b8073ffffffffffffffffffffffffffffffffffffffff166000809054906101000a900473ffffffffffffffffffffffffffffffffffffffff1673ffffffffffffffffffffffffffffffffffffffff167f8be0079c531659141344cd1fd0a4f28419497f9722a3daafe3b4186f6b6457e060405160405180910390a3806000806101000a81548173ffffffffffffffffffffffffffffffffffffffff021916908373ffffffffffffffffffffffffffffffffffffffff16021790555050565b60008060009054906101000a900473ffffffffffffffffffffffffffffffffffffffff1673ffffffffffffffffffffffffffffffffffffffff163373ffffffffffffffffffffffffffffffffffffffff16141515611c4057600080fd5b60008373ffffffffffffffffffffffffffffffffffffffff1614151515611ccf576040517f08c379a000000000000000000000000000000000000000000000000000000000815260040180806020018281038252601b8152602001807f5f62656e65666963696172792063616e6e6f74206265205a65726f000000000081525060200191505060405180910390fd5b60001515600560008573ffffffffffffffffffffffffffffffffffffffff1673ffffffffffffffffffffffffffffffffffffffff16815260200190815260200160002060009054906101000a900460ff161515141515611dbd576040517f08c379a00000000000000000000000000000000000000000000000000000000081526004018080602001828103825260308152602001807f43616e6e6f7420616464206578697374696e672062656e65666963696172792081526020017f416e65772c20757365207570646174650000000000000000000000000000000081525060400191505060405180910390fd5b6001600560008573ffffffffffffffffffffffffffffffffffffffff1673ffffffffffffffffffffffffffffffffffffffff16815260200190815260200160002060006101000a81548160ff021916908315150217905550600380549050600660008573ffffffffffffffffffffffffffffffffffffffff1673ffffffffffffffffffffffffffffffffffffffff1681526020019081526020016000208190555081600460008573ffffffffffffffffffffffffffffffffffffffff1673ffffffffffffffffffffffffffffffffffffffff1681526020019081526020016000208190555060038390806001815401808255809150509060018203906000526020600020016000909192909190916101000a81548173ffffffffffffffffffffffffffffffffffffffff021916908373ffffffffffffffffffffffffffffffffffffffff160217905550508273ffffffffffffffffffffffffffffffffffffffff167f73d60fa978f046c1ccf0f85c6247b34d322ad63d5184881ef2f10bf3c70dde21836040518082815260200191505060405180910390a292915050565b600080831415611f6f5760009050611f8e565b8183029050818382811515611f8057fe5b04141515611f8a57fe5b8090505b92915050565b60008183811515611fa157fe5b04905092915050565b815481835581811115611fd157818360005260206000209182019101611fd09190611fd6565b5b505050565b611ff891905b80821115611ff4576000816000905550600101611fdc565b5090565b905600a165627a7a72305820387ad743adce69f53bcbfd659115ac395aa112959484f0a027d9f7c76f9ce75e0029",
  "source": "pragma solidity ^0.4.24;\r\n\r\nimport \"../installed_contracts/zeppelin-solidity/contracts/math/SafeMath.sol\";\r\nimport \"../installed_contracts/zeppelin-solidity/contracts/ownership/Ownable.sol\";\r\n\r\n/**\r\n* Vault only instantiation, only focuses on eth value\r\n*/\r\ncontract Will is Ownable {\r\n  using SafeMath for uint;\r\n\r\n  uint256 constant ONE = 1; //Constant representation of 1\r\n  uint256 constant public decimals = 8; //Allow fractions for disposition\r\n  uint256 constant public maxArrayLength = 10; //Maximum length of array for functions that accept arrays\r\n\r\n  bool public disbursed; //Whether the contract has Disposed at least once\r\n  bool public disbursing; //Whether the contract is pressently running a disbursement\r\n  uint256 waitingTime; //How long to wait before initiating distribution\r\n  uint256 public lastInteraction; //Last time contract was interacted with\r\n  address[] public beneficiaries; //Address for each beneficiary\r\n  mapping( address => uint256) public disposition; //List of ratio of contract balance to sent to each beneficiary\r\n  mapping(address => bool) public beneficiaryExists; //Boolean to indicate that address exists as beneficiary\r\n  mapping(address => uint256) beneficiaryIndex; //Mapping of beneficiary to index in beneficiaries list\r\n\r\n  event BeneficiaryUpdated( address indexed beneficiary, uint256 disposition); //Notify of update to beneficiaries / disposition\r\n  event BeneficiarySettled( address indexed beneficiary, uint256 total); //Notify of update to beneficiaries / disposition\r\n\r\n  constructor (uint256 _waitTime )\r\n    public\r\n  {\r\n    beneficiaries.push(msg.sender);\r\n    waitingTime = _waitTime;\r\n    lastInteraction = now;\r\n  }\r\n\r\n  function unit ()\r\n    public pure\r\n  returns (uint256) {\r\n    return 10**decimals;\r\n  }\r\n\r\n  function totalBeneficiaries ()\r\n    public view\r\n  returns (uint) {\r\n    return beneficiaries.length;\r\n  }\r\n\r\n  function dispositionSum ()\r\n    public view\r\n  returns (uint256 _sum) {\r\n    for (uint256 i=1; i<beneficiaries.length; i++) {\r\n      _sum = _sum.add(disposition[ beneficiaries[i] ]);\r\n    }\r\n  }\r\n\r\n  function isDispositionDue ()\r\n    public view\r\n  returns (bool) {\r\n    return now.sub(lastInteraction) >= waitingTime;\r\n  }\r\n\r\n  function getBeneficiaryIndex (address _beneficiary)\r\n    public view\r\n  returns (uint256){\r\n    return beneficiaryIndex[_beneficiary];\r\n  }\r\n\r\n  function _calcDispositionDue (address _beneficiary, uint256 _totalBalance, uint256 _dispositionSum)\r\n    internal view\r\n  returns (uint256){\r\n    return (_totalBalance.mul(disposition[_beneficiary] )).div(_dispositionSum).div(unit());\r\n  }\r\n\r\n  function _addBeneficiary (address _beneficiary, uint256 _disposition)\r\n    internal onlyOwner\r\n  returns (bool)\r\n  {\r\n    require(_beneficiary != 0x0, '_beneficiary cannot be Zero');\r\n    require(beneficiaryExists[_beneficiary] == false, 'Cannot add existing beneficiary Anew, use update');\r\n    beneficiaryExists[_beneficiary] = true;\r\n    beneficiaryIndex[_beneficiary] = beneficiaries.length;\r\n    disposition[_beneficiary] = _disposition;\r\n    beneficiaries.push(_beneficiary);\r\n    emit BeneficiaryUpdated(_beneficiary, _disposition);\r\n  }\r\n\r\n  function updateBeneficiary (address _beneficiary, uint256 _disposition)\r\n    public onlyOwner\r\n  returns (bool)\r\n  {\r\n    require(_beneficiary != 0x0, '_beneficiary cannot be Zero');\r\n    require(_disposition > 0, 'Disposition must be greter than 0');\r\n    require(!isDispositionDue(), 'Can not update dispositions when disposition is Due');\r\n    if (getBeneficiaryIndex(_beneficiary) == 0) {\r\n      return _addBeneficiary(_beneficiary,_disposition);\r\n    } else {\r\n      disposition[_beneficiary] = _disposition;\r\n      emit BeneficiaryUpdated(_beneficiary, _disposition);\r\n      return true;\r\n    }\r\n  }\r\n\r\n  // Update batch of up to Ten (10) beneficiaries, beneficiary must have corresponding index for disposition in _dispositions\r\n  function updateBeneficiaries (address[10] _beneficiaries, uint256[10] _dispositions)\r\n    public onlyOwner\r\n  returns (bool)\r\n  {\r\n\r\n    for (uint256 i=0; i<maxArrayLength; i++) {\r\n      if (_beneficiaries[i] != 0x0) {\r\n        updateBeneficiary(_beneficiaries[i], _dispositions[i]);\r\n      }\r\n    }\r\n    return true;\r\n  }\r\n\r\n  function removeBeneficiary (address _beneficiary)\r\n    public onlyOwner\r\n  returns (bool)\r\n  {\r\n    require(_beneficiary != 0x0, 'Provide a beneficiary address to remove');\r\n    require(!isDispositionDue(), 'Can not update dispositions when disposition is Due');\r\n\r\n    uint256 idx = getBeneficiaryIndex(_beneficiary);\r\n\r\n    assert(beneficiaries[idx] == _beneficiary);\r\n    require(idx != 0, 'You can not remove the creator as a beneficiary');//Ensure  first beneficiary can never be removed\r\n\r\n    //Remove beneficiary\r\n    delete(disposition[_beneficiary]);\r\n    delete(beneficiaryIndex[_beneficiary]);\r\n    delete(beneficiaryExists[_beneficiary]);\r\n\r\n    // Rearrange indexes\r\n    beneficiaries[idx] = beneficiaries[ beneficiaries.length.sub(ONE) ];\r\n    beneficiaryIndex[ beneficiaries[idx] ] = idx;\r\n    delete(beneficiaries[beneficiaries.length.sub(ONE)]);\r\n    beneficiaries.length--;\r\n\r\n    emit BeneficiaryUpdated(_beneficiary, 0);\r\n    return true;\r\n  }\r\n\r\n  //Remove up to Ten(10) beneficiaries\r\n  function removeBeneficiaries (address[10] _beneficiaries)\r\n      public onlyOwner\r\n  returns (bool) {\r\n\r\n    for (uint256 i=0; i<maxArrayLength; i++) {\r\n      if (_beneficiaries[i] != 0x0) {\r\n        removeBeneficiary(_beneficiaries[i]);\r\n      }\r\n    }\r\n    return true;\r\n  }\r\n\r\n  //Reset the Wait Time, by pushing Disposition forward by another waitTime cycle\r\n  function postpone ()\r\n    public payable onlyOwner\r\n  returns (bool) {\r\n    require(disbursed == false, 'Timer can not be reset after initial disposition');\r\n    lastInteraction = now;\r\n    return true;\r\n  }\r\n\r\n  //Send balances to beneficiaries and send remainder to contract creator\r\n  function triggerDisposition ()\r\n    public\r\n  {\r\n    require(isDispositionDue(), 'Will is not yet due for disposition');\r\n    require(disbursing == false, 'An instance of disbursement is already running');\r\n    disbursing = true;\r\n\r\n    uint256 amountDue = 0;\r\n    uint256 _balance = address(this).balance;\r\n    uint256 _dispositionSum = dispositionSum();\r\n    disbursed = true;\r\n    if (beneficiaries.length > 1) {\r\n      for (uint256 _b=1;_b<beneficiaries.length;_b++) {\r\n        amountDue = _calcDispositionDue(beneficiaries[_b], _balance, _dispositionSum);\r\n        beneficiaries[_b].transfer( amountDue );\r\n        emit BeneficiarySettled(beneficiaries[_b], amountDue);\r\n      }\r\n    }\r\n    beneficiaries[0].transfer(address(this).balance);\r\n    disbursing = false;\r\n  }\r\n\r\n  /**\r\n  * Scenarios:\r\n  * - Non-owner sends funds to contract: funds are received no function is triggerred\r\n  * - Owner sends funds to contract: funds are received and postpone is triggerred if not yet disbursed\r\n  * - Non-owner sends no value to contract: contract triggerDisposition if isDispositionDue\r\n  * - Owner sends no value to contract: postpone is triggerred if not yet disbursed\r\n  */\r\n  function ()\r\n    public payable\r\n  {\r\n    if (msg.sender == owner && disbursed == false) {\r\n      postpone();\r\n    } else if (msg.value == 0 && isDispositionDue()) {\r\n      triggerDisposition();\r\n    }\r\n  }\r\n}\r\n",
  "sourcePath": "/media/brvhrt/EAGET/work-dont touch/cwl/contracts/Will.sol",
  "compiler": {
    "name": "solc",
    "version": "0.4.24+commit.e67f0147.Emscripten.clang"
  },
  "schemaVersion": "2.0.1",
  "updatedAt": "2018-12-30T16:52:53.723Z"
}