{
  "contractName": "WillWallet",
  "abi": [
    {
      "constant": true,
      "inputs": [],
      "name": "disbursed",
      "outputs": [
        {
          "name": "",
          "type": "bool"
        }
      ],
      "payable": false,
      "stateMutability": "view",
      "type": "function"
    },
    {
      "constant": true,
      "inputs": [],
      "name": "isDispositionDue",
      "outputs": [
        {
          "name": "",
          "type": "bool"
        }
      ],
      "payable": false,
      "stateMutability": "view",
      "type": "function"
    },
    {
      "constant": true,
      "inputs": [],
      "name": "maxArrayLength",
      "outputs": [
        {
          "name": "",
          "type": "uint256"
        }
      ],
      "payable": false,
      "stateMutability": "view",
      "type": "function"
    },
    {
      "constant": true,
      "inputs": [],
      "name": "version",
      "outputs": [
        {
          "name": "",
          "type": "uint8"
        }
      ],
      "payable": false,
      "stateMutability": "view",
      "type": "function"
    },
    {
      "constant": false,
      "inputs": [
        {
          "name": "_beneficiary",
          "type": "address"
        }
      ],
      "name": "removeBeneficiary",
      "outputs": [
        {
          "name": "",
          "type": "bool"
        }
      ],
      "payable": false,
      "stateMutability": "nonpayable",
      "type": "function"
    },
    {
      "constant": false,
      "inputs": [
        {
          "name": "_address",
          "type": "address"
        },
        {
          "name": "_value",
          "type": "uint256"
        },
        {
          "name": "_callData",
          "type": "bytes"
        }
      ],
      "name": "callFunction",
      "outputs": [
        {
          "name": "",
          "type": "bool"
        },
        {
          "name": "",
          "type": "bytes"
        }
      ],
      "payable": true,
      "stateMutability": "payable",
      "type": "function"
    },
    {
      "constant": false,
      "inputs": [
        {
          "name": "_beneficiaries",
          "type": "address[10]"
        },
        {
          "name": "_dispositions",
          "type": "uint256[10]"
        }
      ],
      "name": "updateBeneficiaries",
      "outputs": [
        {
          "name": "",
          "type": "bool"
        }
      ],
      "payable": false,
      "stateMutability": "nonpayable",
      "type": "function"
    },
    {
      "constant": false,
      "inputs": [],
      "name": "renounceOwnership",
      "outputs": [],
      "payable": false,
      "stateMutability": "nonpayable",
      "type": "function"
    },
    {
      "constant": true,
      "inputs": [],
      "name": "owner",
      "outputs": [
        {
          "name": "",
          "type": "address"
        }
      ],
      "payable": false,
      "stateMutability": "view",
      "type": "function"
    },
    {
      "constant": true,
      "inputs": [],
      "name": "isOwner",
      "outputs": [
        {
          "name": "",
          "type": "bool"
        }
      ],
      "payable": false,
      "stateMutability": "view",
      "type": "function"
    },
    {
      "constant": true,
      "inputs": [],
      "name": "lastInteraction",
      "outputs": [
        {
          "name": "",
          "type": "uint256"
        }
      ],
      "payable": false,
      "stateMutability": "view",
      "type": "function"
    },
    {
      "constant": true,
      "inputs": [
        {
          "name": "_addr",
          "type": "address"
        }
      ],
      "name": "isBeneficiary",
      "outputs": [
        {
          "name": "",
          "type": "bool"
        }
      ],
      "payable": false,
      "stateMutability": "view",
      "type": "function"
    },
    {
      "constant": true,
      "inputs": [],
      "name": "waitingTime",
      "outputs": [
        {
          "name": "",
          "type": "uint256"
        }
      ],
      "payable": false,
      "stateMutability": "view",
      "type": "function"
    },
    {
      "constant": false,
      "inputs": [],
      "name": "triggerDisposition",
      "outputs": [],
      "payable": false,
      "stateMutability": "nonpayable",
      "type": "function"
    },
    {
      "constant": true,
      "inputs": [],
      "name": "disbursing",
      "outputs": [
        {
          "name": "",
          "type": "bool"
        }
      ],
      "payable": false,
      "stateMutability": "view",
      "type": "function"
    },
    {
      "constant": true,
      "inputs": [
        {
          "name": "_beneficiary",
          "type": "address"
        }
      ],
      "name": "getBeneficiaryIndex",
      "outputs": [
        {
          "name": "",
          "type": "uint256"
        }
      ],
      "payable": false,
      "stateMutability": "view",
      "type": "function"
    },
    {
      "constant": true,
      "inputs": [],
      "name": "dispositionSum",
      "outputs": [
        {
          "name": "_sum",
          "type": "uint256"
        }
      ],
      "payable": false,
      "stateMutability": "view",
      "type": "function"
    },
    {
      "constant": true,
      "inputs": [],
      "name": "totalBeneficiaries",
      "outputs": [
        {
          "name": "",
          "type": "uint256"
        }
      ],
      "payable": false,
      "stateMutability": "view",
      "type": "function"
    },
    {
      "constant": false,
      "inputs": [
        {
          "name": "_beneficiaries",
          "type": "address[10]"
        }
      ],
      "name": "removeBeneficiaries",
      "outputs": [
        {
          "name": "",
          "type": "bool"
        }
      ],
      "payable": false,
      "stateMutability": "nonpayable",
      "type": "function"
    },
    {
      "constant": true,
      "inputs": [
        {
          "name": "",
          "type": "address"
        }
      ],
      "name": "disposition",
      "outputs": [
        {
          "name": "",
          "type": "uint256"
        }
      ],
      "payable": false,
      "stateMutability": "view",
      "type": "function"
    },
    {
      "constant": false,
      "inputs": [],
      "name": "postpone",
      "outputs": [
        {
          "name": "",
          "type": "bool"
        }
      ],
      "payable": true,
      "stateMutability": "payable",
      "type": "function"
    },
    {
      "constant": false,
      "inputs": [
        {
          "name": "_destination",
          "type": "address"
        },
        {
          "name": "_value",
          "type": "uint256"
        }
      ],
      "name": "transferEth",
      "outputs": [
        {
          "name": "",
          "type": "bool"
        }
      ],
      "payable": true,
      "stateMutability": "payable",
      "type": "function"
    },
    {
      "constant": false,
      "inputs": [
        {
          "name": "newOwner",
          "type": "address"
        }
      ],
      "name": "transferOwnership",
      "outputs": [],
      "payable": false,
      "stateMutability": "nonpayable",
      "type": "function"
    },
    {
      "constant": false,
      "inputs": [
        {
          "name": "_beneficiary",
          "type": "address"
        },
        {
          "name": "_disposition",
          "type": "uint256"
        }
      ],
      "name": "updateBeneficiary",
      "outputs": [
        {
          "name": "",
          "type": "bool"
        }
      ],
      "payable": false,
      "stateMutability": "nonpayable",
      "type": "function"
    },
    {
      "inputs": [
        {
          "name": "_waitTime",
          "type": "uint256"
        }
      ],
      "payable": false,
      "stateMutability": "nonpayable",
      "type": "constructor"
    },
    {
      "payable": true,
      "stateMutability": "payable",
      "type": "fallback"
    },
    {
      "anonymous": false,
      "inputs": [
        {
          "indexed": true,
          "name": "beneficiary",
          "type": "address"
        },
        {
          "indexed": false,
          "name": "disposition",
          "type": "uint256"
        }
      ],
      "name": "BeneficiaryUpdated",
      "type": "event"
    },
    {
      "anonymous": false,
      "inputs": [
        {
          "indexed": true,
          "name": "beneficiary",
          "type": "address"
        },
        {
          "indexed": false,
          "name": "total",
          "type": "uint256"
        }
      ],
      "name": "BeneficiarySettled",
      "type": "event"
    },
    {
      "anonymous": false,
      "inputs": [
        {
          "indexed": true,
          "name": "previousOwner",
          "type": "address"
        },
        {
          "indexed": true,
          "name": "newOwner",
          "type": "address"
        }
      ],
      "name": "OwnershipTransferred",
      "type": "event"
    }
  ],
  "bytecode": "0x608060405234801561001057600080fd5b50604051620029c9380380620029c98339818101604052602081101561003557600080fd5b81019080805190602001909291905050508061005561018b60201b60201c565b6000806101000a81548173ffffffffffffffffffffffffffffffffffffffff021916908373ffffffffffffffffffffffffffffffffffffffff1602179055506000809054906101000a900473ffffffffffffffffffffffffffffffffffffffff1673ffffffffffffffffffffffffffffffffffffffff16600073ffffffffffffffffffffffffffffffffffffffff167f8be0079c531659141344cd1fd0a4f28419497f9722a3daafe3b4186f6b6457e060405160405180910390a360033390806001815401808255809150509060018203906000526020600020016000909192909190916101000a81548173ffffffffffffffffffffffffffffffffffffffff021916908373ffffffffffffffffffffffffffffffffffffffff1602179055505080600181905550426002819055505050610193565b600033905090565b61282680620001a36000396000f3fe60806040526004361061014b5760003560e01c8063aa13e8c2116100b6578063d39e6bb11161006f578063d39e6bb114610704578063dabc57d914610790578063e7caed91146107f5578063e9bb84c214610817578063f2fde38b1461087d578063fcb9b505146108ce5761014b565b8063aa13e8c2146105d8578063b756feff14610603578063b815b3001461061a578063b914d90814610649578063c2ff5012146106ae578063d01a69c9146106d95761014b565b806367e740051161010857806367e74005146103d9578063715018a6146104a75780638da5cb5b146104be5780638f32d59b146105155780638f71a265146105445780639d19b2261461056f5761014b565b806310812a7d1461014d578063282f7cdd1461017c57806353bda15b146101ab57806354fd4d50146101d657806359633a1c1461020757806367c4719d14610270575b005b34801561015957600080fd5b50610162610941565b604051808215151515815260200191505060405180910390f35b34801561018857600080fd5b50610191610954565b604051808215151515815260200191505060405180910390f35b3480156101b757600080fd5b506101c0610975565b6040518082815260200191505060405180910390f35b3480156101e257600080fd5b506101eb61097a565b604051808260ff1660ff16815260200191505060405180910390f35b34801561021357600080fd5b506102566004803603602081101561022a57600080fd5b81019080803573ffffffffffffffffffffffffffffffffffffffff16906020019092919050505061097f565b604051808215151515815260200191505060405180910390f35b6103536004803603606081101561028657600080fd5b81019080803573ffffffffffffffffffffffffffffffffffffffff16906020019092919080359060200190929190803590602001906401000000008111156102cd57600080fd5b8201836020820111156102df57600080fd5b8035906020019184600183028401116401000000008311171561030157600080fd5b91908080601f016020809104026020016040519081016040528093929190818152602001838380828437600081840152601f19601f820116905080830192505050505050509192919290505050610e22565b604051808315151515815260200180602001828103825283818151815260200191508051906020019080838360005b8381101561039d578082015181840152602081019050610382565b50505050905090810190601f1680156103ca5780820380516001836020036101000a031916815260200191505b50935050505060405180910390f35b3480156103e557600080fd5b5061048d60048036036102808110156103fd57600080fd5b81019080806101400190600a806020026040519081016040528092919082600a60200280828437600081840152601f19601f8201169050808301925050505050509192919290806101400190600a806020026040519081016040528092919082600a60200280828437600081840152601f19601f8201169050808301925050505050509192919290505050610f60565b604051808215151515815260200191505060405180910390f35b3480156104b357600080fd5b506104bc611073565b005b3480156104ca57600080fd5b506104d36111ac565b604051808273ffffffffffffffffffffffffffffffffffffffff1673ffffffffffffffffffffffffffffffffffffffff16815260200191505060405180910390f35b34801561052157600080fd5b5061052a6111d5565b604051808215151515815260200191505060405180910390f35b34801561055057600080fd5b50610559611233565b6040518082815260200191505060405180910390f35b34801561057b57600080fd5b506105be6004803603602081101561059257600080fd5b81019080803573ffffffffffffffffffffffffffffffffffffffff169060200190929190505050611239565b604051808215151515815260200191505060405180910390f35b3480156105e457600080fd5b506105ed611284565b6040518082815260200191505060405180910390f35b34801561060f57600080fd5b5061061861128a565b005b34801561062657600080fd5b5061062f6115ef565b604051808215151515815260200191505060405180910390f35b34801561065557600080fd5b506106986004803603602081101561066c57600080fd5b81019080803573ffffffffffffffffffffffffffffffffffffffff169060200190929190505050611602565b6040518082815260200191505060405180910390f35b3480156106ba57600080fd5b506106c361164b565b6040518082815260200191505060405180910390f35b3480156106e557600080fd5b506106ee6116fc565b6040518082815260200191505060405180910390f35b34801561071057600080fd5b50610776600480360361014081101561072857600080fd5b81019080806101400190600a806020026040519081016040528092919082600a60200280828437600081840152601f19601f8201169050808301925050505050509192919290505050611709565b604051808215151515815260200191505060405180910390f35b34801561079c57600080fd5b506107df600480360360208110156107b357600080fd5b81019080803573ffffffffffffffffffffffffffffffffffffffff16906020019092919050505061180a565b6040518082815260200191505060405180910390f35b6107fd611822565b604051808215151515815260200191505060405180910390f35b6108636004803603604081101561082d57600080fd5b81019080803573ffffffffffffffffffffffffffffffffffffffff16906020019092919080359060200190929190505050611918565b604051808215151515815260200191505060405180910390f35b34801561088957600080fd5b506108cc600480360360208110156108a057600080fd5b81019080803573ffffffffffffffffffffffffffffffffffffffff1690602001909291905050506119e5565b005b3480156108da57600080fd5b50610927600480360360408110156108f157600080fd5b81019080803573ffffffffffffffffffffffffffffffffffffffff16906020019092919080359060200190929190505050611a6b565b604051808215151515815260200191505060405180910390f35b600060149054906101000a900460ff1681565b600060015461096e60025442611dc690919063ffffffff16565b1015905090565b600a81565b600181565b60006109896111d5565b6109fb576040517f08c379a00000000000000000000000000000000000000000000000000000000081526004018080602001828103825260208152602001807f4f776e61626c653a2063616c6c6572206973206e6f7420746865206f776e657281525060200191505060405180910390fd5b600073ffffffffffffffffffffffffffffffffffffffff168273ffffffffffffffffffffffffffffffffffffffff161415610a81576040517f08c379a00000000000000000000000000000000000000000000000000000000081526004018080602001828103825260278152602001806126926027913960400191505060405180910390fd5b610a89610954565b15610adf576040517f08c379a00000000000000000000000000000000000000000000000000000000081526004018080602001828103825260338152602001806127096033913960400191505060405180910390fd5b6000610aea83611602565b90508273ffffffffffffffffffffffffffffffffffffffff1660038281548110610b1057fe5b9060005260206000200160009054906101000a900473ffffffffffffffffffffffffffffffffffffffff1673ffffffffffffffffffffffffffffffffffffffff1614610b5857fe5b6000811415610bb2576040517f08c379a000000000000000000000000000000000000000000000000000000000815260040180806020018281038252602f8152602001806126b9602f913960400191505060405180910390fd5b610bba611822565b50600460008473ffffffffffffffffffffffffffffffffffffffff1673ffffffffffffffffffffffffffffffffffffffff16815260200190815260200160002060009055600560008473ffffffffffffffffffffffffffffffffffffffff1673ffffffffffffffffffffffffffffffffffffffff168152602001908152602001600020600090556003610c5c6001600380549050611dc690919063ffffffff16565b81548110610c6657fe5b9060005260206000200160009054906101000a900473ffffffffffffffffffffffffffffffffffffffff1660038281548110610c9e57fe5b9060005260206000200160006101000a81548173ffffffffffffffffffffffffffffffffffffffff021916908373ffffffffffffffffffffffffffffffffffffffff160217905550806005600060038481548110610cf857fe5b9060005260206000200160009054906101000a900473ffffffffffffffffffffffffffffffffffffffff1673ffffffffffffffffffffffffffffffffffffffff1673ffffffffffffffffffffffffffffffffffffffff168152602001908152602001600020819055506003610d7c6001600380549050611dc690919063ffffffff16565b81548110610d8657fe5b9060005260206000200160006101000a81549073ffffffffffffffffffffffffffffffffffffffff02191690556003805480919060019003610dc891906125d6565b508273ffffffffffffffffffffffffffffffffffffffff167f73d60fa978f046c1ccf0f85c6247b34d322ad63d5184881ef2f10bf3c70dde2160006040518082815260200191505060405180910390a26001915050919050565b60006060610e2e6111d5565b610ea0576040517f08c379a00000000000000000000000000000000000000000000000000000000081526004018080602001828103825260208152602001807f4f776e61626c653a2063616c6c6572206973206e6f7420746865206f776e657281525060200191505060405180910390fd5b8473ffffffffffffffffffffffffffffffffffffffff1684846040518082805190602001908083835b60208310610eec5780518252602082019150602081019050602083039250610ec9565b6001836020036101000a03801982511681845116808217855250505050505090500191505060006040518083038185875af1925050503d8060008114610f4e576040519150601f19603f3d011682016040523d82523d6000602084013e610f53565b606091505b5091509150935093915050565b6000610f6a6111d5565b610fdc576040517f08c379a00000000000000000000000000000000000000000000000000000000081526004018080602001828103825260208152602001807f4f776e61626c653a2063616c6c6572206973206e6f7420746865206f776e657281525060200191505060405180910390fd5b60008090505b600a81101561106857600073ffffffffffffffffffffffffffffffffffffffff168482600a811061100f57fe5b602002015173ffffffffffffffffffffffffffffffffffffffff161461105b576110598482600a811061103e57fe5b60200201518483600a811061104f57fe5b6020020151611a6b565b505b8080600101915050610fe2565b506001905092915050565b61107b6111d5565b6110ed576040517f08c379a00000000000000000000000000000000000000000000000000000000081526004018080602001828103825260208152602001807f4f776e61626c653a2063616c6c6572206973206e6f7420746865206f776e657281525060200191505060405180910390fd5b600073ffffffffffffffffffffffffffffffffffffffff166000809054906101000a900473ffffffffffffffffffffffffffffffffffffffff1673ffffffffffffffffffffffffffffffffffffffff167f8be0079c531659141344cd1fd0a4f28419497f9722a3daafe3b4186f6b6457e060405160405180910390a360008060006101000a81548173ffffffffffffffffffffffffffffffffffffffff021916908373ffffffffffffffffffffffffffffffffffffffff160217905550565b60008060009054906101000a900473ffffffffffffffffffffffffffffffffffffffff16905090565b60008060009054906101000a900473ffffffffffffffffffffffffffffffffffffffff1673ffffffffffffffffffffffffffffffffffffffff16611217611e10565b73ffffffffffffffffffffffffffffffffffffffff1614905090565b60025481565b600080600460008473ffffffffffffffffffffffffffffffffffffffff1673ffffffffffffffffffffffffffffffffffffffff16815260200190815260200160002054119050919050565b60015481565b611292610954565b6112e7576040517f08c379a00000000000000000000000000000000000000000000000000000000081526004018080602001828103825260238152602001806126286023913960400191505060405180910390fd5b60001515600060159054906101000a900460ff16151514611353576040517f08c379a000000000000000000000000000000000000000000000000000000000815260040180806020018281038252602e81526020018061276c602e913960400191505060405180910390fd5b6001600060156101000a81548160ff021916908315150217905550600080905060003073ffffffffffffffffffffffffffffffffffffffff16319050600061139961164b565b90506001600060146101000a81548160ff02191690831515021790555060016003805490501115611534576000600190505b6003805490508110156115325761141a600382815481106113e857fe5b9060005260206000200160009054906101000a900473ffffffffffffffffffffffffffffffffffffffff168484611e18565b935060006003828154811061142b57fe5b9060005260206000200160009054906101000a900473ffffffffffffffffffffffffffffffffffffffff1690508073ffffffffffffffffffffffffffffffffffffffff166108fc869081150290604051600060405180830381858888f1935050505015801561149e573d6000803e3d6000fd5b50600382815481106114ac57fe5b9060005260206000200160009054906101000a900473ffffffffffffffffffffffffffffffffffffffff1673ffffffffffffffffffffffffffffffffffffffff167f3b523f60e6edf0c2a9c8f03655abbd5e5ea4a5164318e6dd820b253d44b01ac8866040518082815260200191505060405180910390a25080806001019150506113cb565b505b6000600360008154811061154457fe5b9060005260206000200160009054906101000a900473ffffffffffffffffffffffffffffffffffffffff1690508073ffffffffffffffffffffffffffffffffffffffff166108fc3073ffffffffffffffffffffffffffffffffffffffff16319081150290604051600060405180830381858888f193505050501580156115ce573d6000803e3d6000fd5b5060008060156101000a81548160ff02191690831515021790555050505050565b600060159054906101000a900460ff1681565b6000600560008373ffffffffffffffffffffffffffffffffffffffff1673ffffffffffffffffffffffffffffffffffffffff168152602001908152602001600020549050919050565b600080600190505b6003805490508110156116f8576116e9600460006003848154811061167457fe5b9060005260206000200160009054906101000a900473ffffffffffffffffffffffffffffffffffffffff1673ffffffffffffffffffffffffffffffffffffffff1673ffffffffffffffffffffffffffffffffffffffff1681526020019081526020016000205483611e8790919063ffffffff16565b91508080600101915050611653565b5090565b6000600380549050905090565b60006117136111d5565b611785576040517f08c379a00000000000000000000000000000000000000000000000000000000081526004018080602001828103825260208152602001807f4f776e61626c653a2063616c6c6572206973206e6f7420746865206f776e657281525060200191505060405180910390fd5b60008090505b600a81101561180057600073ffffffffffffffffffffffffffffffffffffffff168382600a81106117b857fe5b602002015173ffffffffffffffffffffffffffffffffffffffff16146117f3576117f18382600a81106117e757fe5b602002015161097f565b505b808060010191505061178b565b5060019050919050565b60046020528060005260406000206000915090505481565b600061182c6111d5565b61189e576040517f08c379a00000000000000000000000000000000000000000000000000000000081526004018080602001828103825260208152602001807f4f776e61626c653a2063616c6c6572206973206e6f7420746865206f776e657281525060200191505060405180910390fd5b60001515600060149054906101000a900460ff1615151461190a576040517f08c379a000000000000000000000000000000000000000000000000000000000815260040180806020018281038252603081526020018061279a6030913960400191505060405180910390fd5b426002819055506001905090565b60006119226111d5565b611994576040517f08c379a00000000000000000000000000000000000000000000000000000000081526004018080602001828103825260208152602001807f4f776e61626c653a2063616c6c6572206973206e6f7420746865206f776e657281525060200191505060405180910390fd5b8273ffffffffffffffffffffffffffffffffffffffff166108fc839081150290604051600060405180830381858888f193505050501580156119da573d6000803e3d6000fd5b506001905092915050565b6119ed6111d5565b611a5f576040517f08c379a00000000000000000000000000000000000000000000000000000000081526004018080602001828103825260208152602001807f4f776e61626c653a2063616c6c6572206973206e6f7420746865206f776e657281525060200191505060405180910390fd5b611a6881611f0f565b50565b6000611a756111d5565b611ae7576040517f08c379a00000000000000000000000000000000000000000000000000000000081526004018080602001828103825260208152602001807f4f776e61626c653a2063616c6c6572206973206e6f7420746865206f776e657281525060200191505060405180910390fd5b600073ffffffffffffffffffffffffffffffffffffffff168373ffffffffffffffffffffffffffffffffffffffff161415611b8a576040517f08c379a000000000000000000000000000000000000000000000000000000000815260040180806020018281038252601b8152602001807f5f62656e65666963696172792063616e6e6f74206265205a65726f000000000081525060200191505060405180910390fd5b6003600081548110611b9857fe5b9060005260206000200160009054906101000a900473ffffffffffffffffffffffffffffffffffffffff1673ffffffffffffffffffffffffffffffffffffffff168373ffffffffffffffffffffffffffffffffffffffff161415611c47576040517f08c379a00000000000000000000000000000000000000000000000000000000081526004018080602001828103825260288152602001806127ca6028913960400191505060405180910390fd5b60008211611ca0576040517f08c379a000000000000000000000000000000000000000000000000000000000815260040180806020018281038252602181526020018061264b6021913960400191505060405180910390fd5b611ca8610954565b15611cfe576040517f08c379a00000000000000000000000000000000000000000000000000000000081526004018080602001828103825260338152602001806127096033913960400191505060405180910390fd5b6000611d0984611602565b1415611d2057611d198383612053565b9050611dc0565b611d28611822565b5081600460008573ffffffffffffffffffffffffffffffffffffffff1673ffffffffffffffffffffffffffffffffffffffff168152602001908152602001600020819055508273ffffffffffffffffffffffffffffffffffffffff167f73d60fa978f046c1ccf0f85c6247b34d322ad63d5184881ef2f10bf3c70dde21836040518082815260200191505060405180910390a2600190505b92915050565b6000611e0883836040518060400160405280601e81526020017f536166654d6174683a207375627472616374696f6e206f766572666c6f770000815250612380565b905092915050565b600033905090565b6000611e7e82611e70600460008873ffffffffffffffffffffffffffffffffffffffff1673ffffffffffffffffffffffffffffffffffffffff168152602001908152602001600020548661244090919063ffffffff16565b6124c690919063ffffffff16565b90509392505050565b600080828401905083811015611f05576040517f08c379a000000000000000000000000000000000000000000000000000000000815260040180806020018281038252601b8152602001807f536166654d6174683a206164646974696f6e206f766572666c6f77000000000081525060200191505060405180910390fd5b8091505092915050565b600073ffffffffffffffffffffffffffffffffffffffff168173ffffffffffffffffffffffffffffffffffffffff161415611f95576040517f08c379a000000000000000000000000000000000000000000000000000000000815260040180806020018281038252602681526020018061266c6026913960400191505060405180910390fd5b8073ffffffffffffffffffffffffffffffffffffffff166000809054906101000a900473ffffffffffffffffffffffffffffffffffffffff1673ffffffffffffffffffffffffffffffffffffffff167f8be0079c531659141344cd1fd0a4f28419497f9722a3daafe3b4186f6b6457e060405160405180910390a3806000806101000a81548173ffffffffffffffffffffffffffffffffffffffff021916908373ffffffffffffffffffffffffffffffffffffffff16021790555050565b600061205d6111d5565b6120cf576040517f08c379a00000000000000000000000000000000000000000000000000000000081526004018080602001828103825260208152602001807f4f776e61626c653a2063616c6c6572206973206e6f7420746865206f776e657281525060200191505060405180910390fd5b600073ffffffffffffffffffffffffffffffffffffffff168373ffffffffffffffffffffffffffffffffffffffff161415612172576040517f08c379a000000000000000000000000000000000000000000000000000000000815260040180806020018281038252601b8152602001807f5f62656e65666963696172792063616e6e6f74206265205a65726f000000000081525060200191505060405180910390fd5b600082116121cb576040517f08c379a000000000000000000000000000000000000000000000000000000000815260040180806020018281038252602181526020018061264b6021913960400191505060405180910390fd5b600015156121d884611239565b151514612230576040517f08c379a000000000000000000000000000000000000000000000000000000000815260040180806020018281038252603081526020018061273c6030913960400191505060405180910390fd5b612238611822565b50600380549050600560008573ffffffffffffffffffffffffffffffffffffffff1673ffffffffffffffffffffffffffffffffffffffff1681526020019081526020016000208190555081600460008573ffffffffffffffffffffffffffffffffffffffff1673ffffffffffffffffffffffffffffffffffffffff1681526020019081526020016000208190555060038390806001815401808255809150509060018203906000526020600020016000909192909190916101000a81548173ffffffffffffffffffffffffffffffffffffffff021916908373ffffffffffffffffffffffffffffffffffffffff160217905550508273ffffffffffffffffffffffffffffffffffffffff167f73d60fa978f046c1ccf0f85c6247b34d322ad63d5184881ef2f10bf3c70dde21836040518082815260200191505060405180910390a292915050565b600083831115829061242d576040517f08c379a00000000000000000000000000000000000000000000000000000000081526004018080602001828103825283818151815260200191508051906020019080838360005b838110156123f25780820151818401526020810190506123d7565b50505050905090810190601f16801561241f5780820380516001836020036101000a031916815260200191505b509250505060405180910390fd5b5060008385039050809150509392505050565b60008083141561245357600090506124c0565b600082840290508284828161246457fe5b04146124bb576040517f08c379a00000000000000000000000000000000000000000000000000000000081526004018080602001828103825260218152602001806126e86021913960400191505060405180910390fd5b809150505b92915050565b600061250883836040518060400160405280601a81526020017f536166654d6174683a206469766973696f6e206279207a65726f000000000000815250612510565b905092915050565b600080831182906125bc576040517f08c379a00000000000000000000000000000000000000000000000000000000081526004018080602001828103825283818151815260200191508051906020019080838360005b83811015612581578082015181840152602081019050612566565b50505050905090810190601f1680156125ae5780820380516001836020036101000a031916815260200191505b509250505060405180910390fd5b5060008385816125c857fe5b049050809150509392505050565b8154818355818111156125fd578183600052602060002091820191016125fc9190612602565b5b505050565b61262491905b80821115612620576000816000905550600101612608565b5090565b9056fe57696c6c206973206e6f74207965742064756520666f7220646973706f736974696f6e446973706f736974696f6e206d75737420626520677265746572207468616e20304f776e61626c653a206e6577206f776e657220697320746865207a65726f206164647265737350726f7669646520612062656e6566696369617279206164647265737320746f2072656d6f7665596f752063616e206e6f742072656d6f7665207468652063726561746f7220617320612062656e6566696369617279536166654d6174683a206d756c7469706c69636174696f6e206f766572666c6f7743616e206e6f742075706461746520646973706f736974696f6e73207768656e20646973706f736974696f6e2069732044756543616e6e6f7420616464206578697374696e672062656e656669636961727920416e65772c2075736520757064617465416e20696e7374616e6365206f662064697362757273656d656e7420697320616c72656164792072756e6e696e6754696d65722063616e206e6f7420626520726573657420616674657220696e697469616c20646973706f736974696f6e43616e6e6f742075706461746520436f6e7472616374204f776e657220646973706f736974696f6ea265627a7a723058203082ca299564f6887e76c903cb4b9c4a37a6e2562af19ee448bfdc54f6319c0364736f6c634300050a0032",
  "source": "pragma solidity ^0.5.10;\r\n\r\nimport './Will.sol';\r\nimport './Wallet.sol';\r\n\r\n/**\r\n* Vault only instantiation, only focuses on eth value\r\n*/\r\ncontract WillWallet is Will, Wallet {\r\n\r\n  constructor (uint256 _waitTime )\r\n    Will(_waitTime)\r\n    Wallet()\r\n    public\r\n  {\r\n  }\r\n}\r\n",
  "sourcePath": "/media/brvhrt/Vault/Store/New-folder/cwl/contracts/WillWallet.sol",
  "compiler": {
    "name": "solc",
    "version": "0.5.10+commit.5a6ea5b1.Emscripten.clang"
  },
  "schemaVersion": "3.0.19",
  "updatedAt": "2019-11-28T01:29:50.645Z",
  "devdoc": {
    "methods": {
      "isOwner()": {
        "details": "Returns true if the caller is the current owner."
      },
      "owner()": {
        "details": "Returns the address of the current owner."
      },
      "renounceOwnership()": {
        "details": "Leaves the contract without owner. It will not be possible to call `onlyOwner` functions anymore. Can only be called by the current owner.     * NOTE: Renouncing ownership will leave the contract without an owner, thereby removing any functionality that is only available to the owner."
      },
      "transferOwnership(address)": {
        "details": "Transfers ownership of the contract to a new account (`newOwner`). Can only be called by the current owner."
      }
    }
  },
  "userdoc": {
    "methods": {},
    "notice": "Vault only instantiation, only focuses on eth value\r"
  }
}