{
  "contractName": "WillWallet",
  "abi": [
    {
      "constant": true,
      "inputs": [],
      "name": "disbursed",
      "outputs": [
        {
          "name": "",
          "type": "bool"
        }
      ],
      "payable": false,
      "stateMutability": "view",
      "type": "function"
    },
    {
      "constant": true,
      "inputs": [],
      "name": "isDispositionDue",
      "outputs": [
        {
          "name": "",
          "type": "bool"
        }
      ],
      "payable": false,
      "stateMutability": "view",
      "type": "function"
    },
    {
      "constant": true,
      "inputs": [],
      "name": "decimals",
      "outputs": [
        {
          "name": "",
          "type": "uint256"
        }
      ],
      "payable": false,
      "stateMutability": "view",
      "type": "function"
    },
    {
      "constant": true,
      "inputs": [],
      "name": "maxArrayLength",
      "outputs": [
        {
          "name": "",
          "type": "uint256"
        }
      ],
      "payable": false,
      "stateMutability": "view",
      "type": "function"
    },
    {
      "constant": false,
      "inputs": [
        {
          "name": "_beneficiary",
          "type": "address"
        }
      ],
      "name": "removeBeneficiary",
      "outputs": [
        {
          "name": "",
          "type": "bool"
        }
      ],
      "payable": false,
      "stateMutability": "nonpayable",
      "type": "function"
    },
    {
      "constant": false,
      "inputs": [
        {
          "name": "_beneficiaries",
          "type": "address[10]"
        },
        {
          "name": "_dispositions",
          "type": "uint256[10]"
        }
      ],
      "name": "updateBeneficiaries",
      "outputs": [
        {
          "name": "",
          "type": "bool"
        }
      ],
      "payable": false,
      "stateMutability": "nonpayable",
      "type": "function"
    },
    {
      "constant": false,
      "inputs": [],
      "name": "renounceOwnership",
      "outputs": [],
      "payable": false,
      "stateMutability": "nonpayable",
      "type": "function"
    },
    {
      "constant": true,
      "inputs": [
        {
          "name": "",
          "type": "address"
        }
      ],
      "name": "beneficiaryExists",
      "outputs": [
        {
          "name": "",
          "type": "bool"
        }
      ],
      "payable": false,
      "stateMutability": "view",
      "type": "function"
    },
    {
      "constant": false,
      "inputs": [
        {
          "name": "_address",
          "type": "address"
        },
        {
          "name": "_value",
          "type": "uint256"
        },
        {
          "name": "_callData",
          "type": "bytes32"
        }
      ],
      "name": "callFunction",
      "outputs": [
        {
          "name": "",
          "type": "bool"
        }
      ],
      "payable": true,
      "stateMutability": "payable",
      "type": "function"
    },
    {
      "constant": true,
      "inputs": [],
      "name": "owner",
      "outputs": [
        {
          "name": "",
          "type": "address"
        }
      ],
      "payable": false,
      "stateMutability": "view",
      "type": "function"
    },
    {
      "constant": true,
      "inputs": [],
      "name": "lastInteraction",
      "outputs": [
        {
          "name": "",
          "type": "uint256"
        }
      ],
      "payable": false,
      "stateMutability": "view",
      "type": "function"
    },
    {
      "constant": true,
      "inputs": [],
      "name": "unit",
      "outputs": [
        {
          "name": "",
          "type": "uint256"
        }
      ],
      "payable": false,
      "stateMutability": "pure",
      "type": "function"
    },
    {
      "constant": false,
      "inputs": [
        {
          "name": "_destination",
          "type": "address"
        },
        {
          "name": "_value",
          "type": "uint256"
        }
      ],
      "name": "transfer",
      "outputs": [
        {
          "name": "",
          "type": "bool"
        }
      ],
      "payable": false,
      "stateMutability": "nonpayable",
      "type": "function"
    },
    {
      "constant": false,
      "inputs": [],
      "name": "triggerDisposition",
      "outputs": [],
      "payable": false,
      "stateMutability": "nonpayable",
      "type": "function"
    },
    {
      "constant": true,
      "inputs": [],
      "name": "disbursing",
      "outputs": [
        {
          "name": "",
          "type": "bool"
        }
      ],
      "payable": false,
      "stateMutability": "view",
      "type": "function"
    },
    {
      "constant": true,
      "inputs": [
        {
          "name": "_beneficiary",
          "type": "address"
        }
      ],
      "name": "getBeneficiaryIndex",
      "outputs": [
        {
          "name": "",
          "type": "uint256"
        }
      ],
      "payable": false,
      "stateMutability": "view",
      "type": "function"
    },
    {
      "constant": true,
      "inputs": [],
      "name": "dispositionSum",
      "outputs": [
        {
          "name": "_sum",
          "type": "uint256"
        }
      ],
      "payable": false,
      "stateMutability": "view",
      "type": "function"
    },
    {
      "constant": true,
      "inputs": [],
      "name": "totalBeneficiaries",
      "outputs": [
        {
          "name": "",
          "type": "uint256"
        }
      ],
      "payable": false,
      "stateMutability": "view",
      "type": "function"
    },
    {
      "constant": false,
      "inputs": [
        {
          "name": "_beneficiaries",
          "type": "address[10]"
        }
      ],
      "name": "removeBeneficiaries",
      "outputs": [
        {
          "name": "",
          "type": "bool"
        }
      ],
      "payable": false,
      "stateMutability": "nonpayable",
      "type": "function"
    },
    {
      "constant": true,
      "inputs": [
        {
          "name": "",
          "type": "address"
        }
      ],
      "name": "disposition",
      "outputs": [
        {
          "name": "",
          "type": "uint256"
        }
      ],
      "payable": false,
      "stateMutability": "view",
      "type": "function"
    },
    {
      "constant": false,
      "inputs": [],
      "name": "postpone",
      "outputs": [
        {
          "name": "",
          "type": "bool"
        }
      ],
      "payable": true,
      "stateMutability": "payable",
      "type": "function"
    },
    {
      "constant": true,
      "inputs": [
        {
          "name": "",
          "type": "uint256"
        }
      ],
      "name": "beneficiaries",
      "outputs": [
        {
          "name": "",
          "type": "address"
        }
      ],
      "payable": false,
      "stateMutability": "view",
      "type": "function"
    },
    {
      "constant": false,
      "inputs": [
        {
          "name": "_newOwner",
          "type": "address"
        }
      ],
      "name": "transferOwnership",
      "outputs": [],
      "payable": false,
      "stateMutability": "nonpayable",
      "type": "function"
    },
    {
      "constant": false,
      "inputs": [
        {
          "name": "_beneficiary",
          "type": "address"
        },
        {
          "name": "_disposition",
          "type": "uint256"
        }
      ],
      "name": "updateBeneficiary",
      "outputs": [
        {
          "name": "",
          "type": "bool"
        }
      ],
      "payable": false,
      "stateMutability": "nonpayable",
      "type": "function"
    },
    {
      "inputs": [
        {
          "name": "_waitTime",
          "type": "uint256"
        }
      ],
      "payable": false,
      "stateMutability": "nonpayable",
      "type": "constructor"
    },
    {
      "payable": true,
      "stateMutability": "payable",
      "type": "fallback"
    },
    {
      "anonymous": false,
      "inputs": [
        {
          "indexed": true,
          "name": "beneficiary",
          "type": "address"
        },
        {
          "indexed": false,
          "name": "disposition",
          "type": "uint256"
        }
      ],
      "name": "BeneficiaryUpdated",
      "type": "event"
    },
    {
      "anonymous": false,
      "inputs": [
        {
          "indexed": true,
          "name": "beneficiary",
          "type": "address"
        },
        {
          "indexed": false,
          "name": "total",
          "type": "uint256"
        }
      ],
      "name": "BeneficiarySettled",
      "type": "event"
    },
    {
      "anonymous": false,
      "inputs": [
        {
          "indexed": true,
          "name": "previousOwner",
          "type": "address"
        }
      ],
      "name": "OwnershipRenounced",
      "type": "event"
    },
    {
      "anonymous": false,
      "inputs": [
        {
          "indexed": true,
          "name": "previousOwner",
          "type": "address"
        },
        {
          "indexed": true,
          "name": "newOwner",
          "type": "address"
        }
      ],
      "name": "OwnershipTransferred",
      "type": "event"
    }
  ],
  "bytecode": "0x608060405234801561001057600080fd5b506040516020806122af8339810180604052810190808051906020019092919050505080336000806101000a81548173ffffffffffffffffffffffffffffffffffffffff021916908373ffffffffffffffffffffffffffffffffffffffff16021790555060033390806001815401808255809150509060018203906000526020600020016000909192909190916101000a81548173ffffffffffffffffffffffffffffffffffffffff021916908373ffffffffffffffffffffffffffffffffffffffff16021790555050806001819055504260028190555050506121b6806100f96000396000f30060806040526004361061013e576000357c0100000000000000000000000000000000000000000000000000000000900463ffffffff16806310812a7d14610140578063282f7cdd1461016f578063313ce5671461019e57806353bda15b146101c957806359633a1c146101f457806367e740051461024f578063715018a6146102ea57806375e71d6d146103015780637d1a9aac1461035c5780638da5cb5b146103c25780638f71a26514610419578063907af6c014610444578063a9059cbb1461046f578063b756feff146104d4578063b815b300146104eb578063b914d9081461051a578063c2ff501214610571578063d01a69c91461059c578063d39e6bb1146105c7578063dabc57d914610632578063e7caed9114610689578063efeb5e58146106ab578063f2fde38b14610718578063fcb9b5051461075b575b005b34801561014c57600080fd5b506101556107c0565b604051808215151515815260200191505060405180910390f35b34801561017b57600080fd5b506101846107d3565b604051808215151515815260200191505060405180910390f35b3480156101aa57600080fd5b506101b36107f4565b6040518082815260200191505060405180910390f35b3480156101d557600080fd5b506101de6107f9565b6040518082815260200191505060405180910390f35b34801561020057600080fd5b50610235600480360381019080803573ffffffffffffffffffffffffffffffffffffffff1690602001909291905050506107fe565b604051808215151515815260200191505060405180910390f35b34801561025b57600080fd5b506102d0600480360381019080806101400190600a806020026040519081016040528092919082600a6020028082843782019150505050509192919290806101400190600a806020026040519081016040528092919082600a6020028082843782019150505050509192919290505050610d8c565b604051808215151515815260200191505060405180910390f35b3480156102f657600080fd5b506102ff610e72565b005b34801561030d57600080fd5b50610342600480360381019080803573ffffffffffffffffffffffffffffffffffffffff169060200190929190505050610f74565b604051808215151515815260200191505060405180910390f35b6103a8600480360381019080803573ffffffffffffffffffffffffffffffffffffffff169060200190929190803590602001909291908035600019169060200190929190505050610f94565b604051808215151515815260200191505060405180910390f35b3480156103ce57600080fd5b506103d7611039565b604051808273ffffffffffffffffffffffffffffffffffffffff1673ffffffffffffffffffffffffffffffffffffffff16815260200191505060405180910390f35b34801561042557600080fd5b5061042e61105e565b6040518082815260200191505060405180910390f35b34801561045057600080fd5b50610459611064565b6040518082815260200191505060405180910390f35b34801561047b57600080fd5b506104ba600480360381019080803573ffffffffffffffffffffffffffffffffffffffff16906020019092919080359060200190929190505050611070565b604051808215151515815260200191505060405180910390f35b3480156104e057600080fd5b506104e961111e565b005b3480156104f757600080fd5b50610500611508565b604051808215151515815260200191505060405180910390f35b34801561052657600080fd5b5061055b600480360381019080803573ffffffffffffffffffffffffffffffffffffffff16906020019092919050505061151b565b6040518082815260200191505060405180910390f35b34801561057d57600080fd5b50610586611564565b6040518082815260200191505060405180910390f35b3480156105a857600080fd5b506105b1611617565b6040518082815260200191505060405180910390f35b3480156105d357600080fd5b50610618600480360381019080806101400190600a806020026040519081016040528092919082600a6020028082843782019150505050509192919290505050611624565b604051808215151515815260200191505060405180910390f35b34801561063e57600080fd5b50610673600480360381019080803573ffffffffffffffffffffffffffffffffffffffff1690602001909291905050506116f6565b6040518082815260200191505060405180910390f35b61069161170e565b604051808215151515815260200191505060405180910390f35b3480156106b757600080fd5b506106d66004803603810190808035906020019092919050505061182a565b604051808273ffffffffffffffffffffffffffffffffffffffff1673ffffffffffffffffffffffffffffffffffffffff16815260200191505060405180910390f35b34801561072457600080fd5b50610759600480360381019080803573ffffffffffffffffffffffffffffffffffffffff169060200190929190505050611868565b005b34801561076757600080fd5b506107a6600480360381019080803573ffffffffffffffffffffffffffffffffffffffff169060200190929190803590602001909291905050506118cf565b604051808215151515815260200191505060405180910390f35b600060149054906101000a900460ff1681565b60006001546107ed60025442611bbb90919063ffffffff16565b1015905090565b600881565b600a81565b6000806000809054906101000a900473ffffffffffffffffffffffffffffffffffffffff1673ffffffffffffffffffffffffffffffffffffffff163373ffffffffffffffffffffffffffffffffffffffff1614151561085c57600080fd5b60008373ffffffffffffffffffffffffffffffffffffffff1614151515610911576040517f08c379a00000000000000000000000000000000000000000000000000000000081526004018080602001828103825260278152602001807f50726f7669646520612062656e6566696369617279206164647265737320746f81526020017f2072656d6f76650000000000000000000000000000000000000000000000000081525060400191505060405180910390fd5b6109196107d3565b1515156109b4576040517f08c379a00000000000000000000000000000000000000000000000000000000081526004018080602001828103825260338152602001807f43616e206e6f742075706461746520646973706f736974696f6e73207768656e81526020017f20646973706f736974696f6e206973204475650000000000000000000000000081525060400191505060405180910390fd5b6109bd8361151b565b90508273ffffffffffffffffffffffffffffffffffffffff166003828154811015156109e557fe5b9060005260206000200160009054906101000a900473ffffffffffffffffffffffffffffffffffffffff1673ffffffffffffffffffffffffffffffffffffffff16141515610a2f57fe5b60008114151515610ace576040517f08c379a000000000000000000000000000000000000000000000000000000000815260040180806020018281038252602f8152602001807f596f752063616e206e6f742072656d6f7665207468652063726561746f72206181526020017f7320612062656e6566696369617279000000000000000000000000000000000081525060400191505060405180910390fd5b600460008473ffffffffffffffffffffffffffffffffffffffff1673ffffffffffffffffffffffffffffffffffffffff16815260200190815260200160002060009055600660008473ffffffffffffffffffffffffffffffffffffffff1673ffffffffffffffffffffffffffffffffffffffff16815260200190815260200160002060009055600560008473ffffffffffffffffffffffffffffffffffffffff1673ffffffffffffffffffffffffffffffffffffffff16815260200190815260200160002060006101000a81549060ff02191690556003610bbe6001600380549050611bbb90919063ffffffff16565b815481101515610bca57fe5b9060005260206000200160009054906101000a900473ffffffffffffffffffffffffffffffffffffffff16600382815481101515610c0457fe5b9060005260206000200160006101000a81548173ffffffffffffffffffffffffffffffffffffffff021916908373ffffffffffffffffffffffffffffffffffffffff1602179055508060066000600384815481101515610c6057fe5b9060005260206000200160009054906101000a900473ffffffffffffffffffffffffffffffffffffffff1673ffffffffffffffffffffffffffffffffffffffff1673ffffffffffffffffffffffffffffffffffffffff168152602001908152602001600020819055506003610ce46001600380549050611bbb90919063ffffffff16565b815481101515610cf057fe5b9060005260206000200160006101000a81549073ffffffffffffffffffffffffffffffffffffffff02191690556003805480919060019003610d329190612139565b508273ffffffffffffffffffffffffffffffffffffffff167f73d60fa978f046c1ccf0f85c6247b34d322ad63d5184881ef2f10bf3c70dde2160006040518082815260200191505060405180910390a26001915050919050565b6000806000809054906101000a900473ffffffffffffffffffffffffffffffffffffffff1673ffffffffffffffffffffffffffffffffffffffff163373ffffffffffffffffffffffffffffffffffffffff16141515610dea57600080fd5b600090505b600a811015610e675760008482600a81101515610e0857fe5b602002015173ffffffffffffffffffffffffffffffffffffffff16141515610e5a57610e588482600a81101515610e3b57fe5b60200201518483600a81101515610e4e57fe5b60200201516118cf565b505b8080600101915050610def565b600191505092915050565b6000809054906101000a900473ffffffffffffffffffffffffffffffffffffffff1673ffffffffffffffffffffffffffffffffffffffff163373ffffffffffffffffffffffffffffffffffffffff16141515610ecd57600080fd5b6000809054906101000a900473ffffffffffffffffffffffffffffffffffffffff1673ffffffffffffffffffffffffffffffffffffffff167ff8df31144d9c2f0f6b59d69b8b98abd5459d07f2742c4df920b25aae33c6482060405160405180910390a260008060006101000a81548173ffffffffffffffffffffffffffffffffffffffff021916908373ffffffffffffffffffffffffffffffffffffffff160217905550565b60056020528060005260406000206000915054906101000a900460ff1681565b60008060009054906101000a900473ffffffffffffffffffffffffffffffffffffffff1673ffffffffffffffffffffffffffffffffffffffff163373ffffffffffffffffffffffffffffffffffffffff16141515610ff157600080fd5b8373ffffffffffffffffffffffffffffffffffffffff16838360405180826000191660001916815260200191505060006040518083038185875af19250505090509392505050565b6000809054906101000a900473ffffffffffffffffffffffffffffffffffffffff1681565b60025481565b60006008600a0a905090565b60008060009054906101000a900473ffffffffffffffffffffffffffffffffffffffff1673ffffffffffffffffffffffffffffffffffffffff163373ffffffffffffffffffffffffffffffffffffffff161415156110cd57600080fd5b8273ffffffffffffffffffffffffffffffffffffffff166108fc839081150290604051600060405180830381858888f19350505050158015611113573d6000803e3d6000fd5b506001905092915050565b60008060008061112c6107d3565b15156111c6576040517f08c379a00000000000000000000000000000000000000000000000000000000081526004018080602001828103825260238152602001807f57696c6c206973206e6f74207965742064756520666f7220646973706f73697481526020017f696f6e000000000000000000000000000000000000000000000000000000000081525060400191505060405180910390fd5b60001515600060159054906101000a900460ff161515141515611277576040517f08c379a000000000000000000000000000000000000000000000000000000000815260040180806020018281038252602e8152602001807f416e20696e7374616e6365206f662064697362757273656d656e74206973206181526020017f6c72656164792072756e6e696e6700000000000000000000000000000000000081525060400191505060405180910390fd5b6001600060156101000a81548160ff021916908315150217905550600093503073ffffffffffffffffffffffffffffffffffffffff163192506112b8611564565b91506001600060146101000a81548160ff0219169083151502179055506001600380549050111561145057600190505b60038054905081101561144f5761133960038281548110151561130757fe5b9060005260206000200160009054906101000a900473ffffffffffffffffffffffffffffffffffffffff168484611bd4565b935060038181548110151561134a57fe5b9060005260206000200160009054906101000a900473ffffffffffffffffffffffffffffffffffffffff1673ffffffffffffffffffffffffffffffffffffffff166108fc859081150290604051600060405180830381858888f193505050501580156113ba573d6000803e3d6000fd5b506003818154811015156113ca57fe5b9060005260206000200160009054906101000a900473ffffffffffffffffffffffffffffffffffffffff1673ffffffffffffffffffffffffffffffffffffffff167f3b523f60e6edf0c2a9c8f03655abbd5e5ea4a5164318e6dd820b253d44b01ac8856040518082815260200191505060405180910390a280806001019150506112e8565b5b6003600081548110151561146057fe5b9060005260206000200160009054906101000a900473ffffffffffffffffffffffffffffffffffffffff1673ffffffffffffffffffffffffffffffffffffffff166108fc3073ffffffffffffffffffffffffffffffffffffffff16319081150290604051600060405180830381858888f193505050501580156114e7573d6000803e3d6000fd5b5060008060156101000a81548160ff02191690831515021790555050505050565b600060159054906101000a900460ff1681565b6000600660008373ffffffffffffffffffffffffffffffffffffffff1673ffffffffffffffffffffffffffffffffffffffff168152602001908152602001600020549050919050565b600080600190505b600380549050811015611613576116046004600060038481548110151561158f57fe5b9060005260206000200160009054906101000a900473ffffffffffffffffffffffffffffffffffffffff1673ffffffffffffffffffffffffffffffffffffffff1673ffffffffffffffffffffffffffffffffffffffff1681526020019081526020016000205483611c5c90919063ffffffff16565b9150808060010191505061156c565b5090565b6000600380549050905090565b6000806000809054906101000a900473ffffffffffffffffffffffffffffffffffffffff1673ffffffffffffffffffffffffffffffffffffffff163373ffffffffffffffffffffffffffffffffffffffff1614151561168257600080fd5b600090505b600a8110156116ec5760008382600a811015156116a057fe5b602002015173ffffffffffffffffffffffffffffffffffffffff161415156116df576116dd8382600a811015156116d357fe5b60200201516107fe565b505b8080600101915050611687565b6001915050919050565b60046020528060005260406000206000915090505481565b60008060009054906101000a900473ffffffffffffffffffffffffffffffffffffffff1673ffffffffffffffffffffffffffffffffffffffff163373ffffffffffffffffffffffffffffffffffffffff1614151561176b57600080fd5b60001515600060149054906101000a900460ff16151514151561181c576040517f08c379a00000000000000000000000000000000000000000000000000000000081526004018080602001828103825260308152602001807f54696d65722063616e206e6f7420626520726573657420616674657220696e6981526020017f7469616c20646973706f736974696f6e0000000000000000000000000000000081525060400191505060405180910390fd5b426002819055506001905090565b60038181548110151561183957fe5b906000526020600020016000915054906101000a900473ffffffffffffffffffffffffffffffffffffffff1681565b6000809054906101000a900473ffffffffffffffffffffffffffffffffffffffff1673ffffffffffffffffffffffffffffffffffffffff163373ffffffffffffffffffffffffffffffffffffffff161415156118c357600080fd5b6118cc81611c78565b50565b60008060009054906101000a900473ffffffffffffffffffffffffffffffffffffffff1673ffffffffffffffffffffffffffffffffffffffff163373ffffffffffffffffffffffffffffffffffffffff1614151561192c57600080fd5b60008373ffffffffffffffffffffffffffffffffffffffff16141515156119bb576040517f08c379a000000000000000000000000000000000000000000000000000000000815260040180806020018281038252601b8152602001807f5f62656e65666963696172792063616e6e6f74206265205a65726f000000000081525060200191505060405180910390fd5b600082111515611a59576040517f08c379a00000000000000000000000000000000000000000000000000000000081526004018080602001828103825260218152602001807f446973706f736974696f6e206d75737420626520677265746572207468616e2081526020017f300000000000000000000000000000000000000000000000000000000000000081525060400191505060405180910390fd5b611a616107d3565b151515611afc576040517f08c379a00000000000000000000000000000000000000000000000000000000081526004018080602001828103825260338152602001807f43616e206e6f742075706461746520646973706f736974696f6e73207768656e81526020017f20646973706f736974696f6e206973204475650000000000000000000000000081525060400191505060405180910390fd5b6000611b078461151b565b1415611b1e57611b178383611d72565b9050611bb5565b81600460008573ffffffffffffffffffffffffffffffffffffffff1673ffffffffffffffffffffffffffffffffffffffff168152602001908152602001600020819055508273ffffffffffffffffffffffffffffffffffffffff167f73d60fa978f046c1ccf0f85c6247b34d322ad63d5184881ef2f10bf3c70dde21836040518082815260200191505060405180910390a2600190505b92915050565b6000828211151515611bc957fe5b818303905092915050565b6000611c53611be1611064565b611c4584611c37600460008a73ffffffffffffffffffffffffffffffffffffffff1673ffffffffffffffffffffffffffffffffffffffff16815260200190815260200160002054886120eb90919063ffffffff16565b61212390919063ffffffff16565b61212390919063ffffffff16565b90509392505050565b60008183019050828110151515611c6f57fe5b80905092915050565b600073ffffffffffffffffffffffffffffffffffffffff168173ffffffffffffffffffffffffffffffffffffffff1614151515611cb457600080fd5b8073ffffffffffffffffffffffffffffffffffffffff166000809054906101000a900473ffffffffffffffffffffffffffffffffffffffff1673ffffffffffffffffffffffffffffffffffffffff167f8be0079c531659141344cd1fd0a4f28419497f9722a3daafe3b4186f6b6457e060405160405180910390a3806000806101000a81548173ffffffffffffffffffffffffffffffffffffffff021916908373ffffffffffffffffffffffffffffffffffffffff16021790555050565b60008060009054906101000a900473ffffffffffffffffffffffffffffffffffffffff1673ffffffffffffffffffffffffffffffffffffffff163373ffffffffffffffffffffffffffffffffffffffff16141515611dcf57600080fd5b60008373ffffffffffffffffffffffffffffffffffffffff1614151515611e5e576040517f08c379a000000000000000000000000000000000000000000000000000000000815260040180806020018281038252601b8152602001807f5f62656e65666963696172792063616e6e6f74206265205a65726f000000000081525060200191505060405180910390fd5b60001515600560008573ffffffffffffffffffffffffffffffffffffffff1673ffffffffffffffffffffffffffffffffffffffff16815260200190815260200160002060009054906101000a900460ff161515141515611f4c576040517f08c379a00000000000000000000000000000000000000000000000000000000081526004018080602001828103825260308152602001807f43616e6e6f7420616464206578697374696e672062656e65666963696172792081526020017f416e65772c20757365207570646174650000000000000000000000000000000081525060400191505060405180910390fd5b6001600560008573ffffffffffffffffffffffffffffffffffffffff1673ffffffffffffffffffffffffffffffffffffffff16815260200190815260200160002060006101000a81548160ff021916908315150217905550600380549050600660008573ffffffffffffffffffffffffffffffffffffffff1673ffffffffffffffffffffffffffffffffffffffff1681526020019081526020016000208190555081600460008573ffffffffffffffffffffffffffffffffffffffff1673ffffffffffffffffffffffffffffffffffffffff1681526020019081526020016000208190555060038390806001815401808255809150509060018203906000526020600020016000909192909190916101000a81548173ffffffffffffffffffffffffffffffffffffffff021916908373ffffffffffffffffffffffffffffffffffffffff160217905550508273ffffffffffffffffffffffffffffffffffffffff167f73d60fa978f046c1ccf0f85c6247b34d322ad63d5184881ef2f10bf3c70dde21836040518082815260200191505060405180910390a292915050565b6000808314156120fe576000905061211d565b818302905081838281151561210f57fe5b0414151561211957fe5b8090505b92915050565b6000818381151561213057fe5b04905092915050565b8154818355818111156121605781836000526020600020918201910161215f9190612165565b5b505050565b61218791905b8082111561218357600081600090555060010161216b565b5090565b905600a165627a7a72305820b218ad3362088adeeb083f04253cc42db9dc8d8707507ed7556e491ebd26ae320029",
  "source": "pragma solidity ^0.4.24;\r\n\r\nimport './Will.sol';\r\nimport './Wallet.sol';\r\n\r\n/**\r\n* Vault only instantiation, only focuses on eth value\r\n*/\r\ncontract WillWallet is Will, Wallet {\r\n\r\n  constructor (uint256 _waitTime )\r\n    Will(_waitTime)\r\n    public\r\n  {\r\n  }\r\n}\r\n",
  "sourcePath": "/media/brvhrt/EAGET/work-dont touch/cwl/contracts/WillWallet.sol",
  "compiler": {
    "name": "solc",
    "version": "0.4.24+commit.e67f0147.Emscripten.clang"
  },
  "schemaVersion": "2.0.1",
  "updatedAt": "2018-12-30T16:54:33.846Z"
}