{
  "contractName": "WillWallet",
  "abi": [
    {
      "constant": true,
      "inputs": [],
      "name": "isDispositionDue",
      "outputs": [
        {
          "name": "",
          "type": "bool"
        }
      ],
      "payable": false,
      "stateMutability": "view",
      "type": "function"
    },
    {
      "constant": false,
      "inputs": [
        {
          "name": "_beneficiary",
          "type": "address"
        }
      ],
      "name": "removeBeneficiary",
      "outputs": [],
      "payable": false,
      "stateMutability": "nonpayable",
      "type": "function"
    },
    {
      "constant": false,
      "inputs": [
        {
          "name": "_address",
          "type": "address"
        },
        {
          "name": "_value",
          "type": "uint256"
        },
        {
          "name": "_callData",
          "type": "bytes32"
        }
      ],
      "name": "callFunction",
      "outputs": [
        {
          "name": "",
          "type": "bool"
        }
      ],
      "payable": true,
      "stateMutability": "payable",
      "type": "function"
    },
    {
      "constant": true,
      "inputs": [],
      "name": "owner",
      "outputs": [
        {
          "name": "",
          "type": "address"
        }
      ],
      "payable": false,
      "stateMutability": "view",
      "type": "function"
    },
    {
      "constant": true,
      "inputs": [],
      "name": "unit",
      "outputs": [
        {
          "name": "",
          "type": "uint256"
        }
      ],
      "payable": false,
      "stateMutability": "pure",
      "type": "function"
    },
    {
      "constant": false,
      "inputs": [
        {
          "name": "_beneficiary",
          "type": "address"
        },
        {
          "name": "_disposition",
          "type": "uint256"
        }
      ],
      "name": "addBeneficiary",
      "outputs": [],
      "payable": false,
      "stateMutability": "nonpayable",
      "type": "function"
    },
    {
      "constant": false,
      "inputs": [
        {
          "name": "_destination",
          "type": "address"
        },
        {
          "name": "_value",
          "type": "uint256"
        }
      ],
      "name": "transfer",
      "outputs": [
        {
          "name": "",
          "type": "bool"
        }
      ],
      "payable": false,
      "stateMutability": "nonpayable",
      "type": "function"
    },
    {
      "constant": false,
      "inputs": [],
      "name": "triggerDisposition",
      "outputs": [],
      "payable": false,
      "stateMutability": "nonpayable",
      "type": "function"
    },
    {
      "constant": true,
      "inputs": [
        {
          "name": "_beneficiary",
          "type": "address"
        }
      ],
      "name": "getBeneficiaryIndex",
      "outputs": [
        {
          "name": "",
          "type": "uint256"
        }
      ],
      "payable": false,
      "stateMutability": "view",
      "type": "function"
    },
    {
      "constant": true,
      "inputs": [],
      "name": "totalDisposed",
      "outputs": [
        {
          "name": "_total",
          "type": "uint256"
        }
      ],
      "payable": false,
      "stateMutability": "view",
      "type": "function"
    },
    {
      "constant": false,
      "inputs": [
        {
          "name": "_beneficiary",
          "type": "address"
        },
        {
          "name": "_disposition",
          "type": "uint256"
        }
      ],
      "name": "updateBeneficiary",
      "outputs": [],
      "payable": false,
      "stateMutability": "nonpayable",
      "type": "function"
    },
    {
      "inputs": [
        {
          "name": "_waitTime",
          "type": "uint256"
        }
      ],
      "payable": false,
      "stateMutability": "nonpayable",
      "type": "constructor"
    },
    {
      "payable": true,
      "stateMutability": "payable",
      "type": "fallback"
    },
    {
      "anonymous": false,
      "inputs": [
        {
          "indexed": false,
          "name": "_beneficiary",
          "type": "address"
        },
        {
          "indexed": false,
          "name": "_disposition",
          "type": "uint256"
        },
        {
          "indexed": false,
          "name": "_timestamp",
          "type": "uint256"
        }
      ],
      "name": "BeneficiaryUpdated",
      "type": "event"
    },
    {
      "anonymous": false,
      "inputs": [
        {
          "indexed": true,
          "name": "previousOwner",
          "type": "address"
        },
        {
          "indexed": true,
          "name": "newOwner",
          "type": "address"
        }
      ],
      "name": "OwnershipTransferred",
      "type": "event"
    }
  ],
  "bytecode": "0x608060405234801561001057600080fd5b506040516020806109ab833981016040525160008054600160a060020a033316600160a060020a0319918216811783556003805460018181018355919094527fc2575a0e9e593c00f959f8c92f12db2869c3395a3b0502d05e2516446f71f85b9093018054909216179055554260025561091c8061008f6000396000f3006080604052600436106100ae5763ffffffff7c0100000000000000000000000000000000000000000000000000000000600035041663282f7cdd81146100b057806359633a1c146100d95780637d1a9aac146100fa5780638da5cb5b14610114578063907af6c01461014557806396074e701461016c578063a9059cbb14610190578063b756feff146101b4578063b914d908146101c9578063f48d1c5e146101ea578063fcb9b505146101ff575b005b3480156100bc57600080fd5b506100c5610223565b604080519115158252519081900360200190f35b3480156100e557600080fd5b506100ae600160a060020a0360043516610245565b6100c5600160a060020a03600435166024356044356103e1565b34801561012057600080fd5b50610129610432565b60408051600160a060020a039092168252519081900360200190f35b34801561015157600080fd5b5061015a610441565b60408051918252519081900360200190f35b34801561017857600080fd5b506100ae600160a060020a0360043516602435610449565b34801561019c57600080fd5b506100c5600160a060020a0360043516602435610535565b3480156101c057600080fd5b506100ae610591565b3480156101d557600080fd5b5061015a600160a060020a03600435166106d1565b3480156101f657600080fd5b5061015a61072e565b34801561020b57600080fd5b506100ae600160a060020a03600435166024356107a8565b600060015461023d6002544261085490919063ffffffff16565b101590505b90565b6000805433600160a060020a0390811691161461026157600080fd5b600160a060020a038216151561027657600080fd5b61027f826106d1565b905081600160a060020a031660038281548110151561029a57fe5b600091825260209091200154600160a060020a0316146102b657fe5b8015156102c257600080fd5b600160a060020a0382166000908152600460205260408120556003805460001981019081106102ed57fe5b60009182526020909120015460038054600160a060020a03909216918390811061031357fe5b6000918252602090912001805473ffffffffffffffffffffffffffffffffffffffff1916600160a060020a039290921691909117905560038054600019810190811061035b57fe5b6000918252602090912001805473ffffffffffffffffffffffffffffffffffffffff1916905560038054906103949060001983016108b7565b5060408051600160a060020a038416815260006020820152428183015290517f9d45e2aef20053093589f016fb8deae1cd7bb218eefd02eb5f38ccf22512c8dd9181900360600190a15050565b6000805433600160a060020a039081169116146103fd57600080fd5b604080518381529051600160a060020a0386169185916020808301926000929190829003018185875af1979650505050505050565b600054600160a060020a031681565b6305f5e10090565b60005433600160a060020a0390811691161461046457600080fd5b600160a060020a038216151561047957600080fd5b610482826106d1565b1561048c57600080fd5b600160a060020a03821660008181526004602090815260408083208590556003805460018101825593527fc2575a0e9e593c00f959f8c92f12db2869c3395a3b0502d05e2516446f71f85b909201805473ffffffffffffffffffffffffffffffffffffffff191684179055815192835282018390524282820152517f9d45e2aef20053093589f016fb8deae1cd7bb218eefd02eb5f38ccf22512c8dd9181900360600190a15050565b6000805433600160a060020a0390811691161461055157600080fd5b604051600160a060020a0384169083156108fc029084906000818181858888f19350505050158015610587573d6000803e3d6000fd5b5060019392505050565b60008061059c610223565b15156105a757600080fd5b5050600160a060020a0330163160015b6003548110156106775760038054829081106105cf57fe5b600091825260209091200154600160a060020a03166108fc6106466105f2610441565b61063a6004600060038881548110151561060857fe5b6000918252602080832090910154600160a060020a03168352820192909252604001902054879063ffffffff61086616565b9063ffffffff61089116565b6040518115909202916000818181858888f1935050505015801561066e573d6000803e3d6000fd5b506001016105b7565b60038054600090811061068657fe5b6000918252602082200154604051600160a060020a0391821692309092163180156108fc0292909190818181858888f193505050501580156106cc573d6000803e3d6000fd5b505050565b6000805b6003548110156107235782600160a060020a03166003828154811015156106f857fe5b600091825260209091200154600160a060020a0316141561071b57809150610728565b6001016106d5565b600091505b50919050565b6000805b6003548110156107a45761079b61078e61074a610441565b6004600060038681548110151561075d57fe5b6000918252602080832090910154600160a060020a031683528201929092526040019020549063ffffffff61089116565b839063ffffffff6108a816565b50600101610732565b5090565b60005433600160a060020a039081169116146107c357600080fd5b600160a060020a03821615156107d857600080fd5b6107e1826106d1565b15156107f6576107f18282610449565b610850565b600160a060020a038216600081815260046020908152604091829020849055815192835282018390524282820152517f9d45e2aef20053093589f016fb8deae1cd7bb218eefd02eb5f38ccf22512c8dd9181900360600190a15b5050565b60008282111561086057fe5b50900390565b6000828202831580610882575082848281151561087f57fe5b04145b151561088a57fe5b9392505050565b600080828481151561089f57fe5b04949350505050565b60008282018381101561088a57fe5b8154818355818111156106cc576000838152602090206106cc91810190830161024291905b808211156107a457600081556001016108dc5600a165627a7a72305820ecf5d1252ecc2b24559614e4c1ab1f6094fe4a82e3de7bbc7171e91554ab87110029",
  "source": "pragma solidity ^0.4.23;\r\n\r\nimport './Will.sol';\r\nimport './Wallet.sol';\r\n\r\n/**\r\n* Vault only instantiation, only focuses on eth value\r\n*/\r\ncontract WillWallet is Will, Wallet {\r\n\r\n  uint256 constant decimals = 8; //Allow fractions for disposition\r\n  uint256 waitingTime; //How long to wait before initiating distribution\r\n  uint256 lastInteraction; //Last time contract was interacted with\r\n  address[] beneficiaries; //Address for each beneficiary\r\n  mapping( address => uint256) disposition; //Percentage of total balacne to be sent to each beneficiary\r\n\r\n  event BeneficiaryUpdated( address _beneficiary, uint256 _disposition, uint256 _timestamp); //Notify of update to beneficiaries / disposition\r\n\r\n  constructor (uint256 _waitTime )\r\n    Will(_waitTime)\r\n    public\r\n  {\r\n  }\r\n}\r\n",
  "sourcePath": "F:\\work-dont touch\\cwl\\contracts\\WillWallet.sol",
  "compiler": {
    "name": "solc",
    "version": "0.4.23+commit.124ca40d.Emscripten.clang"
  },
  "schemaVersion": "2.0.0",
  "updatedAt": "2018-05-13T18:30:34.062Z"
}