{
  "contractName": "WillWallet",
  "abi": [
    {
      "constant": true,
      "inputs": [],
      "name": "isDispositionDue",
      "outputs": [
        {
          "name": "",
          "type": "bool"
        }
      ],
      "payable": false,
      "stateMutability": "view",
      "type": "function"
    },
    {
      "constant": false,
      "inputs": [
        {
          "name": "_beneficiary",
          "type": "address"
        }
      ],
      "name": "removeBeneficiary",
      "outputs": [],
      "payable": false,
      "stateMutability": "nonpayable",
      "type": "function"
    },
    {
      "constant": false,
      "inputs": [],
      "name": "renounceOwnership",
      "outputs": [],
      "payable": false,
      "stateMutability": "nonpayable",
      "type": "function"
    },
    {
      "constant": false,
      "inputs": [
        {
          "name": "_address",
          "type": "address"
        },
        {
          "name": "_value",
          "type": "uint256"
        },
        {
          "name": "_callData",
          "type": "bytes32"
        }
      ],
      "name": "callFunction",
      "outputs": [
        {
          "name": "",
          "type": "bool"
        }
      ],
      "payable": true,
      "stateMutability": "payable",
      "type": "function"
    },
    {
      "constant": true,
      "inputs": [],
      "name": "owner",
      "outputs": [
        {
          "name": "",
          "type": "address"
        }
      ],
      "payable": false,
      "stateMutability": "view",
      "type": "function"
    },
    {
      "constant": true,
      "inputs": [],
      "name": "unit",
      "outputs": [
        {
          "name": "",
          "type": "uint256"
        }
      ],
      "payable": false,
      "stateMutability": "pure",
      "type": "function"
    },
    {
      "constant": false,
      "inputs": [
        {
          "name": "_beneficiary",
          "type": "address"
        },
        {
          "name": "_disposition",
          "type": "uint256"
        }
      ],
      "name": "addBeneficiary",
      "outputs": [],
      "payable": false,
      "stateMutability": "nonpayable",
      "type": "function"
    },
    {
      "constant": false,
      "inputs": [
        {
          "name": "_destination",
          "type": "address"
        },
        {
          "name": "_value",
          "type": "uint256"
        }
      ],
      "name": "transfer",
      "outputs": [
        {
          "name": "",
          "type": "bool"
        }
      ],
      "payable": false,
      "stateMutability": "nonpayable",
      "type": "function"
    },
    {
      "constant": false,
      "inputs": [],
      "name": "triggerDisposition",
      "outputs": [],
      "payable": false,
      "stateMutability": "nonpayable",
      "type": "function"
    },
    {
      "constant": true,
      "inputs": [
        {
          "name": "_beneficiary",
          "type": "address"
        }
      ],
      "name": "getBeneficiaryIndex",
      "outputs": [
        {
          "name": "",
          "type": "uint256"
        }
      ],
      "payable": false,
      "stateMutability": "view",
      "type": "function"
    },
    {
      "constant": true,
      "inputs": [],
      "name": "totalBeneficiaries",
      "outputs": [
        {
          "name": "",
          "type": "uint256"
        }
      ],
      "payable": false,
      "stateMutability": "view",
      "type": "function"
    },
    {
      "constant": true,
      "inputs": [
        {
          "name": "",
          "type": "address"
        }
      ],
      "name": "disposition",
      "outputs": [
        {
          "name": "",
          "type": "uint256"
        }
      ],
      "payable": false,
      "stateMutability": "view",
      "type": "function"
    },
    {
      "constant": true,
      "inputs": [
        {
          "name": "",
          "type": "uint256"
        }
      ],
      "name": "beneficiaries",
      "outputs": [
        {
          "name": "",
          "type": "address"
        }
      ],
      "payable": false,
      "stateMutability": "view",
      "type": "function"
    },
    {
      "constant": false,
      "inputs": [
        {
          "name": "_newOwner",
          "type": "address"
        }
      ],
      "name": "transferOwnership",
      "outputs": [],
      "payable": false,
      "stateMutability": "nonpayable",
      "type": "function"
    },
    {
      "constant": true,
      "inputs": [],
      "name": "totalDisposed",
      "outputs": [
        {
          "name": "_total",
          "type": "uint256"
        }
      ],
      "payable": false,
      "stateMutability": "view",
      "type": "function"
    },
    {
      "constant": false,
      "inputs": [
        {
          "name": "_beneficiary",
          "type": "address"
        },
        {
          "name": "_disposition",
          "type": "uint256"
        }
      ],
      "name": "updateBeneficiary",
      "outputs": [],
      "payable": false,
      "stateMutability": "nonpayable",
      "type": "function"
    },
    {
      "inputs": [
        {
          "name": "_waitTime",
          "type": "uint256"
        }
      ],
      "payable": false,
      "stateMutability": "nonpayable",
      "type": "constructor"
    },
    {
      "payable": true,
      "stateMutability": "payable",
      "type": "fallback"
    },
    {
      "anonymous": false,
      "inputs": [
        {
          "indexed": false,
          "name": "beneficiary",
          "type": "address"
        },
        {
          "indexed": false,
          "name": "disposition",
          "type": "uint256"
        },
        {
          "indexed": false,
          "name": "timestamp",
          "type": "uint256"
        }
      ],
      "name": "BeneficiaryUpdated",
      "type": "event"
    },
    {
      "anonymous": false,
      "inputs": [
        {
          "indexed": true,
          "name": "previousOwner",
          "type": "address"
        }
      ],
      "name": "OwnershipRenounced",
      "type": "event"
    },
    {
      "anonymous": false,
      "inputs": [
        {
          "indexed": true,
          "name": "previousOwner",
          "type": "address"
        },
        {
          "indexed": true,
          "name": "newOwner",
          "type": "address"
        }
      ],
      "name": "OwnershipTransferred",
      "type": "event"
    }
  ],
  "bytecode": "0x608060405234801561001057600080fd5b506040516020806114d78339810180604052810190808051906020019092919050505080336000806101000a81548173ffffffffffffffffffffffffffffffffffffffff021916908373ffffffffffffffffffffffffffffffffffffffff16021790555060033390806001815401808255809150509060018203906000526020600020016000909192909190916101000a81548173ffffffffffffffffffffffffffffffffffffffff021916908373ffffffffffffffffffffffffffffffffffffffff16021790555050806001819055504260028190555050506113de806100f96000396000f3006080604052600436106100e6576000357c0100000000000000000000000000000000000000000000000000000000900463ffffffff168063282f7cdd146100e857806359633a1c14610117578063715018a61461015a5780637d1a9aac146101715780638da5cb5b146101d7578063907af6c01461022e57806396074e7014610259578063a9059cbb146102a6578063b756feff1461030b578063b914d90814610322578063d01a69c914610379578063dabc57d9146103a4578063efeb5e58146103fb578063f2fde38b14610468578063f48d1c5e146104ab578063fcb9b505146104d6575b005b3480156100f457600080fd5b506100fd610523565b604051808215151515815260200191505060405180910390f35b34801561012357600080fd5b50610158600480360381019080803573ffffffffffffffffffffffffffffffffffffffff169060200190929190505050610544565b005b34801561016657600080fd5b5061016f610800565b005b6101bd600480360381019080803573ffffffffffffffffffffffffffffffffffffffff169060200190929190803590602001909291908035600019169060200190929190505050610902565b604051808215151515815260200191505060405180910390f35b3480156101e357600080fd5b506101ec6109a7565b604051808273ffffffffffffffffffffffffffffffffffffffff1673ffffffffffffffffffffffffffffffffffffffff16815260200191505060405180910390f35b34801561023a57600080fd5b506102436109cc565b6040518082815260200191505060405180910390f35b34801561026557600080fd5b506102a4600480360381019080803573ffffffffffffffffffffffffffffffffffffffff169060200190929190803590602001909291905050506109d8565b005b3480156102b257600080fd5b506102f1600480360381019080803573ffffffffffffffffffffffffffffffffffffffff16906020019092919080359060200190929190505050610b91565b604051808215151515815260200191505060405180910390f35b34801561031757600080fd5b50610320610c3f565b005b34801561032e57600080fd5b50610363600480360381019080803573ffffffffffffffffffffffffffffffffffffffff169060200190929190505050610e4d565b6040518082815260200191505060405180910390f35b34801561038557600080fd5b5061038e610eef565b6040518082815260200191505060405180910390f35b3480156103b057600080fd5b506103e5600480360381019080803573ffffffffffffffffffffffffffffffffffffffff169060200190929190505050610efc565b6040518082815260200191505060405180910390f35b34801561040757600080fd5b5061042660048036038101908080359060200190929190505050610f14565b604051808273ffffffffffffffffffffffffffffffffffffffff1673ffffffffffffffffffffffffffffffffffffffff16815260200191505060405180910390f35b34801561047457600080fd5b506104a9600480360381019080803573ffffffffffffffffffffffffffffffffffffffff169060200190929190505050610f52565b005b3480156104b757600080fd5b506104c0610fb9565b6040518082815260200191505060405180910390f35b3480156104e257600080fd5b50610521600480360381019080803573ffffffffffffffffffffffffffffffffffffffff16906020019092919080359060200190929190505050611087565b005b600060015461053d600254426111e490919063ffffffff16565b1015905090565b60008060009054906101000a900473ffffffffffffffffffffffffffffffffffffffff1673ffffffffffffffffffffffffffffffffffffffff163373ffffffffffffffffffffffffffffffffffffffff161415156105a157600080fd5b60008273ffffffffffffffffffffffffffffffffffffffff16141515156105c757600080fd5b6105d082610e4d565b90508173ffffffffffffffffffffffffffffffffffffffff166003828154811015156105f857fe5b9060005260206000200160009054906101000a900473ffffffffffffffffffffffffffffffffffffffff1673ffffffffffffffffffffffffffffffffffffffff1614151561064257fe5b6000811415151561065257600080fd5b600460008373ffffffffffffffffffffffffffffffffffffffff1673ffffffffffffffffffffffffffffffffffffffff1681526020019081526020016000206000905560036001600380549050038154811015156106ac57fe5b9060005260206000200160009054906101000a900473ffffffffffffffffffffffffffffffffffffffff166003828154811015156106e657fe5b9060005260206000200160006101000a81548173ffffffffffffffffffffffffffffffffffffffff021916908373ffffffffffffffffffffffffffffffffffffffff160217905550600360016003805490500381548110151561074557fe5b9060005260206000200160006101000a81549073ffffffffffffffffffffffffffffffffffffffff021916905560038054809190600190036107879190611361565b507f9d45e2aef20053093589f016fb8deae1cd7bb218eefd02eb5f38ccf22512c8dd82600042604051808473ffffffffffffffffffffffffffffffffffffffff1673ffffffffffffffffffffffffffffffffffffffff168152602001838152602001828152602001935050505060405180910390a15050565b6000809054906101000a900473ffffffffffffffffffffffffffffffffffffffff1673ffffffffffffffffffffffffffffffffffffffff163373ffffffffffffffffffffffffffffffffffffffff1614151561085b57600080fd5b6000809054906101000a900473ffffffffffffffffffffffffffffffffffffffff1673ffffffffffffffffffffffffffffffffffffffff167ff8df31144d9c2f0f6b59d69b8b98abd5459d07f2742c4df920b25aae33c6482060405160405180910390a260008060006101000a81548173ffffffffffffffffffffffffffffffffffffffff021916908373ffffffffffffffffffffffffffffffffffffffff160217905550565b60008060009054906101000a900473ffffffffffffffffffffffffffffffffffffffff1673ffffffffffffffffffffffffffffffffffffffff163373ffffffffffffffffffffffffffffffffffffffff1614151561095f57600080fd5b8373ffffffffffffffffffffffffffffffffffffffff16838360405180826000191660001916815260200191505060006040518083038185875af19250505090509392505050565b6000809054906101000a900473ffffffffffffffffffffffffffffffffffffffff1681565b60006008600a0a905090565b6000809054906101000a900473ffffffffffffffffffffffffffffffffffffffff1673ffffffffffffffffffffffffffffffffffffffff163373ffffffffffffffffffffffffffffffffffffffff16141515610a3357600080fd5b60008273ffffffffffffffffffffffffffffffffffffffff1614151515610a5957600080fd5b6000610a6483610e4d565b141515610a7057600080fd5b80600460008473ffffffffffffffffffffffffffffffffffffffff1673ffffffffffffffffffffffffffffffffffffffff1681526020019081526020016000208190555060038290806001815401808255809150509060018203906000526020600020016000909192909190916101000a81548173ffffffffffffffffffffffffffffffffffffffff021916908373ffffffffffffffffffffffffffffffffffffffff160217905550507f9d45e2aef20053093589f016fb8deae1cd7bb218eefd02eb5f38ccf22512c8dd828242604051808473ffffffffffffffffffffffffffffffffffffffff1673ffffffffffffffffffffffffffffffffffffffff168152602001838152602001828152602001935050505060405180910390a15050565b60008060009054906101000a900473ffffffffffffffffffffffffffffffffffffffff1673ffffffffffffffffffffffffffffffffffffffff163373ffffffffffffffffffffffffffffffffffffffff16141515610bee57600080fd5b8273ffffffffffffffffffffffffffffffffffffffff166108fc839081150290604051600060405180830381858888f19350505050158015610c34573d6000803e3d6000fd5b506001905092915050565b600080610c4a610523565b1515610c5557600080fd5b3073ffffffffffffffffffffffffffffffffffffffff16319150600190505b600380549050811015610db157600381815481101515610c9057fe5b9060005260206000200160009054906101000a900473ffffffffffffffffffffffffffffffffffffffff1673ffffffffffffffffffffffffffffffffffffffff166108fc610d78610cdf6109cc565b610d6a60046000600388815481101515610cf557fe5b9060005260206000200160009054906101000a900473ffffffffffffffffffffffffffffffffffffffff1673ffffffffffffffffffffffffffffffffffffffff1673ffffffffffffffffffffffffffffffffffffffff16815260200190815260200160002054876111fd90919063ffffffff16565b61123590919063ffffffff16565b9081150290604051600060405180830381858888f19350505050158015610da3573d6000803e3d6000fd5b508080600101915050610c74565b60036000815481101515610dc157fe5b9060005260206000200160009054906101000a900473ffffffffffffffffffffffffffffffffffffffff1673ffffffffffffffffffffffffffffffffffffffff166108fc3073ffffffffffffffffffffffffffffffffffffffff16319081150290604051600060405180830381858888f19350505050158015610e48573d6000803e3d6000fd5b505050565b600080600090505b600380549050811015610ee4578273ffffffffffffffffffffffffffffffffffffffff16600382815481101515610e8857fe5b9060005260206000200160009054906101000a900473ffffffffffffffffffffffffffffffffffffffff1673ffffffffffffffffffffffffffffffffffffffff161415610ed757809150610ee9565b8080600101915050610e55565b600091505b50919050565b6000600380549050905090565b60046020528060005260406000206000915090505481565b600381815481101515610f2357fe5b906000526020600020016000915054906101000a900473ffffffffffffffffffffffffffffffffffffffff1681565b6000809054906101000a900473ffffffffffffffffffffffffffffffffffffffff1673ffffffffffffffffffffffffffffffffffffffff163373ffffffffffffffffffffffffffffffffffffffff16141515610fad57600080fd5b610fb68161124b565b50565b600080600090505b60038054905081101561108057611072611063610fdc6109cc565b60046000600386815481101515610fef57fe5b9060005260206000200160009054906101000a900473ffffffffffffffffffffffffffffffffffffffff1673ffffffffffffffffffffffffffffffffffffffff1673ffffffffffffffffffffffffffffffffffffffff1681526020019081526020016000205461123590919063ffffffff16565b8361134590919063ffffffff16565b508080600101915050610fc1565b8191505090565b6000809054906101000a900473ffffffffffffffffffffffffffffffffffffffff1673ffffffffffffffffffffffffffffffffffffffff163373ffffffffffffffffffffffffffffffffffffffff161415156110e257600080fd5b60008273ffffffffffffffffffffffffffffffffffffffff161415151561110857600080fd5b600061111383610e4d565b14156111285761112382826109d8565b6111e0565b80600460008473ffffffffffffffffffffffffffffffffffffffff1673ffffffffffffffffffffffffffffffffffffffff168152602001908152602001600020819055507f9d45e2aef20053093589f016fb8deae1cd7bb218eefd02eb5f38ccf22512c8dd828242604051808473ffffffffffffffffffffffffffffffffffffffff1673ffffffffffffffffffffffffffffffffffffffff168152602001838152602001828152602001935050505060405180910390a15b5050565b60008282111515156111f257fe5b818303905092915050565b600080831415611210576000905061122f565b818302905081838281151561122157fe5b0414151561122b57fe5b8090505b92915050565b6000818381151561124257fe5b04905092915050565b600073ffffffffffffffffffffffffffffffffffffffff168173ffffffffffffffffffffffffffffffffffffffff161415151561128757600080fd5b8073ffffffffffffffffffffffffffffffffffffffff166000809054906101000a900473ffffffffffffffffffffffffffffffffffffffff1673ffffffffffffffffffffffffffffffffffffffff167f8be0079c531659141344cd1fd0a4f28419497f9722a3daafe3b4186f6b6457e060405160405180910390a3806000806101000a81548173ffffffffffffffffffffffffffffffffffffffff021916908373ffffffffffffffffffffffffffffffffffffffff16021790555050565b6000818301905082811015151561135857fe5b80905092915050565b81548183558181111561138857818360005260206000209182019101611387919061138d565b5b505050565b6113af91905b808211156113ab576000816000905550600101611393565b5090565b905600a165627a7a723058209c7a43912d7c3fa4524c9ecbff33b45695a0ccf38beb94964a4ac3f563259b830029",
  "source": "pragma solidity ^0.4.24;\r\n\r\nimport './Will.sol';\r\nimport './Wallet.sol';\r\n\r\n/**\r\n* Vault only instantiation, only focuses on eth value\r\n*/\r\ncontract WillWallet is Will, Wallet {\r\n\r\n  constructor (uint256 _waitTime )\r\n    Will(_waitTime)\r\n    public\r\n  {\r\n  }\r\n}\r\n",
  "sourcePath": "/media/brvhrt/01D3FABF8B9DF9C0/Users/Brvhrt/Downloads/New-folder/cwl/contracts/WillWallet.sol",
  "compiler": {
    "name": "solc",
    "version": "0.4.24+commit.e67f0147.Emscripten.clang"
  },
  "schemaVersion": "2.0.1",
  "updatedAt": "2018-12-19T19:43:56.480Z"
}