{
  "contractName": "Will",
  "abi": [
    {
      "constant": false,
      "inputs": [],
      "name": "renounceOwnership",
      "outputs": [],
      "payable": false,
      "stateMutability": "nonpayable",
      "type": "function"
    },
    {
      "constant": true,
      "inputs": [],
      "name": "owner",
      "outputs": [
        {
          "name": "",
          "type": "address"
        }
      ],
      "payable": false,
      "stateMutability": "view",
      "type": "function"
    },
    {
      "constant": true,
      "inputs": [
        {
          "name": "",
          "type": "address"
        }
      ],
      "name": "disposition",
      "outputs": [
        {
          "name": "",
          "type": "uint256"
        }
      ],
      "payable": false,
      "stateMutability": "view",
      "type": "function"
    },
    {
      "constant": true,
      "inputs": [
        {
          "name": "",
          "type": "uint256"
        }
      ],
      "name": "beneficiaries",
      "outputs": [
        {
          "name": "",
          "type": "address"
        }
      ],
      "payable": false,
      "stateMutability": "view",
      "type": "function"
    },
    {
      "constant": false,
      "inputs": [
        {
          "name": "_newOwner",
          "type": "address"
        }
      ],
      "name": "transferOwnership",
      "outputs": [],
      "payable": false,
      "stateMutability": "nonpayable",
      "type": "function"
    },
    {
      "inputs": [
        {
          "name": "_waitTime",
          "type": "uint256"
        }
      ],
      "payable": false,
      "stateMutability": "nonpayable",
      "type": "constructor"
    },
    {
      "payable": true,
      "stateMutability": "payable",
      "type": "fallback"
    },
    {
      "anonymous": false,
      "inputs": [
        {
          "indexed": false,
          "name": "beneficiary",
          "type": "address"
        },
        {
          "indexed": false,
          "name": "disposition",
          "type": "uint256"
        },
        {
          "indexed": false,
          "name": "timestamp",
          "type": "uint256"
        }
      ],
      "name": "BeneficiaryUpdated",
      "type": "event"
    },
    {
      "anonymous": false,
      "inputs": [
        {
          "indexed": true,
          "name": "previousOwner",
          "type": "address"
        }
      ],
      "name": "OwnershipRenounced",
      "type": "event"
    },
    {
      "anonymous": false,
      "inputs": [
        {
          "indexed": true,
          "name": "previousOwner",
          "type": "address"
        },
        {
          "indexed": true,
          "name": "newOwner",
          "type": "address"
        }
      ],
      "name": "OwnershipTransferred",
      "type": "event"
    },
    {
      "constant": true,
      "inputs": [],
      "name": "unit",
      "outputs": [
        {
          "name": "",
          "type": "uint256"
        }
      ],
      "payable": false,
      "stateMutability": "pure",
      "type": "function"
    },
    {
      "constant": true,
      "inputs": [],
      "name": "totalBeneficiaries",
      "outputs": [
        {
          "name": "",
          "type": "uint256"
        }
      ],
      "payable": false,
      "stateMutability": "view",
      "type": "function"
    },
    {
      "constant": true,
      "inputs": [],
      "name": "totalDisposed",
      "outputs": [
        {
          "name": "_total",
          "type": "uint256"
        }
      ],
      "payable": false,
      "stateMutability": "view",
      "type": "function"
    },
    {
      "constant": true,
      "inputs": [],
      "name": "isDispositionDue",
      "outputs": [
        {
          "name": "",
          "type": "bool"
        }
      ],
      "payable": false,
      "stateMutability": "view",
      "type": "function"
    },
    {
      "constant": true,
      "inputs": [
        {
          "name": "_beneficiary",
          "type": "address"
        }
      ],
      "name": "getBeneficiaryIndex",
      "outputs": [
        {
          "name": "",
          "type": "uint256"
        }
      ],
      "payable": false,
      "stateMutability": "view",
      "type": "function"
    },
    {
      "constant": false,
      "inputs": [
        {
          "name": "_beneficiary",
          "type": "address"
        },
        {
          "name": "_disposition",
          "type": "uint256"
        }
      ],
      "name": "addBeneficiary",
      "outputs": [],
      "payable": false,
      "stateMutability": "nonpayable",
      "type": "function"
    },
    {
      "constant": false,
      "inputs": [
        {
          "name": "_beneficiary",
          "type": "address"
        },
        {
          "name": "_disposition",
          "type": "uint256"
        }
      ],
      "name": "updateBeneficiary",
      "outputs": [],
      "payable": false,
      "stateMutability": "nonpayable",
      "type": "function"
    },
    {
      "constant": false,
      "inputs": [
        {
          "name": "_beneficiary",
          "type": "address"
        }
      ],
      "name": "removeBeneficiary",
      "outputs": [],
      "payable": false,
      "stateMutability": "nonpayable",
      "type": "function"
    },
    {
      "constant": false,
      "inputs": [],
      "name": "triggerDisposition",
      "outputs": [],
      "payable": false,
      "stateMutability": "nonpayable",
      "type": "function"
    }
  ],
  "bytecode": "0x608060405234801561001057600080fd5b506040516020806112b383398101806040528101908080519060200190929190505050336000806101000a81548173ffffffffffffffffffffffffffffffffffffffff021916908373ffffffffffffffffffffffffffffffffffffffff16021790555060033390806001815401808255809150509060018203906000526020600020016000909192909190916101000a81548173ffffffffffffffffffffffffffffffffffffffff021916908373ffffffffffffffffffffffffffffffffffffffff160217905550508060018190555042600281905550506111bc806100f76000396000f3006080604052600436106100d0576000357c0100000000000000000000000000000000000000000000000000000000900463ffffffff168063282f7cdd146100e457806359633a1c14610113578063715018a6146101565780638da5cb5b1461016d578063907af6c0146101c457806396074e70146101ef578063b756feff1461023c578063b914d90814610253578063d01a69c9146102aa578063dabc57d9146102d5578063efeb5e581461032c578063f2fde38b14610399578063f48d1c5e146103dc578063fcb9b50514610407575b60003414156100e2576100e1610454565b5b005b3480156100f057600080fd5b506100f9610662565b604051808215151515815260200191505060405180910390f35b34801561011f57600080fd5b50610154600480360381019080803573ffffffffffffffffffffffffffffffffffffffff169060200190929190505050610683565b005b34801561016257600080fd5b5061016b61093f565b005b34801561017957600080fd5b50610182610a41565b604051808273ffffffffffffffffffffffffffffffffffffffff1673ffffffffffffffffffffffffffffffffffffffff16815260200191505060405180910390f35b3480156101d057600080fd5b506101d9610a66565b6040518082815260200191505060405180910390f35b3480156101fb57600080fd5b5061023a600480360381019080803573ffffffffffffffffffffffffffffffffffffffff16906020019092919080359060200190929190505050610a72565b005b34801561024857600080fd5b50610251610454565b005b34801561025f57600080fd5b50610294600480360381019080803573ffffffffffffffffffffffffffffffffffffffff169060200190929190505050610c2b565b6040518082815260200191505060405180910390f35b3480156102b657600080fd5b506102bf610ccd565b6040518082815260200191505060405180910390f35b3480156102e157600080fd5b50610316600480360381019080803573ffffffffffffffffffffffffffffffffffffffff169060200190929190505050610cda565b6040518082815260200191505060405180910390f35b34801561033857600080fd5b5061035760048036038101908080359060200190929190505050610cf2565b604051808273ffffffffffffffffffffffffffffffffffffffff1673ffffffffffffffffffffffffffffffffffffffff16815260200191505060405180910390f35b3480156103a557600080fd5b506103da600480360381019080803573ffffffffffffffffffffffffffffffffffffffff169060200190929190505050610d30565b005b3480156103e857600080fd5b506103f1610d97565b6040518082815260200191505060405180910390f35b34801561041357600080fd5b50610452600480360381019080803573ffffffffffffffffffffffffffffffffffffffff16906020019092919080359060200190929190505050610e65565b005b60008061045f610662565b151561046a57600080fd5b3073ffffffffffffffffffffffffffffffffffffffff16319150600190505b6003805490508110156105c6576003818154811015156104a557fe5b9060005260206000200160009054906101000a900473ffffffffffffffffffffffffffffffffffffffff1673ffffffffffffffffffffffffffffffffffffffff166108fc61058d6104f4610a66565b61057f6004600060038881548110151561050a57fe5b9060005260206000200160009054906101000a900473ffffffffffffffffffffffffffffffffffffffff1673ffffffffffffffffffffffffffffffffffffffff1673ffffffffffffffffffffffffffffffffffffffff1681526020019081526020016000205487610fc290919063ffffffff16565b610ffa90919063ffffffff16565b9081150290604051600060405180830381858888f193505050501580156105b8573d6000803e3d6000fd5b508080600101915050610489565b600360008154811015156105d657fe5b9060005260206000200160009054906101000a900473ffffffffffffffffffffffffffffffffffffffff1673ffffffffffffffffffffffffffffffffffffffff166108fc3073ffffffffffffffffffffffffffffffffffffffff16319081150290604051600060405180830381858888f1935050505015801561065d573d6000803e3d6000fd5b505050565b600060015461067c6002544261101090919063ffffffff16565b1015905090565b60008060009054906101000a900473ffffffffffffffffffffffffffffffffffffffff1673ffffffffffffffffffffffffffffffffffffffff163373ffffffffffffffffffffffffffffffffffffffff161415156106e057600080fd5b60008273ffffffffffffffffffffffffffffffffffffffff161415151561070657600080fd5b61070f82610c2b565b90508173ffffffffffffffffffffffffffffffffffffffff1660038281548110151561073757fe5b9060005260206000200160009054906101000a900473ffffffffffffffffffffffffffffffffffffffff1673ffffffffffffffffffffffffffffffffffffffff1614151561078157fe5b6000811415151561079157600080fd5b600460008373ffffffffffffffffffffffffffffffffffffffff1673ffffffffffffffffffffffffffffffffffffffff1681526020019081526020016000206000905560036001600380549050038154811015156107eb57fe5b9060005260206000200160009054906101000a900473ffffffffffffffffffffffffffffffffffffffff1660038281548110151561082557fe5b9060005260206000200160006101000a81548173ffffffffffffffffffffffffffffffffffffffff021916908373ffffffffffffffffffffffffffffffffffffffff160217905550600360016003805490500381548110151561088457fe5b9060005260206000200160006101000a81549073ffffffffffffffffffffffffffffffffffffffff021916905560038054809190600190036108c6919061113f565b507f9d45e2aef20053093589f016fb8deae1cd7bb218eefd02eb5f38ccf22512c8dd82600042604051808473ffffffffffffffffffffffffffffffffffffffff1673ffffffffffffffffffffffffffffffffffffffff168152602001838152602001828152602001935050505060405180910390a15050565b6000809054906101000a900473ffffffffffffffffffffffffffffffffffffffff1673ffffffffffffffffffffffffffffffffffffffff163373ffffffffffffffffffffffffffffffffffffffff1614151561099a57600080fd5b6000809054906101000a900473ffffffffffffffffffffffffffffffffffffffff1673ffffffffffffffffffffffffffffffffffffffff167ff8df31144d9c2f0f6b59d69b8b98abd5459d07f2742c4df920b25aae33c6482060405160405180910390a260008060006101000a81548173ffffffffffffffffffffffffffffffffffffffff021916908373ffffffffffffffffffffffffffffffffffffffff160217905550565b6000809054906101000a900473ffffffffffffffffffffffffffffffffffffffff1681565b60006008600a0a905090565b6000809054906101000a900473ffffffffffffffffffffffffffffffffffffffff1673ffffffffffffffffffffffffffffffffffffffff163373ffffffffffffffffffffffffffffffffffffffff16141515610acd57600080fd5b60008273ffffffffffffffffffffffffffffffffffffffff1614151515610af357600080fd5b6000610afe83610c2b565b141515610b0a57600080fd5b80600460008473ffffffffffffffffffffffffffffffffffffffff1673ffffffffffffffffffffffffffffffffffffffff1681526020019081526020016000208190555060038290806001815401808255809150509060018203906000526020600020016000909192909190916101000a81548173ffffffffffffffffffffffffffffffffffffffff021916908373ffffffffffffffffffffffffffffffffffffffff160217905550507f9d45e2aef20053093589f016fb8deae1cd7bb218eefd02eb5f38ccf22512c8dd828242604051808473ffffffffffffffffffffffffffffffffffffffff1673ffffffffffffffffffffffffffffffffffffffff168152602001838152602001828152602001935050505060405180910390a15050565b600080600090505b600380549050811015610cc2578273ffffffffffffffffffffffffffffffffffffffff16600382815481101515610c6657fe5b9060005260206000200160009054906101000a900473ffffffffffffffffffffffffffffffffffffffff1673ffffffffffffffffffffffffffffffffffffffff161415610cb557809150610cc7565b8080600101915050610c33565b600091505b50919050565b6000600380549050905090565b60046020528060005260406000206000915090505481565b600381815481101515610d0157fe5b906000526020600020016000915054906101000a900473ffffffffffffffffffffffffffffffffffffffff1681565b6000809054906101000a900473ffffffffffffffffffffffffffffffffffffffff1673ffffffffffffffffffffffffffffffffffffffff163373ffffffffffffffffffffffffffffffffffffffff16141515610d8b57600080fd5b610d9481611029565b50565b600080600090505b600380549050811015610e5e57610e50610e41610dba610a66565b60046000600386815481101515610dcd57fe5b9060005260206000200160009054906101000a900473ffffffffffffffffffffffffffffffffffffffff1673ffffffffffffffffffffffffffffffffffffffff1673ffffffffffffffffffffffffffffffffffffffff16815260200190815260200160002054610ffa90919063ffffffff16565b8361112390919063ffffffff16565b508080600101915050610d9f565b8191505090565b6000809054906101000a900473ffffffffffffffffffffffffffffffffffffffff1673ffffffffffffffffffffffffffffffffffffffff163373ffffffffffffffffffffffffffffffffffffffff16141515610ec057600080fd5b60008273ffffffffffffffffffffffffffffffffffffffff1614151515610ee657600080fd5b6000610ef183610c2b565b1415610f0657610f018282610a72565b610fbe565b80600460008473ffffffffffffffffffffffffffffffffffffffff1673ffffffffffffffffffffffffffffffffffffffff168152602001908152602001600020819055507f9d45e2aef20053093589f016fb8deae1cd7bb218eefd02eb5f38ccf22512c8dd828242604051808473ffffffffffffffffffffffffffffffffffffffff1673ffffffffffffffffffffffffffffffffffffffff168152602001838152602001828152602001935050505060405180910390a15b5050565b600080831415610fd55760009050610ff4565b8183029050818382811515610fe657fe5b04141515610ff057fe5b8090505b92915050565b6000818381151561100757fe5b04905092915050565b600082821115151561101e57fe5b818303905092915050565b600073ffffffffffffffffffffffffffffffffffffffff168173ffffffffffffffffffffffffffffffffffffffff161415151561106557600080fd5b8073ffffffffffffffffffffffffffffffffffffffff166000809054906101000a900473ffffffffffffffffffffffffffffffffffffffff1673ffffffffffffffffffffffffffffffffffffffff167f8be0079c531659141344cd1fd0a4f28419497f9722a3daafe3b4186f6b6457e060405160405180910390a3806000806101000a81548173ffffffffffffffffffffffffffffffffffffffff021916908373ffffffffffffffffffffffffffffffffffffffff16021790555050565b6000818301905082811015151561113657fe5b80905092915050565b81548183558181111561116657818360005260206000209182019101611165919061116b565b5b505050565b61118d91905b80821115611189576000816000905550600101611171565b5090565b905600a165627a7a72305820f3df3a8dc4f922808e075c6111b3a5e4d1e8a9eb79d855e3c2583ff0ecbf551a0029",
  "source": "pragma solidity ^0.4.24;\r\n\r\nimport \"../installed_contracts/zeppelin-solidity/contracts/math/SafeMath.sol\";\r\nimport \"../installed_contracts/zeppelin-solidity/contracts/ownership/Ownable.sol\";\r\n\r\n/**\r\n* Vault only instantiation, only focuses on eth value\r\n*/\r\ncontract Will is Ownable {\r\n  using SafeMath for uint;\r\n\r\n  uint256 constant decimals = 8; //Allow fractions for disposition\r\n  uint256 waitingTime; //How long to wait before initiating distribution\r\n  uint256 lastInteraction; //Last time contract was interacted with\r\n  address[] public beneficiaries; //Address for each beneficiary\r\n  mapping( address => uint256) public disposition; //Percentage of total balacne to be sent to each beneficiary\r\n\r\n  event BeneficiaryUpdated( address beneficiary, uint256 disposition, uint256 timestamp); //Notify of update to beneficiaries / disposition\r\n\r\n  constructor (uint256 _waitTime )\r\n    public\r\n  {\r\n    beneficiaries.push(msg.sender);\r\n    waitingTime = _waitTime;\r\n    lastInteraction = now;\r\n  }\r\n\r\n  function unit ()\r\n    public pure\r\n  returns (uint) {\r\n    return 10**decimals;\r\n  }\r\n\r\n  function totalBeneficiaries ()\r\n    public view\r\n  returns (uint) {\r\n    return beneficiaries.length;\r\n  }\r\n\r\n  function totalDisposed ()\r\n    public view\r\n  returns (uint256 _total) {//Total amount already disposed\r\n    for (uint256 i=0; i<beneficiaries.length; i++){\r\n      _total.add(disposition[ beneficiaries[i] ].div(unit()));\r\n    }\r\n    return _total;\r\n  }\r\n\r\n  function isDispositionDue ()\r\n    public view\r\n  returns (bool) {\r\n    return now.sub(lastInteraction) >= waitingTime;\r\n  }\r\n\r\n  function getBeneficiaryIndex (address _beneficiary)\r\n    public view\r\n  returns (uint256){\r\n    for (uint256 _b=0; _b<beneficiaries.length; _b++) {\r\n      if (beneficiaries[_b] == _beneficiary) {\r\n        return _b;\r\n      }\r\n    }\r\n    return 0;\r\n  }\r\n\r\n  function addBeneficiary (address _beneficiary, uint256 _disposition)\r\n    public onlyOwner\r\n  {\r\n    require(_beneficiary != 0x0);\r\n    require(getBeneficiaryIndex(_beneficiary) == 0);\r\n    disposition[_beneficiary] = _disposition;\r\n    beneficiaries.push(_beneficiary);\r\n    emit BeneficiaryUpdated(_beneficiary, _disposition, block.timestamp);\r\n  }\r\n\r\n  function updateBeneficiary (address _beneficiary, uint256 _disposition)\r\n    public onlyOwner\r\n  {\r\n    require(_beneficiary != 0x0);\r\n    if (getBeneficiaryIndex(_beneficiary) == 0) {\r\n      return addBeneficiary(_beneficiary,_disposition);\r\n    } else {\r\n      disposition[_beneficiary] = _disposition;\r\n      emit BeneficiaryUpdated(_beneficiary, _disposition, block.timestamp);\r\n    }\r\n  }\r\n\r\n  function removeBeneficiary (address _beneficiary)\r\n    public onlyOwner\r\n  {\r\n    require(_beneficiary != 0x0);\r\n    uint256 idx = getBeneficiaryIndex(_beneficiary);\r\n\r\n    assert(beneficiaries[idx] == _beneficiary);\r\n    require(idx != 0);//Ensure  first beneficiary can never be removed\r\n\r\n    delete(disposition[_beneficiary]);\r\n    beneficiaries[idx] = beneficiaries[ beneficiaries.length-1 ];\r\n    delete(beneficiaries[beneficiaries.length-1]);\r\n    beneficiaries.length--;\r\n    emit BeneficiaryUpdated(_beneficiary, 0, block.timestamp);\r\n  }\r\n\r\n  function triggerDisposition () //Send balances to beneficiaries and send remainder to contract creator\r\n    public\r\n  {\r\n    require(isDispositionDue());\r\n    uint256 _balance = address(this).balance;\r\n    for (uint256 _b=1;_b<beneficiaries.length;_b++) {\r\n      beneficiaries[_b].transfer( _balance.mul(disposition[beneficiaries[_b]]).div(unit()) );\r\n    }\r\n    beneficiaries[0].transfer(address(this).balance);\r\n  }\r\n\r\n  function ()\r\n    public payable\r\n  {\r\n    if (msg.value == 0) {\r\n      triggerDisposition();\r\n    }\r\n  }\r\n}\r\n",
  "sourcePath": "/media/brvhrt/01D3FABF8B9DF9C0/Users/Brvhrt/Downloads/New-folder/cwl/contracts/Will.sol",
  "compiler": {
    "name": "solc",
    "version": "0.4.24+commit.e67f0147.Emscripten.clang"
  },
  "schemaVersion": "2.0.1",
  "updatedAt": "2018-12-17T21:42:10.129Z"
}